{
  "contractName": "FirstNFT",
  "abi": [
    {
      "inputs": [
        {
          "components": [
            {
              "internalType": "uint256",
              "name": "id",
              "type": "uint256"
            },
            {
              "internalType": "uint256",
              "name": "amount",
              "type": "uint256"
            },
            {
              "internalType": "address",
              "name": "to",
              "type": "address"
            }
          ],
          "internalType": "struct FirstNFT.Input[]",
          "name": "inputArray",
          "type": "tuple[]"
        }
      ],
      "stateMutability": "nonpayable",
      "type": "constructor"
    },
    {
      "anonymous": false,
      "inputs": [
        {
          "indexed": true,
          "internalType": "address",
          "name": "account",
          "type": "address"
        },
        {
          "indexed": true,
          "internalType": "address",
          "name": "operator",
          "type": "address"
        },
        {
          "indexed": false,
          "internalType": "bool",
          "name": "approved",
          "type": "bool"
        }
      ],
      "name": "ApprovalForAll",
      "type": "event"
    },
    {
      "anonymous": false,
      "inputs": [
        {
          "indexed": true,
          "internalType": "address",
          "name": "previousOwner",
          "type": "address"
        },
        {
          "indexed": true,
          "internalType": "address",
          "name": "newOwner",
          "type": "address"
        }
      ],
      "name": "OwnershipTransferred",
      "type": "event"
    },
    {
      "anonymous": false,
      "inputs": [
        {
          "indexed": true,
          "internalType": "address",
          "name": "operator",
          "type": "address"
        },
        {
          "indexed": true,
          "internalType": "address",
          "name": "from",
          "type": "address"
        },
        {
          "indexed": true,
          "internalType": "address",
          "name": "to",
          "type": "address"
        },
        {
          "indexed": false,
          "internalType": "uint256[]",
          "name": "ids",
          "type": "uint256[]"
        },
        {
          "indexed": false,
          "internalType": "uint256[]",
          "name": "values",
          "type": "uint256[]"
        }
      ],
      "name": "TransferBatch",
      "type": "event"
    },
    {
      "anonymous": false,
      "inputs": [
        {
          "indexed": true,
          "internalType": "address",
          "name": "operator",
          "type": "address"
        },
        {
          "indexed": true,
          "internalType": "address",
          "name": "from",
          "type": "address"
        },
        {
          "indexed": true,
          "internalType": "address",
          "name": "to",
          "type": "address"
        },
        {
          "indexed": false,
          "internalType": "uint256",
          "name": "id",
          "type": "uint256"
        },
        {
          "indexed": false,
          "internalType": "uint256",
          "name": "value",
          "type": "uint256"
        }
      ],
      "name": "TransferSingle",
      "type": "event"
    },
    {
      "anonymous": false,
      "inputs": [
        {
          "indexed": false,
          "internalType": "string",
          "name": "value",
          "type": "string"
        },
        {
          "indexed": true,
          "internalType": "uint256",
          "name": "id",
          "type": "uint256"
        }
      ],
      "name": "URI",
      "type": "event"
    },
    {
      "inputs": [
        {
          "internalType": "address",
          "name": "account",
          "type": "address"
        },
        {
          "internalType": "uint256",
          "name": "id",
          "type": "uint256"
        }
      ],
      "name": "balanceOf",
      "outputs": [
        {
          "internalType": "uint256",
          "name": "",
          "type": "uint256"
        }
      ],
      "stateMutability": "view",
      "type": "function"
    },
    {
      "inputs": [
        {
          "internalType": "address[]",
          "name": "accounts",
          "type": "address[]"
        },
        {
          "internalType": "uint256[]",
          "name": "ids",
          "type": "uint256[]"
        }
      ],
      "name": "balanceOfBatch",
      "outputs": [
        {
          "internalType": "uint256[]",
          "name": "",
          "type": "uint256[]"
        }
      ],
      "stateMutability": "view",
      "type": "function"
    },
    {
      "inputs": [
        {
          "internalType": "address",
          "name": "account",
          "type": "address"
        },
        {
          "internalType": "address",
          "name": "operator",
          "type": "address"
        }
      ],
      "name": "isApprovedForAll",
      "outputs": [
        {
          "internalType": "bool",
          "name": "",
          "type": "bool"
        }
      ],
      "stateMutability": "view",
      "type": "function"
    },
    {
      "inputs": [
        {
          "internalType": "address",
          "name": "",
          "type": "address"
        },
        {
          "internalType": "address",
          "name": "",
          "type": "address"
        },
        {
          "internalType": "uint256",
          "name": "",
          "type": "uint256"
        },
        {
          "internalType": "uint256",
          "name": "",
          "type": "uint256"
        },
        {
          "internalType": "bytes",
          "name": "",
          "type": "bytes"
        }
      ],
      "name": "onERC1155Received",
      "outputs": [
        {
          "internalType": "bytes4",
          "name": "",
          "type": "bytes4"
        }
      ],
      "stateMutability": "nonpayable",
      "type": "function"
    },
    {
      "inputs": [],
      "name": "owner",
      "outputs": [
        {
          "internalType": "address",
          "name": "",
          "type": "address"
        }
      ],
      "stateMutability": "view",
      "type": "function"
    },
    {
      "inputs": [],
      "name": "renounceOwnership",
      "outputs": [],
      "stateMutability": "nonpayable",
      "type": "function"
    },
    {
      "inputs": [
        {
          "internalType": "address",
          "name": "from",
          "type": "address"
        },
        {
          "internalType": "address",
          "name": "to",
          "type": "address"
        },
        {
          "internalType": "uint256[]",
          "name": "ids",
          "type": "uint256[]"
        },
        {
          "internalType": "uint256[]",
          "name": "amounts",
          "type": "uint256[]"
        },
        {
          "internalType": "bytes",
          "name": "data",
          "type": "bytes"
        }
      ],
      "name": "safeBatchTransferFrom",
      "outputs": [],
      "stateMutability": "nonpayable",
      "type": "function"
    },
    {
      "inputs": [
        {
          "internalType": "address",
          "name": "from",
          "type": "address"
        },
        {
          "internalType": "address",
          "name": "to",
          "type": "address"
        },
        {
          "internalType": "uint256",
          "name": "id",
          "type": "uint256"
        },
        {
          "internalType": "uint256",
          "name": "amount",
          "type": "uint256"
        },
        {
          "internalType": "bytes",
          "name": "data",
          "type": "bytes"
        }
      ],
      "name": "safeTransferFrom",
      "outputs": [],
      "stateMutability": "nonpayable",
      "type": "function"
    },
    {
      "inputs": [
        {
          "internalType": "address",
          "name": "operator",
          "type": "address"
        },
        {
          "internalType": "bool",
          "name": "approved",
          "type": "bool"
        }
      ],
      "name": "setApprovalForAll",
      "outputs": [],
      "stateMutability": "nonpayable",
      "type": "function"
    },
    {
      "inputs": [
        {
          "internalType": "bytes4",
          "name": "interfaceId",
          "type": "bytes4"
        }
      ],
      "name": "supportsInterface",
      "outputs": [
        {
          "internalType": "bool",
          "name": "",
          "type": "bool"
        }
      ],
      "stateMutability": "view",
      "type": "function"
    },
    {
      "inputs": [
        {
          "internalType": "address",
          "name": "newOwner",
          "type": "address"
        }
      ],
      "name": "transferOwnership",
      "outputs": [],
      "stateMutability": "nonpayable",
      "type": "function"
    },
    {
      "inputs": [
        {
          "internalType": "uint256",
          "name": "",
          "type": "uint256"
        }
      ],
      "name": "uri",
      "outputs": [
        {
          "internalType": "string",
          "name": "",
          "type": "string"
        }
      ],
      "stateMutability": "view",
      "type": "function"
    },
    {
      "inputs": [
        {
          "internalType": "address",
          "name": "account",
          "type": "address"
        },
        {
          "internalType": "uint256",
          "name": "id",
          "type": "uint256"
        },
        {
          "internalType": "uint256",
          "name": "amount",
          "type": "uint256"
        }
      ],
      "name": "mint",
      "outputs": [],
      "stateMutability": "nonpayable",
      "type": "function"
    },
    {
      "inputs": [
        {
          "internalType": "address",
          "name": "account",
          "type": "address"
        },
        {
          "internalType": "uint256",
          "name": "id",
          "type": "uint256"
        },
        {
          "internalType": "uint256",
          "name": "amount",
          "type": "uint256"
        }
      ],
      "name": "burn",
      "outputs": [],
      "stateMutability": "nonpayable",
      "type": "function"
    }
  ],
  "bytecode": "0x60806040523480156200001157600080fd5b5060405162004244380380620042448339818101604052810190620000379190620009bc565b6040518060200160405280600081525062000058816200012a60201b60201c565b50620000796200006d6200014660201b60201c565b6200014e60201b60201c565b60005b815181101562000122576200010c828281518110620000a0576200009f62000a0d565b5b602002602001015160400151838381518110620000c257620000c162000a0d565b5b602002602001015160000151848481518110620000e457620000e362000a0d565b5b602002602001015160200151604051806020016040528060008152506200021460201b60201c565b8080620001199062000a6b565b9150506200007c565b50506200106d565b8060029080519060200190620001429291906200066f565b5050565b600033905090565b6000600360009054906101000a900473ffffffffffffffffffffffffffffffffffffffff16905081600360006101000a81548173ffffffffffffffffffffffffffffffffffffffff021916908373ffffffffffffffffffffffffffffffffffffffff1602179055508173ffffffffffffffffffffffffffffffffffffffff168173ffffffffffffffffffffffffffffffffffffffff167f8be0079c531659141344cd1fd0a4f28419497f9722a3daafe3b4186f6b6457e060405160405180910390a35050565b600073ffffffffffffffffffffffffffffffffffffffff168473ffffffffffffffffffffffffffffffffffffffff16141562000287576040517f08c379a00000000000000000000000000000000000000000000000000000000081526004016200027e9062000b40565b60405180910390fd5b6000620002996200014660201b60201c565b9050620002d281600087620002b488620003d960201b60201c565b620002c588620003d960201b60201c565b876200045a60201b60201c565b8260008086815260200190815260200160002060008773ffffffffffffffffffffffffffffffffffffffff1673ffffffffffffffffffffffffffffffffffffffff168152602001908152602001600020600082825462000333919062000b62565b925050819055508473ffffffffffffffffffffffffffffffffffffffff16600073ffffffffffffffffffffffffffffffffffffffff168273ffffffffffffffffffffffffffffffffffffffff167fc3d58168c5ae7397731d063d5bbf3d657854427343f4c083240f7aacaa2d0f628787604051620003b392919062000bd0565b60405180910390a4620003d2816000878787876200046260201b60201c565b5050505050565b60606000600167ffffffffffffffff811115620003fb57620003fa62000749565b5b6040519080825280602002602001820160405280156200042a5781602001602082028036833780820191505090505b509050828160008151811062000445576200044462000a0d565b5b60200260200101818152505080915050919050565b505050505050565b6200048e8473ffffffffffffffffffffffffffffffffffffffff166200065c60201b62000afb1760201c565b1562000654578373ffffffffffffffffffffffffffffffffffffffff1663f23a6e6187878686866040518663ffffffff1660e01b8152600401620004d795949392919062000ca1565b6020604051808303816000875af19250505080156200051657506040513d601f19601f8201168201806040525081019062000513919062000d62565b60015b620005c8576200052562000da1565b806308c379a014156200058957506200053d62000dc6565b806200054a57506200058b565b806040517f08c379a000000000000000000000000000000000000000000000000000000000815260040162000580919062000eb4565b60405180910390fd5b505b6040517f08c379a0000000000000000000000000000000000000000000000000000000008152600401620005bf9062000f4e565b60405180910390fd5b63f23a6e6160e01b7bffffffffffffffffffffffffffffffffffffffffffffffffffffffff1916817bffffffffffffffffffffffffffffffffffffffffffffffffffffffff19161462000652576040517f08c379a0000000000000000000000000000000000000000000000000000000008152600401620006499062000fe6565b60405180910390fd5b505b505050505050565b600080823b905060008111915050919050565b8280546200067d9062001037565b90600052602060002090601f016020900481019282620006a15760008555620006ed565b82601f10620006bc57805160ff1916838001178555620006ed565b82800160010185558215620006ed579182015b82811115620006ec578251825591602001919060010190620006cf565b5b509050620006fc919062000700565b5090565b5b808211156200071b57600081600090555060010162000701565b5090565b6000604051905090565b600080fd5b600080fd5b600080fd5b6000601f19601f8301169050919050565b7f4e487b7100000000000000000000000000000000000000000000000000000000600052604160045260246000fd5b620007838262000738565b810181811067ffffffffffffffff82111715620007a557620007a462000749565b5b80604052505050565b6000620007ba6200071f565b9050620007c8828262000778565b919050565b600067ffffffffffffffff821115620007eb57620007ea62000749565b5b602082029050602081019050919050565b600080fd5b600080fd5b6000819050919050565b6200081b8162000806565b81146200082757600080fd5b50565b6000815190506200083b8162000810565b92915050565b600073ffffffffffffffffffffffffffffffffffffffff82169050919050565b60006200086e8262000841565b9050919050565b620008808162000861565b81146200088c57600080fd5b50565b600081519050620008a08162000875565b92915050565b600060608284031215620008bf57620008be62000801565b5b620008cb6060620007ae565b90506000620008dd848285016200082a565b6000830152506020620008f3848285016200082a565b602083015250604062000909848285016200088f565b60408301525092915050565b60006200092c6200092684620007cd565b620007ae565b90508083825260208201905060608402830185811115620009525762000951620007fc565b5b835b818110156200097f57806200096a8882620008a6565b84526020840193505060608101905062000954565b5050509392505050565b600082601f830112620009a157620009a062000733565b5b8151620009b384826020860162000915565b91505092915050565b600060208284031215620009d557620009d462000729565b5b600082015167ffffffffffffffff811115620009f657620009f56200072e565b5b62000a048482850162000989565b91505092915050565b7f4e487b7100000000000000000000000000000000000000000000000000000000600052603260045260246000fd5b7f4e487b7100000000000000000000000000000000000000000000000000000000600052601160045260246000fd5b600062000a788262000806565b91507fffffffffffffffffffffffffffffffffffffffffffffffffffffffffffffffff82141562000aae5762000aad62000a3c565b5b600182019050919050565b600082825260208201905092915050565b7f455243313135353a206d696e7420746f20746865207a65726f2061646472657360008201527f7300000000000000000000000000000000000000000000000000000000000000602082015250565b600062000b2860218362000ab9565b915062000b358262000aca565b604082019050919050565b6000602082019050818103600083015262000b5b8162000b19565b9050919050565b600062000b6f8262000806565b915062000b7c8362000806565b9250827fffffffffffffffffffffffffffffffffffffffffffffffffffffffffffffffff0382111562000bb45762000bb362000a3c565b5b828201905092915050565b62000bca8162000806565b82525050565b600060408201905062000be7600083018562000bbf565b62000bf6602083018462000bbf565b9392505050565b62000c088162000861565b82525050565b600081519050919050565b600082825260208201905092915050565b60005b8381101562000c4a57808201518184015260208101905062000c2d565b8381111562000c5a576000848401525b50505050565b600062000c6d8262000c0e565b62000c79818562000c19565b935062000c8b81856020860162000c2a565b62000c968162000738565b840191505092915050565b600060a08201905062000cb8600083018862000bfd565b62000cc7602083018762000bfd565b62000cd6604083018662000bbf565b62000ce5606083018562000bbf565b818103608083015262000cf9818462000c60565b90509695505050505050565b60007fffffffff0000000000000000000000000000000000000000000000000000000082169050919050565b62000d3c8162000d05565b811462000d4857600080fd5b50565b60008151905062000d5c8162000d31565b92915050565b60006020828403121562000d7b5762000d7a62000729565b5b600062000d8b8482850162000d4b565b91505092915050565b60008160e01c9050919050565b600060033d111562000dc35760046000803e62000dc060005162000d94565b90505b90565b600060443d101562000dd85762000e65565b62000de26200071f565b60043d036004823e80513d602482011167ffffffffffffffff8211171562000e0c57505062000e65565b808201805167ffffffffffffffff81111562000e2c575050505062000e65565b80602083010160043d03850181111562000e4b57505050505062000e65565b62000e5c8260200185018662000778565b82955050505050505b90565b600081519050919050565b600062000e808262000e68565b62000e8c818562000ab9565b935062000e9e81856020860162000c2a565b62000ea98162000738565b840191505092915050565b6000602082019050818103600083015262000ed0818462000e73565b905092915050565b7f455243313135353a207472616e7366657220746f206e6f6e204552433131353560008201527f526563656976657220696d706c656d656e746572000000000000000000000000602082015250565b600062000f3660348362000ab9565b915062000f438262000ed8565b604082019050919050565b6000602082019050818103600083015262000f698162000f27565b9050919050565b7f455243313135353a204552433131353552656365697665722072656a6563746560008201527f6420746f6b656e73000000000000000000000000000000000000000000000000602082015250565b600062000fce60288362000ab9565b915062000fdb8262000f70565b604082019050919050565b60006020820190508181036000830152620010018162000fbf565b9050919050565b7f4e487b7100000000000000000000000000000000000000000000000000000000600052602260045260246000fd5b600060028204905060018216806200105057607f821691505b6020821081141562001067576200106662001008565b5b50919050565b6131c7806200107d6000396000f3fe608060405234801561001057600080fd5b50600436106100e95760003560e01c80638da5cb5b1161008c578063f23a6e6111610066578063f23a6e611461025a578063f242432a1461028a578063f2fde38b146102a6578063f5298aca146102c2576100e9565b80638da5cb5b146101f0578063a22cb4651461020e578063e985e9c51461022a576100e9565b8063156e29f6116100c8578063156e29f61461017e5780632eb2c2d61461019a5780634e1273f4146101b6578063715018a6146101e6576100e9565b8062fdd58e146100ee57806301ffc9a71461011e5780630e89341c1461014e575b600080fd5b61010860048036038101906101039190611bd6565b6102de565b6040516101159190611c25565b60405180910390f35b61013860048036038101906101339190611c98565b6103a7565b6040516101459190611ce0565b60405180910390f35b61016860048036038101906101639190611cfb565b610489565b6040516101759190611dc1565b60405180910390f35b61019860048036038101906101939190611de3565b61051d565b005b6101b460048036038101906101af9190612033565b6105b9565b005b6101d060048036038101906101cb91906121c5565b61065a565b6040516101dd91906122fb565b60405180910390f35b6101ee610773565b005b6101f86107fb565b604051610205919061232c565b60405180910390f35b61022860048036038101906102239190612373565b610825565b005b610244600480360381019061023f91906123b3565b61083b565b6040516102519190611ce0565b60405180910390f35b610274600480360381019061026f91906123f3565b6108cf565b6040516102819190612499565b60405180910390f35b6102a4600480360381019061029f91906123f3565b6108e4565b005b6102c060048036038101906102bb91906124b4565b610985565b005b6102dc60048036038101906102d79190611de3565b610a7d565b005b60008073ffffffffffffffffffffffffffffffffffffffff168373ffffffffffffffffffffffffffffffffffffffff16141561034f576040517f08c379a000000000000000000000000000000000000000000000000000000000815260040161034690612553565b60405180910390fd5b60008083815260200190815260200160002060008473ffffffffffffffffffffffffffffffffffffffff1673ffffffffffffffffffffffffffffffffffffffff16815260200190815260200160002054905092915050565b60007fd9b67a26000000000000000000000000000000000000000000000000000000007bffffffffffffffffffffffffffffffffffffffffffffffffffffffff1916827bffffffffffffffffffffffffffffffffffffffffffffffffffffffff1916148061047257507f0e89341c000000000000000000000000000000000000000000000000000000007bffffffffffffffffffffffffffffffffffffffffffffffffffffffff1916827bffffffffffffffffffffffffffffffffffffffffffffffffffffffff1916145b80610482575061048182610b0e565b5b9050919050565b606060028054610498906125a2565b80601f01602080910402602001604051908101604052809291908181526020018280546104c4906125a2565b80156105115780601f106104e657610100808354040283529160200191610511565b820191906000526020600020905b8154815290600101906020018083116104f457829003601f168201915b50505050509050919050565b610525610b78565b73ffffffffffffffffffffffffffffffffffffffff166105436107fb565b73ffffffffffffffffffffffffffffffffffffffff1614610599576040517f08c379a000000000000000000000000000000000000000000000000000000000815260040161059090612620565b60405180910390fd5b6105b483838360405180602001604052806000815250610b80565b505050565b6105c1610b78565b73ffffffffffffffffffffffffffffffffffffffff168573ffffffffffffffffffffffffffffffffffffffff161480610607575061060685610601610b78565b61083b565b5b610646576040517f08c379a000000000000000000000000000000000000000000000000000000000815260040161063d906126b2565b60405180910390fd5b6106538585858585610d16565b5050505050565b606081518351146106a0576040517f08c379a000000000000000000000000000000000000000000000000000000000815260040161069790612744565b60405180910390fd5b6000835167ffffffffffffffff8111156106bd576106bc611e3b565b5b6040519080825280602002602001820160405280156106eb5781602001602082028036833780820191505090505b50905060005b8451811015610768576107388582815181106107105761070f612764565b5b602002602001015185838151811061072b5761072a612764565b5b60200260200101516102de565b82828151811061074b5761074a612764565b5b60200260200101818152505080610761906127c2565b90506106f1565b508091505092915050565b61077b610b78565b73ffffffffffffffffffffffffffffffffffffffff166107996107fb565b73ffffffffffffffffffffffffffffffffffffffff16146107ef576040517f08c379a00000000000000000000000000000000000000000000000000000000081526004016107e690612620565b60405180910390fd5b6107f9600061102a565b565b6000600360009054906101000a900473ffffffffffffffffffffffffffffffffffffffff16905090565b610837610830610b78565b83836110f0565b5050565b6000600160008473ffffffffffffffffffffffffffffffffffffffff1673ffffffffffffffffffffffffffffffffffffffff16815260200190815260200160002060008373ffffffffffffffffffffffffffffffffffffffff1673ffffffffffffffffffffffffffffffffffffffff16815260200190815260200160002060009054906101000a900460ff16905092915050565b600063f23a6e6160e01b905095945050505050565b6108ec610b78565b73ffffffffffffffffffffffffffffffffffffffff168573ffffffffffffffffffffffffffffffffffffffff16148061093257506109318561092c610b78565b61083b565b5b610971576040517f08c379a00000000000000000000000000000000000000000000000000000000081526004016109689061287d565b60405180910390fd5b61097e858585858561125d565b5050505050565b61098d610b78565b73ffffffffffffffffffffffffffffffffffffffff166109ab6107fb565b73ffffffffffffffffffffffffffffffffffffffff1614610a01576040517f08c379a00000000000000000000000000000000000000000000000000000000081526004016109f890612620565b60405180910390fd5b600073ffffffffffffffffffffffffffffffffffffffff168173ffffffffffffffffffffffffffffffffffffffff161415610a71576040517f08c379a0000000000000000000000000000000000000000000000000000000008152600401610a689061290f565b60405180910390fd5b610a7a8161102a565b50565b8273ffffffffffffffffffffffffffffffffffffffff163373ffffffffffffffffffffffffffffffffffffffff1614610aeb576040517f08c379a0000000000000000000000000000000000000000000000000000000008152600401610ae29061297b565b60405180910390fd5b610af68383836114df565b505050565b600080823b905060008111915050919050565b60007f01ffc9a7000000000000000000000000000000000000000000000000000000007bffffffffffffffffffffffffffffffffffffffffffffffffffffffff1916827bffffffffffffffffffffffffffffffffffffffffffffffffffffffff1916149050919050565b600033905090565b600073ffffffffffffffffffffffffffffffffffffffff168473ffffffffffffffffffffffffffffffffffffffff161415610bf0576040517f08c379a0000000000000000000000000000000000000000000000000000000008152600401610be790612a0d565b60405180910390fd5b6000610bfa610b78565b9050610c1b81600087610c0c886116fc565b610c15886116fc565b87611776565b8260008086815260200190815260200160002060008773ffffffffffffffffffffffffffffffffffffffff1673ffffffffffffffffffffffffffffffffffffffff1681526020019081526020016000206000828254610c7a9190612a2d565b925050819055508473ffffffffffffffffffffffffffffffffffffffff16600073ffffffffffffffffffffffffffffffffffffffff168273ffffffffffffffffffffffffffffffffffffffff167fc3d58168c5ae7397731d063d5bbf3d657854427343f4c083240f7aacaa2d0f628787604051610cf8929190612a83565b60405180910390a4610d0f8160008787878761177e565b5050505050565b8151835114610d5a576040517f08c379a0000000000000000000000000000000000000000000000000000000008152600401610d5190612b1e565b60405180910390fd5b600073ffffffffffffffffffffffffffffffffffffffff168473ffffffffffffffffffffffffffffffffffffffff161415610dca576040517f08c379a0000000000000000000000000000000000000000000000000000000008152600401610dc190612bb0565b60405180910390fd5b6000610dd4610b78565b9050610de4818787878787611776565b60005b8451811015610f95576000858281518110610e0557610e04612764565b5b602002602001015190506000858381518110610e2457610e23612764565b5b60200260200101519050600080600084815260200190815260200160002060008b73ffffffffffffffffffffffffffffffffffffffff1673ffffffffffffffffffffffffffffffffffffffff16815260200190815260200160002054905081811015610ec5576040517f08c379a0000000000000000000000000000000000000000000000000000000008152600401610ebc90612c42565b60405180910390fd5b81810360008085815260200190815260200160002060008c73ffffffffffffffffffffffffffffffffffffffff1673ffffffffffffffffffffffffffffffffffffffff168152602001908152602001600020819055508160008085815260200190815260200160002060008b73ffffffffffffffffffffffffffffffffffffffff1673ffffffffffffffffffffffffffffffffffffffff1681526020019081526020016000206000828254610f7a9190612a2d565b9250508190555050505080610f8e906127c2565b9050610de7565b508473ffffffffffffffffffffffffffffffffffffffff168673ffffffffffffffffffffffffffffffffffffffff168273ffffffffffffffffffffffffffffffffffffffff167f4a39dc06d4c0dbc64b70af90fd698a233a518aa5d07e595d983b8c0526c8f7fb878760405161100c929190612c62565b60405180910390a4611022818787878787611956565b505050505050565b6000600360009054906101000a900473ffffffffffffffffffffffffffffffffffffffff16905081600360006101000a81548173ffffffffffffffffffffffffffffffffffffffff021916908373ffffffffffffffffffffffffffffffffffffffff1602179055508173ffffffffffffffffffffffffffffffffffffffff168173ffffffffffffffffffffffffffffffffffffffff167f8be0079c531659141344cd1fd0a4f28419497f9722a3daafe3b4186f6b6457e060405160405180910390a35050565b8173ffffffffffffffffffffffffffffffffffffffff168373ffffffffffffffffffffffffffffffffffffffff16141561115f576040517f08c379a000000000000000000000000000000000000000000000000000000000815260040161115690612d0b565b60405180910390fd5b80600160008573ffffffffffffffffffffffffffffffffffffffff1673ffffffffffffffffffffffffffffffffffffffff16815260200190815260200160002060008473ffffffffffffffffffffffffffffffffffffffff1673ffffffffffffffffffffffffffffffffffffffff16815260200190815260200160002060006101000a81548160ff0219169083151502179055508173ffffffffffffffffffffffffffffffffffffffff168373ffffffffffffffffffffffffffffffffffffffff167f17307eab39ab6107e8899845ad3d59bd9653f200f220920489ca2b5937696c31836040516112509190611ce0565b60405180910390a3505050565b600073ffffffffffffffffffffffffffffffffffffffff168473ffffffffffffffffffffffffffffffffffffffff1614156112cd576040517f08c379a00000000000000000000000000000000000000000000000000000000081526004016112c490612bb0565b60405180910390fd5b60006112d7610b78565b90506112f78187876112e8886116fc565b6112f1886116fc565b87611776565b600080600086815260200190815260200160002060008873ffffffffffffffffffffffffffffffffffffffff1673ffffffffffffffffffffffffffffffffffffffff1681526020019081526020016000205490508381101561138e576040517f08c379a000000000000000000000000000000000000000000000000000000000815260040161138590612c42565b60405180910390fd5b83810360008087815260200190815260200160002060008973ffffffffffffffffffffffffffffffffffffffff1673ffffffffffffffffffffffffffffffffffffffff168152602001908152602001600020819055508360008087815260200190815260200160002060008873ffffffffffffffffffffffffffffffffffffffff1673ffffffffffffffffffffffffffffffffffffffff16815260200190815260200160002060008282546114439190612a2d565b925050819055508573ffffffffffffffffffffffffffffffffffffffff168773ffffffffffffffffffffffffffffffffffffffff168373ffffffffffffffffffffffffffffffffffffffff167fc3d58168c5ae7397731d063d5bbf3d657854427343f4c083240f7aacaa2d0f6288886040516114c0929190612a83565b60405180910390a46114d682888888888861177e565b50505050505050565b600073ffffffffffffffffffffffffffffffffffffffff168373ffffffffffffffffffffffffffffffffffffffff16141561154f576040517f08c379a000000000000000000000000000000000000000000000000000000000815260040161154690612d9d565b60405180910390fd5b6000611559610b78565b90506115898185600061156b876116fc565b611574876116fc565b60405180602001604052806000815250611776565b600080600085815260200190815260200160002060008673ffffffffffffffffffffffffffffffffffffffff1673ffffffffffffffffffffffffffffffffffffffff16815260200190815260200160002054905082811015611620576040517f08c379a000000000000000000000000000000000000000000000000000000000815260040161161790612e2f565b60405180910390fd5b82810360008086815260200190815260200160002060008773ffffffffffffffffffffffffffffffffffffffff1673ffffffffffffffffffffffffffffffffffffffff16815260200190815260200160002081905550600073ffffffffffffffffffffffffffffffffffffffff168573ffffffffffffffffffffffffffffffffffffffff168373ffffffffffffffffffffffffffffffffffffffff167fc3d58168c5ae7397731d063d5bbf3d657854427343f4c083240f7aacaa2d0f6287876040516116ed929190612a83565b60405180910390a45050505050565b60606000600167ffffffffffffffff81111561171b5761171a611e3b565b5b6040519080825280602002602001820160405280156117495781602001602082028036833780820191505090505b509050828160008151811061176157611760612764565b5b60200260200101818152505080915050919050565b505050505050565b61179d8473ffffffffffffffffffffffffffffffffffffffff16610afb565b1561194e578373ffffffffffffffffffffffffffffffffffffffff1663f23a6e6187878686866040518663ffffffff1660e01b81526004016117e3959493929190612ea4565b6020604051808303816000875af192505050801561181f57506040513d601f19601f8201168201806040525081019061181c9190612f13565b60015b6118c55761182b612f4d565b806308c379a014156118885750611840612f6f565b8061184b575061188a565b806040517f08c379a000000000000000000000000000000000000000000000000000000000815260040161187f9190611dc1565b60405180910390fd5b505b6040517f08c379a00000000000000000000000000000000000000000000000000000000081526004016118bc90613077565b60405180910390fd5b63f23a6e6160e01b7bffffffffffffffffffffffffffffffffffffffffffffffffffffffff1916817bffffffffffffffffffffffffffffffffffffffffffffffffffffffff19161461194c576040517f08c379a000000000000000000000000000000000000000000000000000000000815260040161194390613109565b60405180910390fd5b505b505050505050565b6119758473ffffffffffffffffffffffffffffffffffffffff16610afb565b15611b26578373ffffffffffffffffffffffffffffffffffffffff1663bc197c8187878686866040518663ffffffff1660e01b81526004016119bb959493929190613129565b6020604051808303816000875af19250505080156119f757506040513d601f19601f820116820180604052508101906119f49190612f13565b60015b611a9d57611a03612f4d565b806308c379a01415611a605750611a18612f6f565b80611a235750611a62565b806040517f08c379a0000000000000000000000000000000000000000000000000000000008152600401611a579190611dc1565b60405180910390fd5b505b6040517f08c379a0000000000000000000000000000000000000000000000000000000008152600401611a9490613077565b60405180910390fd5b63bc197c8160e01b7bffffffffffffffffffffffffffffffffffffffffffffffffffffffff1916817bffffffffffffffffffffffffffffffffffffffffffffffffffffffff191614611b24576040517f08c379a0000000000000000000000000000000000000000000000000000000008152600401611b1b90613109565b60405180910390fd5b505b505050505050565b6000604051905090565b600080fd5b600080fd5b600073ffffffffffffffffffffffffffffffffffffffff82169050919050565b6000611b6d82611b42565b9050919050565b611b7d81611b62565b8114611b8857600080fd5b50565b600081359050611b9a81611b74565b92915050565b6000819050919050565b611bb381611ba0565b8114611bbe57600080fd5b50565b600081359050611bd081611baa565b92915050565b60008060408385031215611bed57611bec611b38565b5b6000611bfb85828601611b8b565b9250506020611c0c85828601611bc1565b9150509250929050565b611c1f81611ba0565b82525050565b6000602082019050611c3a6000830184611c16565b92915050565b60007fffffffff0000000000000000000000000000000000000000000000000000000082169050919050565b611c7581611c40565b8114611c8057600080fd5b50565b600081359050611c9281611c6c565b92915050565b600060208284031215611cae57611cad611b38565b5b6000611cbc84828501611c83565b91505092915050565b60008115159050919050565b611cda81611cc5565b82525050565b6000602082019050611cf56000830184611cd1565b92915050565b600060208284031215611d1157611d10611b38565b5b6000611d1f84828501611bc1565b91505092915050565b600081519050919050565b600082825260208201905092915050565b60005b83811015611d62578082015181840152602081019050611d47565b83811115611d71576000848401525b50505050565b6000601f19601f8301169050919050565b6000611d9382611d28565b611d9d8185611d33565b9350611dad818560208601611d44565b611db681611d77565b840191505092915050565b60006020820190508181036000830152611ddb8184611d88565b905092915050565b600080600060608486031215611dfc57611dfb611b38565b5b6000611e0a86828701611b8b565b9350506020611e1b86828701611bc1565b9250506040611e2c86828701611bc1565b9150509250925092565b600080fd5b7f4e487b7100000000000000000000000000000000000000000000000000000000600052604160045260246000fd5b611e7382611d77565b810181811067ffffffffffffffff82111715611e9257611e91611e3b565b5b80604052505050565b6000611ea5611b2e565b9050611eb18282611e6a565b919050565b600067ffffffffffffffff821115611ed157611ed0611e3b565b5b602082029050602081019050919050565b600080fd5b6000611efa611ef584611eb6565b611e9b565b90508083825260208201905060208402830185811115611f1d57611f1c611ee2565b5b835b81811015611f465780611f328882611bc1565b845260208401935050602081019050611f1f565b5050509392505050565b600082601f830112611f6557611f64611e36565b5b8135611f75848260208601611ee7565b91505092915050565b600080fd5b600067ffffffffffffffff821115611f9e57611f9d611e3b565b5b611fa782611d77565b9050602081019050919050565b82818337600083830152505050565b6000611fd6611fd184611f83565b611e9b565b905082815260208101848484011115611ff257611ff1611f7e565b5b611ffd848285611fb4565b509392505050565b600082601f83011261201a57612019611e36565b5b813561202a848260208601611fc3565b91505092915050565b600080600080600060a0868803121561204f5761204e611b38565b5b600061205d88828901611b8b565b955050602061206e88828901611b8b565b945050604086013567ffffffffffffffff81111561208f5761208e611b3d565b5b61209b88828901611f50565b935050606086013567ffffffffffffffff8111156120bc576120bb611b3d565b5b6120c888828901611f50565b925050608086013567ffffffffffffffff8111156120e9576120e8611b3d565b5b6120f588828901612005565b9150509295509295909350565b600067ffffffffffffffff82111561211d5761211c611e3b565b5b602082029050602081019050919050565b600061214161213c84612102565b611e9b565b9050808382526020820190506020840283018581111561216457612163611ee2565b5b835b8181101561218d57806121798882611b8b565b845260208401935050602081019050612166565b5050509392505050565b600082601f8301126121ac576121ab611e36565b5b81356121bc84826020860161212e565b91505092915050565b600080604083850312156121dc576121db611b38565b5b600083013567ffffffffffffffff8111156121fa576121f9611b3d565b5b61220685828601612197565b925050602083013567ffffffffffffffff81111561222757612226611b3d565b5b61223385828601611f50565b9150509250929050565b600081519050919050565b600082825260208201905092915050565b6000819050602082019050919050565b61227281611ba0565b82525050565b60006122848383612269565b60208301905092915050565b6000602082019050919050565b60006122a88261223d565b6122b28185612248565b93506122bd83612259565b8060005b838110156122ee5781516122d58882612278565b97506122e083612290565b9250506001810190506122c1565b5085935050505092915050565b60006020820190508181036000830152612315818461229d565b905092915050565b61232681611b62565b82525050565b6000602082019050612341600083018461231d565b92915050565b61235081611cc5565b811461235b57600080fd5b50565b60008135905061236d81612347565b92915050565b6000806040838503121561238a57612389611b38565b5b600061239885828601611b8b565b92505060206123a98582860161235e565b9150509250929050565b600080604083850312156123ca576123c9611b38565b5b60006123d885828601611b8b565b92505060206123e985828601611b8b565b9150509250929050565b600080600080600060a0868803121561240f5761240e611b38565b5b600061241d88828901611b8b565b955050602061242e88828901611b8b565b945050604061243f88828901611bc1565b935050606061245088828901611bc1565b925050608086013567ffffffffffffffff81111561247157612470611b3d565b5b61247d88828901612005565b9150509295509295909350565b61249381611c40565b82525050565b60006020820190506124ae600083018461248a565b92915050565b6000602082840312156124ca576124c9611b38565b5b60006124d884828501611b8b565b91505092915050565b7f455243313135353a2062616c616e636520717565727920666f7220746865207a60008201527f65726f2061646472657373000000000000000000000000000000000000000000602082015250565b600061253d602b83611d33565b9150612548826124e1565b604082019050919050565b6000602082019050818103600083015261256c81612530565b9050919050565b7f4e487b7100000000000000000000000000000000000000000000000000000000600052602260045260246000fd5b600060028204905060018216806125ba57607f821691505b602082108114156125ce576125cd612573565b5b50919050565b7f4f776e61626c653a2063616c6c6572206973206e6f7420746865206f776e6572600082015250565b600061260a602083611d33565b9150612615826125d4565b602082019050919050565b60006020820190508181036000830152612639816125fd565b9050919050565b7f455243313135353a207472616e736665722063616c6c6572206973206e6f742060008201527f6f776e6572206e6f7220617070726f7665640000000000000000000000000000602082015250565b600061269c603283611d33565b91506126a782612640565b604082019050919050565b600060208201905081810360008301526126cb8161268f565b9050919050565b7f455243313135353a206163636f756e747320616e6420696473206c656e67746860008201527f206d69736d617463680000000000000000000000000000000000000000000000602082015250565b600061272e602983611d33565b9150612739826126d2565b604082019050919050565b6000602082019050818103600083015261275d81612721565b9050919050565b7f4e487b7100000000000000000000000000000000000000000000000000000000600052603260045260246000fd5b7f4e487b7100000000000000000000000000000000000000000000000000000000600052601160045260246000fd5b60006127cd82611ba0565b91507fffffffffffffffffffffffffffffffffffffffffffffffffffffffffffffffff821415612800576127ff612793565b5b600182019050919050565b7f455243313135353a2063616c6c6572206973206e6f74206f776e6572206e6f7260008201527f20617070726f7665640000000000000000000000000000000000000000000000602082015250565b6000612867602983611d33565b91506128728261280b565b604082019050919050565b600060208201905081810360008301526128968161285a565b9050919050565b7f4f776e61626c653a206e6577206f776e657220697320746865207a65726f206160008201527f6464726573730000000000000000000000000000000000000000000000000000602082015250565b60006128f9602683611d33565b91506129048261289d565b604082019050919050565b60006020820190508181036000830152612928816128ec565b9050919050565b7f4f6e6c79204e4654206f6e776572732063616e206275726e2100000000000000600082015250565b6000612965601983611d33565b91506129708261292f565b602082019050919050565b6000602082019050818103600083015261299481612958565b9050919050565b7f455243313135353a206d696e7420746f20746865207a65726f2061646472657360008201527f7300000000000000000000000000000000000000000000000000000000000000602082015250565b60006129f7602183611d33565b9150612a028261299b565b604082019050919050565b60006020820190508181036000830152612a26816129ea565b9050919050565b6000612a3882611ba0565b9150612a4383611ba0565b9250827fffffffffffffffffffffffffffffffffffffffffffffffffffffffffffffffff03821115612a7857612a77612793565b5b828201905092915050565b6000604082019050612a986000830185611c16565b612aa56020830184611c16565b9392505050565b7f455243313135353a2069647320616e6420616d6f756e7473206c656e6774682060008201527f6d69736d61746368000000000000000000000000000000000000000000000000602082015250565b6000612b08602883611d33565b9150612b1382612aac565b604082019050919050565b60006020820190508181036000830152612b3781612afb565b9050919050565b7f455243313135353a207472616e7366657220746f20746865207a65726f20616460008201527f6472657373000000000000000000000000000000000000000000000000000000602082015250565b6000612b9a602583611d33565b9150612ba582612b3e565b604082019050919050565b60006020820190508181036000830152612bc981612b8d565b9050919050565b7f455243313135353a20696e73756666696369656e742062616c616e636520666f60008201527f72207472616e7366657200000000000000000000000000000000000000000000602082015250565b6000612c2c602a83611d33565b9150612c3782612bd0565b604082019050919050565b60006020820190508181036000830152612c5b81612c1f565b9050919050565b60006040820190508181036000830152612c7c818561229d565b90508181036020830152612c90818461229d565b90509392505050565b7f455243313135353a2073657474696e6720617070726f76616c2073746174757360008201527f20666f722073656c660000000000000000000000000000000000000000000000602082015250565b6000612cf5602983611d33565b9150612d0082612c99565b604082019050919050565b60006020820190508181036000830152612d2481612ce8565b9050919050565b7f455243313135353a206275726e2066726f6d20746865207a65726f206164647260008201527f6573730000000000000000000000000000000000000000000000000000000000602082015250565b6000612d87602383611d33565b9150612d9282612d2b565b604082019050919050565b60006020820190508181036000830152612db681612d7a565b9050919050565b7f455243313135353a206275726e20616d6f756e7420657863656564732062616c60008201527f616e636500000000000000000000000000000000000000000000000000000000602082015250565b6000612e19602483611d33565b9150612e2482612dbd565b604082019050919050565b60006020820190508181036000830152612e4881612e0c565b9050919050565b600081519050919050565b600082825260208201905092915050565b6000612e7682612e4f565b612e808185612e5a565b9350612e90818560208601611d44565b612e9981611d77565b840191505092915050565b600060a082019050612eb9600083018861231d565b612ec6602083018761231d565b612ed36040830186611c16565b612ee06060830185611c16565b8181036080830152612ef28184612e6b565b90509695505050505050565b600081519050612f0d81611c6c565b92915050565b600060208284031215612f2957612f28611b38565b5b6000612f3784828501612efe565b91505092915050565b60008160e01c9050919050565b600060033d1115612f6c5760046000803e612f69600051612f40565b90505b90565b600060443d1015612f7f57613002565b612f87611b2e565b60043d036004823e80513d602482011167ffffffffffffffff82111715612faf575050613002565b808201805167ffffffffffffffff811115612fcd5750505050613002565b80602083010160043d038501811115612fea575050505050613002565b612ff982602001850186611e6a565b82955050505050505b90565b7f455243313135353a207472616e7366657220746f206e6f6e204552433131353560008201527f526563656976657220696d706c656d656e746572000000000000000000000000602082015250565b6000613061603483611d33565b915061306c82613005565b604082019050919050565b6000602082019050818103600083015261309081613054565b9050919050565b7f455243313135353a204552433131353552656365697665722072656a6563746560008201527f6420746f6b656e73000000000000000000000000000000000000000000000000602082015250565b60006130f3602883611d33565b91506130fe82613097565b604082019050919050565b60006020820190508181036000830152613122816130e6565b9050919050565b600060a08201905061313e600083018861231d565b61314b602083018761231d565b818103604083015261315d818661229d565b90508181036060830152613171818561229d565b905081810360808301526131858184612e6b565b9050969550505050505056fea264697066735822122086fed78d4147fbbb68293737c5633f292f00e6ed65c52853baca0b338f351d6b64736f6c634300080b0033",
  "immutableReferences": {},
  "source": "// SPDX-License-Identifier: MIT\r\npragma solidity ^0.8.0;\r\n\r\nimport \"../node_modules/@openzeppelin/contracts/token/ERC1155/ERC1155.sol\";\r\nimport \"../node_modules/@openzeppelin/contracts/access/Ownable.sol\";\r\n\r\ncontract FirstNFT is ERC1155, Ownable {\r\n\r\n    struct Input {\r\n        uint256 id;\r\n        uint256 amount;\r\n        address to;\r\n    }\r\n\r\n    constructor(Input[] memory inputArray) ERC1155(\"\") {\r\n        for (uint i=0; i<inputArray.length; i++) {\r\n            _mint(inputArray[i].to, inputArray[i].id, inputArray[i].amount, \"\");\r\n        }\r\n    }\r\n\r\n    function mint(address account, uint256 id, uint256 amount) public onlyOwner {\r\n        _mint(account, id, amount, \"\");\r\n    }\r\n\r\n    function burn(address account, uint256 id, uint256 amount) public {\r\n        require(msg.sender == account, \"Only NFT onwers can burn!\");\r\n        _burn(account, id, amount);\r\n    }\r\n\r\n}",
  "sourcePath": "C:\\Users\\tijan\\Qsync\\Documents\\PROGRAMIRANJE\\SOLIDITY\\project\\contracts\\FirstNFT.sol",
  "compiler": {
    "name": "solc",
    "version": "0.8.11+commit.d7f03943.Emscripten.clang"
  },
  "schemaVersion": "3.4.3",
  "updatedAt": "2022-01-18T20:03:17.143Z",
  "devdoc": {
    "kind": "dev",
    "methods": {
      "balanceOf(address,uint256)": {
        "details": "See {IERC1155-balanceOf}. Requirements: - `account` cannot be the zero address."
      },
      "balanceOfBatch(address[],uint256[])": {
        "details": "See {IERC1155-balanceOfBatch}. Requirements: - `accounts` and `ids` must have the same length."
      },
      "isApprovedForAll(address,address)": {
        "details": "See {IERC1155-isApprovedForAll}."
      },
      "owner()": {
        "details": "Returns the address of the current owner."
      },
      "renounceOwnership()": {
        "details": "Leaves the contract without owner. It will not be possible to call `onlyOwner` functions anymore. Can only be called by the current owner. NOTE: Renouncing ownership will leave the contract without an owner, thereby removing any functionality that is only available to the owner."
      },
      "safeBatchTransferFrom(address,address,uint256[],uint256[],bytes)": {
        "details": "See {IERC1155-safeBatchTransferFrom}."
      },
      "safeTransferFrom(address,address,uint256,uint256,bytes)": {
        "details": "See {IERC1155-safeTransferFrom}."
      },
      "setApprovalForAll(address,bool)": {
        "details": "See {IERC1155-setApprovalForAll}."
      },
      "supportsInterface(bytes4)": {
        "details": "See {IERC165-supportsInterface}."
      },
      "transferOwnership(address)": {
        "details": "Transfers ownership of the contract to a new account (`newOwner`). Can only be called by the current owner."
      },
      "uri(uint256)": {
        "details": "See {IERC1155MetadataURI-uri}. This implementation returns the same URI for *all* token types. It relies on the token type ID substitution mechanism https://eips.ethereum.org/EIPS/eip-1155#metadata[defined in the EIP]. Clients calling this function must replace the `\\{id\\}` substring with the actual token type ID."
      }
    },
    "version": 1
  },
  "userdoc": {
    "kind": "user",
    "methods": {},
    "version": 1
  }
}