{
  "contractName": "Marketplace",
  "abi": [
    {
      "anonymous": false,
      "inputs": [
        {
          "indexed": true,
          "internalType": "address",
          "name": "previousOwner",
          "type": "address"
        },
        {
          "indexed": true,
          "internalType": "address",
          "name": "newOwner",
          "type": "address"
        }
      ],
      "name": "OwnershipTransferred",
      "type": "event"
    },
    {
      "anonymous": false,
      "inputs": [
        {
          "indexed": false,
          "internalType": "address",
          "name": "contractAddress",
          "type": "address"
        },
        {
          "indexed": false,
          "internalType": "address",
          "name": "seller",
          "type": "address"
        },
        {
          "indexed": false,
          "internalType": "uint256",
          "name": "tokenId",
          "type": "uint256"
        },
        {
          "indexed": false,
          "internalType": "uint256",
          "name": "amount",
          "type": "uint256"
        },
        {
          "indexed": false,
          "internalType": "uint256",
          "name": "pricePerToken",
          "type": "uint256"
        },
        {
          "indexed": false,
          "internalType": "address[]",
          "name": "privateBuyer",
          "type": "address[]"
        },
        {
          "indexed": false,
          "internalType": "bool",
          "name": "privateSale",
          "type": "bool"
        },
        {
          "indexed": false,
          "internalType": "uint256",
          "name": "listingId",
          "type": "uint256"
        }
      ],
      "name": "TokenListed",
      "type": "event"
    },
    {
      "anonymous": false,
      "inputs": [
        {
          "indexed": false,
          "internalType": "address",
          "name": "contractAddress",
          "type": "address"
        },
        {
          "indexed": false,
          "internalType": "address",
          "name": "seller",
          "type": "address"
        },
        {
          "indexed": false,
          "internalType": "address",
          "name": "buyer",
          "type": "address"
        },
        {
          "indexed": false,
          "internalType": "uint256",
          "name": "tokenId",
          "type": "uint256"
        },
        {
          "indexed": false,
          "internalType": "uint256",
          "name": "amount",
          "type": "uint256"
        },
        {
          "indexed": false,
          "internalType": "uint256",
          "name": "pricePerToken",
          "type": "uint256"
        },
        {
          "indexed": false,
          "internalType": "bool",
          "name": "privateSale",
          "type": "bool"
        }
      ],
      "name": "TokenSold",
      "type": "event"
    },
    {
      "inputs": [],
      "name": "owner",
      "outputs": [
        {
          "internalType": "address",
          "name": "",
          "type": "address"
        }
      ],
      "stateMutability": "view",
      "type": "function",
      "constant": true
    },
    {
      "inputs": [],
      "name": "renounceOwnership",
      "outputs": [],
      "stateMutability": "nonpayable",
      "type": "function"
    },
    {
      "inputs": [
        {
          "internalType": "address",
          "name": "newOwner",
          "type": "address"
        }
      ],
      "name": "transferOwnership",
      "outputs": [],
      "stateMutability": "nonpayable",
      "type": "function"
    },
    {
      "inputs": [
        {
          "internalType": "address",
          "name": "contractAddress",
          "type": "address"
        },
        {
          "internalType": "uint256",
          "name": "tokenId",
          "type": "uint256"
        },
        {
          "internalType": "uint256",
          "name": "amount",
          "type": "uint256"
        },
        {
          "internalType": "uint256",
          "name": "price",
          "type": "uint256"
        },
        {
          "internalType": "address[]",
          "name": "privateBuyer",
          "type": "address[]"
        }
      ],
      "name": "listToken",
      "outputs": [
        {
          "internalType": "uint256",
          "name": "",
          "type": "uint256"
        }
      ],
      "stateMutability": "nonpayable",
      "type": "function"
    },
    {
      "inputs": [
        {
          "internalType": "uint256",
          "name": "listingId",
          "type": "uint256"
        },
        {
          "internalType": "uint256",
          "name": "amount",
          "type": "uint256"
        }
      ],
      "name": "purchaseToken",
      "outputs": [],
      "stateMutability": "payable",
      "type": "function",
      "payable": true
    },
    {
      "inputs": [],
      "name": "viewAllListings",
      "outputs": [
        {
          "components": [
            {
              "internalType": "address",
              "name": "contractAddress",
              "type": "address"
            },
            {
              "internalType": "address",
              "name": "seller",
              "type": "address"
            },
            {
              "internalType": "address[]",
              "name": "buyer",
              "type": "address[]"
            },
            {
              "internalType": "uint256",
              "name": "tokenId",
              "type": "uint256"
            },
            {
              "internalType": "uint256",
              "name": "amount",
              "type": "uint256"
            },
            {
              "internalType": "uint256",
              "name": "price",
              "type": "uint256"
            },
            {
              "internalType": "uint256",
              "name": "tokensAvailable",
              "type": "uint256"
            },
            {
              "internalType": "bool",
              "name": "privateListing",
              "type": "bool"
            },
            {
              "internalType": "bool",
              "name": "completed",
              "type": "bool"
            }
          ],
          "internalType": "struct Marketplace.Listing[]",
          "name": "",
          "type": "tuple[]"
        }
      ],
      "stateMutability": "view",
      "type": "function",
      "constant": true
    },
    {
      "inputs": [
        {
          "internalType": "uint256",
          "name": "_id",
          "type": "uint256"
        }
      ],
      "name": "viewListingById",
      "outputs": [
        {
          "components": [
            {
              "internalType": "address",
              "name": "contractAddress",
              "type": "address"
            },
            {
              "internalType": "address",
              "name": "seller",
              "type": "address"
            },
            {
              "internalType": "address[]",
              "name": "buyer",
              "type": "address[]"
            },
            {
              "internalType": "uint256",
              "name": "tokenId",
              "type": "uint256"
            },
            {
              "internalType": "uint256",
              "name": "amount",
              "type": "uint256"
            },
            {
              "internalType": "uint256",
              "name": "price",
              "type": "uint256"
            },
            {
              "internalType": "uint256",
              "name": "tokensAvailable",
              "type": "uint256"
            },
            {
              "internalType": "bool",
              "name": "privateListing",
              "type": "bool"
            },
            {
              "internalType": "bool",
              "name": "completed",
              "type": "bool"
            }
          ],
          "internalType": "struct Marketplace.Listing",
          "name": "",
          "type": "tuple"
        }
      ],
      "stateMutability": "view",
      "type": "function",
      "constant": true
    },
    {
      "inputs": [],
      "name": "viewStats",
      "outputs": [
        {
          "components": [
            {
              "internalType": "uint256",
              "name": "volume",
              "type": "uint256"
            },
            {
              "internalType": "uint256",
              "name": "itemsSold",
              "type": "uint256"
            }
          ],
          "internalType": "struct Marketplace.Stats",
          "name": "",
          "type": "tuple"
        }
      ],
      "stateMutability": "view",
      "type": "function",
      "constant": true
    },
    {
      "inputs": [],
      "name": "withdrawFees",
      "outputs": [],
      "stateMutability": "nonpayable",
      "type": "function"
    }
  ],
  "bytecode": "0x60806040523480156200001157600080fd5b5062000032620000266200003f60201b60201c565b6200004760201b60201c565b600180819055506200010b565b600033905090565b60008060009054906101000a900473ffffffffffffffffffffffffffffffffffffffff169050816000806101000a81548173ffffffffffffffffffffffffffffffffffffffff021916908373ffffffffffffffffffffffffffffffffffffffff1602179055508173ffffffffffffffffffffffffffffffffffffffff168173ffffffffffffffffffffffffffffffffffffffff167f8be0079c531659141344cd1fd0a4f28419497f9722a3daafe3b4186f6b6457e060405160405180910390a35050565b612b49806200011b6000396000f3fe6080604052600436106100865760003560e01c80638da5cb5b116100595780638da5cb5b14610100578063ab7c88ba1461012b578063c4599b2214610156578063f2fde38b14610193578063f80a14b3146101bc57610086565b8063301c5b901461008b578063476343ee146100a7578063715018a6146100be57806381fab025146100d5575b600080fd5b6100a560048036038101906100a091906119cf565b6101f9565b005b3480156100b357600080fd5b506100bc610a79565b005b3480156100ca57600080fd5b506100d3610b93565b005b3480156100e157600080fd5b506100ea610c1b565b6040516100f79190611cb0565b60405180910390f35b34801561010c57600080fd5b50610115610e13565b6040516101229190611ce1565b60405180910390f35b34801561013757600080fd5b50610140610e3c565b60405161014d9190611d2b565b60405180910390f35b34801561016257600080fd5b5061017d60048036038101906101789190611d46565b610e69565b60405161018a9190611e38565b60405180910390f35b34801561019f57600080fd5b506101ba60048036038101906101b59190611e86565b61102f565b005b3480156101c857600080fd5b506101e360048036038101906101de919061200c565b611127565b6040516101f091906120b2565b60405180910390f35b6002600154141561023f576040517f08c379a00000000000000000000000000000000000000000000000000000000081526004016102369061212a565b60405180910390fd5b600260018190555060006005600084815260200190815260200160002060000160009054906101000a900473ffffffffffffffffffffffffffffffffffffffff169050600115156005600085815260200190815260200160002060070160009054906101000a900460ff16151514156103bf576000805b6005600086815260200190815260200160002060020180549050811015610375573373ffffffffffffffffffffffffffffffffffffffff166005600087815260200190815260200160002060020182815481106103165761031561214a565b5b9060005260206000200160009054906101000a900473ffffffffffffffffffffffffffffffffffffffff1673ffffffffffffffffffffffffffffffffffffffff16141561036257600191505b808061036d906121a8565b9150506102b6565b5060011515811515146103bd576040517f08c379a00000000000000000000000000000000000000000000000000000000081526004016103b49061223d565b60405180910390fd5b505b6005600084815260200190815260200160002060010160009054906101000a900473ffffffffffffffffffffffffffffffffffffffff1673ffffffffffffffffffffffffffffffffffffffff163373ffffffffffffffffffffffffffffffffffffffff161415610464576040517f08c379a000000000000000000000000000000000000000000000000000000000815260040161045b906122a9565b60405180910390fd5b81600560008581526020019081526020016000206005015461048691906122c9565b3410156104c8576040517f08c379a00000000000000000000000000000000000000000000000000000000081526004016104bf9061236f565b60405180910390fd5b818173ffffffffffffffffffffffffffffffffffffffff1662fdd58e6005600087815260200190815260200160002060010160009054906101000a900473ffffffffffffffffffffffffffffffffffffffff1660056000888152602001908152602001600020600301546040518363ffffffff1660e01b815260040161054f92919061238f565b602060405180830381865afa15801561056c573d6000803e3d6000fd5b505050506040513d601f19601f8201168201806040525081019061059091906123cd565b10156105d1576040517f08c379a00000000000000000000000000000000000000000000000000000000081526004016105c89061246c565b60405180910390fd5b600015156005600085815260200190815260200160002060070160019054906101000a900460ff1615151461063b576040517f08c379a0000000000000000000000000000000000000000000000000000000008152600401610632906124d8565b60405180910390fd5b8160056000858152602001908152602001600020600601541015610694576040517f08c379a000000000000000000000000000000000000000000000000000000000815260040161068b90612544565b60405180910390fd5b61069e6003611706565b8160056000858152602001908152602001600020600501546106c091906122c9565b600460008282546106d19190612564565b92505081905550816005600085815260200190815260200160002060060160008282546106fe91906125ba565b92505081905550600015156005600085815260200190815260200160002060070160009054906101000a900460ff16151514156107ad5760056000848152602001908152602001600020600201339080600181540180825580915050600190039060005260206000200160009091909190916101000a81548173ffffffffffffffffffffffffffffffffffffffff021916908373ffffffffffffffffffffffffffffffffffffffff1602179055505b6000600560008581526020019081526020016000206006015414156107fc5760016005600085815260200190815260200160002060070160016101000a81548160ff0219169083151502179055505b7f765802dc5ad39e08f0aea7b3815cd1e0de8ab690a596190a723092423de2dee76005600085815260200190815260200160002060000160009054906101000a900473ffffffffffffffffffffffffffffffffffffffff166005600086815260200190815260200160002060010160009054906101000a900473ffffffffffffffffffffffffffffffffffffffff1633600560008881526020019081526020016000206003015486600560008a815260200190815260200160002060050154600560008b815260200190815260200160002060070160009054906101000a900460ff166040516108f297969594939291906125fd565b60405180910390a18073ffffffffffffffffffffffffffffffffffffffff1663f242432a6005600086815260200190815260200160002060010160009054906101000a900473ffffffffffffffffffffffffffffffffffffffff16336005600088815260200190815260200160002060030154866040518563ffffffff1660e01b815260040161098594939291906126a3565b600060405180830381600087803b15801561099f57600080fd5b505af11580156109b3573d6000803e3d6000fd5b505050506005600084815260200190815260200160002060010160009054906101000a900473ffffffffffffffffffffffffffffffffffffffff1673ffffffffffffffffffffffffffffffffffffffff166108fc60316032856005600089815260200190815260200160002060050154610a2d91906122c9565b610a37919061272a565b610a4191906122c9565b9081150290604051600060405180830381858888f19350505050158015610a6c573d6000803e3d6000fd5b5050600180819055505050565b610a8161171c565b73ffffffffffffffffffffffffffffffffffffffff16610a9f610e13565b73ffffffffffffffffffffffffffffffffffffffff1614610af5576040517f08c379a0000000000000000000000000000000000000000000000000000000008152600401610aec906127a7565b60405180910390fd5b60026001541415610b3b576040517f08c379a0000000000000000000000000000000000000000000000000000000008152600401610b329061212a565b60405180910390fd5b60026001819055503373ffffffffffffffffffffffffffffffffffffffff166108fc479081150290604051600060405180830381858888f19350505050158015610b89573d6000803e3d6000fd5b5060018081905550565b610b9b61171c565b73ffffffffffffffffffffffffffffffffffffffff16610bb9610e13565b73ffffffffffffffffffffffffffffffffffffffff1614610c0f576040517f08c379a0000000000000000000000000000000000000000000000000000000008152600401610c06906127a7565b60405180910390fd5b610c196000611724565b565b60606006805480602002602001604051908101604052809291908181526020016000905b82821015610e0a5783829060005260206000209060080201604051806101200160405290816000820160009054906101000a900473ffffffffffffffffffffffffffffffffffffffff1673ffffffffffffffffffffffffffffffffffffffff1673ffffffffffffffffffffffffffffffffffffffff1681526020016001820160009054906101000a900473ffffffffffffffffffffffffffffffffffffffff1673ffffffffffffffffffffffffffffffffffffffff1673ffffffffffffffffffffffffffffffffffffffff16815260200160028201805480602002602001604051908101604052809291908181526020018280548015610d9457602002820191906000526020600020905b8160009054906101000a900473ffffffffffffffffffffffffffffffffffffffff1673ffffffffffffffffffffffffffffffffffffffff1681526020019060010190808311610d4a575b50505050508152602001600382015481526020016004820154815260200160058201548152602001600682015481526020016007820160009054906101000a900460ff161515151581526020016007820160019054906101000a900460ff16151515158152505081526020019060010190610c3f565b50505050905090565b60008060009054906101000a900473ffffffffffffffffffffffffffffffffffffffff16905090565b610e446117f6565b60405180604001604052806004548152602001610e6160036117e8565b815250905090565b610e71611810565b60056000838152602001908152602001600020604051806101200160405290816000820160009054906101000a900473ffffffffffffffffffffffffffffffffffffffff1673ffffffffffffffffffffffffffffffffffffffff1673ffffffffffffffffffffffffffffffffffffffff1681526020016001820160009054906101000a900473ffffffffffffffffffffffffffffffffffffffff1673ffffffffffffffffffffffffffffffffffffffff1673ffffffffffffffffffffffffffffffffffffffff16815260200160028201805480602002602001604051908101604052809291908181526020018280548015610fc157602002820191906000526020600020905b8160009054906101000a900473ffffffffffffffffffffffffffffffffffffffff1673ffffffffffffffffffffffffffffffffffffffff1681526020019060010190808311610f77575b50505050508152602001600382015481526020016004820154815260200160058201548152602001600682015481526020016007820160009054906101000a900460ff161515151581526020016007820160019054906101000a900460ff1615151515815250509050919050565b61103761171c565b73ffffffffffffffffffffffffffffffffffffffff16611055610e13565b73ffffffffffffffffffffffffffffffffffffffff16146110ab576040517f08c379a00000000000000000000000000000000000000000000000000000000081526004016110a2906127a7565b60405180910390fd5b600073ffffffffffffffffffffffffffffffffffffffff168173ffffffffffffffffffffffffffffffffffffffff16141561111b576040517f08c379a000000000000000000000000000000000000000000000000000000000815260040161111290612839565b60405180910390fd5b61112481611724565b50565b60006002600154141561116f576040517f08c379a00000000000000000000000000000000000000000000000000000000081526004016111669061212a565b60405180910390fd5b60026001819055506000869050600085116111bf576040517f08c379a00000000000000000000000000000000000000000000000000000000081526004016111b6906128a5565b60405180910390fd5b848173ffffffffffffffffffffffffffffffffffffffff1662fdd58e33896040518363ffffffff1660e01b81526004016111fa92919061238f565b602060405180830381865afa158015611217573d6000803e3d6000fd5b505050506040513d601f19601f8201168201806040525081019061123b91906123cd565b101561127c576040517f08c379a000000000000000000000000000000000000000000000000000000000815260040161127390612911565b60405180910390fd5b8073ffffffffffffffffffffffffffffffffffffffff1663e985e9c533306040518363ffffffff1660e01b81526004016112b7929190612931565b602060405180830381865afa1580156112d4573d6000803e3d6000fd5b505050506040513d601f19601f820116820180604052508101906112f89190612986565b611337576040517f08c379a000000000000000000000000000000000000000000000000000000000815260040161132e906129ff565b60405180910390fd5b60008084511190506113496002611706565b600061135560026117e8565b90506040518061012001604052808a73ffffffffffffffffffffffffffffffffffffffff1681526020013373ffffffffffffffffffffffffffffffffffffffff1681526020018681526020018981526020018881526020018781526020018881526020018315158152602001600015158152506005600083815260200190815260200160002060008201518160000160006101000a81548173ffffffffffffffffffffffffffffffffffffffff021916908373ffffffffffffffffffffffffffffffffffffffff16021790555060208201518160010160006101000a81548173ffffffffffffffffffffffffffffffffffffffff021916908373ffffffffffffffffffffffffffffffffffffffff160217905550604082015181600201908051906020019061148592919061188c565b50606082015181600301556080820151816004015560a0820151816005015560c0820151816006015560e08201518160070160006101000a81548160ff0219169083151502179055506101008201518160070160016101000a81548160ff02191690831515021790555090505060066005600083815260200190815260200160002090806001815401808255809150506001900390600052602060002090600802016000909190919091506000820160009054906101000a900473ffffffffffffffffffffffffffffffffffffffff168160000160006101000a81548173ffffffffffffffffffffffffffffffffffffffff021916908373ffffffffffffffffffffffffffffffffffffffff1602179055506001820160009054906101000a900473ffffffffffffffffffffffffffffffffffffffff168160010160006101000a81548173ffffffffffffffffffffffffffffffffffffffff021916908373ffffffffffffffffffffffffffffffffffffffff1602179055506002820181600201908054611614929190611916565b50600382015481600301556004820154816004015560058201548160050155600682015481600601556007820160009054906101000a900460ff168160070160006101000a81548160ff0219169083151502179055506007820160019054906101000a900460ff168160070160016101000a81548160ff02191690831515021790555050507fde961a5f650c3228d746e3dfa928fc1104078f8b7f342120b84267658824891589338a8a8a8a886116cb60026117e8565b6040516116df989796959493929190612a8e565b60405180910390a16116f160026117e8565b93505050506001808190555095945050505050565b6001816000016000828254019250508190555050565b600033905090565b60008060009054906101000a900473ffffffffffffffffffffffffffffffffffffffff169050816000806101000a81548173ffffffffffffffffffffffffffffffffffffffff021916908373ffffffffffffffffffffffffffffffffffffffff1602179055508173ffffffffffffffffffffffffffffffffffffffff168173ffffffffffffffffffffffffffffffffffffffff167f8be0079c531659141344cd1fd0a4f28419497f9722a3daafe3b4186f6b6457e060405160405180910390a35050565b600081600001549050919050565b604051806040016040528060008152602001600081525090565b604051806101200160405280600073ffffffffffffffffffffffffffffffffffffffff168152602001600073ffffffffffffffffffffffffffffffffffffffff16815260200160608152602001600081526020016000815260200160008152602001600081526020016000151581526020016000151581525090565b828054828255906000526020600020908101928215611905579160200282015b828111156119045782518260006101000a81548173ffffffffffffffffffffffffffffffffffffffff021916908373ffffffffffffffffffffffffffffffffffffffff160217905550916020019190600101906118ac565b5b5090506119129190611968565b5090565b8280548282559060005260206000209081019282156119575760005260206000209182015b8281111561195657825482559160010191906001019061193b565b5b5090506119649190611968565b5090565b5b80821115611981576000816000905550600101611969565b5090565b6000604051905090565b600080fd5b600080fd5b6000819050919050565b6119ac81611999565b81146119b757600080fd5b50565b6000813590506119c9816119a3565b92915050565b600080604083850312156119e6576119e561198f565b5b60006119f4858286016119ba565b9250506020611a05858286016119ba565b9150509250929050565b600081519050919050565b600082825260208201905092915050565b6000819050602082019050919050565b600073ffffffffffffffffffffffffffffffffffffffff82169050919050565b6000611a6682611a3b565b9050919050565b611a7681611a5b565b82525050565b600081519050919050565b600082825260208201905092915050565b6000819050602082019050919050565b6000611ab48383611a6d565b60208301905092915050565b6000602082019050919050565b6000611ad882611a7c565b611ae28185611a87565b9350611aed83611a98565b8060005b83811015611b1e578151611b058882611aa8565b9750611b1083611ac0565b925050600181019050611af1565b5085935050505092915050565b611b3481611999565b82525050565b60008115159050919050565b611b4f81611b3a565b82525050565b600061012083016000830151611b6e6000860182611a6d565b506020830151611b816020860182611a6d565b5060408301518482036040860152611b998282611acd565b9150506060830151611bae6060860182611b2b565b506080830151611bc16080860182611b2b565b5060a0830151611bd460a0860182611b2b565b5060c0830151611be760c0860182611b2b565b5060e0830151611bfa60e0860182611b46565b50610100830151611c0f610100860182611b46565b508091505092915050565b6000611c268383611b55565b905092915050565b6000602082019050919050565b6000611c4682611a0f565b611c508185611a1a565b935083602082028501611c6285611a2b565b8060005b85811015611c9e5784840389528151611c7f8582611c1a565b9450611c8a83611c2e565b925060208a01995050600181019050611c66565b50829750879550505050505092915050565b60006020820190508181036000830152611cca8184611c3b565b905092915050565b611cdb81611a5b565b82525050565b6000602082019050611cf66000830184611cd2565b92915050565b604082016000820151611d126000850182611b2b565b506020820151611d256020850182611b2b565b50505050565b6000604082019050611d406000830184611cfc565b92915050565b600060208284031215611d5c57611d5b61198f565b5b6000611d6a848285016119ba565b91505092915050565b600061012083016000830151611d8c6000860182611a6d565b506020830151611d9f6020860182611a6d565b5060408301518482036040860152611db78282611acd565b9150506060830151611dcc6060860182611b2b565b506080830151611ddf6080860182611b2b565b5060a0830151611df260a0860182611b2b565b5060c0830151611e0560c0860182611b2b565b5060e0830151611e1860e0860182611b46565b50610100830151611e2d610100860182611b46565b508091505092915050565b60006020820190508181036000830152611e528184611d73565b905092915050565b611e6381611a5b565b8114611e6e57600080fd5b50565b600081359050611e8081611e5a565b92915050565b600060208284031215611e9c57611e9b61198f565b5b6000611eaa84828501611e71565b91505092915050565b600080fd5b6000601f19601f8301169050919050565b7f4e487b7100000000000000000000000000000000000000000000000000000000600052604160045260246000fd5b611f0182611eb8565b810181811067ffffffffffffffff82111715611f2057611f1f611ec9565b5b80604052505050565b6000611f33611985565b9050611f3f8282611ef8565b919050565b600067ffffffffffffffff821115611f5f57611f5e611ec9565b5b602082029050602081019050919050565b600080fd5b6000611f88611f8384611f44565b611f29565b90508083825260208201905060208402830185811115611fab57611faa611f70565b5b835b81811015611fd45780611fc08882611e71565b845260208401935050602081019050611fad565b5050509392505050565b600082601f830112611ff357611ff2611eb3565b5b8135612003848260208601611f75565b91505092915050565b600080600080600060a086880312156120285761202761198f565b5b600061203688828901611e71565b9550506020612047888289016119ba565b9450506040612058888289016119ba565b9350506060612069888289016119ba565b925050608086013567ffffffffffffffff81111561208a57612089611994565b5b61209688828901611fde565b9150509295509295909350565b6120ac81611999565b82525050565b60006020820190506120c760008301846120a3565b92915050565b600082825260208201905092915050565b7f5265656e7472616e637947756172643a207265656e7472616e742063616c6c00600082015250565b6000612114601f836120cd565b915061211f826120de565b602082019050919050565b6000602082019050818103600083015261214381612107565b9050919050565b7f4e487b7100000000000000000000000000000000000000000000000000000000600052603260045260246000fd5b7f4e487b7100000000000000000000000000000000000000000000000000000000600052601160045260246000fd5b60006121b382611999565b91507fffffffffffffffffffffffffffffffffffffffffffffffffffffffffffffffff8214156121e6576121e5612179565b5b600182019050919050565b7f53616c6520697320707269766174652100000000000000000000000000000000600082015250565b60006122276010836120cd565b9150612232826121f1565b602082019050919050565b600060208201905081810360008301526122568161221a565b9050919050565b7f43616e27742062757920796f7572206f6e7720746f6b656e7321000000000000600082015250565b6000612293601a836120cd565b915061229e8261225d565b602082019050919050565b600060208201905081810360008301526122c281612286565b9050919050565b60006122d482611999565b91506122df83611999565b9250817fffffffffffffffffffffffffffffffffffffffffffffffffffffffffffffffff048311821515161561231857612317612179565b5b828202905092915050565b7f496e73756666696369656e742066756e64732100000000000000000000000000600082015250565b60006123596013836120cd565b915061236482612323565b602082019050919050565b600060208201905081810360008301526123888161234c565b9050919050565b60006040820190506123a46000830185611cd2565b6123b160208301846120a3565b9392505050565b6000815190506123c7816119a3565b92915050565b6000602082840312156123e3576123e261198f565b5b60006123f1848285016123b8565b91505092915050565b7f53656c6c657220646f65736e2774206861766520656e6f75676820746f6b656e60008201527f7321000000000000000000000000000000000000000000000000000000000000602082015250565b60006124566022836120cd565b9150612461826123fa565b604082019050919050565b6000602082019050818103600083015261248581612449565b9050919050565b7f4c697374696e67206e6f7420617661696c61626c6520616e796d6f7265210000600082015250565b60006124c2601e836120cd565b91506124cd8261248c565b602082019050919050565b600060208201905081810360008301526124f1816124b5565b9050919050565b7f4e6f7420656e6f75676820746f6b656e73206c65667421000000000000000000600082015250565b600061252e6017836120cd565b9150612539826124f8565b602082019050919050565b6000602082019050818103600083015261255d81612521565b9050919050565b600061256f82611999565b915061257a83611999565b9250827fffffffffffffffffffffffffffffffffffffffffffffffffffffffffffffffff038211156125af576125ae612179565b5b828201905092915050565b60006125c582611999565b91506125d083611999565b9250828210156125e3576125e2612179565b5b828203905092915050565b6125f781611b3a565b82525050565b600060e082019050612612600083018a611cd2565b61261f6020830189611cd2565b61262c6040830188611cd2565b61263960608301876120a3565b61264660808301866120a3565b61265360a08301856120a3565b61266060c08301846125ee565b98975050505050505050565b600082825260208201905092915050565b50565b600061268d60008361266c565b91506126988261267d565b600082019050919050565b600060a0820190506126b86000830187611cd2565b6126c56020830186611cd2565b6126d260408301856120a3565b6126df60608301846120a3565b81810360808301526126f081612680565b905095945050505050565b7f4e487b7100000000000000000000000000000000000000000000000000000000600052601260045260246000fd5b600061273582611999565b915061274083611999565b9250826127505761274f6126fb565b5b828204905092915050565b7f4f776e61626c653a2063616c6c6572206973206e6f7420746865206f776e6572600082015250565b60006127916020836120cd565b915061279c8261275b565b602082019050919050565b600060208201905081810360008301526127c081612784565b9050919050565b7f4f776e61626c653a206e6577206f776e657220697320746865207a65726f206160008201527f6464726573730000000000000000000000000000000000000000000000000000602082015250565b60006128236026836120cd565b915061282e826127c7565b604082019050919050565b6000602082019050818103600083015261285281612816565b9050919050565b7f416d6f756e74206d7573742062652067726561746572207468616e2030210000600082015250565b600061288f601e836120cd565b915061289a82612859565b602082019050919050565b600060208201905081810360008301526128be81612882565b9050919050565b7f43616c6c6572206d757374206f776e20676976656e20746f6b656e2100000000600082015250565b60006128fb601c836120cd565b9150612906826128c5565b602082019050919050565b6000602082019050818103600083015261292a816128ee565b9050919050565b60006040820190506129466000830185611cd2565b6129536020830184611cd2565b9392505050565b61296381611b3a565b811461296e57600080fd5b50565b6000815190506129808161295a565b92915050565b60006020828403121561299c5761299b61198f565b5b60006129aa84828501612971565b91505092915050565b7f436f6e7472616374206d75737420626520617070726f76656421000000000000600082015250565b60006129e9601a836120cd565b91506129f4826129b3565b602082019050919050565b60006020820190508181036000830152612a18816129dc565b9050919050565b600082825260208201905092915050565b6000612a3b82611a7c565b612a458185612a1f565b9350612a5083611a98565b8060005b83811015612a81578151612a688882611aa8565b9750612a7383611ac0565b925050600181019050612a54565b5085935050505092915050565b600061010082019050612aa4600083018b611cd2565b612ab1602083018a611cd2565b612abe60408301896120a3565b612acb60608301886120a3565b612ad860808301876120a3565b81810360a0830152612aea8186612a30565b9050612af960c08301856125ee565b612b0660e08301846120a3565b999850505050505050505056fea2646970667358221220810dccdfe7da9225405a372307112bf15c47549b16643dc57c3c87044169b19864736f6c634300080b0033",
  "immutableReferences": {},
  "source": "// SPDX-License-Identifier: MIT\r\npragma solidity ^0.8.0;\r\n\r\nimport \"../node_modules/@openzeppelin/contracts/utils/Counters.sol\";\r\nimport \"../node_modules/@openzeppelin/contracts/token/ERC1155/ERC1155.sol\";\r\nimport \"../node_modules/@openzeppelin/contracts/security/ReentrancyGuard.sol\";\r\nimport \"../node_modules/@openzeppelin/contracts/access/Ownable.sol\";\r\n\r\n/*\r\n * Smart contract allowing users to trade (list and buy) any ERC1155 tokens.\r\n * Users can create public and private listings.\r\n * Users can set more addresses that can buy tokens (like whitelist).\r\n */\r\n\r\n\r\ncontract Marketplace is Ownable, ReentrancyGuard{\r\n\r\n    using Counters for Counters.Counter;\r\n    Counters.Counter private _listingIds;\r\n    Counters.Counter private _numOfTxs;\r\n    uint256 private _volume;\r\n\r\n    event TokenListed(address contractAddress, address seller, uint256 tokenId, uint256 amount, uint256 pricePerToken, address[] privateBuyer, bool privateSale, uint listingId);\r\n    event TokenSold(address contractAddress, address seller, address buyer, uint256 tokenId, uint256 amount, uint256 pricePerToken, bool privateSale);\r\n\r\n    mapping(uint256 => Listing) private idToListing;\r\n    Listing[] private listingsArray;\r\n\r\n    struct Listing {\r\n        address contractAddress;\r\n        address seller;\r\n        address[] buyer;\r\n        uint256 tokenId;\r\n        uint256 amount;\r\n        uint256 price;\r\n        uint256 tokensAvailable;\r\n        bool privateListing;\r\n        bool completed;\r\n    }\r\n\r\n    struct Stats {\r\n        uint256 volume;\r\n        uint256 itemsSold;\r\n    }\r\n\r\n\r\n    function listToken(address contractAddress, uint256 tokenId, uint256 amount, uint256 price, address[] memory privateBuyer) public nonReentrant returns(uint256) {\r\n        ERC1155 token = ERC1155(contractAddress);\r\n\r\n        require(amount > 0, \"Amount must be greater than 0!\");\r\n        require(token.balanceOf(msg.sender, tokenId) >= amount, \"Caller must own given token!\");\r\n        require(token.isApprovedForAll(msg.sender, address(this)), \"Contract must be approved!\");\r\n\r\n        bool privateListing = privateBuyer.length>0;\r\n        _listingIds.increment();\r\n        uint256 listingId = _listingIds.current();\r\n        idToListing[listingId] = Listing(contractAddress, msg.sender, privateBuyer, tokenId, amount, price, amount, privateListing, false);\r\n        listingsArray.push(idToListing[listingId]);\r\n\r\n        emit TokenListed(contractAddress, msg.sender, tokenId, amount, price, privateBuyer, privateListing, _listingIds.current());\r\n\r\n        return _listingIds.current();\r\n    }\r\n\r\n    function purchaseToken(uint256 listingId, uint256 amount) public payable nonReentrant {\r\n        ERC1155 token = ERC1155(idToListing[listingId].contractAddress);\r\n\r\n        if(idToListing[listingId].privateListing == true) {\r\n            bool whitelisted = false;\r\n            for(uint i=0; i<idToListing[listingId].buyer.length; i++){\r\n                if(idToListing[listingId].buyer[i] == msg.sender) {\r\n                    whitelisted = true;\r\n                }\r\n            }\r\n            require(whitelisted == true, \"Sale is private!\");\r\n        }\r\n\r\n        require(msg.sender != idToListing[listingId].seller, \"Can't buy your onw tokens!\");\r\n        require(msg.value >= idToListing[listingId].price * amount, \"Insufficient funds!\");\r\n        require(token.balanceOf(idToListing[listingId].seller, idToListing[listingId].tokenId) >= amount, \"Seller doesn't have enough tokens!\");\r\n        require(idToListing[listingId].completed == false, \"Listing not available anymore!\");\r\n        require(idToListing[listingId].tokensAvailable >= amount, \"Not enough tokens left!\");\r\n        \r\n        _numOfTxs.increment();\r\n        _volume += idToListing[listingId].price * amount;\r\n\r\n        idToListing[listingId].tokensAvailable -= amount;\r\n        if(idToListing[listingId].privateListing == false){\r\n            idToListing[listingId].buyer.push(msg.sender);\r\n        }\r\n        if(idToListing[listingId].tokensAvailable == 0) {\r\n            idToListing[listingId].completed = true;\r\n        }\r\n\r\n        emit TokenSold(\r\n            idToListing[listingId].contractAddress,\r\n            idToListing[listingId].seller,\r\n            msg.sender,\r\n            idToListing[listingId].tokenId,\r\n            amount,\r\n            idToListing[listingId].price,\r\n            idToListing[listingId].privateListing\r\n        );\r\n\r\n        token.safeTransferFrom(idToListing[listingId].seller, msg.sender, idToListing[listingId].tokenId, amount, \"\");\r\n        payable(idToListing[listingId].seller).transfer((idToListing[listingId].price * amount/50)*49); //Transfering 98% to seller, fee 2%  ((msg.value/50)*49)\r\n    }\r\n\r\n    function  viewAllListings() public view returns (Listing[] memory) {\r\n        return listingsArray;\r\n    }\r\n\r\n    function viewListingById(uint256 _id) public view returns(Listing memory) {\r\n        return idToListing[_id];\r\n    }\r\n\r\n    function viewStats() public view returns(Stats memory) {\r\n        return Stats(_volume, _numOfTxs.current());\r\n    }\r\n\r\n    function withdrawFees() public onlyOwner nonReentrant {\r\n        payable(msg.sender).transfer(address(this).balance);\r\n    }\r\n\r\n}",
  "sourcePath": "C:\\Users\\tijan\\Qsync\\Documents\\PROGRAMIRANJE\\SOLIDITY\\nft-marketplace\\contracts\\Marketplace.sol",
  "compiler": {
    "name": "solc",
    "version": "0.8.11+commit.d7f03943.Emscripten.clang"
  },
  "schemaVersion": "3.4.3",
  "updatedAt": "2022-01-22T14:25:20.877Z",
  "networkType": "ethereum",
  "devdoc": {
    "kind": "dev",
    "methods": {
      "owner()": {
        "details": "Returns the address of the current owner."
      },
      "renounceOwnership()": {
        "details": "Leaves the contract without owner. It will not be possible to call `onlyOwner` functions anymore. Can only be called by the current owner. NOTE: Renouncing ownership will leave the contract without an owner, thereby removing any functionality that is only available to the owner."
      },
      "transferOwnership(address)": {
        "details": "Transfers ownership of the contract to a new account (`newOwner`). Can only be called by the current owner."
      }
    },
    "version": 1
  },
  "userdoc": {
    "kind": "user",
    "methods": {},
    "version": 1
  }
}