{
  "contractName": "Marketplace",
  "abi": [
    {
      "anonymous": false,
      "inputs": [
        {
          "indexed": true,
          "internalType": "address",
          "name": "previousOwner",
          "type": "address"
        },
        {
          "indexed": true,
          "internalType": "address",
          "name": "newOwner",
          "type": "address"
        }
      ],
      "name": "OwnershipTransferred",
      "type": "event"
    },
    {
      "anonymous": false,
      "inputs": [
        {
          "indexed": false,
          "internalType": "address",
          "name": "contractAddress",
          "type": "address"
        },
        {
          "indexed": false,
          "internalType": "address",
          "name": "seller",
          "type": "address"
        },
        {
          "indexed": false,
          "internalType": "uint256",
          "name": "tokenId",
          "type": "uint256"
        },
        {
          "indexed": false,
          "internalType": "uint256",
          "name": "amount",
          "type": "uint256"
        },
        {
          "indexed": false,
          "internalType": "uint256",
          "name": "pricePerToken",
          "type": "uint256"
        }
      ],
      "name": "TokenListed",
      "type": "event"
    },
    {
      "anonymous": false,
      "inputs": [
        {
          "indexed": false,
          "internalType": "address",
          "name": "contractAddress",
          "type": "address"
        },
        {
          "indexed": false,
          "internalType": "address",
          "name": "seller",
          "type": "address"
        },
        {
          "indexed": false,
          "internalType": "address",
          "name": "buyer",
          "type": "address"
        },
        {
          "indexed": false,
          "internalType": "uint256",
          "name": "tokenId",
          "type": "uint256"
        },
        {
          "indexed": false,
          "internalType": "uint256",
          "name": "amount",
          "type": "uint256"
        },
        {
          "indexed": false,
          "internalType": "uint256",
          "name": "pricePerToken",
          "type": "uint256"
        }
      ],
      "name": "TokenSold",
      "type": "event"
    },
    {
      "inputs": [],
      "name": "owner",
      "outputs": [
        {
          "internalType": "address",
          "name": "",
          "type": "address"
        }
      ],
      "stateMutability": "view",
      "type": "function",
      "constant": true
    },
    {
      "inputs": [],
      "name": "renounceOwnership",
      "outputs": [],
      "stateMutability": "nonpayable",
      "type": "function"
    },
    {
      "inputs": [
        {
          "internalType": "address",
          "name": "newOwner",
          "type": "address"
        }
      ],
      "name": "transferOwnership",
      "outputs": [],
      "stateMutability": "nonpayable",
      "type": "function"
    },
    {
      "inputs": [
        {
          "internalType": "address",
          "name": "contractAddress",
          "type": "address"
        },
        {
          "internalType": "uint256",
          "name": "tokenId",
          "type": "uint256"
        },
        {
          "internalType": "uint256",
          "name": "amount",
          "type": "uint256"
        },
        {
          "internalType": "uint256",
          "name": "price",
          "type": "uint256"
        }
      ],
      "name": "listToken",
      "outputs": [],
      "stateMutability": "nonpayable",
      "type": "function"
    },
    {
      "inputs": [
        {
          "internalType": "uint256",
          "name": "listingId",
          "type": "uint256"
        },
        {
          "internalType": "uint256",
          "name": "amount",
          "type": "uint256"
        }
      ],
      "name": "purchaseToken",
      "outputs": [],
      "stateMutability": "payable",
      "type": "function",
      "payable": true
    },
    {
      "inputs": [],
      "name": "viewAllListings",
      "outputs": [
        {
          "components": [
            {
              "internalType": "address",
              "name": "contractAddress",
              "type": "address"
            },
            {
              "internalType": "address",
              "name": "seller",
              "type": "address"
            },
            {
              "internalType": "uint256",
              "name": "tokenId",
              "type": "uint256"
            },
            {
              "internalType": "uint256",
              "name": "amount",
              "type": "uint256"
            },
            {
              "internalType": "uint256",
              "name": "price",
              "type": "uint256"
            },
            {
              "internalType": "uint256",
              "name": "tokensAvailable",
              "type": "uint256"
            },
            {
              "internalType": "bool",
              "name": "completed",
              "type": "bool"
            }
          ],
          "internalType": "struct Marketplace.Listing[]",
          "name": "",
          "type": "tuple[]"
        }
      ],
      "stateMutability": "view",
      "type": "function",
      "constant": true
    },
    {
      "inputs": [
        {
          "internalType": "uint256",
          "name": "_id",
          "type": "uint256"
        }
      ],
      "name": "viewListingById",
      "outputs": [
        {
          "components": [
            {
              "internalType": "address",
              "name": "contractAddress",
              "type": "address"
            },
            {
              "internalType": "address",
              "name": "seller",
              "type": "address"
            },
            {
              "internalType": "uint256",
              "name": "tokenId",
              "type": "uint256"
            },
            {
              "internalType": "uint256",
              "name": "amount",
              "type": "uint256"
            },
            {
              "internalType": "uint256",
              "name": "price",
              "type": "uint256"
            },
            {
              "internalType": "uint256",
              "name": "tokensAvailable",
              "type": "uint256"
            },
            {
              "internalType": "bool",
              "name": "completed",
              "type": "bool"
            }
          ],
          "internalType": "struct Marketplace.Listing",
          "name": "",
          "type": "tuple"
        }
      ],
      "stateMutability": "view",
      "type": "function",
      "constant": true
    },
    {
      "inputs": [],
      "name": "viewStats",
      "outputs": [
        {
          "components": [
            {
              "internalType": "uint256",
              "name": "volume",
              "type": "uint256"
            },
            {
              "internalType": "uint256",
              "name": "itemsSold",
              "type": "uint256"
            }
          ],
          "internalType": "struct Marketplace.Stats",
          "name": "",
          "type": "tuple"
        }
      ],
      "stateMutability": "view",
      "type": "function",
      "constant": true
    },
    {
      "inputs": [],
      "name": "withdrawFees",
      "outputs": [],
      "stateMutability": "nonpayable",
      "type": "function"
    }
  ],
  "bytecode": "0x608060405234801561001057600080fd5b5061002d61002261003960201b60201c565b61004160201b60201c565b60018081905550610105565b600033905090565b60008060009054906101000a900473ffffffffffffffffffffffffffffffffffffffff169050816000806101000a81548173ffffffffffffffffffffffffffffffffffffffff021916908373ffffffffffffffffffffffffffffffffffffffff1602179055508173ffffffffffffffffffffffffffffffffffffffff168173ffffffffffffffffffffffffffffffffffffffff167f8be0079c531659141344cd1fd0a4f28419497f9722a3daafe3b4186f6b6457e060405160405180910390a35050565b611f7b806101146000396000f3fe6080604052600436106100865760003560e01c80638da5cb5b116100595780638da5cb5b14610100578063ab7c88ba1461012b578063b43d901d14610156578063c4599b221461017f578063f2fde38b146101bc57610086565b8063301c5b901461008b578063476343ee146100a7578063715018a6146100be57806381fab025146100d5575b600080fd5b6100a560048036038101906100a091906112af565b6101e5565b005b3480156100b357600080fd5b506100bc6107b6565b005b3480156100ca57600080fd5b506100d3610889565b005b3480156100e157600080fd5b506100ea610911565b6040516100f79190611497565b60405180910390f35b34801561010c57600080fd5b50610115610b17565b60405161012291906114c8565b60405180910390f35b34801561013757600080fd5b50610140610b40565b60405161014d9190611512565b60405180910390f35b34801561016257600080fd5b5061017d60048036038101906101789190611559565b610b6d565b005b34801561018b57600080fd5b506101a660048036038101906101a191906115c0565b610eeb565b6040516101b3919061167b565b60405180910390f35b3480156101c857600080fd5b506101e360048036038101906101de9190611696565b611007565b005b6002600154141561022b576040517f08c379a000000000000000000000000000000000000000000000000000000000815260040161022290611720565b60405180910390fd5b600260018190555060006005600084815260200190815260200160002060000160009054906101000a900473ffffffffffffffffffffffffffffffffffffffff169050816005600085815260200190815260200160002060040154610290919061176f565b3410156102d2576040517f08c379a00000000000000000000000000000000000000000000000000000000081526004016102c990611815565b60405180910390fd5b818173ffffffffffffffffffffffffffffffffffffffff1662fdd58e6005600087815260200190815260200160002060010160009054906101000a900473ffffffffffffffffffffffffffffffffffffffff1660056000888152602001908152602001600020600201546040518363ffffffff1660e01b8152600401610359929190611844565b602060405180830381865afa158015610376573d6000803e3d6000fd5b505050506040513d601f19601f8201168201806040525081019061039a9190611882565b10156103db576040517f08c379a00000000000000000000000000000000000000000000000000000000081526004016103d290611921565b60405180910390fd5b600015156005600085815260200190815260200160002060060160009054906101000a900460ff16151514610445576040517f08c379a000000000000000000000000000000000000000000000000000000000815260040161043c9061198d565b60405180910390fd5b816005600085815260200190815260200160002060050154101561049e576040517f08c379a0000000000000000000000000000000000000000000000000000000008152600401610495906119f9565b60405180910390fd5b6104a860036110ff565b8160056000858152602001908152602001600020600401546104ca919061176f565b600460008282546104db9190611a19565b92505081905550816005600085815260200190815260200160002060050160008282546105089190611a6f565b9250508190555060006005600085815260200190815260200160002060050154141561055e5760016005600085815260200190815260200160002060060160006101000a81548160ff0219169083151502179055505b7f8257f0470c8769f4b3919b39cdf2ccbff753aaecbaeed07ad5ce4844fe722f1b6005600085815260200190815260200160002060000160009054906101000a900473ffffffffffffffffffffffffffffffffffffffff166005600086815260200190815260200160002060010160009054906101000a900473ffffffffffffffffffffffffffffffffffffffff1633600560008881526020019081526020016000206002015486600560008a81526020019081526020016000206004015460405161062f96959493929190611aa3565b60405180910390a18073ffffffffffffffffffffffffffffffffffffffff1663f242432a6005600086815260200190815260200160002060010160009054906101000a900473ffffffffffffffffffffffffffffffffffffffff16336005600088815260200190815260200160002060020154866040518563ffffffff1660e01b81526004016106c29493929190611b3b565b600060405180830381600087803b1580156106dc57600080fd5b505af11580156106f0573d6000803e3d6000fd5b505050506005600084815260200190815260200160002060010160009054906101000a900473ffffffffffffffffffffffffffffffffffffffff1673ffffffffffffffffffffffffffffffffffffffff166108fc6031603285600560008981526020019081526020016000206004015461076a919061176f565b6107749190611bc2565b61077e919061176f565b9081150290604051600060405180830381858888f193505050501580156107a9573d6000803e3d6000fd5b5050600180819055505050565b6107be611115565b73ffffffffffffffffffffffffffffffffffffffff166107dc610b17565b73ffffffffffffffffffffffffffffffffffffffff1614610832576040517f08c379a000000000000000000000000000000000000000000000000000000000815260040161082990611c3f565b60405180910390fd5b60026001541415610878576040517f08c379a000000000000000000000000000000000000000000000000000000000815260040161086f90611720565b60405180910390fd5b600260018190555060018081905550565b610891611115565b73ffffffffffffffffffffffffffffffffffffffff166108af610b17565b73ffffffffffffffffffffffffffffffffffffffff1614610905576040517f08c379a00000000000000000000000000000000000000000000000000000000081526004016108fc90611c3f565b60405180910390fd5b61090f600061111d565b565b6060600061091f60026111e1565b9050600061092d60036111e1565b61093760026111e1565b6109419190611a6f565b90506000808267ffffffffffffffff8111156109605761095f611c5f565b5b60405190808252806020026020018201604052801561099957816020015b6109866111ef565b81526020019060019003908161097e5790505b50905060005b84811015610b0c5760006001826109b69190611a19565b90506000600560008381526020019081526020016000209050806040518060e00160405290816000820160009054906101000a900473ffffffffffffffffffffffffffffffffffffffff1673ffffffffffffffffffffffffffffffffffffffff1673ffffffffffffffffffffffffffffffffffffffff1681526020016001820160009054906101000a900473ffffffffffffffffffffffffffffffffffffffff1673ffffffffffffffffffffffffffffffffffffffff1673ffffffffffffffffffffffffffffffffffffffff168152602001600282015481526020016003820154815260200160048201548152602001600582015481526020016006820160009054906101000a900460ff161515151581525050848681518110610add57610adc611c8e565b5b6020026020010181905250600185610af59190611a19565b945050508080610b0490611cbd565b91505061099f565b508094505050505090565b60008060009054906101000a900473ffffffffffffffffffffffffffffffffffffffff16905090565b610b4861125a565b60405180604001604052806004548152602001610b6560036111e1565b815250905090565b60026001541415610bb3576040517f08c379a0000000000000000000000000000000000000000000000000000000008152600401610baa90611720565b60405180910390fd5b60026001819055506000849050828173ffffffffffffffffffffffffffffffffffffffff1662fdd58e33876040518363ffffffff1660e01b8152600401610bfb929190611844565b602060405180830381865afa158015610c18573d6000803e3d6000fd5b505050506040513d601f19601f82011682018060405250810190610c3c9190611882565b11610c7c576040517f08c379a0000000000000000000000000000000000000000000000000000000008152600401610c7390611d52565b60405180910390fd5b8073ffffffffffffffffffffffffffffffffffffffff1663e985e9c533306040518363ffffffff1660e01b8152600401610cb7929190611d72565b602060405180830381865afa158015610cd4573d6000803e3d6000fd5b505050506040513d601f19601f82011682018060405250810190610cf89190611dc7565b610d37576040517f08c379a0000000000000000000000000000000000000000000000000000000008152600401610d2e90611e40565b60405180910390fd5b610d4160026110ff565b6000610d4d60026111e1565b90506040518060e001604052808773ffffffffffffffffffffffffffffffffffffffff1681526020013373ffffffffffffffffffffffffffffffffffffffff168152602001868152602001858152602001848152602001858152602001600015158152506005600083815260200190815260200160002060008201518160000160006101000a81548173ffffffffffffffffffffffffffffffffffffffff021916908373ffffffffffffffffffffffffffffffffffffffff16021790555060208201518160010160006101000a81548173ffffffffffffffffffffffffffffffffffffffff021916908373ffffffffffffffffffffffffffffffffffffffff16021790555060408201518160020155606082015181600301556080820151816004015560a0820151816005015560c08201518160060160006101000a81548160ff0219169083151502179055509050507f7d5e9f7d0176f6d89418aff63d46085abc93fe2052915f849d66d8f7d168bb3c8633878787604051610ed4959493929190611e60565b60405180910390a150506001808190555050505050565b610ef36111ef565b600560008381526020019081526020016000206040518060e00160405290816000820160009054906101000a900473ffffffffffffffffffffffffffffffffffffffff1673ffffffffffffffffffffffffffffffffffffffff1673ffffffffffffffffffffffffffffffffffffffff1681526020016001820160009054906101000a900473ffffffffffffffffffffffffffffffffffffffff1673ffffffffffffffffffffffffffffffffffffffff1673ffffffffffffffffffffffffffffffffffffffff168152602001600282015481526020016003820154815260200160048201548152602001600582015481526020016006820160009054906101000a900460ff1615151515815250509050919050565b61100f611115565b73ffffffffffffffffffffffffffffffffffffffff1661102d610b17565b73ffffffffffffffffffffffffffffffffffffffff1614611083576040517f08c379a000000000000000000000000000000000000000000000000000000000815260040161107a90611c3f565b60405180910390fd5b600073ffffffffffffffffffffffffffffffffffffffff168173ffffffffffffffffffffffffffffffffffffffff1614156110f3576040517f08c379a00000000000000000000000000000000000000000000000000000000081526004016110ea90611f25565b60405180910390fd5b6110fc8161111d565b50565b6001816000016000828254019250508190555050565b600033905090565b60008060009054906101000a900473ffffffffffffffffffffffffffffffffffffffff169050816000806101000a81548173ffffffffffffffffffffffffffffffffffffffff021916908373ffffffffffffffffffffffffffffffffffffffff1602179055508173ffffffffffffffffffffffffffffffffffffffff168173ffffffffffffffffffffffffffffffffffffffff167f8be0079c531659141344cd1fd0a4f28419497f9722a3daafe3b4186f6b6457e060405160405180910390a35050565b600081600001549050919050565b6040518060e00160405280600073ffffffffffffffffffffffffffffffffffffffff168152602001600073ffffffffffffffffffffffffffffffffffffffff168152602001600081526020016000815260200160008152602001600081526020016000151581525090565b604051806040016040528060008152602001600081525090565b600080fd5b6000819050919050565b61128c81611279565b811461129757600080fd5b50565b6000813590506112a981611283565b92915050565b600080604083850312156112c6576112c5611274565b5b60006112d48582860161129a565b92505060206112e58582860161129a565b9150509250929050565b600081519050919050565b600082825260208201905092915050565b6000819050602082019050919050565b600073ffffffffffffffffffffffffffffffffffffffff82169050919050565b60006113468261131b565b9050919050565b6113568161133b565b82525050565b61136581611279565b82525050565b60008115159050919050565b6113808161136b565b82525050565b60e08201600082015161139c600085018261134d565b5060208201516113af602085018261134d565b5060408201516113c2604085018261135c565b5060608201516113d5606085018261135c565b5060808201516113e8608085018261135c565b5060a08201516113fb60a085018261135c565b5060c082015161140e60c0850182611377565b50505050565b60006114208383611386565b60e08301905092915050565b6000602082019050919050565b6000611444826112ef565b61144e81856112fa565b93506114598361130b565b8060005b8381101561148a5781516114718882611414565b975061147c8361142c565b92505060018101905061145d565b5085935050505092915050565b600060208201905081810360008301526114b18184611439565b905092915050565b6114c28161133b565b82525050565b60006020820190506114dd60008301846114b9565b92915050565b6040820160008201516114f9600085018261135c565b50602082015161150c602085018261135c565b50505050565b600060408201905061152760008301846114e3565b92915050565b6115368161133b565b811461154157600080fd5b50565b6000813590506115538161152d565b92915050565b6000806000806080858703121561157357611572611274565b5b600061158187828801611544565b94505060206115928782880161129a565b93505060406115a38782880161129a565b92505060606115b48782880161129a565b91505092959194509250565b6000602082840312156115d6576115d5611274565b5b60006115e48482850161129a565b91505092915050565b60e082016000820151611603600085018261134d565b506020820151611616602085018261134d565b506040820151611629604085018261135c565b50606082015161163c606085018261135c565b50608082015161164f608085018261135c565b5060a082015161166260a085018261135c565b5060c082015161167560c0850182611377565b50505050565b600060e08201905061169060008301846115ed565b92915050565b6000602082840312156116ac576116ab611274565b5b60006116ba84828501611544565b91505092915050565b600082825260208201905092915050565b7f5265656e7472616e637947756172643a207265656e7472616e742063616c6c00600082015250565b600061170a601f836116c3565b9150611715826116d4565b602082019050919050565b60006020820190508181036000830152611739816116fd565b9050919050565b7f4e487b7100000000000000000000000000000000000000000000000000000000600052601160045260246000fd5b600061177a82611279565b915061178583611279565b9250817fffffffffffffffffffffffffffffffffffffffffffffffffffffffffffffffff04831182151516156117be576117bd611740565b5b828202905092915050565b7f496e73756666696369656e742066756e64732100000000000000000000000000600082015250565b60006117ff6013836116c3565b915061180a826117c9565b602082019050919050565b6000602082019050818103600083015261182e816117f2565b9050919050565b61183e81611279565b82525050565b600060408201905061185960008301856114b9565b6118666020830184611835565b9392505050565b60008151905061187c81611283565b92915050565b60006020828403121561189857611897611274565b5b60006118a68482850161186d565b91505092915050565b7f53656c6c657220646f65736e2774206861766520656e6f75676820746f6b656e60008201527f7321000000000000000000000000000000000000000000000000000000000000602082015250565b600061190b6022836116c3565b9150611916826118af565b604082019050919050565b6000602082019050818103600083015261193a816118fe565b9050919050565b7f4c697374696e67206e6f7420617661696c61626c6520616e796d6f7265210000600082015250565b6000611977601e836116c3565b915061198282611941565b602082019050919050565b600060208201905081810360008301526119a68161196a565b9050919050565b7f4e6f7420656e6f75676820746f6b656e73206c65667421000000000000000000600082015250565b60006119e36017836116c3565b91506119ee826119ad565b602082019050919050565b60006020820190508181036000830152611a12816119d6565b9050919050565b6000611a2482611279565b9150611a2f83611279565b9250827fffffffffffffffffffffffffffffffffffffffffffffffffffffffffffffffff03821115611a6457611a63611740565b5b828201905092915050565b6000611a7a82611279565b9150611a8583611279565b925082821015611a9857611a97611740565b5b828203905092915050565b600060c082019050611ab860008301896114b9565b611ac560208301886114b9565b611ad260408301876114b9565b611adf6060830186611835565b611aec6080830185611835565b611af960a0830184611835565b979650505050505050565b600082825260208201905092915050565b50565b6000611b25600083611b04565b9150611b3082611b15565b600082019050919050565b600060a082019050611b5060008301876114b9565b611b5d60208301866114b9565b611b6a6040830185611835565b611b776060830184611835565b8181036080830152611b8881611b18565b905095945050505050565b7f4e487b7100000000000000000000000000000000000000000000000000000000600052601260045260246000fd5b6000611bcd82611279565b9150611bd883611279565b925082611be857611be7611b93565b5b828204905092915050565b7f4f776e61626c653a2063616c6c6572206973206e6f7420746865206f776e6572600082015250565b6000611c296020836116c3565b9150611c3482611bf3565b602082019050919050565b60006020820190508181036000830152611c5881611c1c565b9050919050565b7f4e487b7100000000000000000000000000000000000000000000000000000000600052604160045260246000fd5b7f4e487b7100000000000000000000000000000000000000000000000000000000600052603260045260246000fd5b6000611cc882611279565b91507fffffffffffffffffffffffffffffffffffffffffffffffffffffffffffffffff821415611cfb57611cfa611740565b5b600182019050919050565b7f43616c6c6572206d757374206f776e20676976656e20746f6b656e2100000000600082015250565b6000611d3c601c836116c3565b9150611d4782611d06565b602082019050919050565b60006020820190508181036000830152611d6b81611d2f565b9050919050565b6000604082019050611d8760008301856114b9565b611d9460208301846114b9565b9392505050565b611da48161136b565b8114611daf57600080fd5b50565b600081519050611dc181611d9b565b92915050565b600060208284031215611ddd57611ddc611274565b5b6000611deb84828501611db2565b91505092915050565b7f436f6e7472616374206d75737420626520617070726f76656421000000000000600082015250565b6000611e2a601a836116c3565b9150611e3582611df4565b602082019050919050565b60006020820190508181036000830152611e5981611e1d565b9050919050565b600060a082019050611e7560008301886114b9565b611e8260208301876114b9565b611e8f6040830186611835565b611e9c6060830185611835565b611ea96080830184611835565b9695505050505050565b7f4f776e61626c653a206e6577206f776e657220697320746865207a65726f206160008201527f6464726573730000000000000000000000000000000000000000000000000000602082015250565b6000611f0f6026836116c3565b9150611f1a82611eb3565b604082019050919050565b60006020820190508181036000830152611f3e81611f02565b905091905056fea2646970667358221220a01d92fb3e73a8598199a415bd552ccc5f8bec71b0d80617b21a88b4d23a659664736f6c634300080b0033",
  "immutableReferences": {},
  "source": "// SPDX-License-Identifier: MIT\r\npragma solidity ^0.8.0;\r\n\r\nimport \"../node_modules/@openzeppelin/contracts/utils/Counters.sol\";\r\nimport \"../node_modules/@openzeppelin/contracts/token/ERC1155/ERC1155.sol\";\r\nimport \"../node_modules/@openzeppelin/contracts/security/ReentrancyGuard.sol\";\r\nimport \"../node_modules/@openzeppelin/contracts/access/Ownable.sol\";\r\n\r\n/*\r\n * Smart contract allowing users to trade (list and buy) NTFs from any ERC1155 smart contract.\r\n */\r\n\r\ncontract Marketplace is Ownable, ReentrancyGuard{\r\n    \r\n    using Counters for Counters.Counter;\r\n    Counters.Counter private _listingIds;\r\n    Counters.Counter private _tokensSold;\r\n    uint256 private _volume;\r\n\r\n    event TokenListed(address contractAddress, address seller, uint256 tokenId, uint256 amount, uint256 pricePerToken);\r\n    event TokenSold(address contractAddress, address seller, address buyer, uint256 tokenId, uint256 amount, uint256 pricePerToken);\r\n\r\n    mapping(uint256 => Listing) private idToListing;\r\n\r\n    struct Listing {\r\n        address contractAddress;\r\n        address seller;\r\n        uint256 tokenId;\r\n        uint256 amount;\r\n        uint256 price;\r\n        uint256 tokensAvailable;\r\n        bool completed;\r\n    }\r\n\r\n    struct Stats {\r\n        uint256 volume;\r\n        uint256 itemsSold;\r\n    }\r\n\r\n    function listToken(address contractAddress, uint256 tokenId, uint256 amount, uint256 price) public nonReentrant {\r\n        ERC1155 token = ERC1155(contractAddress);\r\n\r\n        require(token.balanceOf(msg.sender, tokenId) > amount, \"Caller must own given token!\");\r\n        require(token.isApprovedForAll(msg.sender, address(this)), \"Contract must be approved!\");\r\n\r\n        _listingIds.increment();\r\n        uint256 listingId = _listingIds.current();\r\n        idToListing[listingId] = Listing(contractAddress, msg.sender, tokenId, amount, price, amount, false);\r\n\r\n        emit TokenListed(contractAddress, msg.sender, tokenId, amount, price);\r\n    }\r\n\r\n    function purchaseToken(uint256 listingId, uint256 amount) public payable nonReentrant {\r\n        ERC1155 token = ERC1155(idToListing[listingId].contractAddress);\r\n\r\n        require(msg.value >= idToListing[listingId].price * amount, \"Insufficient funds!\");\r\n        require(token.balanceOf(idToListing[listingId].seller, idToListing[listingId].tokenId) >= amount, \"Seller doesn't have enough tokens!\");\r\n        require(idToListing[listingId].completed == false, \"Listing not available anymore!\");\r\n        require(idToListing[listingId].tokensAvailable >= amount, \"Not enough tokens left!\");\r\n        \r\n        _tokensSold.increment();\r\n        _volume += idToListing[listingId].price * amount;\r\n\r\n        idToListing[listingId].tokensAvailable -= amount;\r\n        if(idToListing[listingId].tokensAvailable == 0) {\r\n            idToListing[listingId].completed = true;\r\n        }\r\n\r\n        emit TokenSold(\r\n            idToListing[listingId].contractAddress,\r\n            idToListing[listingId].seller,\r\n            msg.sender,\r\n            idToListing[listingId].tokenId,\r\n            amount,\r\n            idToListing[listingId].price\r\n        );\r\n\r\n        token.safeTransferFrom(idToListing[listingId].seller, msg.sender, idToListing[listingId].tokenId, amount, \"\");\r\n        payable(idToListing[listingId].seller).transfer((idToListing[listingId].price * amount/50)*49); //Transfering 98% to seller, fee 2%  ((msg.value/50)*49)\r\n    }\r\n\r\n    function  viewAllListings() public view returns (Listing[] memory) {\r\n        uint itemCount = _listingIds.current();\r\n        uint unsoldItemCount = _listingIds.current() - _tokensSold.current();\r\n        uint currentIndex = 0;\r\n\r\n        Listing[] memory items = new Listing[](unsoldItemCount);\r\n\r\n        for (uint i = 0; i < itemCount; i++) {\r\n                uint currentId = i + 1;\r\n                Listing storage currentItem = idToListing[currentId];\r\n                items[currentIndex] = currentItem;\r\n                currentIndex += 1;\r\n        }\r\n\r\n        return items;\r\n    }\r\n\r\n    function viewListingById(uint256 _id) public view returns(Listing memory) {\r\n        return idToListing[_id];\r\n    }\r\n\r\n    function viewStats() public view returns(Stats memory) {\r\n        return Stats(_volume, _tokensSold.current());\r\n    }\r\n\r\n    function withdrawFees() public onlyOwner nonReentrant {\r\n        msg.sender.call{ value: address(this).balance };\r\n    }\r\n\r\n}",
  "sourcePath": "C:\\Users\\tijan\\Qsync\\Documents\\PROGRAMIRANJE\\SOLIDITY\\nft-marketplace\\contracts\\Marketplace.sol",
  "compiler": {
    "name": "solc",
    "version": "0.8.11+commit.d7f03943.Emscripten.clang"
  },
  "schemaVersion": "3.4.3",
  "updatedAt": "2022-01-19T13:53:49.611Z",
  "networkType": "ethereum",
  "devdoc": {
    "kind": "dev",
    "methods": {
      "owner()": {
        "details": "Returns the address of the current owner."
      },
      "renounceOwnership()": {
        "details": "Leaves the contract without owner. It will not be possible to call `onlyOwner` functions anymore. Can only be called by the current owner. NOTE: Renouncing ownership will leave the contract without an owner, thereby removing any functionality that is only available to the owner."
      },
      "transferOwnership(address)": {
        "details": "Transfers ownership of the contract to a new account (`newOwner`). Can only be called by the current owner."
      }
    },
    "version": 1
  },
  "userdoc": {
    "kind": "user",
    "methods": {},
    "version": 1
  }
}