{
  "contractName": "Marketplace",
  "abi": [
    {
      "anonymous": false,
      "inputs": [
        {
          "indexed": true,
          "internalType": "address",
          "name": "previousOwner",
          "type": "address"
        },
        {
          "indexed": true,
          "internalType": "address",
          "name": "newOwner",
          "type": "address"
        }
      ],
      "name": "OwnershipTransferred",
      "type": "event"
    },
    {
      "anonymous": false,
      "inputs": [
        {
          "indexed": false,
          "internalType": "address",
          "name": "contractAddress",
          "type": "address"
        },
        {
          "indexed": false,
          "internalType": "address",
          "name": "seller",
          "type": "address"
        },
        {
          "indexed": false,
          "internalType": "uint256",
          "name": "tokenId",
          "type": "uint256"
        },
        {
          "indexed": false,
          "internalType": "uint256",
          "name": "amount",
          "type": "uint256"
        },
        {
          "indexed": false,
          "internalType": "uint256",
          "name": "pricePerToken",
          "type": "uint256"
        },
        {
          "indexed": false,
          "internalType": "address[]",
          "name": "privateBuyer",
          "type": "address[]"
        },
        {
          "indexed": false,
          "internalType": "bool",
          "name": "privateSale",
          "type": "bool"
        },
        {
          "indexed": false,
          "internalType": "uint256",
          "name": "listingId",
          "type": "uint256"
        }
      ],
      "name": "TokenListed",
      "type": "event"
    },
    {
      "anonymous": false,
      "inputs": [
        {
          "indexed": false,
          "internalType": "address",
          "name": "contractAddress",
          "type": "address"
        },
        {
          "indexed": false,
          "internalType": "address",
          "name": "seller",
          "type": "address"
        },
        {
          "indexed": false,
          "internalType": "address",
          "name": "buyer",
          "type": "address"
        },
        {
          "indexed": false,
          "internalType": "uint256",
          "name": "tokenId",
          "type": "uint256"
        },
        {
          "indexed": false,
          "internalType": "uint256",
          "name": "amount",
          "type": "uint256"
        },
        {
          "indexed": false,
          "internalType": "uint256",
          "name": "pricePerToken",
          "type": "uint256"
        },
        {
          "indexed": false,
          "internalType": "bool",
          "name": "privateSale",
          "type": "bool"
        }
      ],
      "name": "TokenSold",
      "type": "event"
    },
    {
      "inputs": [],
      "name": "owner",
      "outputs": [
        {
          "internalType": "address",
          "name": "",
          "type": "address"
        }
      ],
      "stateMutability": "view",
      "type": "function"
    },
    {
      "inputs": [],
      "name": "renounceOwnership",
      "outputs": [],
      "stateMutability": "nonpayable",
      "type": "function"
    },
    {
      "inputs": [
        {
          "internalType": "address",
          "name": "newOwner",
          "type": "address"
        }
      ],
      "name": "transferOwnership",
      "outputs": [],
      "stateMutability": "nonpayable",
      "type": "function"
    },
    {
      "inputs": [
        {
          "internalType": "address",
          "name": "contractAddress",
          "type": "address"
        },
        {
          "internalType": "uint256",
          "name": "tokenId",
          "type": "uint256"
        },
        {
          "internalType": "uint256",
          "name": "amount",
          "type": "uint256"
        },
        {
          "internalType": "uint256",
          "name": "price",
          "type": "uint256"
        },
        {
          "internalType": "address[]",
          "name": "privateBuyer",
          "type": "address[]"
        }
      ],
      "name": "listToken",
      "outputs": [
        {
          "internalType": "uint256",
          "name": "",
          "type": "uint256"
        }
      ],
      "stateMutability": "nonpayable",
      "type": "function"
    },
    {
      "inputs": [
        {
          "internalType": "uint256",
          "name": "listingId",
          "type": "uint256"
        },
        {
          "internalType": "uint256",
          "name": "amount",
          "type": "uint256"
        }
      ],
      "name": "purchaseToken",
      "outputs": [],
      "stateMutability": "payable",
      "type": "function"
    },
    {
      "inputs": [],
      "name": "viewAllListings",
      "outputs": [
        {
          "components": [
            {
              "internalType": "address",
              "name": "contractAddress",
              "type": "address"
            },
            {
              "internalType": "address",
              "name": "seller",
              "type": "address"
            },
            {
              "internalType": "address[]",
              "name": "buyer",
              "type": "address[]"
            },
            {
              "internalType": "uint256",
              "name": "tokenId",
              "type": "uint256"
            },
            {
              "internalType": "uint256",
              "name": "amount",
              "type": "uint256"
            },
            {
              "internalType": "uint256",
              "name": "price",
              "type": "uint256"
            },
            {
              "internalType": "uint256",
              "name": "tokensAvailable",
              "type": "uint256"
            },
            {
              "internalType": "bool",
              "name": "privateListing",
              "type": "bool"
            },
            {
              "internalType": "bool",
              "name": "completed",
              "type": "bool"
            },
            {
              "internalType": "uint256",
              "name": "listingId",
              "type": "uint256"
            }
          ],
          "internalType": "struct Marketplace.Listing[]",
          "name": "",
          "type": "tuple[]"
        }
      ],
      "stateMutability": "view",
      "type": "function"
    },
    {
      "inputs": [
        {
          "internalType": "uint256",
          "name": "_id",
          "type": "uint256"
        }
      ],
      "name": "viewListingById",
      "outputs": [
        {
          "components": [
            {
              "internalType": "address",
              "name": "contractAddress",
              "type": "address"
            },
            {
              "internalType": "address",
              "name": "seller",
              "type": "address"
            },
            {
              "internalType": "address[]",
              "name": "buyer",
              "type": "address[]"
            },
            {
              "internalType": "uint256",
              "name": "tokenId",
              "type": "uint256"
            },
            {
              "internalType": "uint256",
              "name": "amount",
              "type": "uint256"
            },
            {
              "internalType": "uint256",
              "name": "price",
              "type": "uint256"
            },
            {
              "internalType": "uint256",
              "name": "tokensAvailable",
              "type": "uint256"
            },
            {
              "internalType": "bool",
              "name": "privateListing",
              "type": "bool"
            },
            {
              "internalType": "bool",
              "name": "completed",
              "type": "bool"
            },
            {
              "internalType": "uint256",
              "name": "listingId",
              "type": "uint256"
            }
          ],
          "internalType": "struct Marketplace.Listing",
          "name": "",
          "type": "tuple"
        }
      ],
      "stateMutability": "view",
      "type": "function"
    },
    {
      "inputs": [],
      "name": "viewStats",
      "outputs": [
        {
          "components": [
            {
              "internalType": "uint256",
              "name": "volume",
              "type": "uint256"
            },
            {
              "internalType": "uint256",
              "name": "itemsSold",
              "type": "uint256"
            }
          ],
          "internalType": "struct Marketplace.Stats",
          "name": "",
          "type": "tuple"
        }
      ],
      "stateMutability": "view",
      "type": "function"
    },
    {
      "inputs": [],
      "name": "withdrawFees",
      "outputs": [],
      "stateMutability": "nonpayable",
      "type": "function"
    }
  ],
  "bytecode": "0x60806040523480156200001157600080fd5b5062000032620000266200003f60201b60201c565b6200004760201b60201c565b600180819055506200010b565b600033905090565b60008060009054906101000a900473ffffffffffffffffffffffffffffffffffffffff169050816000806101000a81548173ffffffffffffffffffffffffffffffffffffffff021916908373ffffffffffffffffffffffffffffffffffffffff1602179055508173ffffffffffffffffffffffffffffffffffffffff168173ffffffffffffffffffffffffffffffffffffffff167f8be0079c531659141344cd1fd0a4f28419497f9722a3daafe3b4186f6b6457e060405160405180910390a35050565b612cd6806200011b6000396000f3fe6080604052600436106100865760003560e01c80638da5cb5b116100595780638da5cb5b14610100578063ab7c88ba1461012b578063c4599b2214610156578063f2fde38b14610193578063f80a14b3146101bc57610086565b8063301c5b901461008b578063476343ee146100a7578063715018a6146100be57806381fab025146100d5575b600080fd5b6100a560048036038101906100a09190611b32565b6101f9565b005b3480156100b357600080fd5b506100bc610b9d565b005b3480156100ca57600080fd5b506100d3610cb7565b005b3480156100e157600080fd5b506100ea610d3f565b6040516100f79190611e28565b60405180910390f35b34801561010c57600080fd5b50610115610f41565b6040516101229190611e59565b60405180910390f35b34801561013757600080fd5b50610140610f6a565b60405161014d9190611ea3565b60405180910390f35b34801561016257600080fd5b5061017d60048036038101906101789190611ebe565b610f97565b60405161018a9190611fc5565b60405180910390f35b34801561019f57600080fd5b506101ba60048036038101906101b59190612013565b611167565b005b3480156101c857600080fd5b506101e360048036038101906101de9190612199565b61125f565b6040516101f0919061223f565b60405180910390f35b6002600154141561023f576040517f08c379a0000000000000000000000000000000000000000000000000000000008152600401610236906122b7565b60405180910390fd5b600260018190555060006005600084815260200190815260200160002060000160009054906101000a900473ffffffffffffffffffffffffffffffffffffffff169050600115156005600085815260200190815260200160002060070160009054906101000a900460ff16151514156103bf576000805b6005600086815260200190815260200160002060020180549050811015610375573373ffffffffffffffffffffffffffffffffffffffff16600560008781526020019081526020016000206002018281548110610316576103156122d7565b5b9060005260206000200160009054906101000a900473ffffffffffffffffffffffffffffffffffffffff1673ffffffffffffffffffffffffffffffffffffffff16141561036257600191505b808061036d90612335565b9150506102b6565b5060011515811515146103bd576040517f08c379a00000000000000000000000000000000000000000000000000000000081526004016103b4906123ca565b60405180910390fd5b505b6005600084815260200190815260200160002060010160009054906101000a900473ffffffffffffffffffffffffffffffffffffffff1673ffffffffffffffffffffffffffffffffffffffff163373ffffffffffffffffffffffffffffffffffffffff161415610464576040517f08c379a000000000000000000000000000000000000000000000000000000000815260040161045b90612436565b60405180910390fd5b8160056000858152602001908152602001600020600501546104869190612456565b3410156104c8576040517f08c379a00000000000000000000000000000000000000000000000000000000081526004016104bf906124fc565b60405180910390fd5b818173ffffffffffffffffffffffffffffffffffffffff1662fdd58e6005600087815260200190815260200160002060010160009054906101000a900473ffffffffffffffffffffffffffffffffffffffff1660056000888152602001908152602001600020600301546040518363ffffffff1660e01b815260040161054f92919061251c565b602060405180830381865afa15801561056c573d6000803e3d6000fd5b505050506040513d601f19601f82011682018060405250810190610590919061255a565b10156105d1576040517f08c379a00000000000000000000000000000000000000000000000000000000081526004016105c8906125f9565b60405180910390fd5b600015156005600085815260200190815260200160002060070160019054906101000a900460ff1615151461063b576040517f08c379a000000000000000000000000000000000000000000000000000000000815260040161063290612665565b60405180910390fd5b8160056000858152602001908152602001600020600601541015610694576040517f08c379a000000000000000000000000000000000000000000000000000000000815260040161068b906126d1565b60405180910390fd5b61069e6003611862565b8160056000858152602001908152602001600020600501546106c09190612456565b600460008282546106d191906126f1565b92505081905550816005600085815260200190815260200160002060060160008282546106fe9190612747565b925050819055508160066001856107159190612747565b81548110610726576107256122d7565b5b906000526020600020906009020160060160008282546107469190612747565b92505081905550600015156005600085815260200190815260200160002060070160009054906101000a900460ff16151514156108875760056000848152602001908152602001600020600201339080600181540180825580915050600190039060005260206000200160009091909190916101000a81548173ffffffffffffffffffffffffffffffffffffffff021916908373ffffffffffffffffffffffffffffffffffffffff16021790555060066001846108039190612747565b81548110610814576108136122d7565b5b9060005260206000209060090201600201339080600181540180825580915050600190039060005260206000200160009091909190916101000a81548173ffffffffffffffffffffffffffffffffffffffff021916908373ffffffffffffffffffffffffffffffffffffffff1602179055505b6000600560008581526020019081526020016000206006015414156109205760016005600085815260200190815260200160002060070160016101000a81548160ff021916908315150217905550600160066001856108e69190612747565b815481106108f7576108f66122d7565b5b906000526020600020906009020160070160016101000a81548160ff0219169083151502179055505b7f765802dc5ad39e08f0aea7b3815cd1e0de8ab690a596190a723092423de2dee76005600085815260200190815260200160002060000160009054906101000a900473ffffffffffffffffffffffffffffffffffffffff166005600086815260200190815260200160002060010160009054906101000a900473ffffffffffffffffffffffffffffffffffffffff1633600560008881526020019081526020016000206003015486600560008a815260200190815260200160002060050154600560008b815260200190815260200160002060070160009054906101000a900460ff16604051610a16979695949392919061278a565b60405180910390a18073ffffffffffffffffffffffffffffffffffffffff1663f242432a6005600086815260200190815260200160002060010160009054906101000a900473ffffffffffffffffffffffffffffffffffffffff16336005600088815260200190815260200160002060030154866040518563ffffffff1660e01b8152600401610aa99493929190612830565b600060405180830381600087803b158015610ac357600080fd5b505af1158015610ad7573d6000803e3d6000fd5b505050506005600084815260200190815260200160002060010160009054906101000a900473ffffffffffffffffffffffffffffffffffffffff1673ffffffffffffffffffffffffffffffffffffffff166108fc60316032856005600089815260200190815260200160002060050154610b519190612456565b610b5b91906128b7565b610b659190612456565b9081150290604051600060405180830381858888f19350505050158015610b90573d6000803e3d6000fd5b5050600180819055505050565b610ba5611878565b73ffffffffffffffffffffffffffffffffffffffff16610bc3610f41565b73ffffffffffffffffffffffffffffffffffffffff1614610c19576040517f08c379a0000000000000000000000000000000000000000000000000000000008152600401610c1090612934565b60405180910390fd5b60026001541415610c5f576040517f08c379a0000000000000000000000000000000000000000000000000000000008152600401610c56906122b7565b60405180910390fd5b60026001819055503373ffffffffffffffffffffffffffffffffffffffff166108fc479081150290604051600060405180830381858888f19350505050158015610cad573d6000803e3d6000fd5b5060018081905550565b610cbf611878565b73ffffffffffffffffffffffffffffffffffffffff16610cdd610f41565b73ffffffffffffffffffffffffffffffffffffffff1614610d33576040517f08c379a0000000000000000000000000000000000000000000000000000000008152600401610d2a90612934565b60405180910390fd5b610d3d6000611880565b565b60606006805480602002602001604051908101604052809291908181526020016000905b82821015610f385783829060005260206000209060090201604051806101400160405290816000820160009054906101000a900473ffffffffffffffffffffffffffffffffffffffff1673ffffffffffffffffffffffffffffffffffffffff1673ffffffffffffffffffffffffffffffffffffffff1681526020016001820160009054906101000a900473ffffffffffffffffffffffffffffffffffffffff1673ffffffffffffffffffffffffffffffffffffffff1673ffffffffffffffffffffffffffffffffffffffff16815260200160028201805480602002602001604051908101604052809291908181526020018280548015610eb857602002820191906000526020600020905b8160009054906101000a900473ffffffffffffffffffffffffffffffffffffffff1673ffffffffffffffffffffffffffffffffffffffff1681526020019060010190808311610e6e575b50505050508152602001600382015481526020016004820154815260200160058201548152602001600682015481526020016007820160009054906101000a900460ff161515151581526020016007820160019054906101000a900460ff1615151515815260200160088201548152505081526020019060010190610d63565b50505050905090565b60008060009054906101000a900473ffffffffffffffffffffffffffffffffffffffff16905090565b610f72611952565b60405180604001604052806004548152602001610f8f6003611944565b815250905090565b610f9f61196c565b60056000838152602001908152602001600020604051806101400160405290816000820160009054906101000a900473ffffffffffffffffffffffffffffffffffffffff1673ffffffffffffffffffffffffffffffffffffffff1673ffffffffffffffffffffffffffffffffffffffff1681526020016001820160009054906101000a900473ffffffffffffffffffffffffffffffffffffffff1673ffffffffffffffffffffffffffffffffffffffff1673ffffffffffffffffffffffffffffffffffffffff168152602001600282018054806020026020016040519081016040528092919081815260200182805480156110ef57602002820191906000526020600020905b8160009054906101000a900473ffffffffffffffffffffffffffffffffffffffff1673ffffffffffffffffffffffffffffffffffffffff16815260200190600101908083116110a5575b50505050508152602001600382015481526020016004820154815260200160058201548152602001600682015481526020016007820160009054906101000a900460ff161515151581526020016007820160019054906101000a900460ff161515151581526020016008820154815250509050919050565b61116f611878565b73ffffffffffffffffffffffffffffffffffffffff1661118d610f41565b73ffffffffffffffffffffffffffffffffffffffff16146111e3576040517f08c379a00000000000000000000000000000000000000000000000000000000081526004016111da90612934565b60405180910390fd5b600073ffffffffffffffffffffffffffffffffffffffff168173ffffffffffffffffffffffffffffffffffffffff161415611253576040517f08c379a000000000000000000000000000000000000000000000000000000000815260040161124a906129c6565b60405180910390fd5b61125c81611880565b50565b6000600260015414156112a7576040517f08c379a000000000000000000000000000000000000000000000000000000000815260040161129e906122b7565b60405180910390fd5b60026001819055506000869050600085116112f7576040517f08c379a00000000000000000000000000000000000000000000000000000000081526004016112ee90612a32565b60405180910390fd5b848173ffffffffffffffffffffffffffffffffffffffff1662fdd58e33896040518363ffffffff1660e01b815260040161133292919061251c565b602060405180830381865afa15801561134f573d6000803e3d6000fd5b505050506040513d601f19601f82011682018060405250810190611373919061255a565b10156113b4576040517f08c379a00000000000000000000000000000000000000000000000000000000081526004016113ab90612a9e565b60405180910390fd5b8073ffffffffffffffffffffffffffffffffffffffff1663e985e9c533306040518363ffffffff1660e01b81526004016113ef929190612abe565b602060405180830381865afa15801561140c573d6000803e3d6000fd5b505050506040513d601f19601f820116820180604052508101906114309190612b13565b61146f576040517f08c379a000000000000000000000000000000000000000000000000000000000815260040161146690612b8c565b60405180910390fd5b60008084511190506114816002611862565b600061148d6002611944565b90506040518061014001604052808a73ffffffffffffffffffffffffffffffffffffffff1681526020013373ffffffffffffffffffffffffffffffffffffffff168152602001868152602001898152602001888152602001878152602001888152602001831515815260200160001515815260200161150c6002611944565b8152506005600083815260200190815260200160002060008201518160000160006101000a81548173ffffffffffffffffffffffffffffffffffffffff021916908373ffffffffffffffffffffffffffffffffffffffff16021790555060208201518160010160006101000a81548173ffffffffffffffffffffffffffffffffffffffff021916908373ffffffffffffffffffffffffffffffffffffffff16021790555060408201518160020190805190602001906115cc9291906119ef565b50606082015181600301556080820151816004015560a0820151816005015560c0820151816006015560e08201518160070160006101000a81548160ff0219169083151502179055506101008201518160070160016101000a81548160ff021916908315150217905550610120820151816008015590505060066005600083815260200190815260200160002090806001815401808255809150506001900390600052602060002090600902016000909190919091506000820160009054906101000a900473ffffffffffffffffffffffffffffffffffffffff168160000160006101000a81548173ffffffffffffffffffffffffffffffffffffffff021916908373ffffffffffffffffffffffffffffffffffffffff1602179055506001820160009054906101000a900473ffffffffffffffffffffffffffffffffffffffff168160010160006101000a81548173ffffffffffffffffffffffffffffffffffffffff021916908373ffffffffffffffffffffffffffffffffffffffff1602179055506002820181600201908054611766929190611a79565b50600382015481600301556004820154816004015560058201548160050155600682015481600601556007820160009054906101000a900460ff168160070160006101000a81548160ff0219169083151502179055506007820160019054906101000a900460ff168160070160016101000a81548160ff0219169083151502179055506008820154816008015550507fde961a5f650c3228d746e3dfa928fc1104078f8b7f342120b84267658824891589338a8a8a8a886118276002611944565b60405161183b989796959493929190612c1b565b60405180910390a161184d6002611944565b93505050506001808190555095945050505050565b6001816000016000828254019250508190555050565b600033905090565b60008060009054906101000a900473ffffffffffffffffffffffffffffffffffffffff169050816000806101000a81548173ffffffffffffffffffffffffffffffffffffffff021916908373ffffffffffffffffffffffffffffffffffffffff1602179055508173ffffffffffffffffffffffffffffffffffffffff168173ffffffffffffffffffffffffffffffffffffffff167f8be0079c531659141344cd1fd0a4f28419497f9722a3daafe3b4186f6b6457e060405160405180910390a35050565b600081600001549050919050565b604051806040016040528060008152602001600081525090565b604051806101400160405280600073ffffffffffffffffffffffffffffffffffffffff168152602001600073ffffffffffffffffffffffffffffffffffffffff1681526020016060815260200160008152602001600081526020016000815260200160008152602001600015158152602001600015158152602001600081525090565b828054828255906000526020600020908101928215611a68579160200282015b82811115611a675782518260006101000a81548173ffffffffffffffffffffffffffffffffffffffff021916908373ffffffffffffffffffffffffffffffffffffffff16021790555091602001919060010190611a0f565b5b509050611a759190611acb565b5090565b828054828255906000526020600020908101928215611aba5760005260206000209182015b82811115611ab9578254825591600101919060010190611a9e565b5b509050611ac79190611acb565b5090565b5b80821115611ae4576000816000905550600101611acc565b5090565b6000604051905090565b600080fd5b600080fd5b6000819050919050565b611b0f81611afc565b8114611b1a57600080fd5b50565b600081359050611b2c81611b06565b92915050565b60008060408385031215611b4957611b48611af2565b5b6000611b5785828601611b1d565b9250506020611b6885828601611b1d565b9150509250929050565b600081519050919050565b600082825260208201905092915050565b6000819050602082019050919050565b600073ffffffffffffffffffffffffffffffffffffffff82169050919050565b6000611bc982611b9e565b9050919050565b611bd981611bbe565b82525050565b600081519050919050565b600082825260208201905092915050565b6000819050602082019050919050565b6000611c178383611bd0565b60208301905092915050565b6000602082019050919050565b6000611c3b82611bdf565b611c458185611bea565b9350611c5083611bfb565b8060005b83811015611c81578151611c688882611c0b565b9750611c7383611c23565b925050600181019050611c54565b5085935050505092915050565b611c9781611afc565b82525050565b60008115159050919050565b611cb281611c9d565b82525050565b600061014083016000830151611cd16000860182611bd0565b506020830151611ce46020860182611bd0565b5060408301518482036040860152611cfc8282611c30565b9150506060830151611d116060860182611c8e565b506080830151611d246080860182611c8e565b5060a0830151611d3760a0860182611c8e565b5060c0830151611d4a60c0860182611c8e565b5060e0830151611d5d60e0860182611ca9565b50610100830151611d72610100860182611ca9565b50610120830151611d87610120860182611c8e565b508091505092915050565b6000611d9e8383611cb8565b905092915050565b6000602082019050919050565b6000611dbe82611b72565b611dc88185611b7d565b935083602082028501611dda85611b8e565b8060005b85811015611e165784840389528151611df78582611d92565b9450611e0283611da6565b925060208a01995050600181019050611dde565b50829750879550505050505092915050565b60006020820190508181036000830152611e428184611db3565b905092915050565b611e5381611bbe565b82525050565b6000602082019050611e6e6000830184611e4a565b92915050565b604082016000820151611e8a6000850182611c8e565b506020820151611e9d6020850182611c8e565b50505050565b6000604082019050611eb86000830184611e74565b92915050565b600060208284031215611ed457611ed3611af2565b5b6000611ee284828501611b1d565b91505092915050565b600061014083016000830151611f046000860182611bd0565b506020830151611f176020860182611bd0565b5060408301518482036040860152611f2f8282611c30565b9150506060830151611f446060860182611c8e565b506080830151611f576080860182611c8e565b5060a0830151611f6a60a0860182611c8e565b5060c0830151611f7d60c0860182611c8e565b5060e0830151611f9060e0860182611ca9565b50610100830151611fa5610100860182611ca9565b50610120830151611fba610120860182611c8e565b508091505092915050565b60006020820190508181036000830152611fdf8184611eeb565b905092915050565b611ff081611bbe565b8114611ffb57600080fd5b50565b60008135905061200d81611fe7565b92915050565b60006020828403121561202957612028611af2565b5b600061203784828501611ffe565b91505092915050565b600080fd5b6000601f19601f8301169050919050565b7f4e487b7100000000000000000000000000000000000000000000000000000000600052604160045260246000fd5b61208e82612045565b810181811067ffffffffffffffff821117156120ad576120ac612056565b5b80604052505050565b60006120c0611ae8565b90506120cc8282612085565b919050565b600067ffffffffffffffff8211156120ec576120eb612056565b5b602082029050602081019050919050565b600080fd5b6000612115612110846120d1565b6120b6565b90508083825260208201905060208402830185811115612138576121376120fd565b5b835b81811015612161578061214d8882611ffe565b84526020840193505060208101905061213a565b5050509392505050565b600082601f8301126121805761217f612040565b5b8135612190848260208601612102565b91505092915050565b600080600080600060a086880312156121b5576121b4611af2565b5b60006121c388828901611ffe565b95505060206121d488828901611b1d565b94505060406121e588828901611b1d565b93505060606121f688828901611b1d565b925050608086013567ffffffffffffffff81111561221757612216611af7565b5b6122238882890161216b565b9150509295509295909350565b61223981611afc565b82525050565b60006020820190506122546000830184612230565b92915050565b600082825260208201905092915050565b7f5265656e7472616e637947756172643a207265656e7472616e742063616c6c00600082015250565b60006122a1601f8361225a565b91506122ac8261226b565b602082019050919050565b600060208201905081810360008301526122d081612294565b9050919050565b7f4e487b7100000000000000000000000000000000000000000000000000000000600052603260045260246000fd5b7f4e487b7100000000000000000000000000000000000000000000000000000000600052601160045260246000fd5b600061234082611afc565b91507fffffffffffffffffffffffffffffffffffffffffffffffffffffffffffffffff82141561237357612372612306565b5b600182019050919050565b7f53616c6520697320707269766174652100000000000000000000000000000000600082015250565b60006123b460108361225a565b91506123bf8261237e565b602082019050919050565b600060208201905081810360008301526123e3816123a7565b9050919050565b7f43616e27742062757920796f7572206f6e7720746f6b656e7321000000000000600082015250565b6000612420601a8361225a565b915061242b826123ea565b602082019050919050565b6000602082019050818103600083015261244f81612413565b9050919050565b600061246182611afc565b915061246c83611afc565b9250817fffffffffffffffffffffffffffffffffffffffffffffffffffffffffffffffff04831182151516156124a5576124a4612306565b5b828202905092915050565b7f496e73756666696369656e742066756e64732100000000000000000000000000600082015250565b60006124e660138361225a565b91506124f1826124b0565b602082019050919050565b60006020820190508181036000830152612515816124d9565b9050919050565b60006040820190506125316000830185611e4a565b61253e6020830184612230565b9392505050565b60008151905061255481611b06565b92915050565b6000602082840312156125705761256f611af2565b5b600061257e84828501612545565b91505092915050565b7f53656c6c657220646f65736e2774206861766520656e6f75676820746f6b656e60008201527f7321000000000000000000000000000000000000000000000000000000000000602082015250565b60006125e360228361225a565b91506125ee82612587565b604082019050919050565b60006020820190508181036000830152612612816125d6565b9050919050565b7f4c697374696e67206e6f7420617661696c61626c6520616e796d6f7265210000600082015250565b600061264f601e8361225a565b915061265a82612619565b602082019050919050565b6000602082019050818103600083015261267e81612642565b9050919050565b7f4e6f7420656e6f75676820746f6b656e73206c65667421000000000000000000600082015250565b60006126bb60178361225a565b91506126c682612685565b602082019050919050565b600060208201905081810360008301526126ea816126ae565b9050919050565b60006126fc82611afc565b915061270783611afc565b9250827fffffffffffffffffffffffffffffffffffffffffffffffffffffffffffffffff0382111561273c5761273b612306565b5b828201905092915050565b600061275282611afc565b915061275d83611afc565b9250828210156127705761276f612306565b5b828203905092915050565b61278481611c9d565b82525050565b600060e08201905061279f600083018a611e4a565b6127ac6020830189611e4a565b6127b96040830188611e4a565b6127c66060830187612230565b6127d36080830186612230565b6127e060a0830185612230565b6127ed60c083018461277b565b98975050505050505050565b600082825260208201905092915050565b50565b600061281a6000836127f9565b91506128258261280a565b600082019050919050565b600060a0820190506128456000830187611e4a565b6128526020830186611e4a565b61285f6040830185612230565b61286c6060830184612230565b818103608083015261287d8161280d565b905095945050505050565b7f4e487b7100000000000000000000000000000000000000000000000000000000600052601260045260246000fd5b60006128c282611afc565b91506128cd83611afc565b9250826128dd576128dc612888565b5b828204905092915050565b7f4f776e61626c653a2063616c6c6572206973206e6f7420746865206f776e6572600082015250565b600061291e60208361225a565b9150612929826128e8565b602082019050919050565b6000602082019050818103600083015261294d81612911565b9050919050565b7f4f776e61626c653a206e6577206f776e657220697320746865207a65726f206160008201527f6464726573730000000000000000000000000000000000000000000000000000602082015250565b60006129b060268361225a565b91506129bb82612954565b604082019050919050565b600060208201905081810360008301526129df816129a3565b9050919050565b7f416d6f756e74206d7573742062652067726561746572207468616e2030210000600082015250565b6000612a1c601e8361225a565b9150612a27826129e6565b602082019050919050565b60006020820190508181036000830152612a4b81612a0f565b9050919050565b7f43616c6c6572206d757374206f776e20676976656e20746f6b656e2100000000600082015250565b6000612a88601c8361225a565b9150612a9382612a52565b602082019050919050565b60006020820190508181036000830152612ab781612a7b565b9050919050565b6000604082019050612ad36000830185611e4a565b612ae06020830184611e4a565b9392505050565b612af081611c9d565b8114612afb57600080fd5b50565b600081519050612b0d81612ae7565b92915050565b600060208284031215612b2957612b28611af2565b5b6000612b3784828501612afe565b91505092915050565b7f436f6e7472616374206d75737420626520617070726f76656421000000000000600082015250565b6000612b76601a8361225a565b9150612b8182612b40565b602082019050919050565b60006020820190508181036000830152612ba581612b69565b9050919050565b600082825260208201905092915050565b6000612bc882611bdf565b612bd28185612bac565b9350612bdd83611bfb565b8060005b83811015612c0e578151612bf58882611c0b565b9750612c0083611c23565b925050600181019050612be1565b5085935050505092915050565b600061010082019050612c31600083018b611e4a565b612c3e602083018a611e4a565b612c4b6040830189612230565b612c586060830188612230565b612c656080830187612230565b81810360a0830152612c778186612bbd565b9050612c8660c083018561277b565b612c9360e0830184612230565b999850505050505050505056fea2646970667358221220bebcf4faefe04ae194b93d5b6db81a978ee92456edadb709c9c8a243c415cd4e64736f6c634300080b0033",
  "immutableReferences": {},
  "source": "// SPDX-License-Identifier: MIT\r\npragma solidity ^0.8.0;\r\n\r\nimport \"../node_modules/@openzeppelin/contracts/utils/Counters.sol\";\r\nimport \"../node_modules/@openzeppelin/contracts/token/ERC1155/ERC1155.sol\";\r\nimport \"../node_modules/@openzeppelin/contracts/security/ReentrancyGuard.sol\";\r\nimport \"../node_modules/@openzeppelin/contracts/access/Ownable.sol\";\r\n\r\n/*\r\n * Smart contract allowing users to trade (list and buy) any ERC1155 tokens.\r\n * Users can create public and private listings.\r\n * Users can set more addresses that can buy tokens (like whitelist).\r\n */\r\n\r\n\r\ncontract Marketplace is Ownable, ReentrancyGuard{\r\n\r\n    using Counters for Counters.Counter;\r\n    Counters.Counter private _listingIds;\r\n    Counters.Counter private _numOfTxs;\r\n    uint256 private _volume;\r\n\r\n    event TokenListed(address contractAddress, address seller, uint256 tokenId, uint256 amount, uint256 pricePerToken, address[] privateBuyer, bool privateSale, uint listingId);\r\n    event TokenSold(address contractAddress, address seller, address buyer, uint256 tokenId, uint256 amount, uint256 pricePerToken, bool privateSale);\r\n\r\n    mapping(uint256 => Listing) private idToListing;\r\n    Listing[] private listingsArray;\r\n\r\n    struct Listing {\r\n        address contractAddress;\r\n        address seller;\r\n        address[] buyer;\r\n        uint256 tokenId;\r\n        uint256 amount;\r\n        uint256 price;\r\n        uint256 tokensAvailable;\r\n        bool privateListing;\r\n        bool completed;\r\n        uint listingId;\r\n    }\r\n\r\n    struct Stats {\r\n        uint256 volume;\r\n        uint256 itemsSold;\r\n    }\r\n\r\n\r\n    function listToken(address contractAddress, uint256 tokenId, uint256 amount, uint256 price, address[] memory privateBuyer) public nonReentrant returns(uint256) {\r\n        ERC1155 token = ERC1155(contractAddress);\r\n\r\n        require(amount > 0, \"Amount must be greater than 0!\");\r\n        require(token.balanceOf(msg.sender, tokenId) >= amount, \"Caller must own given token!\");\r\n        require(token.isApprovedForAll(msg.sender, address(this)), \"Contract must be approved!\");\r\n\r\n        bool privateListing = privateBuyer.length>0;\r\n        _listingIds.increment();\r\n        uint256 listingId = _listingIds.current();\r\n        idToListing[listingId] = Listing(contractAddress, msg.sender, privateBuyer, tokenId, amount, price, amount, privateListing, false, _listingIds.current());\r\n        listingsArray.push(idToListing[listingId]);\r\n\r\n        emit TokenListed(contractAddress, msg.sender, tokenId, amount, price, privateBuyer, privateListing, _listingIds.current());\r\n\r\n        return _listingIds.current();\r\n    }\r\n\r\n    function purchaseToken(uint256 listingId, uint256 amount) public payable nonReentrant {\r\n        ERC1155 token = ERC1155(idToListing[listingId].contractAddress);\r\n\r\n        if(idToListing[listingId].privateListing == true) {\r\n            bool whitelisted = false;\r\n            for(uint i=0; i<idToListing[listingId].buyer.length; i++){\r\n                if(idToListing[listingId].buyer[i] == msg.sender) {\r\n                    whitelisted = true;\r\n                }\r\n            }\r\n            require(whitelisted == true, \"Sale is private!\");\r\n        }\r\n\r\n        require(msg.sender != idToListing[listingId].seller, \"Can't buy your onw tokens!\");\r\n        require(msg.value >= idToListing[listingId].price * amount, \"Insufficient funds!\");\r\n        require(token.balanceOf(idToListing[listingId].seller, idToListing[listingId].tokenId) >= amount, \"Seller doesn't have enough tokens!\");\r\n        require(idToListing[listingId].completed == false, \"Listing not available anymore!\");\r\n        require(idToListing[listingId].tokensAvailable >= amount, \"Not enough tokens left!\");\r\n        \r\n        _numOfTxs.increment();\r\n        _volume += idToListing[listingId].price * amount;\r\n\r\n        idToListing[listingId].tokensAvailable -= amount;\r\n        listingsArray[listingId-1].tokensAvailable -= amount;\r\n        if(idToListing[listingId].privateListing == false){\r\n            idToListing[listingId].buyer.push(msg.sender);\r\n            listingsArray[listingId-1].buyer.push(msg.sender);\r\n        }\r\n        if(idToListing[listingId].tokensAvailable == 0) {\r\n            idToListing[listingId].completed = true;\r\n            listingsArray[listingId-1].completed = true;\r\n        }\r\n\r\n        emit TokenSold(\r\n            idToListing[listingId].contractAddress,\r\n            idToListing[listingId].seller,\r\n            msg.sender,\r\n            idToListing[listingId].tokenId,\r\n            amount,\r\n            idToListing[listingId].price,\r\n            idToListing[listingId].privateListing\r\n        );\r\n\r\n        token.safeTransferFrom(idToListing[listingId].seller, msg.sender, idToListing[listingId].tokenId, amount, \"\");\r\n        payable(idToListing[listingId].seller).transfer((idToListing[listingId].price * amount/50)*49); //Transfering 98% to seller, fee 2%  ((msg.value/50)*49)\r\n    }\r\n\r\n    function  viewAllListings() public view returns (Listing[] memory) {\r\n        return listingsArray;\r\n    }\r\n\r\n    function viewListingById(uint256 _id) public view returns(Listing memory) {\r\n        return idToListing[_id];\r\n    }\r\n\r\n    function viewStats() public view returns(Stats memory) {\r\n        return Stats(_volume, _numOfTxs.current());\r\n    }\r\n\r\n    function withdrawFees() public onlyOwner nonReentrant {\r\n        payable(msg.sender).transfer(address(this).balance);\r\n    }\r\n\r\n}",
  "sourcePath": "C:\\Users\\tijan\\Qsync\\Documents\\PROGRAMIRANJE\\SOLIDITY\\nft-marketplace\\contracts\\Marketplace.sol",
  "compiler": {
    "name": "solc",
    "version": "0.8.11+commit.d7f03943.Emscripten.clang"
  },
  "schemaVersion": "3.4.3",
  "updatedAt": "2022-01-23T16:16:40.897Z",
  "devdoc": {
    "kind": "dev",
    "methods": {
      "owner()": {
        "details": "Returns the address of the current owner."
      },
      "renounceOwnership()": {
        "details": "Leaves the contract without owner. It will not be possible to call `onlyOwner` functions anymore. Can only be called by the current owner. NOTE: Renouncing ownership will leave the contract without an owner, thereby removing any functionality that is only available to the owner."
      },
      "transferOwnership(address)": {
        "details": "Transfers ownership of the contract to a new account (`newOwner`). Can only be called by the current owner."
      }
    },
    "version": 1
  },
  "userdoc": {
    "kind": "user",
    "methods": {},
    "version": 1
  }
}