{
  "contractName": "Marketplace",
  "abi": [
    {
      "anonymous": false,
      "inputs": [
        {
          "indexed": true,
          "internalType": "address",
          "name": "previousOwner",
          "type": "address"
        },
        {
          "indexed": true,
          "internalType": "address",
          "name": "newOwner",
          "type": "address"
        }
      ],
      "name": "OwnershipTransferred",
      "type": "event"
    },
    {
      "anonymous": false,
      "inputs": [
        {
          "indexed": false,
          "internalType": "address",
          "name": "contractAddress",
          "type": "address"
        },
        {
          "indexed": false,
          "internalType": "address",
          "name": "seller",
          "type": "address"
        },
        {
          "indexed": false,
          "internalType": "uint256",
          "name": "tokenId",
          "type": "uint256"
        },
        {
          "indexed": false,
          "internalType": "uint256",
          "name": "amount",
          "type": "uint256"
        },
        {
          "indexed": false,
          "internalType": "uint256",
          "name": "pricePerToken",
          "type": "uint256"
        }
      ],
      "name": "TokenListed",
      "type": "event"
    },
    {
      "anonymous": false,
      "inputs": [
        {
          "indexed": false,
          "internalType": "address",
          "name": "contractAddress",
          "type": "address"
        },
        {
          "indexed": false,
          "internalType": "address",
          "name": "seller",
          "type": "address"
        },
        {
          "indexed": false,
          "internalType": "address",
          "name": "buyer",
          "type": "address"
        },
        {
          "indexed": false,
          "internalType": "uint256",
          "name": "tokenId",
          "type": "uint256"
        },
        {
          "indexed": false,
          "internalType": "uint256",
          "name": "amount",
          "type": "uint256"
        },
        {
          "indexed": false,
          "internalType": "uint256",
          "name": "pricePerToken",
          "type": "uint256"
        }
      ],
      "name": "TokenSold",
      "type": "event"
    },
    {
      "inputs": [],
      "name": "owner",
      "outputs": [
        {
          "internalType": "address",
          "name": "",
          "type": "address"
        }
      ],
      "stateMutability": "view",
      "type": "function",
      "constant": true
    },
    {
      "inputs": [],
      "name": "renounceOwnership",
      "outputs": [],
      "stateMutability": "nonpayable",
      "type": "function"
    },
    {
      "inputs": [
        {
          "internalType": "address",
          "name": "newOwner",
          "type": "address"
        }
      ],
      "name": "transferOwnership",
      "outputs": [],
      "stateMutability": "nonpayable",
      "type": "function"
    },
    {
      "inputs": [
        {
          "internalType": "address",
          "name": "contractAddress",
          "type": "address"
        },
        {
          "internalType": "uint256",
          "name": "tokenId",
          "type": "uint256"
        },
        {
          "internalType": "uint256",
          "name": "amount",
          "type": "uint256"
        },
        {
          "internalType": "uint256",
          "name": "price",
          "type": "uint256"
        },
        {
          "internalType": "bool",
          "name": "privateListing",
          "type": "bool"
        },
        {
          "internalType": "address",
          "name": "privateBuyer",
          "type": "address"
        }
      ],
      "name": "listToken",
      "outputs": [],
      "stateMutability": "nonpayable",
      "type": "function"
    },
    {
      "inputs": [
        {
          "internalType": "uint256",
          "name": "listingId",
          "type": "uint256"
        },
        {
          "internalType": "uint256",
          "name": "amount",
          "type": "uint256"
        }
      ],
      "name": "purchaseToken",
      "outputs": [],
      "stateMutability": "payable",
      "type": "function",
      "payable": true
    },
    {
      "inputs": [],
      "name": "viewAllListings",
      "outputs": [
        {
          "components": [
            {
              "internalType": "address",
              "name": "contractAddress",
              "type": "address"
            },
            {
              "internalType": "address",
              "name": "seller",
              "type": "address"
            },
            {
              "internalType": "uint256",
              "name": "tokenId",
              "type": "uint256"
            },
            {
              "internalType": "uint256",
              "name": "amount",
              "type": "uint256"
            },
            {
              "internalType": "uint256",
              "name": "price",
              "type": "uint256"
            },
            {
              "internalType": "uint256",
              "name": "tokensAvailable",
              "type": "uint256"
            },
            {
              "internalType": "bool",
              "name": "privateListing",
              "type": "bool"
            },
            {
              "internalType": "address",
              "name": "privateBuyer",
              "type": "address"
            },
            {
              "internalType": "bool",
              "name": "completed",
              "type": "bool"
            }
          ],
          "internalType": "struct Marketplace.Listing[]",
          "name": "",
          "type": "tuple[]"
        }
      ],
      "stateMutability": "view",
      "type": "function",
      "constant": true
    },
    {
      "inputs": [
        {
          "internalType": "uint256",
          "name": "_id",
          "type": "uint256"
        }
      ],
      "name": "viewListingById",
      "outputs": [
        {
          "components": [
            {
              "internalType": "address",
              "name": "contractAddress",
              "type": "address"
            },
            {
              "internalType": "address",
              "name": "seller",
              "type": "address"
            },
            {
              "internalType": "uint256",
              "name": "tokenId",
              "type": "uint256"
            },
            {
              "internalType": "uint256",
              "name": "amount",
              "type": "uint256"
            },
            {
              "internalType": "uint256",
              "name": "price",
              "type": "uint256"
            },
            {
              "internalType": "uint256",
              "name": "tokensAvailable",
              "type": "uint256"
            },
            {
              "internalType": "bool",
              "name": "privateListing",
              "type": "bool"
            },
            {
              "internalType": "address",
              "name": "privateBuyer",
              "type": "address"
            },
            {
              "internalType": "bool",
              "name": "completed",
              "type": "bool"
            }
          ],
          "internalType": "struct Marketplace.Listing",
          "name": "",
          "type": "tuple"
        }
      ],
      "stateMutability": "view",
      "type": "function",
      "constant": true
    },
    {
      "inputs": [],
      "name": "viewStats",
      "outputs": [
        {
          "components": [
            {
              "internalType": "uint256",
              "name": "volume",
              "type": "uint256"
            },
            {
              "internalType": "uint256",
              "name": "itemsSold",
              "type": "uint256"
            }
          ],
          "internalType": "struct Marketplace.Stats",
          "name": "",
          "type": "tuple"
        }
      ],
      "stateMutability": "view",
      "type": "function",
      "constant": true
    },
    {
      "inputs": [],
      "name": "withdrawFees",
      "outputs": [],
      "stateMutability": "nonpayable",
      "type": "function"
    }
  ],
  "bytecode": "0x608060405234801561001057600080fd5b5061002d61002261003960201b60201c565b61004160201b60201c565b60018081905550610105565b600033905090565b60008060009054906101000a900473ffffffffffffffffffffffffffffffffffffffff169050816000806101000a81548173ffffffffffffffffffffffffffffffffffffffff021916908373ffffffffffffffffffffffffffffffffffffffff1602179055508173ffffffffffffffffffffffffffffffffffffffff168173ffffffffffffffffffffffffffffffffffffffff167f8be0079c531659141344cd1fd0a4f28419497f9722a3daafe3b4186f6b6457e060405160405180910390a35050565b61243d80620001156000396000f3fe6080604052600436106100865760003560e01c806381fab0251161005957806381fab025146100fe5780638da5cb5b14610129578063ab7c88ba14610154578063c4599b221461017f578063f2fde38b146101bc57610086565b8063301c5b901461008b578063476343ee146100a7578063715018a6146100be57806372e606ce146100d5575b600080fd5b6100a560048036038101906100a0919061160a565b6101e5565b005b3480156100b357600080fd5b506100bc610930565b005b3480156100ca57600080fd5b506100d3610a4a565b005b3480156100e157600080fd5b506100fc60048036038101906100f791906116e0565b610ad2565b005b34801561010a57600080fd5b50610113610edf565b6040516101209190611901565b60405180910390f35b34801561013557600080fd5b5061013e611157565b60405161014b9190611932565b60405180910390f35b34801561016057600080fd5b50610169611180565b604051610176919061197c565b60405180910390f35b34801561018b57600080fd5b506101a660048036038101906101a19190611997565b6111ad565b6040516101b39190611a7b565b60405180910390f35b3480156101c857600080fd5b506101e360048036038101906101de9190611a97565b61133b565b005b6002600154141561022b576040517f08c379a000000000000000000000000000000000000000000000000000000000815260040161022290611b21565b60405180910390fd5b600260018190555060006005600084815260200190815260200160002060000160009054906101000a900473ffffffffffffffffffffffffffffffffffffffff169050600115156005600085815260200190815260200160002060060160009054906101000a900460ff1615151415610343573373ffffffffffffffffffffffffffffffffffffffff166005600085815260200190815260200160002060060160019054906101000a900473ffffffffffffffffffffffffffffffffffffffff1673ffffffffffffffffffffffffffffffffffffffff1614610342576040517f08c379a000000000000000000000000000000000000000000000000000000000815260040161033990611b8d565b60405180910390fd5b5b6005600084815260200190815260200160002060010160009054906101000a900473ffffffffffffffffffffffffffffffffffffffff1673ffffffffffffffffffffffffffffffffffffffff163373ffffffffffffffffffffffffffffffffffffffff1614156103e8576040517f08c379a00000000000000000000000000000000000000000000000000000000081526004016103df90611bf9565b60405180910390fd5b81600560008581526020019081526020016000206004015461040a9190611c48565b34101561044c576040517f08c379a000000000000000000000000000000000000000000000000000000000815260040161044390611cee565b60405180910390fd5b818173ffffffffffffffffffffffffffffffffffffffff1662fdd58e6005600087815260200190815260200160002060010160009054906101000a900473ffffffffffffffffffffffffffffffffffffffff1660056000888152602001908152602001600020600201546040518363ffffffff1660e01b81526004016104d3929190611d1d565b602060405180830381865afa1580156104f0573d6000803e3d6000fd5b505050506040513d601f19601f820116820180604052508101906105149190611d5b565b1015610555576040517f08c379a000000000000000000000000000000000000000000000000000000000815260040161054c90611dfa565b60405180910390fd5b600015156005600085815260200190815260200160002060060160159054906101000a900460ff161515146105bf576040517f08c379a00000000000000000000000000000000000000000000000000000000081526004016105b690611e66565b60405180910390fd5b8160056000858152602001908152602001600020600501541015610618576040517f08c379a000000000000000000000000000000000000000000000000000000000815260040161060f90611ed2565b60405180910390fd5b6106226003611433565b8160056000858152602001908152602001600020600401546106449190611c48565b600460008282546106559190611ef2565b92505081905550816005600085815260200190815260200160002060050160008282546106829190611f48565b925050819055506000600560008581526020019081526020016000206005015414156106d85760016005600085815260200190815260200160002060060160156101000a81548160ff0219169083151502179055505b7f8257f0470c8769f4b3919b39cdf2ccbff753aaecbaeed07ad5ce4844fe722f1b6005600085815260200190815260200160002060000160009054906101000a900473ffffffffffffffffffffffffffffffffffffffff166005600086815260200190815260200160002060010160009054906101000a900473ffffffffffffffffffffffffffffffffffffffff1633600560008881526020019081526020016000206002015486600560008a8152602001908152602001600020600401546040516107a996959493929190611f7c565b60405180910390a18073ffffffffffffffffffffffffffffffffffffffff1663f242432a6005600086815260200190815260200160002060010160009054906101000a900473ffffffffffffffffffffffffffffffffffffffff16336005600088815260200190815260200160002060020154866040518563ffffffff1660e01b815260040161083c9493929190612014565b600060405180830381600087803b15801561085657600080fd5b505af115801561086a573d6000803e3d6000fd5b505050506005600084815260200190815260200160002060010160009054906101000a900473ffffffffffffffffffffffffffffffffffffffff1673ffffffffffffffffffffffffffffffffffffffff166108fc603160328560056000898152602001908152602001600020600401546108e49190611c48565b6108ee919061209b565b6108f89190611c48565b9081150290604051600060405180830381858888f19350505050158015610923573d6000803e3d6000fd5b5050600180819055505050565b610938611449565b73ffffffffffffffffffffffffffffffffffffffff16610956611157565b73ffffffffffffffffffffffffffffffffffffffff16146109ac576040517f08c379a00000000000000000000000000000000000000000000000000000000081526004016109a390612118565b60405180910390fd5b600260015414156109f2576040517f08c379a00000000000000000000000000000000000000000000000000000000081526004016109e990611b21565b60405180910390fd5b60026001819055503373ffffffffffffffffffffffffffffffffffffffff166108fc479081150290604051600060405180830381858888f19350505050158015610a40573d6000803e3d6000fd5b5060018081905550565b610a52611449565b73ffffffffffffffffffffffffffffffffffffffff16610a70611157565b73ffffffffffffffffffffffffffffffffffffffff1614610ac6576040517f08c379a0000000000000000000000000000000000000000000000000000000008152600401610abd90612118565b60405180910390fd5b610ad06000611451565b565b60026001541415610b18576040517f08c379a0000000000000000000000000000000000000000000000000000000008152600401610b0f90611b21565b60405180910390fd5b60026001819055506000869050848173ffffffffffffffffffffffffffffffffffffffff1662fdd58e33896040518363ffffffff1660e01b8152600401610b60929190611d1d565b602060405180830381865afa158015610b7d573d6000803e3d6000fd5b505050506040513d601f19601f82011682018060405250810190610ba19190611d5b565b11610be1576040517f08c379a0000000000000000000000000000000000000000000000000000000008152600401610bd890612184565b60405180910390fd5b8073ffffffffffffffffffffffffffffffffffffffff1663e985e9c533306040518363ffffffff1660e01b8152600401610c1c9291906121a4565b602060405180830381865afa158015610c39573d6000803e3d6000fd5b505050506040513d601f19601f82011682018060405250810190610c5d91906121e2565b610c9c576040517f08c379a0000000000000000000000000000000000000000000000000000000008152600401610c939061225b565b60405180910390fd5b610ca66002611433565b6000610cb26002611515565b90506040518061012001604052808973ffffffffffffffffffffffffffffffffffffffff1681526020013373ffffffffffffffffffffffffffffffffffffffff16815260200188815260200187815260200186815260200187815260200185151581526020018473ffffffffffffffffffffffffffffffffffffffff168152602001600015158152506005600083815260200190815260200160002060008201518160000160006101000a81548173ffffffffffffffffffffffffffffffffffffffff021916908373ffffffffffffffffffffffffffffffffffffffff16021790555060208201518160010160006101000a81548173ffffffffffffffffffffffffffffffffffffffff021916908373ffffffffffffffffffffffffffffffffffffffff16021790555060408201518160020155606082015181600301556080820151816004015560a0820151816005015560c08201518160060160006101000a81548160ff02191690831515021790555060e08201518160060160016101000a81548173ffffffffffffffffffffffffffffffffffffffff021916908373ffffffffffffffffffffffffffffffffffffffff1602179055506101008201518160060160156101000a81548160ff0219169083151502179055509050507f7d5e9f7d0176f6d89418aff63d46085abc93fe2052915f849d66d8f7d168bb3c8833898989604051610ec695949392919061227b565b60405180910390a1505060018081905550505050505050565b60606000610eed6002611515565b90506000610efb6003611515565b610f056002611515565b610f0f9190611f48565b90506000808267ffffffffffffffff811115610f2e57610f2d6122ce565b5b604051908082528060200260200182016040528015610f6757816020015b610f54611523565b815260200190600190039081610f4c5790505b50905060005b8481101561114c576000600182610f849190611ef2565b9050600060056000838152602001908152602001600020905080604051806101200160405290816000820160009054906101000a900473ffffffffffffffffffffffffffffffffffffffff1673ffffffffffffffffffffffffffffffffffffffff1673ffffffffffffffffffffffffffffffffffffffff1681526020016001820160009054906101000a900473ffffffffffffffffffffffffffffffffffffffff1673ffffffffffffffffffffffffffffffffffffffff1673ffffffffffffffffffffffffffffffffffffffff168152602001600282015481526020016003820154815260200160048201548152602001600582015481526020016006820160009054906101000a900460ff161515151581526020016006820160019054906101000a900473ffffffffffffffffffffffffffffffffffffffff1673ffffffffffffffffffffffffffffffffffffffff1673ffffffffffffffffffffffffffffffffffffffff1681526020016006820160159054906101000a900460ff16151515158152505084868151811061111d5761111c6122fd565b5b60200260200101819052506001856111359190611ef2565b9450505080806111449061232c565b915050610f6d565b508094505050505090565b60008060009054906101000a900473ffffffffffffffffffffffffffffffffffffffff16905090565b6111886115b5565b604051806040016040528060045481526020016111a56003611515565b815250905090565b6111b5611523565b60056000838152602001908152602001600020604051806101200160405290816000820160009054906101000a900473ffffffffffffffffffffffffffffffffffffffff1673ffffffffffffffffffffffffffffffffffffffff1673ffffffffffffffffffffffffffffffffffffffff1681526020016001820160009054906101000a900473ffffffffffffffffffffffffffffffffffffffff1673ffffffffffffffffffffffffffffffffffffffff1673ffffffffffffffffffffffffffffffffffffffff168152602001600282015481526020016003820154815260200160048201548152602001600582015481526020016006820160009054906101000a900460ff161515151581526020016006820160019054906101000a900473ffffffffffffffffffffffffffffffffffffffff1673ffffffffffffffffffffffffffffffffffffffff1673ffffffffffffffffffffffffffffffffffffffff1681526020016006820160159054906101000a900460ff1615151515815250509050919050565b611343611449565b73ffffffffffffffffffffffffffffffffffffffff16611361611157565b73ffffffffffffffffffffffffffffffffffffffff16146113b7576040517f08c379a00000000000000000000000000000000000000000000000000000000081526004016113ae90612118565b60405180910390fd5b600073ffffffffffffffffffffffffffffffffffffffff168173ffffffffffffffffffffffffffffffffffffffff161415611427576040517f08c379a000000000000000000000000000000000000000000000000000000000815260040161141e906123e7565b60405180910390fd5b61143081611451565b50565b6001816000016000828254019250508190555050565b600033905090565b60008060009054906101000a900473ffffffffffffffffffffffffffffffffffffffff169050816000806101000a81548173ffffffffffffffffffffffffffffffffffffffff021916908373ffffffffffffffffffffffffffffffffffffffff1602179055508173ffffffffffffffffffffffffffffffffffffffff168173ffffffffffffffffffffffffffffffffffffffff167f8be0079c531659141344cd1fd0a4f28419497f9722a3daafe3b4186f6b6457e060405160405180910390a35050565b600081600001549050919050565b604051806101200160405280600073ffffffffffffffffffffffffffffffffffffffff168152602001600073ffffffffffffffffffffffffffffffffffffffff16815260200160008152602001600081526020016000815260200160008152602001600015158152602001600073ffffffffffffffffffffffffffffffffffffffff1681526020016000151581525090565b604051806040016040528060008152602001600081525090565b600080fd5b6000819050919050565b6115e7816115d4565b81146115f257600080fd5b50565b600081359050611604816115de565b92915050565b60008060408385031215611621576116206115cf565b5b600061162f858286016115f5565b9250506020611640858286016115f5565b9150509250929050565b600073ffffffffffffffffffffffffffffffffffffffff82169050919050565b60006116758261164a565b9050919050565b6116858161166a565b811461169057600080fd5b50565b6000813590506116a28161167c565b92915050565b60008115159050919050565b6116bd816116a8565b81146116c857600080fd5b50565b6000813590506116da816116b4565b92915050565b60008060008060008060c087890312156116fd576116fc6115cf565b5b600061170b89828a01611693565b965050602061171c89828a016115f5565b955050604061172d89828a016115f5565b945050606061173e89828a016115f5565b935050608061174f89828a016116cb565b92505060a061176089828a01611693565b9150509295509295509295565b600081519050919050565b600082825260208201905092915050565b6000819050602082019050919050565b6117a28161166a565b82525050565b6117b1816115d4565b82525050565b6117c0816116a8565b82525050565b610120820160008201516117dd6000850182611799565b5060208201516117f06020850182611799565b50604082015161180360408501826117a8565b50606082015161181660608501826117a8565b50608082015161182960808501826117a8565b5060a082015161183c60a08501826117a8565b5060c082015161184f60c08501826117b7565b5060e082015161186260e0850182611799565b506101008201516118776101008501826117b7565b50505050565b600061188983836117c6565b6101208301905092915050565b6000602082019050919050565b60006118ae8261176d565b6118b88185611778565b93506118c383611789565b8060005b838110156118f45781516118db888261187d565b97506118e683611896565b9250506001810190506118c7565b5085935050505092915050565b6000602082019050818103600083015261191b81846118a3565b905092915050565b61192c8161166a565b82525050565b60006020820190506119476000830184611923565b92915050565b60408201600082015161196360008501826117a8565b50602082015161197660208501826117a8565b50505050565b6000604082019050611991600083018461194d565b92915050565b6000602082840312156119ad576119ac6115cf565b5b60006119bb848285016115f5565b91505092915050565b610120820160008201516119db6000850182611799565b5060208201516119ee6020850182611799565b506040820151611a0160408501826117a8565b506060820151611a1460608501826117a8565b506080820151611a2760808501826117a8565b5060a0820151611a3a60a08501826117a8565b5060c0820151611a4d60c08501826117b7565b5060e0820151611a6060e0850182611799565b50610100820151611a756101008501826117b7565b50505050565b600061012082019050611a9160008301846119c4565b92915050565b600060208284031215611aad57611aac6115cf565b5b6000611abb84828501611693565b91505092915050565b600082825260208201905092915050565b7f5265656e7472616e637947756172643a207265656e7472616e742063616c6c00600082015250565b6000611b0b601f83611ac4565b9150611b1682611ad5565b602082019050919050565b60006020820190508181036000830152611b3a81611afe565b9050919050565b7f53616c6520697320707269766174652100000000000000000000000000000000600082015250565b6000611b77601083611ac4565b9150611b8282611b41565b602082019050919050565b60006020820190508181036000830152611ba681611b6a565b9050919050565b7f43616e27742062757920796f7572206f6e7720746f6b656e7321000000000000600082015250565b6000611be3601a83611ac4565b9150611bee82611bad565b602082019050919050565b60006020820190508181036000830152611c1281611bd6565b9050919050565b7f4e487b7100000000000000000000000000000000000000000000000000000000600052601160045260246000fd5b6000611c53826115d4565b9150611c5e836115d4565b9250817fffffffffffffffffffffffffffffffffffffffffffffffffffffffffffffffff0483118215151615611c9757611c96611c19565b5b828202905092915050565b7f496e73756666696369656e742066756e64732100000000000000000000000000600082015250565b6000611cd8601383611ac4565b9150611ce382611ca2565b602082019050919050565b60006020820190508181036000830152611d0781611ccb565b9050919050565b611d17816115d4565b82525050565b6000604082019050611d326000830185611923565b611d3f6020830184611d0e565b9392505050565b600081519050611d55816115de565b92915050565b600060208284031215611d7157611d706115cf565b5b6000611d7f84828501611d46565b91505092915050565b7f53656c6c657220646f65736e2774206861766520656e6f75676820746f6b656e60008201527f7321000000000000000000000000000000000000000000000000000000000000602082015250565b6000611de4602283611ac4565b9150611def82611d88565b604082019050919050565b60006020820190508181036000830152611e1381611dd7565b9050919050565b7f4c697374696e67206e6f7420617661696c61626c6520616e796d6f7265210000600082015250565b6000611e50601e83611ac4565b9150611e5b82611e1a565b602082019050919050565b60006020820190508181036000830152611e7f81611e43565b9050919050565b7f4e6f7420656e6f75676820746f6b656e73206c65667421000000000000000000600082015250565b6000611ebc601783611ac4565b9150611ec782611e86565b602082019050919050565b60006020820190508181036000830152611eeb81611eaf565b9050919050565b6000611efd826115d4565b9150611f08836115d4565b9250827fffffffffffffffffffffffffffffffffffffffffffffffffffffffffffffffff03821115611f3d57611f3c611c19565b5b828201905092915050565b6000611f53826115d4565b9150611f5e836115d4565b925082821015611f7157611f70611c19565b5b828203905092915050565b600060c082019050611f916000830189611923565b611f9e6020830188611923565b611fab6040830187611923565b611fb86060830186611d0e565b611fc56080830185611d0e565b611fd260a0830184611d0e565b979650505050505050565b600082825260208201905092915050565b50565b6000611ffe600083611fdd565b915061200982611fee565b600082019050919050565b600060a0820190506120296000830187611923565b6120366020830186611923565b6120436040830185611d0e565b6120506060830184611d0e565b818103608083015261206181611ff1565b905095945050505050565b7f4e487b7100000000000000000000000000000000000000000000000000000000600052601260045260246000fd5b60006120a6826115d4565b91506120b1836115d4565b9250826120c1576120c061206c565b5b828204905092915050565b7f4f776e61626c653a2063616c6c6572206973206e6f7420746865206f776e6572600082015250565b6000612102602083611ac4565b915061210d826120cc565b602082019050919050565b60006020820190508181036000830152612131816120f5565b9050919050565b7f43616c6c6572206d757374206f776e20676976656e20746f6b656e2100000000600082015250565b600061216e601c83611ac4565b915061217982612138565b602082019050919050565b6000602082019050818103600083015261219d81612161565b9050919050565b60006040820190506121b96000830185611923565b6121c66020830184611923565b9392505050565b6000815190506121dc816116b4565b92915050565b6000602082840312156121f8576121f76115cf565b5b6000612206848285016121cd565b91505092915050565b7f436f6e7472616374206d75737420626520617070726f76656421000000000000600082015250565b6000612245601a83611ac4565b91506122508261220f565b602082019050919050565b6000602082019050818103600083015261227481612238565b9050919050565b600060a0820190506122906000830188611923565b61229d6020830187611923565b6122aa6040830186611d0e565b6122b76060830185611d0e565b6122c46080830184611d0e565b9695505050505050565b7f4e487b7100000000000000000000000000000000000000000000000000000000600052604160045260246000fd5b7f4e487b7100000000000000000000000000000000000000000000000000000000600052603260045260246000fd5b6000612337826115d4565b91507fffffffffffffffffffffffffffffffffffffffffffffffffffffffffffffffff82141561236a57612369611c19565b5b600182019050919050565b7f4f776e61626c653a206e6577206f776e657220697320746865207a65726f206160008201527f6464726573730000000000000000000000000000000000000000000000000000602082015250565b60006123d1602683611ac4565b91506123dc82612375565b604082019050919050565b60006020820190508181036000830152612400816123c4565b905091905056fea2646970667358221220180d575f902a08a4d654d7803807a903451305cca41ac566956894af36604b1c64736f6c634300080b0033",
  "immutableReferences": {},
  "source": "// SPDX-License-Identifier: MIT\r\npragma solidity ^0.8.0;\r\n\r\nimport \"../node_modules/@openzeppelin/contracts/utils/Counters.sol\";\r\nimport \"../node_modules/@openzeppelin/contracts/token/ERC1155/ERC1155.sol\";\r\nimport \"../node_modules/@openzeppelin/contracts/security/ReentrancyGuard.sol\";\r\nimport \"../node_modules/@openzeppelin/contracts/access/Ownable.sol\";\r\n\r\n/*\r\n * Smart contract allowing users to trade (list and buy) NTFs from any ERC1155 smart contract.\r\n */\r\n\r\ncontract Marketplace is Ownable, ReentrancyGuard{\r\n    \r\n    using Counters for Counters.Counter;\r\n    Counters.Counter private _listingIds;\r\n    Counters.Counter private _tokensSold;\r\n    uint256 private _volume;\r\n\r\n    event TokenListed(address contractAddress, address seller, uint256 tokenId, uint256 amount, uint256 pricePerToken);\r\n    event TokenSold(address contractAddress, address seller, address buyer, uint256 tokenId, uint256 amount, uint256 pricePerToken);\r\n\r\n    mapping(uint256 => Listing) private idToListing;\r\n\r\n    struct Listing {\r\n        address contractAddress;\r\n        address seller;\r\n        uint256 tokenId;\r\n        uint256 amount;\r\n        uint256 price;\r\n        uint256 tokensAvailable;\r\n        bool privateListing;\r\n        address privateBuyer;\r\n        bool completed;\r\n    }\r\n\r\n    struct Stats {\r\n        uint256 volume;\r\n        uint256 itemsSold;\r\n    }\r\n\r\n    function listToken(address contractAddress, uint256 tokenId, uint256 amount, uint256 price, bool privateListing, address privateBuyer) public nonReentrant {\r\n        ERC1155 token = ERC1155(contractAddress);\r\n\r\n        require(token.balanceOf(msg.sender, tokenId) > amount, \"Caller must own given token!\");\r\n        require(token.isApprovedForAll(msg.sender, address(this)), \"Contract must be approved!\");\r\n\r\n        _listingIds.increment();\r\n        uint256 listingId = _listingIds.current();\r\n        idToListing[listingId] = Listing(contractAddress, msg.sender, tokenId, amount, price, amount, privateListing, privateBuyer, false);\r\n\r\n        emit TokenListed(contractAddress, msg.sender, tokenId, amount, price);\r\n    }\r\n\r\n    function purchaseToken(uint256 listingId, uint256 amount) public payable nonReentrant {\r\n        ERC1155 token = ERC1155(idToListing[listingId].contractAddress);\r\n\r\n        if(idToListing[listingId].privateListing == true) {\r\n            require(idToListing[listingId].privateBuyer == msg.sender, \"Sale is private!\");\r\n        }\r\n\r\n        require(msg.sender != idToListing[listingId].seller, \"Can't buy your onw tokens!\");\r\n        require(msg.value >= idToListing[listingId].price * amount, \"Insufficient funds!\");\r\n        require(token.balanceOf(idToListing[listingId].seller, idToListing[listingId].tokenId) >= amount, \"Seller doesn't have enough tokens!\");\r\n        require(idToListing[listingId].completed == false, \"Listing not available anymore!\");\r\n        require(idToListing[listingId].tokensAvailable >= amount, \"Not enough tokens left!\");\r\n        \r\n        _tokensSold.increment();\r\n        _volume += idToListing[listingId].price * amount;\r\n\r\n        idToListing[listingId].tokensAvailable -= amount;\r\n        if(idToListing[listingId].tokensAvailable == 0) {\r\n            idToListing[listingId].completed = true;\r\n        }\r\n\r\n        emit TokenSold(\r\n            idToListing[listingId].contractAddress,\r\n            idToListing[listingId].seller,\r\n            msg.sender,\r\n            idToListing[listingId].tokenId,\r\n            amount,\r\n            idToListing[listingId].price\r\n        );\r\n\r\n        token.safeTransferFrom(idToListing[listingId].seller, msg.sender, idToListing[listingId].tokenId, amount, \"\");\r\n        payable(idToListing[listingId].seller).transfer((idToListing[listingId].price * amount/50)*49); //Transfering 98% to seller, fee 2%  ((msg.value/50)*49)\r\n    }\r\n\r\n    function  viewAllListings() public view returns (Listing[] memory) {\r\n        uint itemCount = _listingIds.current();\r\n        uint unsoldItemCount = _listingIds.current() - _tokensSold.current();\r\n        uint currentIndex = 0;\r\n\r\n        Listing[] memory items = new Listing[](unsoldItemCount);\r\n\r\n        for (uint i = 0; i < itemCount; i++) {\r\n                uint currentId = i + 1;\r\n                Listing storage currentItem = idToListing[currentId];\r\n                items[currentIndex] = currentItem;\r\n                currentIndex += 1;\r\n        }\r\n\r\n        return items;\r\n    }\r\n\r\n    function viewListingById(uint256 _id) public view returns(Listing memory) {\r\n        return idToListing[_id];\r\n    }\r\n\r\n    function viewStats() public view returns(Stats memory) {\r\n        return Stats(_volume, _tokensSold.current());\r\n    }\r\n\r\n    function withdrawFees() public onlyOwner nonReentrant {\r\n        payable(msg.sender).transfer(address(this).balance);\r\n    }\r\n\r\n}",
  "sourcePath": "C:\\Users\\tijan\\Qsync\\Documents\\PROGRAMIRANJE\\SOLIDITY\\nft-marketplace\\contracts\\Marketplace.sol",
  "compiler": {
    "name": "solc",
    "version": "0.8.11+commit.d7f03943.Emscripten.clang"
  },
  "schemaVersion": "3.4.3",
  "updatedAt": "2022-01-20T09:36:31.336Z",
  "networkType": "ethereum",
  "devdoc": {
    "kind": "dev",
    "methods": {
      "owner()": {
        "details": "Returns the address of the current owner."
      },
      "renounceOwnership()": {
        "details": "Leaves the contract without owner. It will not be possible to call `onlyOwner` functions anymore. Can only be called by the current owner. NOTE: Renouncing ownership will leave the contract without an owner, thereby removing any functionality that is only available to the owner."
      },
      "transferOwnership(address)": {
        "details": "Transfers ownership of the contract to a new account (`newOwner`). Can only be called by the current owner."
      }
    },
    "version": 1
  },
  "userdoc": {
    "kind": "user",
    "methods": {},
    "version": 1
  }
}