{
  "contractName": "Marketplace",
  "abi": [
    {
      "anonymous": false,
      "inputs": [
        {
          "indexed": false,
          "internalType": "uint256",
          "name": "listingId",
          "type": "uint256"
        }
      ],
      "name": "ListingDeleted",
      "type": "event"
    },
    {
      "anonymous": false,
      "inputs": [
        {
          "indexed": true,
          "internalType": "address",
          "name": "previousOwner",
          "type": "address"
        },
        {
          "indexed": true,
          "internalType": "address",
          "name": "newOwner",
          "type": "address"
        }
      ],
      "name": "OwnershipTransferred",
      "type": "event"
    },
    {
      "anonymous": false,
      "inputs": [
        {
          "indexed": false,
          "internalType": "address",
          "name": "contractAddress",
          "type": "address"
        },
        {
          "indexed": false,
          "internalType": "address",
          "name": "seller",
          "type": "address"
        },
        {
          "indexed": false,
          "internalType": "uint256",
          "name": "tokenId",
          "type": "uint256"
        },
        {
          "indexed": false,
          "internalType": "uint256",
          "name": "amount",
          "type": "uint256"
        },
        {
          "indexed": false,
          "internalType": "uint256",
          "name": "pricePerToken",
          "type": "uint256"
        },
        {
          "indexed": false,
          "internalType": "address[]",
          "name": "privateBuyer",
          "type": "address[]"
        },
        {
          "indexed": false,
          "internalType": "bool",
          "name": "privateSale",
          "type": "bool"
        },
        {
          "indexed": false,
          "internalType": "uint256",
          "name": "listingId",
          "type": "uint256"
        }
      ],
      "name": "TokenListed",
      "type": "event"
    },
    {
      "anonymous": false,
      "inputs": [
        {
          "indexed": false,
          "internalType": "address",
          "name": "contractAddress",
          "type": "address"
        },
        {
          "indexed": false,
          "internalType": "address",
          "name": "seller",
          "type": "address"
        },
        {
          "indexed": false,
          "internalType": "address",
          "name": "buyer",
          "type": "address"
        },
        {
          "indexed": false,
          "internalType": "uint256",
          "name": "tokenId",
          "type": "uint256"
        },
        {
          "indexed": false,
          "internalType": "uint256",
          "name": "amount",
          "type": "uint256"
        },
        {
          "indexed": false,
          "internalType": "uint256",
          "name": "pricePerToken",
          "type": "uint256"
        },
        {
          "indexed": false,
          "internalType": "bool",
          "name": "privateSale",
          "type": "bool"
        }
      ],
      "name": "TokenSold",
      "type": "event"
    },
    {
      "inputs": [],
      "name": "owner",
      "outputs": [
        {
          "internalType": "address",
          "name": "",
          "type": "address"
        }
      ],
      "stateMutability": "view",
      "type": "function",
      "constant": true
    },
    {
      "inputs": [],
      "name": "renounceOwnership",
      "outputs": [],
      "stateMutability": "nonpayable",
      "type": "function"
    },
    {
      "inputs": [
        {
          "internalType": "address",
          "name": "newOwner",
          "type": "address"
        }
      ],
      "name": "transferOwnership",
      "outputs": [],
      "stateMutability": "nonpayable",
      "type": "function"
    },
    {
      "inputs": [
        {
          "internalType": "address",
          "name": "contractAddress",
          "type": "address"
        },
        {
          "internalType": "uint256",
          "name": "tokenId",
          "type": "uint256"
        },
        {
          "internalType": "uint256",
          "name": "amount",
          "type": "uint256"
        },
        {
          "internalType": "uint256",
          "name": "price",
          "type": "uint256"
        },
        {
          "internalType": "address[]",
          "name": "privateBuyer",
          "type": "address[]"
        }
      ],
      "name": "listToken",
      "outputs": [
        {
          "internalType": "uint256",
          "name": "",
          "type": "uint256"
        }
      ],
      "stateMutability": "nonpayable",
      "type": "function"
    },
    {
      "inputs": [
        {
          "internalType": "uint256",
          "name": "listingId",
          "type": "uint256"
        },
        {
          "internalType": "uint256",
          "name": "amount",
          "type": "uint256"
        }
      ],
      "name": "purchaseToken",
      "outputs": [],
      "stateMutability": "payable",
      "type": "function",
      "payable": true
    },
    {
      "inputs": [
        {
          "internalType": "uint256",
          "name": "_listingId",
          "type": "uint256"
        }
      ],
      "name": "deleteListing",
      "outputs": [],
      "stateMutability": "nonpayable",
      "type": "function"
    },
    {
      "inputs": [],
      "name": "viewAllListings",
      "outputs": [
        {
          "components": [
            {
              "internalType": "address",
              "name": "contractAddress",
              "type": "address"
            },
            {
              "internalType": "address",
              "name": "seller",
              "type": "address"
            },
            {
              "internalType": "address[]",
              "name": "buyer",
              "type": "address[]"
            },
            {
              "internalType": "uint256",
              "name": "tokenId",
              "type": "uint256"
            },
            {
              "internalType": "uint256",
              "name": "amount",
              "type": "uint256"
            },
            {
              "internalType": "uint256",
              "name": "price",
              "type": "uint256"
            },
            {
              "internalType": "uint256",
              "name": "tokensAvailable",
              "type": "uint256"
            },
            {
              "internalType": "bool",
              "name": "privateListing",
              "type": "bool"
            },
            {
              "internalType": "bool",
              "name": "completed",
              "type": "bool"
            },
            {
              "internalType": "uint256",
              "name": "listingId",
              "type": "uint256"
            }
          ],
          "internalType": "struct Marketplace.Listing[]",
          "name": "",
          "type": "tuple[]"
        }
      ],
      "stateMutability": "view",
      "type": "function",
      "constant": true
    },
    {
      "inputs": [
        {
          "internalType": "uint256",
          "name": "_id",
          "type": "uint256"
        }
      ],
      "name": "viewListingById",
      "outputs": [
        {
          "components": [
            {
              "internalType": "address",
              "name": "contractAddress",
              "type": "address"
            },
            {
              "internalType": "address",
              "name": "seller",
              "type": "address"
            },
            {
              "internalType": "address[]",
              "name": "buyer",
              "type": "address[]"
            },
            {
              "internalType": "uint256",
              "name": "tokenId",
              "type": "uint256"
            },
            {
              "internalType": "uint256",
              "name": "amount",
              "type": "uint256"
            },
            {
              "internalType": "uint256",
              "name": "price",
              "type": "uint256"
            },
            {
              "internalType": "uint256",
              "name": "tokensAvailable",
              "type": "uint256"
            },
            {
              "internalType": "bool",
              "name": "privateListing",
              "type": "bool"
            },
            {
              "internalType": "bool",
              "name": "completed",
              "type": "bool"
            },
            {
              "internalType": "uint256",
              "name": "listingId",
              "type": "uint256"
            }
          ],
          "internalType": "struct Marketplace.Listing",
          "name": "",
          "type": "tuple"
        }
      ],
      "stateMutability": "view",
      "type": "function",
      "constant": true
    },
    {
      "inputs": [],
      "name": "viewStats",
      "outputs": [
        {
          "components": [
            {
              "internalType": "uint256",
              "name": "volume",
              "type": "uint256"
            },
            {
              "internalType": "uint256",
              "name": "itemsSold",
              "type": "uint256"
            }
          ],
          "internalType": "struct Marketplace.Stats",
          "name": "",
          "type": "tuple"
        }
      ],
      "stateMutability": "view",
      "type": "function",
      "constant": true
    },
    {
      "inputs": [],
      "name": "withdrawFees",
      "outputs": [],
      "stateMutability": "nonpayable",
      "type": "function"
    }
  ],
  "bytecode": "0x60806040523480156200001157600080fd5b5062000032620000266200003f60201b60201c565b6200004760201b60201c565b600180819055506200010b565b600033905090565b60008060009054906101000a900473ffffffffffffffffffffffffffffffffffffffff169050816000806101000a81548173ffffffffffffffffffffffffffffffffffffffff021916908373ffffffffffffffffffffffffffffffffffffffff1602179055508173ffffffffffffffffffffffffffffffffffffffff168173ffffffffffffffffffffffffffffffffffffffff167f8be0079c531659141344cd1fd0a4f28419497f9722a3daafe3b4186f6b6457e060405160405180910390a35050565b612fa3806200011b6000396000f3fe6080604052600436106100915760003560e01c8063ab7c88ba11610059578063ab7c88ba14610136578063c4599b2214610161578063e6282c6e1461019e578063f2fde38b146101c7578063f80a14b3146101f057610091565b8063301c5b9014610096578063476343ee146100b2578063715018a6146100c957806381fab025146100e05780638da5cb5b1461010b575b600080fd5b6100b060048036038101906100ab9190611d27565b61022d565b005b3480156100be57600080fd5b506100c7610bd1565b005b3480156100d557600080fd5b506100de610ceb565b005b3480156100ec57600080fd5b506100f5610d73565b604051610102919061201d565b60405180910390f35b34801561011757600080fd5b50610120610f75565b60405161012d919061204e565b60405180910390f35b34801561014257600080fd5b5061014b610f9e565b6040516101589190612098565b60405180910390f35b34801561016d57600080fd5b50610188600480360381019061018391906120b3565b610fcb565b60405161019591906121ba565b60405180910390f35b3480156101aa57600080fd5b506101c560048036038101906101c091906120b3565b61119b565b005b3480156101d357600080fd5b506101ee60048036038101906101e99190612208565b61135c565b005b3480156101fc57600080fd5b506102176004803603810190610212919061238e565b611454565b6040516102249190612434565b60405180910390f35b60026001541415610273576040517f08c379a000000000000000000000000000000000000000000000000000000000815260040161026a906124ac565b60405180910390fd5b600260018190555060006005600084815260200190815260200160002060000160009054906101000a900473ffffffffffffffffffffffffffffffffffffffff169050600115156005600085815260200190815260200160002060070160009054906101000a900460ff16151514156103f3576000805b60056000868152602001908152602001600020600201805490508110156103a9573373ffffffffffffffffffffffffffffffffffffffff1660056000878152602001908152602001600020600201828154811061034a576103496124cc565b5b9060005260206000200160009054906101000a900473ffffffffffffffffffffffffffffffffffffffff1673ffffffffffffffffffffffffffffffffffffffff16141561039657600191505b80806103a19061252a565b9150506102ea565b5060011515811515146103f1576040517f08c379a00000000000000000000000000000000000000000000000000000000081526004016103e8906125bf565b60405180910390fd5b505b6005600084815260200190815260200160002060010160009054906101000a900473ffffffffffffffffffffffffffffffffffffffff1673ffffffffffffffffffffffffffffffffffffffff163373ffffffffffffffffffffffffffffffffffffffff161415610498576040517f08c379a000000000000000000000000000000000000000000000000000000000815260040161048f9061262b565b60405180910390fd5b8160056000858152602001908152602001600020600501546104ba919061264b565b3410156104fc576040517f08c379a00000000000000000000000000000000000000000000000000000000081526004016104f3906126f1565b60405180910390fd5b818173ffffffffffffffffffffffffffffffffffffffff1662fdd58e6005600087815260200190815260200160002060010160009054906101000a900473ffffffffffffffffffffffffffffffffffffffff1660056000888152602001908152602001600020600301546040518363ffffffff1660e01b8152600401610583929190612711565b602060405180830381865afa1580156105a0573d6000803e3d6000fd5b505050506040513d601f19601f820116820180604052508101906105c4919061274f565b1015610605576040517f08c379a00000000000000000000000000000000000000000000000000000000081526004016105fc906127ee565b60405180910390fd5b600015156005600085815260200190815260200160002060070160019054906101000a900460ff1615151461066f576040517f08c379a00000000000000000000000000000000000000000000000000000000081526004016106669061285a565b60405180910390fd5b81600560008581526020019081526020016000206006015410156106c8576040517f08c379a00000000000000000000000000000000000000000000000000000000081526004016106bf906128c6565b60405180910390fd5b6106d26003611a57565b8160056000858152602001908152602001600020600501546106f4919061264b565b6004600082825461070591906128e6565b9250508190555081600560008581526020019081526020016000206006016000828254610732919061293c565b92505081905550816006600185610749919061293c565b8154811061075a576107596124cc565b5b9060005260206000209060090201600601600082825461077a919061293c565b92505081905550600015156005600085815260200190815260200160002060070160009054906101000a900460ff16151514156108bb5760056000848152602001908152602001600020600201339080600181540180825580915050600190039060005260206000200160009091909190916101000a81548173ffffffffffffffffffffffffffffffffffffffff021916908373ffffffffffffffffffffffffffffffffffffffff1602179055506006600184610837919061293c565b81548110610848576108476124cc565b5b9060005260206000209060090201600201339080600181540180825580915050600190039060005260206000200160009091909190916101000a81548173ffffffffffffffffffffffffffffffffffffffff021916908373ffffffffffffffffffffffffffffffffffffffff1602179055505b6000600560008581526020019081526020016000206006015414156109545760016005600085815260200190815260200160002060070160016101000a81548160ff0219169083151502179055506001600660018561091a919061293c565b8154811061092b5761092a6124cc565b5b906000526020600020906009020160070160016101000a81548160ff0219169083151502179055505b7f765802dc5ad39e08f0aea7b3815cd1e0de8ab690a596190a723092423de2dee76005600085815260200190815260200160002060000160009054906101000a900473ffffffffffffffffffffffffffffffffffffffff166005600086815260200190815260200160002060010160009054906101000a900473ffffffffffffffffffffffffffffffffffffffff1633600560008881526020019081526020016000206003015486600560008a815260200190815260200160002060050154600560008b815260200190815260200160002060070160009054906101000a900460ff16604051610a4a979695949392919061297f565b60405180910390a18073ffffffffffffffffffffffffffffffffffffffff1663f242432a6005600086815260200190815260200160002060010160009054906101000a900473ffffffffffffffffffffffffffffffffffffffff16336005600088815260200190815260200160002060030154866040518563ffffffff1660e01b8152600401610add9493929190612a25565b600060405180830381600087803b158015610af757600080fd5b505af1158015610b0b573d6000803e3d6000fd5b505050506005600084815260200190815260200160002060010160009054906101000a900473ffffffffffffffffffffffffffffffffffffffff1673ffffffffffffffffffffffffffffffffffffffff166108fc60316032856005600089815260200190815260200160002060050154610b85919061264b565b610b8f9190612aac565b610b99919061264b565b9081150290604051600060405180830381858888f19350505050158015610bc4573d6000803e3d6000fd5b5050600180819055505050565b610bd9611a6d565b73ffffffffffffffffffffffffffffffffffffffff16610bf7610f75565b73ffffffffffffffffffffffffffffffffffffffff1614610c4d576040517f08c379a0000000000000000000000000000000000000000000000000000000008152600401610c4490612b29565b60405180910390fd5b60026001541415610c93576040517f08c379a0000000000000000000000000000000000000000000000000000000008152600401610c8a906124ac565b60405180910390fd5b60026001819055503373ffffffffffffffffffffffffffffffffffffffff166108fc479081150290604051600060405180830381858888f19350505050158015610ce1573d6000803e3d6000fd5b5060018081905550565b610cf3611a6d565b73ffffffffffffffffffffffffffffffffffffffff16610d11610f75565b73ffffffffffffffffffffffffffffffffffffffff1614610d67576040517f08c379a0000000000000000000000000000000000000000000000000000000008152600401610d5e90612b29565b60405180910390fd5b610d716000611a75565b565b60606006805480602002602001604051908101604052809291908181526020016000905b82821015610f6c5783829060005260206000209060090201604051806101400160405290816000820160009054906101000a900473ffffffffffffffffffffffffffffffffffffffff1673ffffffffffffffffffffffffffffffffffffffff1673ffffffffffffffffffffffffffffffffffffffff1681526020016001820160009054906101000a900473ffffffffffffffffffffffffffffffffffffffff1673ffffffffffffffffffffffffffffffffffffffff1673ffffffffffffffffffffffffffffffffffffffff16815260200160028201805480602002602001604051908101604052809291908181526020018280548015610eec57602002820191906000526020600020905b8160009054906101000a900473ffffffffffffffffffffffffffffffffffffffff1673ffffffffffffffffffffffffffffffffffffffff1681526020019060010190808311610ea2575b50505050508152602001600382015481526020016004820154815260200160058201548152602001600682015481526020016007820160009054906101000a900460ff161515151581526020016007820160019054906101000a900460ff1615151515815260200160088201548152505081526020019060010190610d97565b50505050905090565b60008060009054906101000a900473ffffffffffffffffffffffffffffffffffffffff16905090565b610fa6611b47565b60405180604001604052806004548152602001610fc36003611b39565b815250905090565b610fd3611b61565b60056000838152602001908152602001600020604051806101400160405290816000820160009054906101000a900473ffffffffffffffffffffffffffffffffffffffff1673ffffffffffffffffffffffffffffffffffffffff1673ffffffffffffffffffffffffffffffffffffffff1681526020016001820160009054906101000a900473ffffffffffffffffffffffffffffffffffffffff1673ffffffffffffffffffffffffffffffffffffffff1673ffffffffffffffffffffffffffffffffffffffff1681526020016002820180548060200260200160405190810160405280929190818152602001828054801561112357602002820191906000526020600020905b8160009054906101000a900473ffffffffffffffffffffffffffffffffffffffff1673ffffffffffffffffffffffffffffffffffffffff16815260200190600101908083116110d9575b50505050508152602001600382015481526020016004820154815260200160058201548152602001600682015481526020016007820160009054906101000a900460ff161515151581526020016007820160019054906101000a900460ff161515151581526020016008820154815250509050919050565b6005600082815260200190815260200160002060010160009054906101000a900473ffffffffffffffffffffffffffffffffffffffff1673ffffffffffffffffffffffffffffffffffffffff163373ffffffffffffffffffffffffffffffffffffffff161461123f576040517f08c379a000000000000000000000000000000000000000000000000000000000815260040161123690612b95565b60405180910390fd5b600015156005600083815260200190815260200160002060070160019054906101000a900460ff161515146112a9576040517f08c379a00000000000000000000000000000000000000000000000000000000081526004016112a090612c01565b60405180910390fd5b60016005600083815260200190815260200160002060070160016101000a81548160ff021916908315150217905550600160066001836112e9919061293c565b815481106112fa576112f96124cc565b5b906000526020600020906009020160070160016101000a81548160ff0219169083151502179055507f8b21015f510e5f42785fad11aa75334f0f622f97504d8c498540b869d36b6308816040516113519190612434565b60405180910390a150565b611364611a6d565b73ffffffffffffffffffffffffffffffffffffffff16611382610f75565b73ffffffffffffffffffffffffffffffffffffffff16146113d8576040517f08c379a00000000000000000000000000000000000000000000000000000000081526004016113cf90612b29565b60405180910390fd5b600073ffffffffffffffffffffffffffffffffffffffff168173ffffffffffffffffffffffffffffffffffffffff161415611448576040517f08c379a000000000000000000000000000000000000000000000000000000000815260040161143f90612c93565b60405180910390fd5b61145181611a75565b50565b60006002600154141561149c576040517f08c379a0000000000000000000000000000000000000000000000000000000008152600401611493906124ac565b60405180910390fd5b60026001819055506000869050600085116114ec576040517f08c379a00000000000000000000000000000000000000000000000000000000081526004016114e390612cff565b60405180910390fd5b848173ffffffffffffffffffffffffffffffffffffffff1662fdd58e33896040518363ffffffff1660e01b8152600401611527929190612711565b602060405180830381865afa158015611544573d6000803e3d6000fd5b505050506040513d601f19601f82011682018060405250810190611568919061274f565b10156115a9576040517f08c379a00000000000000000000000000000000000000000000000000000000081526004016115a090612d6b565b60405180910390fd5b8073ffffffffffffffffffffffffffffffffffffffff1663e985e9c533306040518363ffffffff1660e01b81526004016115e4929190612d8b565b602060405180830381865afa158015611601573d6000803e3d6000fd5b505050506040513d601f19601f820116820180604052508101906116259190612de0565b611664576040517f08c379a000000000000000000000000000000000000000000000000000000000815260040161165b90612e59565b60405180910390fd5b60008084511190506116766002611a57565b60006116826002611b39565b90506040518061014001604052808a73ffffffffffffffffffffffffffffffffffffffff1681526020013373ffffffffffffffffffffffffffffffffffffffff16815260200186815260200189815260200188815260200187815260200188815260200183151581526020016000151581526020016117016002611b39565b8152506005600083815260200190815260200160002060008201518160000160006101000a81548173ffffffffffffffffffffffffffffffffffffffff021916908373ffffffffffffffffffffffffffffffffffffffff16021790555060208201518160010160006101000a81548173ffffffffffffffffffffffffffffffffffffffff021916908373ffffffffffffffffffffffffffffffffffffffff16021790555060408201518160020190805190602001906117c1929190611be4565b50606082015181600301556080820151816004015560a0820151816005015560c0820151816006015560e08201518160070160006101000a81548160ff0219169083151502179055506101008201518160070160016101000a81548160ff021916908315150217905550610120820151816008015590505060066005600083815260200190815260200160002090806001815401808255809150506001900390600052602060002090600902016000909190919091506000820160009054906101000a900473ffffffffffffffffffffffffffffffffffffffff168160000160006101000a81548173ffffffffffffffffffffffffffffffffffffffff021916908373ffffffffffffffffffffffffffffffffffffffff1602179055506001820160009054906101000a900473ffffffffffffffffffffffffffffffffffffffff168160010160006101000a81548173ffffffffffffffffffffffffffffffffffffffff021916908373ffffffffffffffffffffffffffffffffffffffff160217905550600282018160020190805461195b929190611c6e565b50600382015481600301556004820154816004015560058201548160050155600682015481600601556007820160009054906101000a900460ff168160070160006101000a81548160ff0219169083151502179055506007820160019054906101000a900460ff168160070160016101000a81548160ff0219169083151502179055506008820154816008015550507fde961a5f650c3228d746e3dfa928fc1104078f8b7f342120b84267658824891589338a8a8a8a88611a1c6002611b39565b604051611a30989796959493929190612ee8565b60405180910390a1611a426002611b39565b93505050506001808190555095945050505050565b6001816000016000828254019250508190555050565b600033905090565b60008060009054906101000a900473ffffffffffffffffffffffffffffffffffffffff169050816000806101000a81548173ffffffffffffffffffffffffffffffffffffffff021916908373ffffffffffffffffffffffffffffffffffffffff1602179055508173ffffffffffffffffffffffffffffffffffffffff168173ffffffffffffffffffffffffffffffffffffffff167f8be0079c531659141344cd1fd0a4f28419497f9722a3daafe3b4186f6b6457e060405160405180910390a35050565b600081600001549050919050565b604051806040016040528060008152602001600081525090565b604051806101400160405280600073ffffffffffffffffffffffffffffffffffffffff168152602001600073ffffffffffffffffffffffffffffffffffffffff1681526020016060815260200160008152602001600081526020016000815260200160008152602001600015158152602001600015158152602001600081525090565b828054828255906000526020600020908101928215611c5d579160200282015b82811115611c5c5782518260006101000a81548173ffffffffffffffffffffffffffffffffffffffff021916908373ffffffffffffffffffffffffffffffffffffffff16021790555091602001919060010190611c04565b5b509050611c6a9190611cc0565b5090565b828054828255906000526020600020908101928215611caf5760005260206000209182015b82811115611cae578254825591600101919060010190611c93565b5b509050611cbc9190611cc0565b5090565b5b80821115611cd9576000816000905550600101611cc1565b5090565b6000604051905090565b600080fd5b600080fd5b6000819050919050565b611d0481611cf1565b8114611d0f57600080fd5b50565b600081359050611d2181611cfb565b92915050565b60008060408385031215611d3e57611d3d611ce7565b5b6000611d4c85828601611d12565b9250506020611d5d85828601611d12565b9150509250929050565b600081519050919050565b600082825260208201905092915050565b6000819050602082019050919050565b600073ffffffffffffffffffffffffffffffffffffffff82169050919050565b6000611dbe82611d93565b9050919050565b611dce81611db3565b82525050565b600081519050919050565b600082825260208201905092915050565b6000819050602082019050919050565b6000611e0c8383611dc5565b60208301905092915050565b6000602082019050919050565b6000611e3082611dd4565b611e3a8185611ddf565b9350611e4583611df0565b8060005b83811015611e76578151611e5d8882611e00565b9750611e6883611e18565b925050600181019050611e49565b5085935050505092915050565b611e8c81611cf1565b82525050565b60008115159050919050565b611ea781611e92565b82525050565b600061014083016000830151611ec66000860182611dc5565b506020830151611ed96020860182611dc5565b5060408301518482036040860152611ef18282611e25565b9150506060830151611f066060860182611e83565b506080830151611f196080860182611e83565b5060a0830151611f2c60a0860182611e83565b5060c0830151611f3f60c0860182611e83565b5060e0830151611f5260e0860182611e9e565b50610100830151611f67610100860182611e9e565b50610120830151611f7c610120860182611e83565b508091505092915050565b6000611f938383611ead565b905092915050565b6000602082019050919050565b6000611fb382611d67565b611fbd8185611d72565b935083602082028501611fcf85611d83565b8060005b8581101561200b5784840389528151611fec8582611f87565b9450611ff783611f9b565b925060208a01995050600181019050611fd3565b50829750879550505050505092915050565b600060208201905081810360008301526120378184611fa8565b905092915050565b61204881611db3565b82525050565b6000602082019050612063600083018461203f565b92915050565b60408201600082015161207f6000850182611e83565b5060208201516120926020850182611e83565b50505050565b60006040820190506120ad6000830184612069565b92915050565b6000602082840312156120c9576120c8611ce7565b5b60006120d784828501611d12565b91505092915050565b6000610140830160008301516120f96000860182611dc5565b50602083015161210c6020860182611dc5565b50604083015184820360408601526121248282611e25565b91505060608301516121396060860182611e83565b50608083015161214c6080860182611e83565b5060a083015161215f60a0860182611e83565b5060c083015161217260c0860182611e83565b5060e083015161218560e0860182611e9e565b5061010083015161219a610100860182611e9e565b506101208301516121af610120860182611e83565b508091505092915050565b600060208201905081810360008301526121d481846120e0565b905092915050565b6121e581611db3565b81146121f057600080fd5b50565b600081359050612202816121dc565b92915050565b60006020828403121561221e5761221d611ce7565b5b600061222c848285016121f3565b91505092915050565b600080fd5b6000601f19601f8301169050919050565b7f4e487b7100000000000000000000000000000000000000000000000000000000600052604160045260246000fd5b6122838261223a565b810181811067ffffffffffffffff821117156122a2576122a161224b565b5b80604052505050565b60006122b5611cdd565b90506122c1828261227a565b919050565b600067ffffffffffffffff8211156122e1576122e061224b565b5b602082029050602081019050919050565b600080fd5b600061230a612305846122c6565b6122ab565b9050808382526020820190506020840283018581111561232d5761232c6122f2565b5b835b81811015612356578061234288826121f3565b84526020840193505060208101905061232f565b5050509392505050565b600082601f83011261237557612374612235565b5b81356123858482602086016122f7565b91505092915050565b600080600080600060a086880312156123aa576123a9611ce7565b5b60006123b8888289016121f3565b95505060206123c988828901611d12565b94505060406123da88828901611d12565b93505060606123eb88828901611d12565b925050608086013567ffffffffffffffff81111561240c5761240b611cec565b5b61241888828901612360565b9150509295509295909350565b61242e81611cf1565b82525050565b60006020820190506124496000830184612425565b92915050565b600082825260208201905092915050565b7f5265656e7472616e637947756172643a207265656e7472616e742063616c6c00600082015250565b6000612496601f8361244f565b91506124a182612460565b602082019050919050565b600060208201905081810360008301526124c581612489565b9050919050565b7f4e487b7100000000000000000000000000000000000000000000000000000000600052603260045260246000fd5b7f4e487b7100000000000000000000000000000000000000000000000000000000600052601160045260246000fd5b600061253582611cf1565b91507fffffffffffffffffffffffffffffffffffffffffffffffffffffffffffffffff821415612568576125676124fb565b5b600182019050919050565b7f53616c6520697320707269766174652100000000000000000000000000000000600082015250565b60006125a960108361244f565b91506125b482612573565b602082019050919050565b600060208201905081810360008301526125d88161259c565b9050919050565b7f43616e27742062757920796f7572206f6e7720746f6b656e7321000000000000600082015250565b6000612615601a8361244f565b9150612620826125df565b602082019050919050565b6000602082019050818103600083015261264481612608565b9050919050565b600061265682611cf1565b915061266183611cf1565b9250817fffffffffffffffffffffffffffffffffffffffffffffffffffffffffffffffff048311821515161561269a576126996124fb565b5b828202905092915050565b7f496e73756666696369656e742066756e64732100000000000000000000000000600082015250565b60006126db60138361244f565b91506126e6826126a5565b602082019050919050565b6000602082019050818103600083015261270a816126ce565b9050919050565b6000604082019050612726600083018561203f565b6127336020830184612425565b9392505050565b60008151905061274981611cfb565b92915050565b60006020828403121561276557612764611ce7565b5b60006127738482850161273a565b91505092915050565b7f53656c6c657220646f65736e2774206861766520656e6f75676820746f6b656e60008201527f7321000000000000000000000000000000000000000000000000000000000000602082015250565b60006127d860228361244f565b91506127e38261277c565b604082019050919050565b60006020820190508181036000830152612807816127cb565b9050919050565b7f4c697374696e67206e6f7420617661696c61626c6520616e796d6f7265210000600082015250565b6000612844601e8361244f565b915061284f8261280e565b602082019050919050565b6000602082019050818103600083015261287381612837565b9050919050565b7f4e6f7420656e6f75676820746f6b656e73206c65667421000000000000000000600082015250565b60006128b060178361244f565b91506128bb8261287a565b602082019050919050565b600060208201905081810360008301526128df816128a3565b9050919050565b60006128f182611cf1565b91506128fc83611cf1565b9250827fffffffffffffffffffffffffffffffffffffffffffffffffffffffffffffffff03821115612931576129306124fb565b5b828201905092915050565b600061294782611cf1565b915061295283611cf1565b925082821015612965576129646124fb565b5b828203905092915050565b61297981611e92565b82525050565b600060e082019050612994600083018a61203f565b6129a1602083018961203f565b6129ae604083018861203f565b6129bb6060830187612425565b6129c86080830186612425565b6129d560a0830185612425565b6129e260c0830184612970565b98975050505050505050565b600082825260208201905092915050565b50565b6000612a0f6000836129ee565b9150612a1a826129ff565b600082019050919050565b600060a082019050612a3a600083018761203f565b612a47602083018661203f565b612a546040830185612425565b612a616060830184612425565b8181036080830152612a7281612a02565b905095945050505050565b7f4e487b7100000000000000000000000000000000000000000000000000000000600052601260045260246000fd5b6000612ab782611cf1565b9150612ac283611cf1565b925082612ad257612ad1612a7d565b5b828204905092915050565b7f4f776e61626c653a2063616c6c6572206973206e6f7420746865206f776e6572600082015250565b6000612b1360208361244f565b9150612b1e82612add565b602082019050919050565b60006020820190508181036000830152612b4281612b06565b9050919050565b7f4e6f742063616c6c65722773206c697374696e67210000000000000000000000600082015250565b6000612b7f60158361244f565b9150612b8a82612b49565b602082019050919050565b60006020820190508181036000830152612bae81612b72565b9050919050565b7f4c697374696e67206e6f7420617661696c61626c652100000000000000000000600082015250565b6000612beb60168361244f565b9150612bf682612bb5565b602082019050919050565b60006020820190508181036000830152612c1a81612bde565b9050919050565b7f4f776e61626c653a206e6577206f776e657220697320746865207a65726f206160008201527f6464726573730000000000000000000000000000000000000000000000000000602082015250565b6000612c7d60268361244f565b9150612c8882612c21565b604082019050919050565b60006020820190508181036000830152612cac81612c70565b9050919050565b7f416d6f756e74206d7573742062652067726561746572207468616e2030210000600082015250565b6000612ce9601e8361244f565b9150612cf482612cb3565b602082019050919050565b60006020820190508181036000830152612d1881612cdc565b9050919050565b7f43616c6c6572206d757374206f776e20676976656e20746f6b656e2100000000600082015250565b6000612d55601c8361244f565b9150612d6082612d1f565b602082019050919050565b60006020820190508181036000830152612d8481612d48565b9050919050565b6000604082019050612da0600083018561203f565b612dad602083018461203f565b9392505050565b612dbd81611e92565b8114612dc857600080fd5b50565b600081519050612dda81612db4565b92915050565b600060208284031215612df657612df5611ce7565b5b6000612e0484828501612dcb565b91505092915050565b7f436f6e7472616374206d75737420626520617070726f76656421000000000000600082015250565b6000612e43601a8361244f565b9150612e4e82612e0d565b602082019050919050565b60006020820190508181036000830152612e7281612e36565b9050919050565b600082825260208201905092915050565b6000612e9582611dd4565b612e9f8185612e79565b9350612eaa83611df0565b8060005b83811015612edb578151612ec28882611e00565b9750612ecd83611e18565b925050600181019050612eae565b5085935050505092915050565b600061010082019050612efe600083018b61203f565b612f0b602083018a61203f565b612f186040830189612425565b612f256060830188612425565b612f326080830187612425565b81810360a0830152612f448186612e8a565b9050612f5360c0830185612970565b612f6060e0830184612425565b999850505050505050505056fea2646970667358221220079488c99ffe82bd611aef8cf1d2f3ee866782dd82bdacd9bd4dd2bfe233a7fd64736f6c634300080b0033",
  "immutableReferences": {},
  "source": "// SPDX-License-Identifier: MIT\r\npragma solidity ^0.8.0;\r\n\r\nimport \"../node_modules/@openzeppelin/contracts/utils/Counters.sol\";\r\nimport \"../node_modules/@openzeppelin/contracts/token/ERC1155/ERC1155.sol\";\r\nimport \"../node_modules/@openzeppelin/contracts/security/ReentrancyGuard.sol\";\r\nimport \"../node_modules/@openzeppelin/contracts/access/Ownable.sol\";\r\n\r\n/*\r\n * Smart contract allowing users to trade (list and buy) any ERC1155 tokens.\r\n * Users can create public and private listings.\r\n * Users can set more addresses that can buy tokens (like whitelist).\r\n */\r\n\r\n\r\ncontract Marketplace is Ownable, ReentrancyGuard{\r\n\r\n    using Counters for Counters.Counter;\r\n    Counters.Counter private _listingIds;\r\n    Counters.Counter private _numOfTxs;\r\n    uint256 private _volume;\r\n\r\n    event TokenListed(address contractAddress, address seller, uint256 tokenId, uint256 amount, uint256 pricePerToken, address[] privateBuyer, bool privateSale, uint listingId);\r\n    event TokenSold(address contractAddress, address seller, address buyer, uint256 tokenId, uint256 amount, uint256 pricePerToken, bool privateSale);\r\n    event ListingDeleted(uint listingId);\r\n\r\n    mapping(uint256 => Listing) private idToListing;\r\n    Listing[] private listingsArray;\r\n\r\n    struct Listing {\r\n        address contractAddress;\r\n        address seller;\r\n        address[] buyer;\r\n        uint256 tokenId;\r\n        uint256 amount;\r\n        uint256 price;\r\n        uint256 tokensAvailable;\r\n        bool privateListing;\r\n        bool completed;\r\n        uint listingId;\r\n    }\r\n\r\n    struct Stats {\r\n        uint256 volume;\r\n        uint256 itemsSold;\r\n    }\r\n\r\n\r\n    function listToken(address contractAddress, uint256 tokenId, uint256 amount, uint256 price, address[] memory privateBuyer) public nonReentrant returns(uint256) {\r\n        ERC1155 token = ERC1155(contractAddress);\r\n\r\n        require(amount > 0, \"Amount must be greater than 0!\");\r\n        require(token.balanceOf(msg.sender, tokenId) >= amount, \"Caller must own given token!\");\r\n        require(token.isApprovedForAll(msg.sender, address(this)), \"Contract must be approved!\");\r\n\r\n        bool privateListing = privateBuyer.length>0;\r\n        _listingIds.increment();\r\n        uint256 listingId = _listingIds.current();\r\n        idToListing[listingId] = Listing(contractAddress, msg.sender, privateBuyer, tokenId, amount, price, amount, privateListing, false, _listingIds.current());\r\n        listingsArray.push(idToListing[listingId]);\r\n\r\n        emit TokenListed(contractAddress, msg.sender, tokenId, amount, price, privateBuyer, privateListing, _listingIds.current());\r\n\r\n        return _listingIds.current();\r\n    }\r\n\r\n    function purchaseToken(uint256 listingId, uint256 amount) public payable nonReentrant {\r\n        ERC1155 token = ERC1155(idToListing[listingId].contractAddress);\r\n\r\n        if(idToListing[listingId].privateListing == true) {\r\n            bool whitelisted = false;\r\n            for(uint i=0; i<idToListing[listingId].buyer.length; i++){\r\n                if(idToListing[listingId].buyer[i] == msg.sender) {\r\n                    whitelisted = true;\r\n                }\r\n            }\r\n            require(whitelisted == true, \"Sale is private!\");\r\n        }\r\n\r\n        require(msg.sender != idToListing[listingId].seller, \"Can't buy your onw tokens!\");\r\n        require(msg.value >= idToListing[listingId].price * amount, \"Insufficient funds!\");\r\n        require(token.balanceOf(idToListing[listingId].seller, idToListing[listingId].tokenId) >= amount, \"Seller doesn't have enough tokens!\");\r\n        require(idToListing[listingId].completed == false, \"Listing not available anymore!\");\r\n        require(idToListing[listingId].tokensAvailable >= amount, \"Not enough tokens left!\");\r\n        \r\n        _numOfTxs.increment();\r\n        _volume += idToListing[listingId].price * amount;\r\n\r\n        idToListing[listingId].tokensAvailable -= amount;\r\n        listingsArray[listingId-1].tokensAvailable -= amount;\r\n        if(idToListing[listingId].privateListing == false){\r\n            idToListing[listingId].buyer.push(msg.sender);\r\n            listingsArray[listingId-1].buyer.push(msg.sender);\r\n        }\r\n        if(idToListing[listingId].tokensAvailable == 0) {\r\n            idToListing[listingId].completed = true;\r\n            listingsArray[listingId-1].completed = true;\r\n        }\r\n\r\n        emit TokenSold(\r\n            idToListing[listingId].contractAddress,\r\n            idToListing[listingId].seller,\r\n            msg.sender,\r\n            idToListing[listingId].tokenId,\r\n            amount,\r\n            idToListing[listingId].price,\r\n            idToListing[listingId].privateListing\r\n        );\r\n\r\n        token.safeTransferFrom(idToListing[listingId].seller, msg.sender, idToListing[listingId].tokenId, amount, \"\");\r\n        payable(idToListing[listingId].seller).transfer((idToListing[listingId].price * amount/50)*49); //Transfering 98% to seller, fee 2%  ((msg.value/50)*49)\r\n    }\r\n\r\n    function deleteListing(uint _listingId) public {\r\n        require(msg.sender == idToListing[_listingId].seller, \"Not caller's listing!\");\r\n        require(idToListing[_listingId].completed == false, \"Listing not available!\");\r\n        \r\n        idToListing[_listingId].completed = true;\r\n        listingsArray[_listingId-1].completed = true;\r\n\r\n        emit ListingDeleted(_listingId);\r\n    }\r\n\r\n    function  viewAllListings() public view returns (Listing[] memory) {\r\n        return listingsArray;\r\n    }\r\n\r\n    function viewListingById(uint256 _id) public view returns(Listing memory) {\r\n        return idToListing[_id];\r\n    }\r\n\r\n    function viewStats() public view returns(Stats memory) {\r\n        return Stats(_volume, _numOfTxs.current());\r\n    }\r\n\r\n    function withdrawFees() public onlyOwner nonReentrant {\r\n        payable(msg.sender).transfer(address(this).balance);\r\n    }\r\n\r\n}",
  "sourcePath": "C:\\Users\\tijan\\Qsync\\Documents\\PROGRAMIRANJE\\SOLIDITY\\nft-marketplace\\contracts\\Marketplace.sol",
  "compiler": {
    "name": "solc",
    "version": "0.8.11+commit.d7f03943.Emscripten.clang"
  },
  "schemaVersion": "3.4.3",
  "updatedAt": "2022-01-24T14:59:35.425Z",
  "networkType": "ethereum",
  "devdoc": {
    "kind": "dev",
    "methods": {
      "owner()": {
        "details": "Returns the address of the current owner."
      },
      "renounceOwnership()": {
        "details": "Leaves the contract without owner. It will not be possible to call `onlyOwner` functions anymore. Can only be called by the current owner. NOTE: Renouncing ownership will leave the contract without an owner, thereby removing any functionality that is only available to the owner."
      },
      "transferOwnership(address)": {
        "details": "Transfers ownership of the contract to a new account (`newOwner`). Can only be called by the current owner."
      }
    },
    "version": 1
  },
  "userdoc": {
    "kind": "user",
    "methods": {},
    "version": 1
  }
}