{
  "contractName": "MarketPlace",
  "abi": [
    {
      "inputs": [],
      "stateMutability": "nonpayable",
      "type": "constructor"
    },
    {
      "anonymous": false,
      "inputs": [
        {
          "indexed": true,
          "internalType": "uint256",
          "name": "itemId",
          "type": "uint256"
        },
        {
          "indexed": true,
          "internalType": "address",
          "name": "nftContract",
          "type": "address"
        },
        {
          "indexed": true,
          "internalType": "uint256",
          "name": "tokenId",
          "type": "uint256"
        },
        {
          "indexed": false,
          "internalType": "address",
          "name": "seller",
          "type": "address"
        },
        {
          "indexed": false,
          "internalType": "address",
          "name": "owner",
          "type": "address"
        },
        {
          "indexed": false,
          "internalType": "uint256",
          "name": "price",
          "type": "uint256"
        },
        {
          "indexed": false,
          "internalType": "uint256",
          "name": "amount",
          "type": "uint256"
        },
        {
          "indexed": false,
          "internalType": "bool",
          "name": "sold",
          "type": "bool"
        }
      ],
      "name": "MarketItemCreated",
      "type": "event"
    },
    {
      "anonymous": false,
      "inputs": [
        {
          "indexed": true,
          "internalType": "uint256",
          "name": "itemId",
          "type": "uint256"
        },
        {
          "indexed": false,
          "internalType": "address",
          "name": "owner",
          "type": "address"
        },
        {
          "indexed": false,
          "internalType": "uint256",
          "name": "amount",
          "type": "uint256"
        }
      ],
      "name": "MarketItemSold",
      "type": "event"
    },
    {
      "inputs": [],
      "name": "owner",
      "outputs": [
        {
          "internalType": "address",
          "name": "",
          "type": "address"
        }
      ],
      "stateMutability": "view",
      "type": "function"
    },
    {
      "inputs": [
        {
          "internalType": "address",
          "name": "nftContract",
          "type": "address"
        },
        {
          "internalType": "uint256",
          "name": "tokenId",
          "type": "uint256"
        },
        {
          "internalType": "uint256",
          "name": "price",
          "type": "uint256"
        },
        {
          "internalType": "uint256",
          "name": "amount",
          "type": "uint256"
        }
      ],
      "name": "createMarketItem",
      "outputs": [],
      "stateMutability": "payable",
      "type": "function"
    },
    {
      "inputs": [
        {
          "internalType": "address",
          "name": "nftContract",
          "type": "address"
        },
        {
          "internalType": "uint256",
          "name": "itemId",
          "type": "uint256"
        }
      ],
      "name": "createMarketSale",
      "outputs": [],
      "stateMutability": "payable",
      "type": "function"
    },
    {
      "inputs": [],
      "name": "fetchMarketItems",
      "outputs": [
        {
          "components": [
            {
              "internalType": "uint256",
              "name": "itemId",
              "type": "uint256"
            },
            {
              "internalType": "address",
              "name": "nftContract",
              "type": "address"
            },
            {
              "internalType": "uint256",
              "name": "tokenId",
              "type": "uint256"
            },
            {
              "internalType": "address payable",
              "name": "seller",
              "type": "address"
            },
            {
              "internalType": "address payable",
              "name": "owner",
              "type": "address"
            },
            {
              "internalType": "uint256",
              "name": "price",
              "type": "uint256"
            },
            {
              "internalType": "uint256",
              "name": "amount",
              "type": "uint256"
            },
            {
              "internalType": "bool",
              "name": "sold",
              "type": "bool"
            }
          ],
          "internalType": "struct MarketPlace.MarketItem[]",
          "name": "",
          "type": "tuple[]"
        }
      ],
      "stateMutability": "view",
      "type": "function"
    }
  ],
  "bytecode": "0x608060405234801561001057600080fd5b50600160008190555033600360006101000a81548173ffffffffffffffffffffffffffffffffffffffff021916908373ffffffffffffffffffffffffffffffffffffffff160217905550611354806100696000396000f3fe60806040526004361061003f5760003560e01c80630f08efe014610044578063599ba2341461006f5780638da5cb5b1461008b578063c23b139e146100b6575b600080fd5b34801561005057600080fd5b506100596100d2565b6040516100669190610cf2565b60405180910390f35b61008960048036038101906100849190610d71565b6103a7565b005b34801561009757600080fd5b506100a0610720565b6040516100ad9190610de7565b60405180910390f35b6100d060048036038101906100cb9190610e02565b610746565b005b606060006100e06001610a5d565b905060006100ee6002610a5d565b6100f86001610a5d565b6101029190610e71565b90506000808267ffffffffffffffff81111561012157610120610ea5565b5b60405190808252806020026020018201604052801561015a57816020015b610147610a81565b81526020019060019003908161013f5790505b50905060005b8481101561039c57600073ffffffffffffffffffffffffffffffffffffffff16600460006001846101919190610ed4565b815260200190815260200160002060040160009054906101000a900473ffffffffffffffffffffffffffffffffffffffff1673ffffffffffffffffffffffffffffffffffffffff1614156103895760006001826101ee9190610ed4565b905060006004600083815260200190815260200160002090508060405180610100016040529081600082015481526020016001820160009054906101000a900473ffffffffffffffffffffffffffffffffffffffff1673ffffffffffffffffffffffffffffffffffffffff1673ffffffffffffffffffffffffffffffffffffffff168152602001600282015481526020016003820160009054906101000a900473ffffffffffffffffffffffffffffffffffffffff1673ffffffffffffffffffffffffffffffffffffffff1673ffffffffffffffffffffffffffffffffffffffff1681526020016004820160009054906101000a900473ffffffffffffffffffffffffffffffffffffffff1673ffffffffffffffffffffffffffffffffffffffff1673ffffffffffffffffffffffffffffffffffffffff16815260200160058201548152602001600682015481526020016007820160009054906101000a900460ff16151515158152505084868151811061036c5761036b610f2a565b5b60200260200101819052506001856103849190610ed4565b945050505b808061039490610f59565b915050610160565b508094505050505090565b600260005414156103ed576040517f08c379a00000000000000000000000000000000000000000000000000000000081526004016103e490610fff565b60405180910390fd5b600260008190555060008211610438576040517f08c379a000000000000000000000000000000000000000000000000000000000815260040161042f9061106b565b60405180910390fd5b6000811161047b576040517f08c379a0000000000000000000000000000000000000000000000000000000008152600401610472906110d7565b60405180910390fd5b6104856001610a6b565b60006104916001610a5d565b90506040518061010001604052808281526020018673ffffffffffffffffffffffffffffffffffffffff1681526020018581526020013373ffffffffffffffffffffffffffffffffffffffff168152602001600073ffffffffffffffffffffffffffffffffffffffff16815260200184815260200183815260200160001515815250600460008381526020019081526020016000206000820151816000015560208201518160010160006101000a81548173ffffffffffffffffffffffffffffffffffffffff021916908373ffffffffffffffffffffffffffffffffffffffff1602179055506040820151816002015560608201518160030160006101000a81548173ffffffffffffffffffffffffffffffffffffffff021916908373ffffffffffffffffffffffffffffffffffffffff16021790555060808201518160040160006101000a81548173ffffffffffffffffffffffffffffffffffffffff021916908373ffffffffffffffffffffffffffffffffffffffff16021790555060a0820151816005015560c0820151816006015560e08201518160070160006101000a81548160ff0219169083151502179055509050508473ffffffffffffffffffffffffffffffffffffffff1663f242432a333087866040518563ffffffff1660e01b8152600401610685949392919061113d565b600060405180830381600087803b15801561069f57600080fd5b505af11580156106b3573d6000803e3d6000fd5b50505050838573ffffffffffffffffffffffffffffffffffffffff16827fd0bb1eaea8ab6cd0c288f209757734c5e280d8f4e05f93b1db82da8db7278758336000888860006040516107099594939291906111a4565b60405180910390a450600160008190555050505050565b600360009054906101000a900473ffffffffffffffffffffffffffffffffffffffff1681565b6002600054141561078c576040517f08c379a000000000000000000000000000000000000000000000000000000000815260040161078390610fff565b60405180910390fd5b600260008190555060006004600083815260200190815260200160002060050154905060006004600084815260200190815260200160002060020154905060006004600085815260200190815260200160002060070160009054906101000a900460ff16905060006004600086815260200190815260200160002060060154905083341461084f576040517f08c379a000000000000000000000000000000000000000000000000000000000815260040161084690611269565b60405180910390fd5b600115158215151415610897576040517f08c379a000000000000000000000000000000000000000000000000000000000815260040161088e906112d5565b60405180910390fd5b847f79705a7faf0849ec33d9f436aa88d50146d23806527cf13010abf315cbfe760033836040516108c99291906112f5565b60405180910390a26004600086815260200190815260200160002060030160009054906101000a900473ffffffffffffffffffffffffffffffffffffffff1673ffffffffffffffffffffffffffffffffffffffff166108fc349081150290604051600060405180830381858888f1935050505015801561094d573d6000803e3d6000fd5b508573ffffffffffffffffffffffffffffffffffffffff1663f242432a303386856040518563ffffffff1660e01b815260040161098d949392919061113d565b600060405180830381600087803b1580156109a757600080fd5b505af11580156109bb573d6000803e3d6000fd5b50505050336004600087815260200190815260200160002060040160006101000a81548173ffffffffffffffffffffffffffffffffffffffff021916908373ffffffffffffffffffffffffffffffffffffffff160217905550610a1e6002610a6b565b60016004600087815260200190815260200160002060070160006101000a81548160ff0219169083151502179055505050505060016000819055505050565b600081600001549050919050565b6001816000016000828254019250508190555050565b60405180610100016040528060008152602001600073ffffffffffffffffffffffffffffffffffffffff16815260200160008152602001600073ffffffffffffffffffffffffffffffffffffffff168152602001600073ffffffffffffffffffffffffffffffffffffffff16815260200160008152602001600081526020016000151581525090565b600081519050919050565b600082825260208201905092915050565b6000819050602082019050919050565b6000819050919050565b610b4981610b36565b82525050565b600073ffffffffffffffffffffffffffffffffffffffff82169050919050565b6000610b7a82610b4f565b9050919050565b610b8a81610b6f565b82525050565b6000610b9b82610b4f565b9050919050565b610bab81610b90565b82525050565b60008115159050919050565b610bc681610bb1565b82525050565b61010082016000820151610be36000850182610b40565b506020820151610bf66020850182610b81565b506040820151610c096040850182610b40565b506060820151610c1c6060850182610ba2565b506080820151610c2f6080850182610ba2565b5060a0820151610c4260a0850182610b40565b5060c0820151610c5560c0850182610b40565b5060e0820151610c6860e0850182610bbd565b50505050565b6000610c7a8383610bcc565b6101008301905092915050565b6000602082019050919050565b6000610c9f82610b0a565b610ca98185610b15565b9350610cb483610b26565b8060005b83811015610ce5578151610ccc8882610c6e565b9750610cd783610c87565b925050600181019050610cb8565b5085935050505092915050565b60006020820190508181036000830152610d0c8184610c94565b905092915050565b600080fd5b610d2281610b6f565b8114610d2d57600080fd5b50565b600081359050610d3f81610d19565b92915050565b610d4e81610b36565b8114610d5957600080fd5b50565b600081359050610d6b81610d45565b92915050565b60008060008060808587031215610d8b57610d8a610d14565b5b6000610d9987828801610d30565b9450506020610daa87828801610d5c565b9350506040610dbb87828801610d5c565b9250506060610dcc87828801610d5c565b91505092959194509250565b610de181610b6f565b82525050565b6000602082019050610dfc6000830184610dd8565b92915050565b60008060408385031215610e1957610e18610d14565b5b6000610e2785828601610d30565b9250506020610e3885828601610d5c565b9150509250929050565b7f4e487b7100000000000000000000000000000000000000000000000000000000600052601160045260246000fd5b6000610e7c82610b36565b9150610e8783610b36565b925082821015610e9a57610e99610e42565b5b828203905092915050565b7f4e487b7100000000000000000000000000000000000000000000000000000000600052604160045260246000fd5b6000610edf82610b36565b9150610eea83610b36565b9250827fffffffffffffffffffffffffffffffffffffffffffffffffffffffffffffffff03821115610f1f57610f1e610e42565b5b828201905092915050565b7f4e487b7100000000000000000000000000000000000000000000000000000000600052603260045260246000fd5b6000610f6482610b36565b91507fffffffffffffffffffffffffffffffffffffffffffffffffffffffffffffffff821415610f9757610f96610e42565b5b600182019050919050565b600082825260208201905092915050565b7f5265656e7472616e637947756172643a207265656e7472616e742063616c6c00600082015250565b6000610fe9601f83610fa2565b9150610ff482610fb3565b602082019050919050565b6000602082019050818103600083015261101881610fdc565b9050919050565b7f5072696365206d7573742062652067726561746572207468616e203000000000600082015250565b6000611055601c83610fa2565b91506110608261101f565b602082019050919050565b6000602082019050818103600083015261108481611048565b9050919050565b7f416d6f756e74206d7573742062652067726561746572207468616e2030000000600082015250565b60006110c1601d83610fa2565b91506110cc8261108b565b602082019050919050565b600060208201905081810360008301526110f0816110b4565b9050919050565b61110081610b36565b82525050565b600082825260208201905092915050565b50565b6000611127600083611106565b915061113282611117565b600082019050919050565b600060a0820190506111526000830187610dd8565b61115f6020830186610dd8565b61116c60408301856110f7565b61117960608301846110f7565b818103608083015261118a8161111a565b905095945050505050565b61119e81610bb1565b82525050565b600060a0820190506111b96000830188610dd8565b6111c66020830187610dd8565b6111d360408301866110f7565b6111e060608301856110f7565b6111ed6080830184611195565b9695505050505050565b7f506c65617365207375626d6974207468652061736b696e67207072696365206960008201527f6e206f7264657220746f20636f6d706c65746520746865207075726368617365602082015250565b6000611253604083610fa2565b915061125e826111f7565b604082019050919050565b6000602082019050818103600083015261128281611246565b9050919050565b7f546869732053616c652068617320616c726564792066696e6e69736865640000600082015250565b60006112bf601e83610fa2565b91506112ca82611289565b602082019050919050565b600060208201905081810360008301526112ee816112b2565b9050919050565b600060408201905061130a6000830185610dd8565b61131760208301846110f7565b939250505056fea2646970667358221220ed373e7d1e6db814e3eae1e915c66e30ebcd6f60441fd8b252068887c0c4a88564736f6c634300080b0033",
  "immutableReferences": {},
  "source": "// SPDX-License-Identifier: MIT\r\npragma solidity ^0.8.0;\r\n\r\n/**\r\nimport \"github.com/OpenZeppelin/openzeppelin-contracts/blob/master/contracts/utils/Counters.sol\";\r\nimport \"github.com/OpenZeppelin/openzeppelin-contracts/blob/master/contracts/token/ERC1155/ERC1155.sol\";\r\nimport \"github.com/OpenZeppelin/openzeppelin-contracts/blob/master/contracts/security/ReentrancyGuard.sol\";\r\n*/\r\n\r\nimport \"../node_modules/@openzeppelin/contracts/utils/Counters.sol\";\r\nimport \"../node_modules/@openzeppelin/contracts/token/ERC1155/ERC1155.sol\";\r\nimport \"../node_modules/@openzeppelin/contracts/security/ReentrancyGuard.sol\";\r\n\r\ncontract MarketPlace is ReentrancyGuard {\r\n    using Counters for Counters.Counter;\r\n    Counters.Counter private _itemIds;\r\n    Counters.Counter private _itemsSold;\r\n\r\n    address public owner;\r\n    \r\n    constructor() {\r\n        owner = msg.sender;\r\n    }\r\n    \r\n    struct MarketItem {\r\n        uint itemId;\r\n        address nftContract;\r\n        uint256 tokenId;\r\n        address payable seller;\r\n        address payable owner;\r\n        uint256 price;\r\n        uint amount;\r\n        bool sold;\r\n    }\r\n    \r\n    mapping(uint256 => MarketItem) private idToMarketItem;\r\n    \r\n    event MarketItemCreated (\r\n        uint indexed itemId,\r\n        address indexed nftContract,\r\n        uint256 indexed tokenId,\r\n        address seller,\r\n        address owner,\r\n        uint256 price,\r\n        uint amount,\r\n        bool sold\r\n    );\r\n     \r\n    event MarketItemSold (\r\n        uint indexed itemId,\r\n        address owner,\r\n        uint amount\r\n    );\r\n     \r\n    \r\n    \r\n    function createMarketItem(\r\n        address nftContract,\r\n        uint256 tokenId,\r\n        uint256 price,\r\n        uint256 amount\r\n    ) public payable nonReentrant {\r\n        require(price > 0, \"Price must be greater than 0\");\r\n        require(amount > 0, \"Amount must be greater than 0\");\r\n        \r\n        _itemIds.increment();\r\n        uint256 itemId = _itemIds.current();\r\n\r\n        idToMarketItem[itemId] =  MarketItem(\r\n            itemId,\r\n            nftContract,\r\n            tokenId,\r\n            payable(msg.sender),\r\n            payable(address(0)),\r\n            price,\r\n            amount,\r\n            false\r\n        );\r\n        \r\n        ERC1155(nftContract).safeTransferFrom(msg.sender, address(this), tokenId, amount, \"\");\r\n            \r\n        emit MarketItemCreated(\r\n            itemId,\r\n            nftContract,\r\n            tokenId,\r\n            msg.sender,\r\n            address(0),\r\n            price,\r\n            amount,\r\n            false\r\n        );\r\n    }\r\n        \r\n    function createMarketSale(\r\n        address nftContract,\r\n        uint256 itemId\r\n    ) public payable nonReentrant {\r\n        uint price = idToMarketItem[itemId].price;\r\n        uint tokenId = idToMarketItem[itemId].tokenId;\r\n        bool sold = idToMarketItem[itemId].sold;\r\n        uint amount = idToMarketItem[itemId].amount;\r\n        \r\n        require(msg.value == price, \"Please submit the asking price in order to complete the purchase\");\r\n        require(sold != true, \"This Sale has alredy finnished\");\r\n        \r\n        emit MarketItemSold(\r\n            itemId,\r\n            msg.sender,\r\n            amount\r\n        );\r\n\r\n        idToMarketItem[itemId].seller.transfer(msg.value);\r\n        ERC1155(nftContract).safeTransferFrom(address(this), msg.sender, tokenId, amount, \"\");\r\n        idToMarketItem[itemId].owner = payable(msg.sender);\r\n        _itemsSold.increment();\r\n        idToMarketItem[itemId].sold = true;\r\n    }\r\n        \r\n    function fetchMarketItems() public view returns (MarketItem[] memory) {\r\n        uint itemCount = _itemIds.current();\r\n        uint unsoldItemCount = _itemIds.current() - _itemsSold.current();\r\n        uint currentIndex = 0;\r\n\r\n        MarketItem[] memory items = new MarketItem[](unsoldItemCount);\r\n        for (uint i = 0; i < itemCount; i++) {\r\n            if (idToMarketItem[i + 1].owner == address(0)) {\r\n                uint currentId = i + 1;\r\n                MarketItem storage currentItem = idToMarketItem[currentId];\r\n                items[currentIndex] = currentItem;\r\n                currentIndex += 1;\r\n            }\r\n        }\r\n        return items;\r\n    }\r\n      \r\n}\r\n",
  "sourcePath": "C:\\Users\\tijan\\Qsync\\Documents\\PROGRAMIRANJE\\SOLIDITY\\project\\contracts\\MarketPlace.sol",
  "compiler": {
    "name": "solc",
    "version": "0.8.11+commit.d7f03943.Emscripten.clang"
  },
  "schemaVersion": "3.4.3",
  "updatedAt": "2022-01-18T19:59:38.821Z",
  "devdoc": {
    "kind": "dev",
    "methods": {},
    "version": 1
  },
  "userdoc": {
    "kind": "user",
    "methods": {},
    "version": 1
  }
}