{
  "contractName": "MyMarketPlace",
  "abi": [
    {
      "inputs": [
        {
          "internalType": "address",
          "name": "contractAddress",
          "type": "address"
        },
        {
          "internalType": "uint256",
          "name": "tokenId",
          "type": "uint256"
        },
        {
          "internalType": "uint256",
          "name": "amount",
          "type": "uint256"
        },
        {
          "internalType": "uint256",
          "name": "price",
          "type": "uint256"
        }
      ],
      "name": "createOffer",
      "outputs": [],
      "stateMutability": "nonpayable",
      "type": "function"
    },
    {
      "inputs": [
        {
          "internalType": "uint256",
          "name": "_offerId",
          "type": "uint256"
        },
        {
          "internalType": "uint256",
          "name": "_amount",
          "type": "uint256"
        }
      ],
      "name": "purchase",
      "outputs": [],
      "stateMutability": "payable",
      "type": "function"
    },
    {
      "inputs": [
        {
          "internalType": "uint256",
          "name": "_id",
          "type": "uint256"
        }
      ],
      "name": "getOfferById",
      "outputs": [
        {
          "components": [
            {
              "internalType": "address",
              "name": "contractAddress",
              "type": "address"
            },
            {
              "internalType": "address",
              "name": "seller",
              "type": "address"
            },
            {
              "internalType": "uint256",
              "name": "tokenId",
              "type": "uint256"
            },
            {
              "internalType": "uint256",
              "name": "amount",
              "type": "uint256"
            },
            {
              "internalType": "uint256",
              "name": "price",
              "type": "uint256"
            },
            {
              "internalType": "bool",
              "name": "completed",
              "type": "bool"
            }
          ],
          "internalType": "struct MyMarketPlace.Offer",
          "name": "",
          "type": "tuple"
        }
      ],
      "stateMutability": "view",
      "type": "function"
    },
    {
      "inputs": [],
      "name": "getCurrentOfferId",
      "outputs": [
        {
          "internalType": "uint256",
          "name": "",
          "type": "uint256"
        }
      ],
      "stateMutability": "view",
      "type": "function"
    }
  ],
  "bytecode": "0x608060405234801561001057600080fd5b50610f09806100206000396000f3fe60806040526004361061003f5760003560e01c80631243d82b14610044578063389318831461006f57806370876c98146100ac578063d898aaf2146100c8575b600080fd5b34801561005057600080fd5b506100596100f1565b6040516100669190610845565b60405180910390f35b34801561007b57600080fd5b5061009660048036038101906100919190610891565b610102565b6040516100a391906109a4565b60405180910390f35b6100c660048036038101906100c191906109bf565b610214565b005b3480156100d457600080fd5b506100ef60048036038101906100ea9190610a2b565b6104c9565b005b60006100fd60006107a4565b905090565b61010a6107c8565b600260008381526020019081526020016000206040518060c00160405290816000820160009054906101000a900473ffffffffffffffffffffffffffffffffffffffff1673ffffffffffffffffffffffffffffffffffffffff1673ffffffffffffffffffffffffffffffffffffffff1681526020016001820160009054906101000a900473ffffffffffffffffffffffffffffffffffffffff1673ffffffffffffffffffffffffffffffffffffffff1673ffffffffffffffffffffffffffffffffffffffff1681526020016002820154815260200160038201548152602001600482015481526020016005820160009054906101000a900460ff1615151515815250509050919050565b60006002600084815260200190815260200160002060000160009054906101000a900473ffffffffffffffffffffffffffffffffffffffff1690508160026000858152602001908152602001600020600401546102719190610ac1565b3410156102b3576040517f08c379a00000000000000000000000000000000000000000000000000000000081526004016102aa90610b78565b60405180910390fd5b600015156002600085815260200190815260200160002060050160009054906101000a900460ff1615151461031d576040517f08c379a000000000000000000000000000000000000000000000000000000000815260040161031490610be4565b60405180910390fd5b3373ffffffffffffffffffffffffffffffffffffffff166002600085815260200190815260200160002060010160009054906101000a900473ffffffffffffffffffffffffffffffffffffffff1673ffffffffffffffffffffffffffffffffffffffff1614156103c2576040517f08c379a00000000000000000000000000000000000000000000000000000000081526004016103b990610c50565b60405180910390fd5b60016002600085815260200190815260200160002060050160006101000a81548160ff0219169083151502179055508073ffffffffffffffffffffffffffffffffffffffff1663f242432a6002600086815260200190815260200160002060010160009054906101000a900473ffffffffffffffffffffffffffffffffffffffff1633600260008881526020019081526020016000206002015460026000898152602001908152602001600020600301546040518563ffffffff1660e01b81526004016104929493929190610cb6565b600060405180830381600087803b1580156104ac57600080fd5b505af11580156104c0573d6000803e3d6000fd5b50505050505050565b600084905060008173ffffffffffffffffffffffffffffffffffffffff1662fdd58e33876040518363ffffffff1660e01b815260040161050a929190610d0e565b602060405180830381865afa158015610527573d6000803e3d6000fd5b505050506040513d601f19601f8201168201806040525081019061054b9190610d4c565b1161058b576040517f08c379a000000000000000000000000000000000000000000000000000000000815260040161058290610dc5565b60405180910390fd5b8073ffffffffffffffffffffffffffffffffffffffff1663e985e9c533306040518363ffffffff1660e01b81526004016105c6929190610de5565b602060405180830381865afa1580156105e3573d6000803e3d6000fd5b505050506040513d601f19601f820116820180604052508101906106079190610e3a565b610646576040517f08c379a000000000000000000000000000000000000000000000000000000000815260040161063d90610eb3565b60405180910390fd5b61065060006107b2565b600061065c60006107a4565b90506040518060c001604052808773ffffffffffffffffffffffffffffffffffffffff1681526020013373ffffffffffffffffffffffffffffffffffffffff168152602001868152602001858152602001848152602001600015158152506002600083815260200190815260200160002060008201518160000160006101000a81548173ffffffffffffffffffffffffffffffffffffffff021916908373ffffffffffffffffffffffffffffffffffffffff16021790555060208201518160010160006101000a81548173ffffffffffffffffffffffffffffffffffffffff021916908373ffffffffffffffffffffffffffffffffffffffff16021790555060408201518160020155606082015181600301556080820151816004015560a08201518160050160006101000a81548160ff021916908315150217905550905050505050505050565b600081600001549050919050565b6001816000016000828254019250508190555050565b6040518060c00160405280600073ffffffffffffffffffffffffffffffffffffffff168152602001600073ffffffffffffffffffffffffffffffffffffffff1681526020016000815260200160008152602001600081526020016000151581525090565b6000819050919050565b61083f8161082c565b82525050565b600060208201905061085a6000830184610836565b92915050565b600080fd5b61086e8161082c565b811461087957600080fd5b50565b60008135905061088b81610865565b92915050565b6000602082840312156108a7576108a6610860565b5b60006108b58482850161087c565b91505092915050565b600073ffffffffffffffffffffffffffffffffffffffff82169050919050565b60006108e9826108be565b9050919050565b6108f9816108de565b82525050565b6109088161082c565b82525050565b60008115159050919050565b6109238161090e565b82525050565b60c08201600082015161093f60008501826108f0565b50602082015161095260208501826108f0565b50604082015161096560408501826108ff565b50606082015161097860608501826108ff565b50608082015161098b60808501826108ff565b5060a082015161099e60a085018261091a565b50505050565b600060c0820190506109b96000830184610929565b92915050565b600080604083850312156109d6576109d5610860565b5b60006109e48582860161087c565b92505060206109f58582860161087c565b9150509250929050565b610a08816108de565b8114610a1357600080fd5b50565b600081359050610a25816109ff565b92915050565b60008060008060808587031215610a4557610a44610860565b5b6000610a5387828801610a16565b9450506020610a648782880161087c565b9350506040610a758782880161087c565b9250506060610a868782880161087c565b91505092959194509250565b7f4e487b7100000000000000000000000000000000000000000000000000000000600052601160045260246000fd5b6000610acc8261082c565b9150610ad78361082c565b9250817fffffffffffffffffffffffffffffffffffffffffffffffffffffffffffffffff0483118215151615610b1057610b0f610a92565b5b828202905092915050565b600082825260208201905092915050565b7f496e73756666696369656e742066756e64732073656e74210000000000000000600082015250565b6000610b62601883610b1b565b9150610b6d82610b2c565b602082019050919050565b60006020820190508181036000830152610b9181610b55565b9050919050565b7f4f66666572206e6f7420617661696c61626c6520616e796d6f72652100000000600082015250565b6000610bce601c83610b1b565b9150610bd982610b98565b602082019050919050565b60006020820190508181036000830152610bfd81610bc1565b9050919050565b7f596f7572204974656d2100000000000000000000000000000000000000000000600082015250565b6000610c3a600a83610b1b565b9150610c4582610c04565b602082019050919050565b60006020820190508181036000830152610c6981610c2d565b9050919050565b610c79816108de565b82525050565b600082825260208201905092915050565b50565b6000610ca0600083610c7f565b9150610cab82610c90565b600082019050919050565b600060a082019050610ccb6000830187610c70565b610cd86020830186610c70565b610ce56040830185610836565b610cf26060830184610836565b8181036080830152610d0381610c93565b905095945050505050565b6000604082019050610d236000830185610c70565b610d306020830184610836565b9392505050565b600081519050610d4681610865565b92915050565b600060208284031215610d6257610d61610860565b5b6000610d7084828501610d37565b91505092915050565b7f63616c6c6572206d757374206f776e20676976656e20746f6b656e0000000000600082015250565b6000610daf601b83610b1b565b9150610dba82610d79565b602082019050919050565b60006020820190508181036000830152610dde81610da2565b9050919050565b6000604082019050610dfa6000830185610c70565b610e076020830184610c70565b9392505050565b610e178161090e565b8114610e2257600080fd5b50565b600081519050610e3481610e0e565b92915050565b600060208284031215610e5057610e4f610860565b5b6000610e5e84828501610e25565b91505092915050565b7f436f6e7472616374206d75737420626520617070726f76656421000000000000600082015250565b6000610e9d601a83610b1b565b9150610ea882610e67565b602082019050919050565b60006020820190508181036000830152610ecc81610e90565b905091905056fea26469706673582212201bf1e90f8a96b580a602f92507672c44c54a7517e522260bf937e88c2a656dad64736f6c634300080b0033",
  "immutableReferences": {},
  "source": "// SPDX-License-Identifier: MIT\r\npragma solidity ^0.8.0;\r\n\r\nimport \"../node_modules/@openzeppelin/contracts/utils/Counters.sol\";\r\nimport \"../node_modules/@openzeppelin/contracts/token/ERC1155/ERC1155.sol\";\r\nimport \"../node_modules/@openzeppelin/contracts/security/ReentrancyGuard.sol\";\r\n\r\ncontract MyMarketPlace {\r\n\r\n    using Counters for Counters.Counter;\r\n    Counters.Counter private _offerIds;\r\n    Counters.Counter private _itemsSold;\r\n\r\n    struct Offer{\r\n        address contractAddress;\r\n        address seller;\r\n        uint tokenId;\r\n        uint amount;\r\n        uint price;\r\n        bool completed;\r\n    }\r\n\r\n    mapping(uint256 => Offer) allOffers;\r\n\r\n    function createOffer(address contractAddress, uint256 tokenId, uint256 amount, uint256 price) public {\r\n        ERC1155 token = ERC1155(contractAddress);\r\n        require(token.balanceOf(msg.sender, tokenId) > 0, \"caller must own given token\");\r\n        require(token.isApprovedForAll(msg.sender, address(this)), \"Contract must be approved!\");    \r\n\r\n        _offerIds.increment();\r\n        uint256 itemId = _offerIds.current();\r\n\r\n        allOffers[itemId] = Offer(\r\n            contractAddress,\r\n            msg.sender,\r\n            tokenId,\r\n            amount,\r\n            price,\r\n            false\r\n        );\r\n    }\r\n\r\n    function purchase(uint256 _offerId, uint256 _amount) public payable {\r\n        ERC1155 token = ERC1155(allOffers[_offerId].contractAddress);\r\n        require(msg.value >= allOffers[_offerId].price * _amount, \"Insufficient funds sent!\");\r\n        require(allOffers[_offerId].completed == false, \"Offer not available anymore!\");\r\n        require(allOffers[_offerId].seller != msg.sender, \"Your Item!\");\r\n\r\n        allOffers[_offerId].completed = true;\r\n\r\n        token.safeTransferFrom(allOffers[_offerId].seller, msg.sender, allOffers[_offerId].tokenId, allOffers[_offerId].amount, \"\");\r\n    }\r\n\r\n    function getOfferById(uint256 _id) public view returns(Offer memory) {\r\n        return allOffers[_id];\r\n    }\r\n\r\n    function getCurrentOfferId() public view returns(uint256) {\r\n        return _offerIds.current();\r\n    }\r\n\r\n}",
  "sourcePath": "C:\\Users\\tijan\\Qsync\\Documents\\PROGRAMIRANJE\\SOLIDITY\\project\\contracts\\MyMarket.sol",
  "compiler": {
    "name": "solc",
    "version": "0.8.11+commit.d7f03943.Emscripten.clang"
  },
  "schemaVersion": "3.4.3",
  "updatedAt": "2022-01-18T20:03:17.199Z",
  "devdoc": {
    "kind": "dev",
    "methods": {},
    "version": 1
  },
  "userdoc": {
    "kind": "user",
    "methods": {},
    "version": 1
  }
}