{
  "contractName": "NFT",
  "abi": [
    {
      "inputs": [
        {
          "components": [
            {
              "internalType": "uint256",
              "name": "id",
              "type": "uint256"
            },
            {
              "internalType": "uint256",
              "name": "amount",
              "type": "uint256"
            },
            {
              "internalType": "address",
              "name": "to",
              "type": "address"
            }
          ],
          "internalType": "struct NFT.Input[]",
          "name": "inputArray",
          "type": "tuple[]"
        }
      ],
      "stateMutability": "nonpayable",
      "type": "constructor"
    },
    {
      "anonymous": false,
      "inputs": [
        {
          "indexed": true,
          "internalType": "address",
          "name": "account",
          "type": "address"
        },
        {
          "indexed": true,
          "internalType": "address",
          "name": "operator",
          "type": "address"
        },
        {
          "indexed": false,
          "internalType": "bool",
          "name": "approved",
          "type": "bool"
        }
      ],
      "name": "ApprovalForAll",
      "type": "event"
    },
    {
      "anonymous": false,
      "inputs": [
        {
          "indexed": true,
          "internalType": "address",
          "name": "operator",
          "type": "address"
        },
        {
          "indexed": true,
          "internalType": "address",
          "name": "from",
          "type": "address"
        },
        {
          "indexed": true,
          "internalType": "address",
          "name": "to",
          "type": "address"
        },
        {
          "indexed": false,
          "internalType": "uint256[]",
          "name": "ids",
          "type": "uint256[]"
        },
        {
          "indexed": false,
          "internalType": "uint256[]",
          "name": "values",
          "type": "uint256[]"
        }
      ],
      "name": "TransferBatch",
      "type": "event"
    },
    {
      "anonymous": false,
      "inputs": [
        {
          "indexed": true,
          "internalType": "address",
          "name": "operator",
          "type": "address"
        },
        {
          "indexed": true,
          "internalType": "address",
          "name": "from",
          "type": "address"
        },
        {
          "indexed": true,
          "internalType": "address",
          "name": "to",
          "type": "address"
        },
        {
          "indexed": false,
          "internalType": "uint256",
          "name": "id",
          "type": "uint256"
        },
        {
          "indexed": false,
          "internalType": "uint256",
          "name": "value",
          "type": "uint256"
        }
      ],
      "name": "TransferSingle",
      "type": "event"
    },
    {
      "anonymous": false,
      "inputs": [
        {
          "indexed": false,
          "internalType": "string",
          "name": "value",
          "type": "string"
        },
        {
          "indexed": true,
          "internalType": "uint256",
          "name": "id",
          "type": "uint256"
        }
      ],
      "name": "URI",
      "type": "event"
    },
    {
      "inputs": [
        {
          "internalType": "address",
          "name": "account",
          "type": "address"
        },
        {
          "internalType": "uint256",
          "name": "id",
          "type": "uint256"
        }
      ],
      "name": "balanceOf",
      "outputs": [
        {
          "internalType": "uint256",
          "name": "",
          "type": "uint256"
        }
      ],
      "stateMutability": "view",
      "type": "function",
      "constant": true
    },
    {
      "inputs": [
        {
          "internalType": "address[]",
          "name": "accounts",
          "type": "address[]"
        },
        {
          "internalType": "uint256[]",
          "name": "ids",
          "type": "uint256[]"
        }
      ],
      "name": "balanceOfBatch",
      "outputs": [
        {
          "internalType": "uint256[]",
          "name": "",
          "type": "uint256[]"
        }
      ],
      "stateMutability": "view",
      "type": "function",
      "constant": true
    },
    {
      "inputs": [
        {
          "internalType": "address",
          "name": "account",
          "type": "address"
        },
        {
          "internalType": "uint256",
          "name": "id",
          "type": "uint256"
        },
        {
          "internalType": "uint256",
          "name": "value",
          "type": "uint256"
        }
      ],
      "name": "burn",
      "outputs": [],
      "stateMutability": "nonpayable",
      "type": "function"
    },
    {
      "inputs": [
        {
          "internalType": "address",
          "name": "account",
          "type": "address"
        },
        {
          "internalType": "uint256[]",
          "name": "ids",
          "type": "uint256[]"
        },
        {
          "internalType": "uint256[]",
          "name": "values",
          "type": "uint256[]"
        }
      ],
      "name": "burnBatch",
      "outputs": [],
      "stateMutability": "nonpayable",
      "type": "function"
    },
    {
      "inputs": [
        {
          "internalType": "address",
          "name": "account",
          "type": "address"
        },
        {
          "internalType": "address",
          "name": "operator",
          "type": "address"
        }
      ],
      "name": "isApprovedForAll",
      "outputs": [
        {
          "internalType": "bool",
          "name": "",
          "type": "bool"
        }
      ],
      "stateMutability": "view",
      "type": "function",
      "constant": true
    },
    {
      "inputs": [
        {
          "internalType": "address",
          "name": "",
          "type": "address"
        },
        {
          "internalType": "address",
          "name": "",
          "type": "address"
        },
        {
          "internalType": "uint256",
          "name": "",
          "type": "uint256"
        },
        {
          "internalType": "uint256",
          "name": "",
          "type": "uint256"
        },
        {
          "internalType": "bytes",
          "name": "",
          "type": "bytes"
        }
      ],
      "name": "onERC1155Received",
      "outputs": [
        {
          "internalType": "bytes4",
          "name": "",
          "type": "bytes4"
        }
      ],
      "stateMutability": "nonpayable",
      "type": "function"
    },
    {
      "inputs": [
        {
          "internalType": "address",
          "name": "from",
          "type": "address"
        },
        {
          "internalType": "address",
          "name": "to",
          "type": "address"
        },
        {
          "internalType": "uint256[]",
          "name": "ids",
          "type": "uint256[]"
        },
        {
          "internalType": "uint256[]",
          "name": "amounts",
          "type": "uint256[]"
        },
        {
          "internalType": "bytes",
          "name": "data",
          "type": "bytes"
        }
      ],
      "name": "safeBatchTransferFrom",
      "outputs": [],
      "stateMutability": "nonpayable",
      "type": "function"
    },
    {
      "inputs": [
        {
          "internalType": "address",
          "name": "from",
          "type": "address"
        },
        {
          "internalType": "address",
          "name": "to",
          "type": "address"
        },
        {
          "internalType": "uint256",
          "name": "id",
          "type": "uint256"
        },
        {
          "internalType": "uint256",
          "name": "amount",
          "type": "uint256"
        },
        {
          "internalType": "bytes",
          "name": "data",
          "type": "bytes"
        }
      ],
      "name": "safeTransferFrom",
      "outputs": [],
      "stateMutability": "nonpayable",
      "type": "function"
    },
    {
      "inputs": [
        {
          "internalType": "address",
          "name": "operator",
          "type": "address"
        },
        {
          "internalType": "bool",
          "name": "approved",
          "type": "bool"
        }
      ],
      "name": "setApprovalForAll",
      "outputs": [],
      "stateMutability": "nonpayable",
      "type": "function"
    },
    {
      "inputs": [
        {
          "internalType": "bytes4",
          "name": "interfaceId",
          "type": "bytes4"
        }
      ],
      "name": "supportsInterface",
      "outputs": [
        {
          "internalType": "bool",
          "name": "",
          "type": "bool"
        }
      ],
      "stateMutability": "view",
      "type": "function",
      "constant": true
    },
    {
      "inputs": [
        {
          "internalType": "uint256",
          "name": "",
          "type": "uint256"
        }
      ],
      "name": "uri",
      "outputs": [
        {
          "internalType": "string",
          "name": "",
          "type": "string"
        }
      ],
      "stateMutability": "view",
      "type": "function",
      "constant": true
    }
  ],
  "bytecode": "0x60806040523480156200001157600080fd5b5060405162003deb38038062003deb8339818101604052810190620000379190620008d6565b6040518060200160405280600081525062000058816200010a60201b60201c565b5060005b81518110156200010257620000ec82828151811062000080576200007f62000927565b5b602002602001015160400151838381518110620000a257620000a162000927565b5b602002602001015160000151848481518110620000c457620000c362000927565b5b602002602001015160200151604051806020016040528060008152506200012660201b60201c565b8080620000f99062000985565b9150506200005c565b505062000f87565b80600290805190602001906200012292919062000589565b5050565b600073ffffffffffffffffffffffffffffffffffffffff168473ffffffffffffffffffffffffffffffffffffffff16141562000199576040517f08c379a0000000000000000000000000000000000000000000000000000000008152600401620001909062000a5a565b60405180910390fd5b6000620001ab620002eb60201b60201c565b9050620001e481600087620001c688620002f360201b60201c565b620001d788620002f360201b60201c565b876200037460201b60201c565b8260008086815260200190815260200160002060008773ffffffffffffffffffffffffffffffffffffffff1673ffffffffffffffffffffffffffffffffffffffff168152602001908152602001600020600082825462000245919062000a7c565b925050819055508473ffffffffffffffffffffffffffffffffffffffff16600073ffffffffffffffffffffffffffffffffffffffff168273ffffffffffffffffffffffffffffffffffffffff167fc3d58168c5ae7397731d063d5bbf3d657854427343f4c083240f7aacaa2d0f628787604051620002c592919062000aea565b60405180910390a4620002e4816000878787876200037c60201b60201c565b5050505050565b600033905090565b60606000600167ffffffffffffffff81111562000315576200031462000663565b5b604051908082528060200260200182016040528015620003445781602001602082028036833780820191505090505b50905082816000815181106200035f576200035e62000927565b5b60200260200101818152505080915050919050565b505050505050565b620003a88473ffffffffffffffffffffffffffffffffffffffff166200057660201b620008ec1760201c565b156200056e578373ffffffffffffffffffffffffffffffffffffffff1663f23a6e6187878686866040518663ffffffff1660e01b8152600401620003f195949392919062000bbb565b6020604051808303816000875af19250505080156200043057506040513d601f19601f820116820180604052508101906200042d919062000c7c565b60015b620004e2576200043f62000cbb565b806308c379a01415620004a357506200045762000ce0565b80620004645750620004a5565b806040517f08c379a00000000000000000000000000000000000000000000000000000000081526004016200049a919062000dce565b60405180910390fd5b505b6040517f08c379a0000000000000000000000000000000000000000000000000000000008152600401620004d99062000e68565b60405180910390fd5b63f23a6e6160e01b7bffffffffffffffffffffffffffffffffffffffffffffffffffffffff1916817bffffffffffffffffffffffffffffffffffffffffffffffffffffffff1916146200056c576040517f08c379a0000000000000000000000000000000000000000000000000000000008152600401620005639062000f00565b60405180910390fd5b505b505050505050565b600080823b905060008111915050919050565b828054620005979062000f51565b90600052602060002090601f016020900481019282620005bb576000855562000607565b82601f10620005d657805160ff191683800117855562000607565b8280016001018555821562000607579182015b8281111562000606578251825591602001919060010190620005e9565b5b5090506200061691906200061a565b5090565b5b80821115620006355760008160009055506001016200061b565b5090565b6000604051905090565b600080fd5b600080fd5b600080fd5b6000601f19601f8301169050919050565b7f4e487b7100000000000000000000000000000000000000000000000000000000600052604160045260246000fd5b6200069d8262000652565b810181811067ffffffffffffffff82111715620006bf57620006be62000663565b5b80604052505050565b6000620006d462000639565b9050620006e2828262000692565b919050565b600067ffffffffffffffff82111562000705576200070462000663565b5b602082029050602081019050919050565b600080fd5b600080fd5b6000819050919050565b620007358162000720565b81146200074157600080fd5b50565b60008151905062000755816200072a565b92915050565b600073ffffffffffffffffffffffffffffffffffffffff82169050919050565b600062000788826200075b565b9050919050565b6200079a816200077b565b8114620007a657600080fd5b50565b600081519050620007ba816200078f565b92915050565b600060608284031215620007d957620007d86200071b565b5b620007e56060620006c8565b90506000620007f78482850162000744565b60008301525060206200080d8482850162000744565b60208301525060406200082384828501620007a9565b60408301525092915050565b6000620008466200084084620006e7565b620006c8565b905080838252602082019050606084028301858111156200086c576200086b62000716565b5b835b81811015620008995780620008848882620007c0565b8452602084019350506060810190506200086e565b5050509392505050565b600082601f830112620008bb57620008ba6200064d565b5b8151620008cd8482602086016200082f565b91505092915050565b600060208284031215620008ef57620008ee62000643565b5b600082015167ffffffffffffffff81111562000910576200090f62000648565b5b6200091e84828501620008a3565b91505092915050565b7f4e487b7100000000000000000000000000000000000000000000000000000000600052603260045260246000fd5b7f4e487b7100000000000000000000000000000000000000000000000000000000600052601160045260246000fd5b6000620009928262000720565b91507fffffffffffffffffffffffffffffffffffffffffffffffffffffffffffffffff821415620009c857620009c762000956565b5b600182019050919050565b600082825260208201905092915050565b7f455243313135353a206d696e7420746f20746865207a65726f2061646472657360008201527f7300000000000000000000000000000000000000000000000000000000000000602082015250565b600062000a42602183620009d3565b915062000a4f82620009e4565b604082019050919050565b6000602082019050818103600083015262000a758162000a33565b9050919050565b600062000a898262000720565b915062000a968362000720565b9250827fffffffffffffffffffffffffffffffffffffffffffffffffffffffffffffffff0382111562000ace5762000acd62000956565b5b828201905092915050565b62000ae48162000720565b82525050565b600060408201905062000b01600083018562000ad9565b62000b10602083018462000ad9565b9392505050565b62000b22816200077b565b82525050565b600081519050919050565b600082825260208201905092915050565b60005b8381101562000b6457808201518184015260208101905062000b47565b8381111562000b74576000848401525b50505050565b600062000b878262000b28565b62000b93818562000b33565b935062000ba581856020860162000b44565b62000bb08162000652565b840191505092915050565b600060a08201905062000bd2600083018862000b17565b62000be1602083018762000b17565b62000bf0604083018662000ad9565b62000bff606083018562000ad9565b818103608083015262000c13818462000b7a565b90509695505050505050565b60007fffffffff0000000000000000000000000000000000000000000000000000000082169050919050565b62000c568162000c1f565b811462000c6257600080fd5b50565b60008151905062000c768162000c4b565b92915050565b60006020828403121562000c955762000c9462000643565b5b600062000ca58482850162000c65565b91505092915050565b60008160e01c9050919050565b600060033d111562000cdd5760046000803e62000cda60005162000cae565b90505b90565b600060443d101562000cf25762000d7f565b62000cfc62000639565b60043d036004823e80513d602482011167ffffffffffffffff8211171562000d2657505062000d7f565b808201805167ffffffffffffffff81111562000d46575050505062000d7f565b80602083010160043d03850181111562000d6557505050505062000d7f565b62000d768260200185018662000692565b82955050505050505b90565b600081519050919050565b600062000d9a8262000d82565b62000da68185620009d3565b935062000db881856020860162000b44565b62000dc38162000652565b840191505092915050565b6000602082019050818103600083015262000dea818462000d8d565b905092915050565b7f455243313135353a207472616e7366657220746f206e6f6e204552433131353560008201527f526563656976657220696d706c656d656e746572000000000000000000000000602082015250565b600062000e50603483620009d3565b915062000e5d8262000df2565b604082019050919050565b6000602082019050818103600083015262000e838162000e41565b9050919050565b7f455243313135353a204552433131353552656365697665722072656a6563746560008201527f6420746f6b656e73000000000000000000000000000000000000000000000000602082015250565b600062000ee8602883620009d3565b915062000ef58262000e8a565b604082019050919050565b6000602082019050818103600083015262000f1b8162000ed9565b9050919050565b7f4e487b7100000000000000000000000000000000000000000000000000000000600052602260045260246000fd5b6000600282049050600182168062000f6a57607f821691505b6020821081141562000f815762000f8062000f22565b5b50919050565b612e548062000f976000396000f3fe608060405234801561001057600080fd5b50600436106100a85760003560e01c80636b20c454116100715780636b20c45414610189578063a22cb465146101a5578063e985e9c5146101c1578063f23a6e61146101f1578063f242432a14610221578063f5298aca1461023d576100a8565b8062fdd58e146100ad57806301ffc9a7146100dd5780630e89341c1461010d5780632eb2c2d61461013d5780634e1273f414610159575b600080fd5b6100c760048036038101906100c29190611a1c565b610259565b6040516100d49190611a6b565b60405180910390f35b6100f760048036038101906100f29190611ade565b610322565b6040516101049190611b26565b60405180910390f35b61012760048036038101906101229190611b41565b610404565b6040516101349190611c07565b60405180910390f35b61015760048036038101906101529190611e26565b610498565b005b610173600480360381019061016e9190611fb8565b610539565b60405161018091906120ee565b60405180910390f35b6101a3600480360381019061019e9190612110565b610652565b005b6101bf60048036038101906101ba91906121c7565b6106ef565b005b6101db60048036038101906101d69190612207565b610705565b6040516101e89190611b26565b60405180910390f35b61020b60048036038101906102069190612247565b610799565b60405161021891906122ed565b60405180910390f35b61023b60048036038101906102369190612247565b6107ae565b005b61025760048036038101906102529190612308565b61084f565b005b60008073ffffffffffffffffffffffffffffffffffffffff168373ffffffffffffffffffffffffffffffffffffffff1614156102ca576040517f08c379a00000000000000000000000000000000000000000000000000000000081526004016102c1906123cd565b60405180910390fd5b60008083815260200190815260200160002060008473ffffffffffffffffffffffffffffffffffffffff1673ffffffffffffffffffffffffffffffffffffffff16815260200190815260200160002054905092915050565b60007fd9b67a26000000000000000000000000000000000000000000000000000000007bffffffffffffffffffffffffffffffffffffffffffffffffffffffff1916827bffffffffffffffffffffffffffffffffffffffffffffffffffffffff191614806103ed57507f0e89341c000000000000000000000000000000000000000000000000000000007bffffffffffffffffffffffffffffffffffffffffffffffffffffffff1916827bffffffffffffffffffffffffffffffffffffffffffffffffffffffff1916145b806103fd57506103fc826108ff565b5b9050919050565b6060600280546104139061241c565b80601f016020809104026020016040519081016040528092919081815260200182805461043f9061241c565b801561048c5780601f106104615761010080835404028352916020019161048c565b820191906000526020600020905b81548152906001019060200180831161046f57829003601f168201915b50505050509050919050565b6104a0610969565b73ffffffffffffffffffffffffffffffffffffffff168573ffffffffffffffffffffffffffffffffffffffff1614806104e657506104e5856104e0610969565b610705565b5b610525576040517f08c379a000000000000000000000000000000000000000000000000000000000815260040161051c906124c0565b60405180910390fd5b6105328585858585610971565b5050505050565b6060815183511461057f576040517f08c379a000000000000000000000000000000000000000000000000000000000815260040161057690612552565b60405180910390fd5b6000835167ffffffffffffffff81111561059c5761059b611c2e565b5b6040519080825280602002602001820160405280156105ca5781602001602082028036833780820191505090505b50905060005b8451811015610647576106178582815181106105ef576105ee612572565b5b602002602001015185838151811061060a57610609612572565b5b6020026020010151610259565b82828151811061062a57610629612572565b5b60200260200101818152505080610640906125d0565b90506105d0565b508091505092915050565b61065a610969565b73ffffffffffffffffffffffffffffffffffffffff168373ffffffffffffffffffffffffffffffffffffffff1614806106a0575061069f8361069a610969565b610705565b5b6106df576040517f08c379a00000000000000000000000000000000000000000000000000000000081526004016106d69061268b565b60405180910390fd5b6106ea838383610c85565b505050565b6107016106fa610969565b8383610f36565b5050565b6000600160008473ffffffffffffffffffffffffffffffffffffffff1673ffffffffffffffffffffffffffffffffffffffff16815260200190815260200160002060008373ffffffffffffffffffffffffffffffffffffffff1673ffffffffffffffffffffffffffffffffffffffff16815260200190815260200160002060009054906101000a900460ff16905092915050565b600063f23a6e6160e01b905095945050505050565b6107b6610969565b73ffffffffffffffffffffffffffffffffffffffff168573ffffffffffffffffffffffffffffffffffffffff1614806107fc57506107fb856107f6610969565b610705565b5b61083b576040517f08c379a00000000000000000000000000000000000000000000000000000000081526004016108329061268b565b60405180910390fd5b61084885858585856110a3565b5050505050565b610857610969565b73ffffffffffffffffffffffffffffffffffffffff168373ffffffffffffffffffffffffffffffffffffffff16148061089d575061089c83610897610969565b610705565b5b6108dc576040517f08c379a00000000000000000000000000000000000000000000000000000000081526004016108d39061268b565b60405180910390fd5b6108e7838383611325565b505050565b600080823b905060008111915050919050565b60007f01ffc9a7000000000000000000000000000000000000000000000000000000007bffffffffffffffffffffffffffffffffffffffffffffffffffffffff1916827bffffffffffffffffffffffffffffffffffffffffffffffffffffffff1916149050919050565b600033905090565b81518351146109b5576040517f08c379a00000000000000000000000000000000000000000000000000000000081526004016109ac9061271d565b60405180910390fd5b600073ffffffffffffffffffffffffffffffffffffffff168473ffffffffffffffffffffffffffffffffffffffff161415610a25576040517f08c379a0000000000000000000000000000000000000000000000000000000008152600401610a1c906127af565b60405180910390fd5b6000610a2f610969565b9050610a3f818787878787611542565b60005b8451811015610bf0576000858281518110610a6057610a5f612572565b5b602002602001015190506000858381518110610a7f57610a7e612572565b5b60200260200101519050600080600084815260200190815260200160002060008b73ffffffffffffffffffffffffffffffffffffffff1673ffffffffffffffffffffffffffffffffffffffff16815260200190815260200160002054905081811015610b20576040517f08c379a0000000000000000000000000000000000000000000000000000000008152600401610b1790612841565b60405180910390fd5b81810360008085815260200190815260200160002060008c73ffffffffffffffffffffffffffffffffffffffff1673ffffffffffffffffffffffffffffffffffffffff168152602001908152602001600020819055508160008085815260200190815260200160002060008b73ffffffffffffffffffffffffffffffffffffffff1673ffffffffffffffffffffffffffffffffffffffff1681526020019081526020016000206000828254610bd59190612861565b9250508190555050505080610be9906125d0565b9050610a42565b508473ffffffffffffffffffffffffffffffffffffffff168673ffffffffffffffffffffffffffffffffffffffff168273ffffffffffffffffffffffffffffffffffffffff167f4a39dc06d4c0dbc64b70af90fd698a233a518aa5d07e595d983b8c0526c8f7fb8787604051610c679291906128b7565b60405180910390a4610c7d81878787878761154a565b505050505050565b600073ffffffffffffffffffffffffffffffffffffffff168373ffffffffffffffffffffffffffffffffffffffff161415610cf5576040517f08c379a0000000000000000000000000000000000000000000000000000000008152600401610cec90612960565b60405180910390fd5b8051825114610d39576040517f08c379a0000000000000000000000000000000000000000000000000000000008152600401610d309061271d565b60405180910390fd5b6000610d43610969565b9050610d6381856000868660405180602001604052806000815250611542565b60005b8351811015610eb0576000848281518110610d8457610d83612572565b5b602002602001015190506000848381518110610da357610da2612572565b5b60200260200101519050600080600084815260200190815260200160002060008973ffffffffffffffffffffffffffffffffffffffff1673ffffffffffffffffffffffffffffffffffffffff16815260200190815260200160002054905081811015610e44576040517f08c379a0000000000000000000000000000000000000000000000000000000008152600401610e3b906129f2565b60405180910390fd5b81810360008085815260200190815260200160002060008a73ffffffffffffffffffffffffffffffffffffffff1673ffffffffffffffffffffffffffffffffffffffff168152602001908152602001600020819055505050508080610ea8906125d0565b915050610d66565b50600073ffffffffffffffffffffffffffffffffffffffff168473ffffffffffffffffffffffffffffffffffffffff168273ffffffffffffffffffffffffffffffffffffffff167f4a39dc06d4c0dbc64b70af90fd698a233a518aa5d07e595d983b8c0526c8f7fb8686604051610f289291906128b7565b60405180910390a450505050565b8173ffffffffffffffffffffffffffffffffffffffff168373ffffffffffffffffffffffffffffffffffffffff161415610fa5576040517f08c379a0000000000000000000000000000000000000000000000000000000008152600401610f9c90612a84565b60405180910390fd5b80600160008573ffffffffffffffffffffffffffffffffffffffff1673ffffffffffffffffffffffffffffffffffffffff16815260200190815260200160002060008473ffffffffffffffffffffffffffffffffffffffff1673ffffffffffffffffffffffffffffffffffffffff16815260200190815260200160002060006101000a81548160ff0219169083151502179055508173ffffffffffffffffffffffffffffffffffffffff168373ffffffffffffffffffffffffffffffffffffffff167f17307eab39ab6107e8899845ad3d59bd9653f200f220920489ca2b5937696c31836040516110969190611b26565b60405180910390a3505050565b600073ffffffffffffffffffffffffffffffffffffffff168473ffffffffffffffffffffffffffffffffffffffff161415611113576040517f08c379a000000000000000000000000000000000000000000000000000000000815260040161110a906127af565b60405180910390fd5b600061111d610969565b905061113d81878761112e88611722565b61113788611722565b87611542565b600080600086815260200190815260200160002060008873ffffffffffffffffffffffffffffffffffffffff1673ffffffffffffffffffffffffffffffffffffffff168152602001908152602001600020549050838110156111d4576040517f08c379a00000000000000000000000000000000000000000000000000000000081526004016111cb90612841565b60405180910390fd5b83810360008087815260200190815260200160002060008973ffffffffffffffffffffffffffffffffffffffff1673ffffffffffffffffffffffffffffffffffffffff168152602001908152602001600020819055508360008087815260200190815260200160002060008873ffffffffffffffffffffffffffffffffffffffff1673ffffffffffffffffffffffffffffffffffffffff16815260200190815260200160002060008282546112899190612861565b925050819055508573ffffffffffffffffffffffffffffffffffffffff168773ffffffffffffffffffffffffffffffffffffffff168373ffffffffffffffffffffffffffffffffffffffff167fc3d58168c5ae7397731d063d5bbf3d657854427343f4c083240f7aacaa2d0f628888604051611306929190612aa4565b60405180910390a461131c82888888888861179c565b50505050505050565b600073ffffffffffffffffffffffffffffffffffffffff168373ffffffffffffffffffffffffffffffffffffffff161415611395576040517f08c379a000000000000000000000000000000000000000000000000000000000815260040161138c90612960565b60405180910390fd5b600061139f610969565b90506113cf818560006113b187611722565b6113ba87611722565b60405180602001604052806000815250611542565b600080600085815260200190815260200160002060008673ffffffffffffffffffffffffffffffffffffffff1673ffffffffffffffffffffffffffffffffffffffff16815260200190815260200160002054905082811015611466576040517f08c379a000000000000000000000000000000000000000000000000000000000815260040161145d906129f2565b60405180910390fd5b82810360008086815260200190815260200160002060008773ffffffffffffffffffffffffffffffffffffffff1673ffffffffffffffffffffffffffffffffffffffff16815260200190815260200160002081905550600073ffffffffffffffffffffffffffffffffffffffff168573ffffffffffffffffffffffffffffffffffffffff168373ffffffffffffffffffffffffffffffffffffffff167fc3d58168c5ae7397731d063d5bbf3d657854427343f4c083240f7aacaa2d0f628787604051611533929190612aa4565b60405180910390a45050505050565b505050505050565b6115698473ffffffffffffffffffffffffffffffffffffffff166108ec565b1561171a578373ffffffffffffffffffffffffffffffffffffffff1663bc197c8187878686866040518663ffffffff1660e01b81526004016115af959493929190612b31565b6020604051808303816000875af19250505080156115eb57506040513d601f19601f820116820180604052508101906115e89190612bae565b60015b611691576115f7612be8565b806308c379a01415611654575061160c612c0a565b806116175750611656565b806040517f08c379a000000000000000000000000000000000000000000000000000000000815260040161164b9190611c07565b60405180910390fd5b505b6040517f08c379a000000000000000000000000000000000000000000000000000000000815260040161168890612d12565b60405180910390fd5b63bc197c8160e01b7bffffffffffffffffffffffffffffffffffffffffffffffffffffffff1916817bffffffffffffffffffffffffffffffffffffffffffffffffffffffff191614611718576040517f08c379a000000000000000000000000000000000000000000000000000000000815260040161170f90612da4565b60405180910390fd5b505b505050505050565b60606000600167ffffffffffffffff81111561174157611740611c2e565b5b60405190808252806020026020018201604052801561176f5781602001602082028036833780820191505090505b509050828160008151811061178757611786612572565b5b60200260200101818152505080915050919050565b6117bb8473ffffffffffffffffffffffffffffffffffffffff166108ec565b1561196c578373ffffffffffffffffffffffffffffffffffffffff1663f23a6e6187878686866040518663ffffffff1660e01b8152600401611801959493929190612dc4565b6020604051808303816000875af192505050801561183d57506040513d601f19601f8201168201806040525081019061183a9190612bae565b60015b6118e357611849612be8565b806308c379a014156118a6575061185e612c0a565b8061186957506118a8565b806040517f08c379a000000000000000000000000000000000000000000000000000000000815260040161189d9190611c07565b60405180910390fd5b505b6040517f08c379a00000000000000000000000000000000000000000000000000000000081526004016118da90612d12565b60405180910390fd5b63f23a6e6160e01b7bffffffffffffffffffffffffffffffffffffffffffffffffffffffff1916817bffffffffffffffffffffffffffffffffffffffffffffffffffffffff19161461196a576040517f08c379a000000000000000000000000000000000000000000000000000000000815260040161196190612da4565b60405180910390fd5b505b505050505050565b6000604051905090565b600080fd5b600080fd5b600073ffffffffffffffffffffffffffffffffffffffff82169050919050565b60006119b382611988565b9050919050565b6119c3816119a8565b81146119ce57600080fd5b50565b6000813590506119e0816119ba565b92915050565b6000819050919050565b6119f9816119e6565b8114611a0457600080fd5b50565b600081359050611a16816119f0565b92915050565b60008060408385031215611a3357611a3261197e565b5b6000611a41858286016119d1565b9250506020611a5285828601611a07565b9150509250929050565b611a65816119e6565b82525050565b6000602082019050611a806000830184611a5c565b92915050565b60007fffffffff0000000000000000000000000000000000000000000000000000000082169050919050565b611abb81611a86565b8114611ac657600080fd5b50565b600081359050611ad881611ab2565b92915050565b600060208284031215611af457611af361197e565b5b6000611b0284828501611ac9565b91505092915050565b60008115159050919050565b611b2081611b0b565b82525050565b6000602082019050611b3b6000830184611b17565b92915050565b600060208284031215611b5757611b5661197e565b5b6000611b6584828501611a07565b91505092915050565b600081519050919050565b600082825260208201905092915050565b60005b83811015611ba8578082015181840152602081019050611b8d565b83811115611bb7576000848401525b50505050565b6000601f19601f8301169050919050565b6000611bd982611b6e565b611be38185611b79565b9350611bf3818560208601611b8a565b611bfc81611bbd565b840191505092915050565b60006020820190508181036000830152611c218184611bce565b905092915050565b600080fd5b7f4e487b7100000000000000000000000000000000000000000000000000000000600052604160045260246000fd5b611c6682611bbd565b810181811067ffffffffffffffff82111715611c8557611c84611c2e565b5b80604052505050565b6000611c98611974565b9050611ca48282611c5d565b919050565b600067ffffffffffffffff821115611cc457611cc3611c2e565b5b602082029050602081019050919050565b600080fd5b6000611ced611ce884611ca9565b611c8e565b90508083825260208201905060208402830185811115611d1057611d0f611cd5565b5b835b81811015611d395780611d258882611a07565b845260208401935050602081019050611d12565b5050509392505050565b600082601f830112611d5857611d57611c29565b5b8135611d68848260208601611cda565b91505092915050565b600080fd5b600067ffffffffffffffff821115611d9157611d90611c2e565b5b611d9a82611bbd565b9050602081019050919050565b82818337600083830152505050565b6000611dc9611dc484611d76565b611c8e565b905082815260208101848484011115611de557611de4611d71565b5b611df0848285611da7565b509392505050565b600082601f830112611e0d57611e0c611c29565b5b8135611e1d848260208601611db6565b91505092915050565b600080600080600060a08688031215611e4257611e4161197e565b5b6000611e50888289016119d1565b9550506020611e61888289016119d1565b945050604086013567ffffffffffffffff811115611e8257611e81611983565b5b611e8e88828901611d43565b935050606086013567ffffffffffffffff811115611eaf57611eae611983565b5b611ebb88828901611d43565b925050608086013567ffffffffffffffff811115611edc57611edb611983565b5b611ee888828901611df8565b9150509295509295909350565b600067ffffffffffffffff821115611f1057611f0f611c2e565b5b602082029050602081019050919050565b6000611f34611f2f84611ef5565b611c8e565b90508083825260208201905060208402830185811115611f5757611f56611cd5565b5b835b81811015611f805780611f6c88826119d1565b845260208401935050602081019050611f59565b5050509392505050565b600082601f830112611f9f57611f9e611c29565b5b8135611faf848260208601611f21565b91505092915050565b60008060408385031215611fcf57611fce61197e565b5b600083013567ffffffffffffffff811115611fed57611fec611983565b5b611ff985828601611f8a565b925050602083013567ffffffffffffffff81111561201a57612019611983565b5b61202685828601611d43565b9150509250929050565b600081519050919050565b600082825260208201905092915050565b6000819050602082019050919050565b612065816119e6565b82525050565b6000612077838361205c565b60208301905092915050565b6000602082019050919050565b600061209b82612030565b6120a5818561203b565b93506120b08361204c565b8060005b838110156120e15781516120c8888261206b565b97506120d383612083565b9250506001810190506120b4565b5085935050505092915050565b600060208201905081810360008301526121088184612090565b905092915050565b6000806000606084860312156121295761212861197e565b5b6000612137868287016119d1565b935050602084013567ffffffffffffffff81111561215857612157611983565b5b61216486828701611d43565b925050604084013567ffffffffffffffff81111561218557612184611983565b5b61219186828701611d43565b9150509250925092565b6121a481611b0b565b81146121af57600080fd5b50565b6000813590506121c18161219b565b92915050565b600080604083850312156121de576121dd61197e565b5b60006121ec858286016119d1565b92505060206121fd858286016121b2565b9150509250929050565b6000806040838503121561221e5761221d61197e565b5b600061222c858286016119d1565b925050602061223d858286016119d1565b9150509250929050565b600080600080600060a086880312156122635761226261197e565b5b6000612271888289016119d1565b9550506020612282888289016119d1565b945050604061229388828901611a07565b93505060606122a488828901611a07565b925050608086013567ffffffffffffffff8111156122c5576122c4611983565b5b6122d188828901611df8565b9150509295509295909350565b6122e781611a86565b82525050565b600060208201905061230260008301846122de565b92915050565b6000806000606084860312156123215761232061197e565b5b600061232f868287016119d1565b935050602061234086828701611a07565b925050604061235186828701611a07565b9150509250925092565b7f455243313135353a2062616c616e636520717565727920666f7220746865207a60008201527f65726f2061646472657373000000000000000000000000000000000000000000602082015250565b60006123b7602b83611b79565b91506123c28261235b565b604082019050919050565b600060208201905081810360008301526123e6816123aa565b9050919050565b7f4e487b7100000000000000000000000000000000000000000000000000000000600052602260045260246000fd5b6000600282049050600182168061243457607f821691505b60208210811415612448576124476123ed565b5b50919050565b7f455243313135353a207472616e736665722063616c6c6572206973206e6f742060008201527f6f776e6572206e6f7220617070726f7665640000000000000000000000000000602082015250565b60006124aa603283611b79565b91506124b58261244e565b604082019050919050565b600060208201905081810360008301526124d98161249d565b9050919050565b7f455243313135353a206163636f756e747320616e6420696473206c656e67746860008201527f206d69736d617463680000000000000000000000000000000000000000000000602082015250565b600061253c602983611b79565b9150612547826124e0565b604082019050919050565b6000602082019050818103600083015261256b8161252f565b9050919050565b7f4e487b7100000000000000000000000000000000000000000000000000000000600052603260045260246000fd5b7f4e487b7100000000000000000000000000000000000000000000000000000000600052601160045260246000fd5b60006125db826119e6565b91507fffffffffffffffffffffffffffffffffffffffffffffffffffffffffffffffff82141561260e5761260d6125a1565b5b600182019050919050565b7f455243313135353a2063616c6c6572206973206e6f74206f776e6572206e6f7260008201527f20617070726f7665640000000000000000000000000000000000000000000000602082015250565b6000612675602983611b79565b915061268082612619565b604082019050919050565b600060208201905081810360008301526126a481612668565b9050919050565b7f455243313135353a2069647320616e6420616d6f756e7473206c656e6774682060008201527f6d69736d61746368000000000000000000000000000000000000000000000000602082015250565b6000612707602883611b79565b9150612712826126ab565b604082019050919050565b60006020820190508181036000830152612736816126fa565b9050919050565b7f455243313135353a207472616e7366657220746f20746865207a65726f20616460008201527f6472657373000000000000000000000000000000000000000000000000000000602082015250565b6000612799602583611b79565b91506127a48261273d565b604082019050919050565b600060208201905081810360008301526127c88161278c565b9050919050565b7f455243313135353a20696e73756666696369656e742062616c616e636520666f60008201527f72207472616e7366657200000000000000000000000000000000000000000000602082015250565b600061282b602a83611b79565b9150612836826127cf565b604082019050919050565b6000602082019050818103600083015261285a8161281e565b9050919050565b600061286c826119e6565b9150612877836119e6565b9250827fffffffffffffffffffffffffffffffffffffffffffffffffffffffffffffffff038211156128ac576128ab6125a1565b5b828201905092915050565b600060408201905081810360008301526128d18185612090565b905081810360208301526128e58184612090565b90509392505050565b7f455243313135353a206275726e2066726f6d20746865207a65726f206164647260008201527f6573730000000000000000000000000000000000000000000000000000000000602082015250565b600061294a602383611b79565b9150612955826128ee565b604082019050919050565b600060208201905081810360008301526129798161293d565b9050919050565b7f455243313135353a206275726e20616d6f756e7420657863656564732062616c60008201527f616e636500000000000000000000000000000000000000000000000000000000602082015250565b60006129dc602483611b79565b91506129e782612980565b604082019050919050565b60006020820190508181036000830152612a0b816129cf565b9050919050565b7f455243313135353a2073657474696e6720617070726f76616c2073746174757360008201527f20666f722073656c660000000000000000000000000000000000000000000000602082015250565b6000612a6e602983611b79565b9150612a7982612a12565b604082019050919050565b60006020820190508181036000830152612a9d81612a61565b9050919050565b6000604082019050612ab96000830185611a5c565b612ac66020830184611a5c565b9392505050565b612ad6816119a8565b82525050565b600081519050919050565b600082825260208201905092915050565b6000612b0382612adc565b612b0d8185612ae7565b9350612b1d818560208601611b8a565b612b2681611bbd565b840191505092915050565b600060a082019050612b466000830188612acd565b612b536020830187612acd565b8181036040830152612b658186612090565b90508181036060830152612b798185612090565b90508181036080830152612b8d8184612af8565b90509695505050505050565b600081519050612ba881611ab2565b92915050565b600060208284031215612bc457612bc361197e565b5b6000612bd284828501612b99565b91505092915050565b60008160e01c9050919050565b600060033d1115612c075760046000803e612c04600051612bdb565b90505b90565b600060443d1015612c1a57612c9d565b612c22611974565b60043d036004823e80513d602482011167ffffffffffffffff82111715612c4a575050612c9d565b808201805167ffffffffffffffff811115612c685750505050612c9d565b80602083010160043d038501811115612c85575050505050612c9d565b612c9482602001850186611c5d565b82955050505050505b90565b7f455243313135353a207472616e7366657220746f206e6f6e204552433131353560008201527f526563656976657220696d706c656d656e746572000000000000000000000000602082015250565b6000612cfc603483611b79565b9150612d0782612ca0565b604082019050919050565b60006020820190508181036000830152612d2b81612cef565b9050919050565b7f455243313135353a204552433131353552656365697665722072656a6563746560008201527f6420746f6b656e73000000000000000000000000000000000000000000000000602082015250565b6000612d8e602883611b79565b9150612d9982612d32565b604082019050919050565b60006020820190508181036000830152612dbd81612d81565b9050919050565b600060a082019050612dd96000830188612acd565b612de66020830187612acd565b612df36040830186611a5c565b612e006060830185611a5c565b8181036080830152612e128184612af8565b9050969550505050505056fea26469706673582212208e204d213a0d7ad0cdeefd8c3d8ff09d1c475091b820ce7f8d4e6de0986b345e64736f6c634300080b0033",
  "immutableReferences": {},
  "source": "// SPDX-License-Identifier: MIT\r\npragma solidity ^0.8.0;\r\n\r\nimport \"../node_modules/@openzeppelin/contracts/token/ERC1155/extensions/ERC1155Burnable.sol\";\r\n\r\ncontract NFT is ERC1155Burnable {\r\n\r\n    struct Input {\r\n        uint256 id;\r\n        uint256 amount;\r\n        address to;\r\n    }\r\n\r\n    constructor(Input[] memory inputArray) ERC1155(\"\") {\r\n        for (uint i=0; i<inputArray.length; i++) {\r\n            _mint(inputArray[i].to, inputArray[i].id, inputArray[i].amount, \"\");\r\n        }\r\n    }\r\n\r\n}",
  "sourcePath": "C:\\Users\\tijan\\Qsync\\Documents\\PROGRAMIRANJE\\SOLIDITY\\nft-marketplace\\contracts\\NFT.sol",
  "compiler": {
    "name": "solc",
    "version": "0.8.11+commit.d7f03943.Emscripten.clang"
  },
  "schemaVersion": "3.4.3",
  "updatedAt": "2022-01-24T14:59:34.562Z",
  "networkType": "ethereum",
  "devdoc": {
    "kind": "dev",
    "methods": {
      "balanceOf(address,uint256)": {
        "details": "See {IERC1155-balanceOf}. Requirements: - `account` cannot be the zero address."
      },
      "balanceOfBatch(address[],uint256[])": {
        "details": "See {IERC1155-balanceOfBatch}. Requirements: - `accounts` and `ids` must have the same length."
      },
      "isApprovedForAll(address,address)": {
        "details": "See {IERC1155-isApprovedForAll}."
      },
      "safeBatchTransferFrom(address,address,uint256[],uint256[],bytes)": {
        "details": "See {IERC1155-safeBatchTransferFrom}."
      },
      "safeTransferFrom(address,address,uint256,uint256,bytes)": {
        "details": "See {IERC1155-safeTransferFrom}."
      },
      "setApprovalForAll(address,bool)": {
        "details": "See {IERC1155-setApprovalForAll}."
      },
      "supportsInterface(bytes4)": {
        "details": "See {IERC165-supportsInterface}."
      },
      "uri(uint256)": {
        "details": "See {IERC1155MetadataURI-uri}. This implementation returns the same URI for *all* token types. It relies on the token type ID substitution mechanism https://eips.ethereum.org/EIPS/eip-1155#metadata[defined in the EIP]. Clients calling this function must replace the `\\{id\\}` substring with the actual token type ID."
      }
    },
    "version": 1
  },
  "userdoc": {
    "kind": "user",
    "methods": {},
    "version": 1
  }
}