{
  "contractName": "NFT",
  "abi": [
    {
      "inputs": [
        {
          "components": [
            {
              "internalType": "uint256",
              "name": "id",
              "type": "uint256"
            },
            {
              "internalType": "uint256",
              "name": "amount",
              "type": "uint256"
            },
            {
              "internalType": "address",
              "name": "to",
              "type": "address"
            }
          ],
          "internalType": "struct NFT.Input[]",
          "name": "inputArray",
          "type": "tuple[]"
        }
      ],
      "stateMutability": "nonpayable",
      "type": "constructor"
    },
    {
      "anonymous": false,
      "inputs": [
        {
          "indexed": true,
          "internalType": "address",
          "name": "account",
          "type": "address"
        },
        {
          "indexed": true,
          "internalType": "address",
          "name": "operator",
          "type": "address"
        },
        {
          "indexed": false,
          "internalType": "bool",
          "name": "approved",
          "type": "bool"
        }
      ],
      "name": "ApprovalForAll",
      "type": "event"
    },
    {
      "anonymous": false,
      "inputs": [
        {
          "indexed": true,
          "internalType": "address",
          "name": "previousOwner",
          "type": "address"
        },
        {
          "indexed": true,
          "internalType": "address",
          "name": "newOwner",
          "type": "address"
        }
      ],
      "name": "OwnershipTransferred",
      "type": "event"
    },
    {
      "anonymous": false,
      "inputs": [
        {
          "indexed": true,
          "internalType": "address",
          "name": "operator",
          "type": "address"
        },
        {
          "indexed": true,
          "internalType": "address",
          "name": "from",
          "type": "address"
        },
        {
          "indexed": true,
          "internalType": "address",
          "name": "to",
          "type": "address"
        },
        {
          "indexed": false,
          "internalType": "uint256[]",
          "name": "ids",
          "type": "uint256[]"
        },
        {
          "indexed": false,
          "internalType": "uint256[]",
          "name": "values",
          "type": "uint256[]"
        }
      ],
      "name": "TransferBatch",
      "type": "event"
    },
    {
      "anonymous": false,
      "inputs": [
        {
          "indexed": true,
          "internalType": "address",
          "name": "operator",
          "type": "address"
        },
        {
          "indexed": true,
          "internalType": "address",
          "name": "from",
          "type": "address"
        },
        {
          "indexed": true,
          "internalType": "address",
          "name": "to",
          "type": "address"
        },
        {
          "indexed": false,
          "internalType": "uint256",
          "name": "id",
          "type": "uint256"
        },
        {
          "indexed": false,
          "internalType": "uint256",
          "name": "value",
          "type": "uint256"
        }
      ],
      "name": "TransferSingle",
      "type": "event"
    },
    {
      "anonymous": false,
      "inputs": [
        {
          "indexed": false,
          "internalType": "string",
          "name": "value",
          "type": "string"
        },
        {
          "indexed": true,
          "internalType": "uint256",
          "name": "id",
          "type": "uint256"
        }
      ],
      "name": "URI",
      "type": "event"
    },
    {
      "inputs": [
        {
          "internalType": "address",
          "name": "account",
          "type": "address"
        },
        {
          "internalType": "uint256",
          "name": "id",
          "type": "uint256"
        }
      ],
      "name": "balanceOf",
      "outputs": [
        {
          "internalType": "uint256",
          "name": "",
          "type": "uint256"
        }
      ],
      "stateMutability": "view",
      "type": "function",
      "constant": true
    },
    {
      "inputs": [
        {
          "internalType": "address[]",
          "name": "accounts",
          "type": "address[]"
        },
        {
          "internalType": "uint256[]",
          "name": "ids",
          "type": "uint256[]"
        }
      ],
      "name": "balanceOfBatch",
      "outputs": [
        {
          "internalType": "uint256[]",
          "name": "",
          "type": "uint256[]"
        }
      ],
      "stateMutability": "view",
      "type": "function",
      "constant": true
    },
    {
      "inputs": [
        {
          "internalType": "address",
          "name": "account",
          "type": "address"
        },
        {
          "internalType": "address",
          "name": "operator",
          "type": "address"
        }
      ],
      "name": "isApprovedForAll",
      "outputs": [
        {
          "internalType": "bool",
          "name": "",
          "type": "bool"
        }
      ],
      "stateMutability": "view",
      "type": "function",
      "constant": true
    },
    {
      "inputs": [
        {
          "internalType": "address",
          "name": "",
          "type": "address"
        },
        {
          "internalType": "address",
          "name": "",
          "type": "address"
        },
        {
          "internalType": "uint256",
          "name": "",
          "type": "uint256"
        },
        {
          "internalType": "uint256",
          "name": "",
          "type": "uint256"
        },
        {
          "internalType": "bytes",
          "name": "",
          "type": "bytes"
        }
      ],
      "name": "onERC1155Received",
      "outputs": [
        {
          "internalType": "bytes4",
          "name": "",
          "type": "bytes4"
        }
      ],
      "stateMutability": "nonpayable",
      "type": "function"
    },
    {
      "inputs": [],
      "name": "owner",
      "outputs": [
        {
          "internalType": "address",
          "name": "",
          "type": "address"
        }
      ],
      "stateMutability": "view",
      "type": "function",
      "constant": true
    },
    {
      "inputs": [],
      "name": "renounceOwnership",
      "outputs": [],
      "stateMutability": "nonpayable",
      "type": "function"
    },
    {
      "inputs": [
        {
          "internalType": "address",
          "name": "from",
          "type": "address"
        },
        {
          "internalType": "address",
          "name": "to",
          "type": "address"
        },
        {
          "internalType": "uint256[]",
          "name": "ids",
          "type": "uint256[]"
        },
        {
          "internalType": "uint256[]",
          "name": "amounts",
          "type": "uint256[]"
        },
        {
          "internalType": "bytes",
          "name": "data",
          "type": "bytes"
        }
      ],
      "name": "safeBatchTransferFrom",
      "outputs": [],
      "stateMutability": "nonpayable",
      "type": "function"
    },
    {
      "inputs": [
        {
          "internalType": "address",
          "name": "from",
          "type": "address"
        },
        {
          "internalType": "address",
          "name": "to",
          "type": "address"
        },
        {
          "internalType": "uint256",
          "name": "id",
          "type": "uint256"
        },
        {
          "internalType": "uint256",
          "name": "amount",
          "type": "uint256"
        },
        {
          "internalType": "bytes",
          "name": "data",
          "type": "bytes"
        }
      ],
      "name": "safeTransferFrom",
      "outputs": [],
      "stateMutability": "nonpayable",
      "type": "function"
    },
    {
      "inputs": [
        {
          "internalType": "address",
          "name": "operator",
          "type": "address"
        },
        {
          "internalType": "bool",
          "name": "approved",
          "type": "bool"
        }
      ],
      "name": "setApprovalForAll",
      "outputs": [],
      "stateMutability": "nonpayable",
      "type": "function"
    },
    {
      "inputs": [
        {
          "internalType": "bytes4",
          "name": "interfaceId",
          "type": "bytes4"
        }
      ],
      "name": "supportsInterface",
      "outputs": [
        {
          "internalType": "bool",
          "name": "",
          "type": "bool"
        }
      ],
      "stateMutability": "view",
      "type": "function",
      "constant": true
    },
    {
      "inputs": [
        {
          "internalType": "address",
          "name": "newOwner",
          "type": "address"
        }
      ],
      "name": "transferOwnership",
      "outputs": [],
      "stateMutability": "nonpayable",
      "type": "function"
    },
    {
      "inputs": [
        {
          "internalType": "uint256",
          "name": "",
          "type": "uint256"
        }
      ],
      "name": "uri",
      "outputs": [
        {
          "internalType": "string",
          "name": "",
          "type": "string"
        }
      ],
      "stateMutability": "view",
      "type": "function",
      "constant": true
    },
    {
      "inputs": [
        {
          "internalType": "address",
          "name": "account",
          "type": "address"
        },
        {
          "internalType": "uint256",
          "name": "id",
          "type": "uint256"
        },
        {
          "internalType": "uint256",
          "name": "amount",
          "type": "uint256"
        }
      ],
      "name": "mint",
      "outputs": [],
      "stateMutability": "nonpayable",
      "type": "function"
    },
    {
      "inputs": [
        {
          "internalType": "address",
          "name": "account",
          "type": "address"
        },
        {
          "internalType": "uint256",
          "name": "id",
          "type": "uint256"
        },
        {
          "internalType": "uint256",
          "name": "amount",
          "type": "uint256"
        }
      ],
      "name": "burn",
      "outputs": [],
      "stateMutability": "nonpayable",
      "type": "function"
    }
  ],
  "bytecode": "0x60806040523480156200001157600080fd5b50604051620042fc380380620042fc8339818101604052810190620000379190620009bc565b6040518060200160405280600081525062000058816200012a60201b60201c565b50620000796200006d6200014660201b60201c565b6200014e60201b60201c565b60005b815181101562000122576200010c828281518110620000a0576200009f62000a0d565b5b602002602001015160400151838381518110620000c257620000c162000a0d565b5b602002602001015160000151848481518110620000e457620000e362000a0d565b5b602002602001015160200151604051806020016040528060008152506200021460201b60201c565b8080620001199062000a6b565b9150506200007c565b50506200106d565b8060029080519060200190620001429291906200066f565b5050565b600033905090565b6000600360009054906101000a900473ffffffffffffffffffffffffffffffffffffffff16905081600360006101000a81548173ffffffffffffffffffffffffffffffffffffffff021916908373ffffffffffffffffffffffffffffffffffffffff1602179055508173ffffffffffffffffffffffffffffffffffffffff168173ffffffffffffffffffffffffffffffffffffffff167f8be0079c531659141344cd1fd0a4f28419497f9722a3daafe3b4186f6b6457e060405160405180910390a35050565b600073ffffffffffffffffffffffffffffffffffffffff168473ffffffffffffffffffffffffffffffffffffffff16141562000287576040517f08c379a00000000000000000000000000000000000000000000000000000000081526004016200027e9062000b40565b60405180910390fd5b6000620002996200014660201b60201c565b9050620002d281600087620002b488620003d960201b60201c565b620002c588620003d960201b60201c565b876200045a60201b60201c565b8260008086815260200190815260200160002060008773ffffffffffffffffffffffffffffffffffffffff1673ffffffffffffffffffffffffffffffffffffffff168152602001908152602001600020600082825462000333919062000b62565b925050819055508473ffffffffffffffffffffffffffffffffffffffff16600073ffffffffffffffffffffffffffffffffffffffff168273ffffffffffffffffffffffffffffffffffffffff167fc3d58168c5ae7397731d063d5bbf3d657854427343f4c083240f7aacaa2d0f628787604051620003b392919062000bd0565b60405180910390a4620003d2816000878787876200046260201b60201c565b5050505050565b60606000600167ffffffffffffffff811115620003fb57620003fa62000749565b5b6040519080825280602002602001820160405280156200042a5781602001602082028036833780820191505090505b509050828160008151811062000445576200044462000a0d565b5b60200260200101818152505080915050919050565b505050505050565b6200048e8473ffffffffffffffffffffffffffffffffffffffff166200065c60201b62000b471760201c565b1562000654578373ffffffffffffffffffffffffffffffffffffffff1663f23a6e6187878686866040518663ffffffff1660e01b8152600401620004d795949392919062000ca1565b6020604051808303816000875af19250505080156200051657506040513d601f19601f8201168201806040525081019062000513919062000d62565b60015b620005c8576200052562000da1565b806308c379a014156200058957506200053d62000dc6565b806200054a57506200058b565b806040517f08c379a000000000000000000000000000000000000000000000000000000000815260040162000580919062000eb4565b60405180910390fd5b505b6040517f08c379a0000000000000000000000000000000000000000000000000000000008152600401620005bf9062000f4e565b60405180910390fd5b63f23a6e6160e01b7bffffffffffffffffffffffffffffffffffffffffffffffffffffffff1916817bffffffffffffffffffffffffffffffffffffffffffffffffffffffff19161462000652576040517f08c379a0000000000000000000000000000000000000000000000000000000008152600401620006499062000fe6565b60405180910390fd5b505b505050505050565b600080823b905060008111915050919050565b8280546200067d9062001037565b90600052602060002090601f016020900481019282620006a15760008555620006ed565b82601f10620006bc57805160ff1916838001178555620006ed565b82800160010185558215620006ed579182015b82811115620006ec578251825591602001919060010190620006cf565b5b509050620006fc919062000700565b5090565b5b808211156200071b57600081600090555060010162000701565b5090565b6000604051905090565b600080fd5b600080fd5b600080fd5b6000601f19601f8301169050919050565b7f4e487b7100000000000000000000000000000000000000000000000000000000600052604160045260246000fd5b620007838262000738565b810181811067ffffffffffffffff82111715620007a557620007a462000749565b5b80604052505050565b6000620007ba6200071f565b9050620007c8828262000778565b919050565b600067ffffffffffffffff821115620007eb57620007ea62000749565b5b602082029050602081019050919050565b600080fd5b600080fd5b6000819050919050565b6200081b8162000806565b81146200082757600080fd5b50565b6000815190506200083b8162000810565b92915050565b600073ffffffffffffffffffffffffffffffffffffffff82169050919050565b60006200086e8262000841565b9050919050565b620008808162000861565b81146200088c57600080fd5b50565b600081519050620008a08162000875565b92915050565b600060608284031215620008bf57620008be62000801565b5b620008cb6060620007ae565b90506000620008dd848285016200082a565b6000830152506020620008f3848285016200082a565b602083015250604062000909848285016200088f565b60408301525092915050565b60006200092c6200092684620007cd565b620007ae565b90508083825260208201905060608402830185811115620009525762000951620007fc565b5b835b818110156200097f57806200096a8882620008a6565b84526020840193505060608101905062000954565b5050509392505050565b600082601f830112620009a157620009a062000733565b5b8151620009b384826020860162000915565b91505092915050565b600060208284031215620009d557620009d462000729565b5b600082015167ffffffffffffffff811115620009f657620009f56200072e565b5b62000a048482850162000989565b91505092915050565b7f4e487b7100000000000000000000000000000000000000000000000000000000600052603260045260246000fd5b7f4e487b7100000000000000000000000000000000000000000000000000000000600052601160045260246000fd5b600062000a788262000806565b91507fffffffffffffffffffffffffffffffffffffffffffffffffffffffffffffffff82141562000aae5762000aad62000a3c565b5b600182019050919050565b600082825260208201905092915050565b7f455243313135353a206d696e7420746f20746865207a65726f2061646472657360008201527f7300000000000000000000000000000000000000000000000000000000000000602082015250565b600062000b2860218362000ab9565b915062000b358262000aca565b604082019050919050565b6000602082019050818103600083015262000b5b8162000b19565b9050919050565b600062000b6f8262000806565b915062000b7c8362000806565b9250827fffffffffffffffffffffffffffffffffffffffffffffffffffffffffffffffff0382111562000bb45762000bb362000a3c565b5b828201905092915050565b62000bca8162000806565b82525050565b600060408201905062000be7600083018562000bbf565b62000bf6602083018462000bbf565b9392505050565b62000c088162000861565b82525050565b600081519050919050565b600082825260208201905092915050565b60005b8381101562000c4a57808201518184015260208101905062000c2d565b8381111562000c5a576000848401525b50505050565b600062000c6d8262000c0e565b62000c79818562000c19565b935062000c8b81856020860162000c2a565b62000c968162000738565b840191505092915050565b600060a08201905062000cb8600083018862000bfd565b62000cc7602083018762000bfd565b62000cd6604083018662000bbf565b62000ce5606083018562000bbf565b818103608083015262000cf9818462000c60565b90509695505050505050565b60007fffffffff0000000000000000000000000000000000000000000000000000000082169050919050565b62000d3c8162000d05565b811462000d4857600080fd5b50565b60008151905062000d5c8162000d31565b92915050565b60006020828403121562000d7b5762000d7a62000729565b5b600062000d8b8482850162000d4b565b91505092915050565b60008160e01c9050919050565b600060033d111562000dc35760046000803e62000dc060005162000d94565b90505b90565b600060443d101562000dd85762000e65565b62000de26200071f565b60043d036004823e80513d602482011167ffffffffffffffff8211171562000e0c57505062000e65565b808201805167ffffffffffffffff81111562000e2c575050505062000e65565b80602083010160043d03850181111562000e4b57505050505062000e65565b62000e5c8260200185018662000778565b82955050505050505b90565b600081519050919050565b600062000e808262000e68565b62000e8c818562000ab9565b935062000e9e81856020860162000c2a565b62000ea98162000738565b840191505092915050565b6000602082019050818103600083015262000ed0818462000e73565b905092915050565b7f455243313135353a207472616e7366657220746f206e6f6e204552433131353560008201527f526563656976657220696d706c656d656e746572000000000000000000000000602082015250565b600062000f3660348362000ab9565b915062000f438262000ed8565b604082019050919050565b6000602082019050818103600083015262000f698162000f27565b9050919050565b7f455243313135353a204552433131353552656365697665722072656a6563746560008201527f6420746f6b656e73000000000000000000000000000000000000000000000000602082015250565b600062000fce60288362000ab9565b915062000fdb8262000f70565b604082019050919050565b60006020820190508181036000830152620010018162000fbf565b9050919050565b7f4e487b7100000000000000000000000000000000000000000000000000000000600052602260045260246000fd5b600060028204905060018216806200105057607f821691505b6020821081141562001067576200106662001008565b5b50919050565b61327f806200107d6000396000f3fe608060405234801561001057600080fd5b50600436106100e95760003560e01c80638da5cb5b1161008c578063f23a6e6111610066578063f23a6e611461025a578063f242432a1461028a578063f2fde38b146102a6578063f5298aca146102c2576100e9565b80638da5cb5b146101f0578063a22cb4651461020e578063e985e9c51461022a576100e9565b8063156e29f6116100c8578063156e29f61461017e5780632eb2c2d61461019a5780634e1273f4146101b6578063715018a6146101e6576100e9565b8062fdd58e146100ee57806301ffc9a71461011e5780630e89341c1461014e575b600080fd5b61010860048036038101906101039190611c22565b6102de565b6040516101159190611c71565b60405180910390f35b61013860048036038101906101339190611ce4565b6103a7565b6040516101459190611d2c565b60405180910390f35b61016860048036038101906101639190611d47565b610489565b6040516101759190611e0d565b60405180910390f35b61019860048036038101906101939190611e2f565b61051d565b005b6101b460048036038101906101af919061207f565b6105b9565b005b6101d060048036038101906101cb9190612211565b61065a565b6040516101dd9190612347565b60405180910390f35b6101ee610773565b005b6101f86107fb565b6040516102059190612378565b60405180910390f35b610228600480360381019061022391906123bf565b610825565b005b610244600480360381019061023f91906123ff565b61083b565b6040516102519190611d2c565b60405180910390f35b610274600480360381019061026f919061243f565b6108cf565b60405161028191906124e5565b60405180910390f35b6102a4600480360381019061029f919061243f565b6108e4565b005b6102c060048036038101906102bb9190612500565b610985565b005b6102dc60048036038101906102d79190611e2f565b610a7d565b005b60008073ffffffffffffffffffffffffffffffffffffffff168373ffffffffffffffffffffffffffffffffffffffff16141561034f576040517f08c379a00000000000000000000000000000000000000000000000000000000081526004016103469061259f565b60405180910390fd5b60008083815260200190815260200160002060008473ffffffffffffffffffffffffffffffffffffffff1673ffffffffffffffffffffffffffffffffffffffff16815260200190815260200160002054905092915050565b60007fd9b67a26000000000000000000000000000000000000000000000000000000007bffffffffffffffffffffffffffffffffffffffffffffffffffffffff1916827bffffffffffffffffffffffffffffffffffffffffffffffffffffffff1916148061047257507f0e89341c000000000000000000000000000000000000000000000000000000007bffffffffffffffffffffffffffffffffffffffffffffffffffffffff1916827bffffffffffffffffffffffffffffffffffffffffffffffffffffffff1916145b80610482575061048182610b5a565b5b9050919050565b606060028054610498906125ee565b80601f01602080910402602001604051908101604052809291908181526020018280546104c4906125ee565b80156105115780601f106104e657610100808354040283529160200191610511565b820191906000526020600020905b8154815290600101906020018083116104f457829003601f168201915b50505050509050919050565b610525610bc4565b73ffffffffffffffffffffffffffffffffffffffff166105436107fb565b73ffffffffffffffffffffffffffffffffffffffff1614610599576040517f08c379a00000000000000000000000000000000000000000000000000000000081526004016105909061266c565b60405180910390fd5b6105b483838360405180602001604052806000815250610bcc565b505050565b6105c1610bc4565b73ffffffffffffffffffffffffffffffffffffffff168573ffffffffffffffffffffffffffffffffffffffff161480610607575061060685610601610bc4565b61083b565b5b610646576040517f08c379a000000000000000000000000000000000000000000000000000000000815260040161063d906126fe565b60405180910390fd5b6106538585858585610d62565b5050505050565b606081518351146106a0576040517f08c379a000000000000000000000000000000000000000000000000000000000815260040161069790612790565b60405180910390fd5b6000835167ffffffffffffffff8111156106bd576106bc611e87565b5b6040519080825280602002602001820160405280156106eb5781602001602082028036833780820191505090505b50905060005b8451811015610768576107388582815181106107105761070f6127b0565b5b602002602001015185838151811061072b5761072a6127b0565b5b60200260200101516102de565b82828151811061074b5761074a6127b0565b5b602002602001018181525050806107619061280e565b90506106f1565b508091505092915050565b61077b610bc4565b73ffffffffffffffffffffffffffffffffffffffff166107996107fb565b73ffffffffffffffffffffffffffffffffffffffff16146107ef576040517f08c379a00000000000000000000000000000000000000000000000000000000081526004016107e69061266c565b60405180910390fd5b6107f96000611076565b565b6000600360009054906101000a900473ffffffffffffffffffffffffffffffffffffffff16905090565b610837610830610bc4565b838361113c565b5050565b6000600160008473ffffffffffffffffffffffffffffffffffffffff1673ffffffffffffffffffffffffffffffffffffffff16815260200190815260200160002060008373ffffffffffffffffffffffffffffffffffffffff1673ffffffffffffffffffffffffffffffffffffffff16815260200190815260200160002060009054906101000a900460ff16905092915050565b600063f23a6e6160e01b905095945050505050565b6108ec610bc4565b73ffffffffffffffffffffffffffffffffffffffff168573ffffffffffffffffffffffffffffffffffffffff16148061093257506109318561092c610bc4565b61083b565b5b610971576040517f08c379a0000000000000000000000000000000000000000000000000000000008152600401610968906128c9565b60405180910390fd5b61097e85858585856112a9565b5050505050565b61098d610bc4565b73ffffffffffffffffffffffffffffffffffffffff166109ab6107fb565b73ffffffffffffffffffffffffffffffffffffffff1614610a01576040517f08c379a00000000000000000000000000000000000000000000000000000000081526004016109f89061266c565b60405180910390fd5b600073ffffffffffffffffffffffffffffffffffffffff168173ffffffffffffffffffffffffffffffffffffffff161415610a71576040517f08c379a0000000000000000000000000000000000000000000000000000000008152600401610a689061295b565b60405180910390fd5b610a7a81611076565b50565b8273ffffffffffffffffffffffffffffffffffffffff163373ffffffffffffffffffffffffffffffffffffffff1614610aeb576040517f08c379a0000000000000000000000000000000000000000000000000000000008152600401610ae2906129c7565b60405180910390fd5b80610af633846102de565b1015610b37576040517f08c379a0000000000000000000000000000000000000000000000000000000008152600401610b2e90612a33565b60405180910390fd5b610b4283838361152b565b505050565b600080823b905060008111915050919050565b60007f01ffc9a7000000000000000000000000000000000000000000000000000000007bffffffffffffffffffffffffffffffffffffffffffffffffffffffff1916827bffffffffffffffffffffffffffffffffffffffffffffffffffffffff1916149050919050565b600033905090565b600073ffffffffffffffffffffffffffffffffffffffff168473ffffffffffffffffffffffffffffffffffffffff161415610c3c576040517f08c379a0000000000000000000000000000000000000000000000000000000008152600401610c3390612ac5565b60405180910390fd5b6000610c46610bc4565b9050610c6781600087610c5888611748565b610c6188611748565b876117c2565b8260008086815260200190815260200160002060008773ffffffffffffffffffffffffffffffffffffffff1673ffffffffffffffffffffffffffffffffffffffff1681526020019081526020016000206000828254610cc69190612ae5565b925050819055508473ffffffffffffffffffffffffffffffffffffffff16600073ffffffffffffffffffffffffffffffffffffffff168273ffffffffffffffffffffffffffffffffffffffff167fc3d58168c5ae7397731d063d5bbf3d657854427343f4c083240f7aacaa2d0f628787604051610d44929190612b3b565b60405180910390a4610d5b816000878787876117ca565b5050505050565b8151835114610da6576040517f08c379a0000000000000000000000000000000000000000000000000000000008152600401610d9d90612bd6565b60405180910390fd5b600073ffffffffffffffffffffffffffffffffffffffff168473ffffffffffffffffffffffffffffffffffffffff161415610e16576040517f08c379a0000000000000000000000000000000000000000000000000000000008152600401610e0d90612c68565b60405180910390fd5b6000610e20610bc4565b9050610e308187878787876117c2565b60005b8451811015610fe1576000858281518110610e5157610e506127b0565b5b602002602001015190506000858381518110610e7057610e6f6127b0565b5b60200260200101519050600080600084815260200190815260200160002060008b73ffffffffffffffffffffffffffffffffffffffff1673ffffffffffffffffffffffffffffffffffffffff16815260200190815260200160002054905081811015610f11576040517f08c379a0000000000000000000000000000000000000000000000000000000008152600401610f0890612cfa565b60405180910390fd5b81810360008085815260200190815260200160002060008c73ffffffffffffffffffffffffffffffffffffffff1673ffffffffffffffffffffffffffffffffffffffff168152602001908152602001600020819055508160008085815260200190815260200160002060008b73ffffffffffffffffffffffffffffffffffffffff1673ffffffffffffffffffffffffffffffffffffffff1681526020019081526020016000206000828254610fc69190612ae5565b9250508190555050505080610fda9061280e565b9050610e33565b508473ffffffffffffffffffffffffffffffffffffffff168673ffffffffffffffffffffffffffffffffffffffff168273ffffffffffffffffffffffffffffffffffffffff167f4a39dc06d4c0dbc64b70af90fd698a233a518aa5d07e595d983b8c0526c8f7fb8787604051611058929190612d1a565b60405180910390a461106e8187878787876119a2565b505050505050565b6000600360009054906101000a900473ffffffffffffffffffffffffffffffffffffffff16905081600360006101000a81548173ffffffffffffffffffffffffffffffffffffffff021916908373ffffffffffffffffffffffffffffffffffffffff1602179055508173ffffffffffffffffffffffffffffffffffffffff168173ffffffffffffffffffffffffffffffffffffffff167f8be0079c531659141344cd1fd0a4f28419497f9722a3daafe3b4186f6b6457e060405160405180910390a35050565b8173ffffffffffffffffffffffffffffffffffffffff168373ffffffffffffffffffffffffffffffffffffffff1614156111ab576040517f08c379a00000000000000000000000000000000000000000000000000000000081526004016111a290612dc3565b60405180910390fd5b80600160008573ffffffffffffffffffffffffffffffffffffffff1673ffffffffffffffffffffffffffffffffffffffff16815260200190815260200160002060008473ffffffffffffffffffffffffffffffffffffffff1673ffffffffffffffffffffffffffffffffffffffff16815260200190815260200160002060006101000a81548160ff0219169083151502179055508173ffffffffffffffffffffffffffffffffffffffff168373ffffffffffffffffffffffffffffffffffffffff167f17307eab39ab6107e8899845ad3d59bd9653f200f220920489ca2b5937696c318360405161129c9190611d2c565b60405180910390a3505050565b600073ffffffffffffffffffffffffffffffffffffffff168473ffffffffffffffffffffffffffffffffffffffff161415611319576040517f08c379a000000000000000000000000000000000000000000000000000000000815260040161131090612c68565b60405180910390fd5b6000611323610bc4565b905061134381878761133488611748565b61133d88611748565b876117c2565b600080600086815260200190815260200160002060008873ffffffffffffffffffffffffffffffffffffffff1673ffffffffffffffffffffffffffffffffffffffff168152602001908152602001600020549050838110156113da576040517f08c379a00000000000000000000000000000000000000000000000000000000081526004016113d190612cfa565b60405180910390fd5b83810360008087815260200190815260200160002060008973ffffffffffffffffffffffffffffffffffffffff1673ffffffffffffffffffffffffffffffffffffffff168152602001908152602001600020819055508360008087815260200190815260200160002060008873ffffffffffffffffffffffffffffffffffffffff1673ffffffffffffffffffffffffffffffffffffffff168152602001908152602001600020600082825461148f9190612ae5565b925050819055508573ffffffffffffffffffffffffffffffffffffffff168773ffffffffffffffffffffffffffffffffffffffff168373ffffffffffffffffffffffffffffffffffffffff167fc3d58168c5ae7397731d063d5bbf3d657854427343f4c083240f7aacaa2d0f62888860405161150c929190612b3b565b60405180910390a46115228288888888886117ca565b50505050505050565b600073ffffffffffffffffffffffffffffffffffffffff168373ffffffffffffffffffffffffffffffffffffffff16141561159b576040517f08c379a000000000000000000000000000000000000000000000000000000000815260040161159290612e55565b60405180910390fd5b60006115a5610bc4565b90506115d5818560006115b787611748565b6115c087611748565b604051806020016040528060008152506117c2565b600080600085815260200190815260200160002060008673ffffffffffffffffffffffffffffffffffffffff1673ffffffffffffffffffffffffffffffffffffffff1681526020019081526020016000205490508281101561166c576040517f08c379a000000000000000000000000000000000000000000000000000000000815260040161166390612ee7565b60405180910390fd5b82810360008086815260200190815260200160002060008773ffffffffffffffffffffffffffffffffffffffff1673ffffffffffffffffffffffffffffffffffffffff16815260200190815260200160002081905550600073ffffffffffffffffffffffffffffffffffffffff168573ffffffffffffffffffffffffffffffffffffffff168373ffffffffffffffffffffffffffffffffffffffff167fc3d58168c5ae7397731d063d5bbf3d657854427343f4c083240f7aacaa2d0f628787604051611739929190612b3b565b60405180910390a45050505050565b60606000600167ffffffffffffffff81111561176757611766611e87565b5b6040519080825280602002602001820160405280156117955781602001602082028036833780820191505090505b50905082816000815181106117ad576117ac6127b0565b5b60200260200101818152505080915050919050565b505050505050565b6117e98473ffffffffffffffffffffffffffffffffffffffff16610b47565b1561199a578373ffffffffffffffffffffffffffffffffffffffff1663f23a6e6187878686866040518663ffffffff1660e01b815260040161182f959493929190612f5c565b6020604051808303816000875af192505050801561186b57506040513d601f19601f820116820180604052508101906118689190612fcb565b60015b61191157611877613005565b806308c379a014156118d4575061188c613027565b8061189757506118d6565b806040517f08c379a00000000000000000000000000000000000000000000000000000000081526004016118cb9190611e0d565b60405180910390fd5b505b6040517f08c379a00000000000000000000000000000000000000000000000000000000081526004016119089061312f565b60405180910390fd5b63f23a6e6160e01b7bffffffffffffffffffffffffffffffffffffffffffffffffffffffff1916817bffffffffffffffffffffffffffffffffffffffffffffffffffffffff191614611998576040517f08c379a000000000000000000000000000000000000000000000000000000000815260040161198f906131c1565b60405180910390fd5b505b505050505050565b6119c18473ffffffffffffffffffffffffffffffffffffffff16610b47565b15611b72578373ffffffffffffffffffffffffffffffffffffffff1663bc197c8187878686866040518663ffffffff1660e01b8152600401611a079594939291906131e1565b6020604051808303816000875af1925050508015611a4357506040513d601f19601f82011682018060405250810190611a409190612fcb565b60015b611ae957611a4f613005565b806308c379a01415611aac5750611a64613027565b80611a6f5750611aae565b806040517f08c379a0000000000000000000000000000000000000000000000000000000008152600401611aa39190611e0d565b60405180910390fd5b505b6040517f08c379a0000000000000000000000000000000000000000000000000000000008152600401611ae09061312f565b60405180910390fd5b63bc197c8160e01b7bffffffffffffffffffffffffffffffffffffffffffffffffffffffff1916817bffffffffffffffffffffffffffffffffffffffffffffffffffffffff191614611b70576040517f08c379a0000000000000000000000000000000000000000000000000000000008152600401611b67906131c1565b60405180910390fd5b505b505050505050565b6000604051905090565b600080fd5b600080fd5b600073ffffffffffffffffffffffffffffffffffffffff82169050919050565b6000611bb982611b8e565b9050919050565b611bc981611bae565b8114611bd457600080fd5b50565b600081359050611be681611bc0565b92915050565b6000819050919050565b611bff81611bec565b8114611c0a57600080fd5b50565b600081359050611c1c81611bf6565b92915050565b60008060408385031215611c3957611c38611b84565b5b6000611c4785828601611bd7565b9250506020611c5885828601611c0d565b9150509250929050565b611c6b81611bec565b82525050565b6000602082019050611c866000830184611c62565b92915050565b60007fffffffff0000000000000000000000000000000000000000000000000000000082169050919050565b611cc181611c8c565b8114611ccc57600080fd5b50565b600081359050611cde81611cb8565b92915050565b600060208284031215611cfa57611cf9611b84565b5b6000611d0884828501611ccf565b91505092915050565b60008115159050919050565b611d2681611d11565b82525050565b6000602082019050611d416000830184611d1d565b92915050565b600060208284031215611d5d57611d5c611b84565b5b6000611d6b84828501611c0d565b91505092915050565b600081519050919050565b600082825260208201905092915050565b60005b83811015611dae578082015181840152602081019050611d93565b83811115611dbd576000848401525b50505050565b6000601f19601f8301169050919050565b6000611ddf82611d74565b611de98185611d7f565b9350611df9818560208601611d90565b611e0281611dc3565b840191505092915050565b60006020820190508181036000830152611e278184611dd4565b905092915050565b600080600060608486031215611e4857611e47611b84565b5b6000611e5686828701611bd7565b9350506020611e6786828701611c0d565b9250506040611e7886828701611c0d565b9150509250925092565b600080fd5b7f4e487b7100000000000000000000000000000000000000000000000000000000600052604160045260246000fd5b611ebf82611dc3565b810181811067ffffffffffffffff82111715611ede57611edd611e87565b5b80604052505050565b6000611ef1611b7a565b9050611efd8282611eb6565b919050565b600067ffffffffffffffff821115611f1d57611f1c611e87565b5b602082029050602081019050919050565b600080fd5b6000611f46611f4184611f02565b611ee7565b90508083825260208201905060208402830185811115611f6957611f68611f2e565b5b835b81811015611f925780611f7e8882611c0d565b845260208401935050602081019050611f6b565b5050509392505050565b600082601f830112611fb157611fb0611e82565b5b8135611fc1848260208601611f33565b91505092915050565b600080fd5b600067ffffffffffffffff821115611fea57611fe9611e87565b5b611ff382611dc3565b9050602081019050919050565b82818337600083830152505050565b600061202261201d84611fcf565b611ee7565b90508281526020810184848401111561203e5761203d611fca565b5b612049848285612000565b509392505050565b600082601f83011261206657612065611e82565b5b813561207684826020860161200f565b91505092915050565b600080600080600060a0868803121561209b5761209a611b84565b5b60006120a988828901611bd7565b95505060206120ba88828901611bd7565b945050604086013567ffffffffffffffff8111156120db576120da611b89565b5b6120e788828901611f9c565b935050606086013567ffffffffffffffff81111561210857612107611b89565b5b61211488828901611f9c565b925050608086013567ffffffffffffffff81111561213557612134611b89565b5b61214188828901612051565b9150509295509295909350565b600067ffffffffffffffff82111561216957612168611e87565b5b602082029050602081019050919050565b600061218d6121888461214e565b611ee7565b905080838252602082019050602084028301858111156121b0576121af611f2e565b5b835b818110156121d957806121c58882611bd7565b8452602084019350506020810190506121b2565b5050509392505050565b600082601f8301126121f8576121f7611e82565b5b813561220884826020860161217a565b91505092915050565b6000806040838503121561222857612227611b84565b5b600083013567ffffffffffffffff81111561224657612245611b89565b5b612252858286016121e3565b925050602083013567ffffffffffffffff81111561227357612272611b89565b5b61227f85828601611f9c565b9150509250929050565b600081519050919050565b600082825260208201905092915050565b6000819050602082019050919050565b6122be81611bec565b82525050565b60006122d083836122b5565b60208301905092915050565b6000602082019050919050565b60006122f482612289565b6122fe8185612294565b9350612309836122a5565b8060005b8381101561233a57815161232188826122c4565b975061232c836122dc565b92505060018101905061230d565b5085935050505092915050565b6000602082019050818103600083015261236181846122e9565b905092915050565b61237281611bae565b82525050565b600060208201905061238d6000830184612369565b92915050565b61239c81611d11565b81146123a757600080fd5b50565b6000813590506123b981612393565b92915050565b600080604083850312156123d6576123d5611b84565b5b60006123e485828601611bd7565b92505060206123f5858286016123aa565b9150509250929050565b6000806040838503121561241657612415611b84565b5b600061242485828601611bd7565b925050602061243585828601611bd7565b9150509250929050565b600080600080600060a0868803121561245b5761245a611b84565b5b600061246988828901611bd7565b955050602061247a88828901611bd7565b945050604061248b88828901611c0d565b935050606061249c88828901611c0d565b925050608086013567ffffffffffffffff8111156124bd576124bc611b89565b5b6124c988828901612051565b9150509295509295909350565b6124df81611c8c565b82525050565b60006020820190506124fa60008301846124d6565b92915050565b60006020828403121561251657612515611b84565b5b600061252484828501611bd7565b91505092915050565b7f455243313135353a2062616c616e636520717565727920666f7220746865207a60008201527f65726f2061646472657373000000000000000000000000000000000000000000602082015250565b6000612589602b83611d7f565b91506125948261252d565b604082019050919050565b600060208201905081810360008301526125b88161257c565b9050919050565b7f4e487b7100000000000000000000000000000000000000000000000000000000600052602260045260246000fd5b6000600282049050600182168061260657607f821691505b6020821081141561261a576126196125bf565b5b50919050565b7f4f776e61626c653a2063616c6c6572206973206e6f7420746865206f776e6572600082015250565b6000612656602083611d7f565b915061266182612620565b602082019050919050565b6000602082019050818103600083015261268581612649565b9050919050565b7f455243313135353a207472616e736665722063616c6c6572206973206e6f742060008201527f6f776e6572206e6f7220617070726f7665640000000000000000000000000000602082015250565b60006126e8603283611d7f565b91506126f38261268c565b604082019050919050565b60006020820190508181036000830152612717816126db565b9050919050565b7f455243313135353a206163636f756e747320616e6420696473206c656e67746860008201527f206d69736d617463680000000000000000000000000000000000000000000000602082015250565b600061277a602983611d7f565b91506127858261271e565b604082019050919050565b600060208201905081810360008301526127a98161276d565b9050919050565b7f4e487b7100000000000000000000000000000000000000000000000000000000600052603260045260246000fd5b7f4e487b7100000000000000000000000000000000000000000000000000000000600052601160045260246000fd5b600061281982611bec565b91507fffffffffffffffffffffffffffffffffffffffffffffffffffffffffffffffff82141561284c5761284b6127df565b5b600182019050919050565b7f455243313135353a2063616c6c6572206973206e6f74206f776e6572206e6f7260008201527f20617070726f7665640000000000000000000000000000000000000000000000602082015250565b60006128b3602983611d7f565b91506128be82612857565b604082019050919050565b600060208201905081810360008301526128e2816128a6565b9050919050565b7f4f776e61626c653a206e6577206f776e657220697320746865207a65726f206160008201527f6464726573730000000000000000000000000000000000000000000000000000602082015250565b6000612945602683611d7f565b9150612950826128e9565b604082019050919050565b6000602082019050818103600083015261297481612938565b9050919050565b7f4f6e6c79204e4654206f6e776572732063616e206275726e2100000000000000600082015250565b60006129b1601983611d7f565b91506129bc8261297b565b602082019050919050565b600060208201905081810360008301526129e0816129a4565b9050919050565b7f4e6f7420656e6f75676820746f6b656e73210000000000000000000000000000600082015250565b6000612a1d601283611d7f565b9150612a28826129e7565b602082019050919050565b60006020820190508181036000830152612a4c81612a10565b9050919050565b7f455243313135353a206d696e7420746f20746865207a65726f2061646472657360008201527f7300000000000000000000000000000000000000000000000000000000000000602082015250565b6000612aaf602183611d7f565b9150612aba82612a53565b604082019050919050565b60006020820190508181036000830152612ade81612aa2565b9050919050565b6000612af082611bec565b9150612afb83611bec565b9250827fffffffffffffffffffffffffffffffffffffffffffffffffffffffffffffffff03821115612b3057612b2f6127df565b5b828201905092915050565b6000604082019050612b506000830185611c62565b612b5d6020830184611c62565b9392505050565b7f455243313135353a2069647320616e6420616d6f756e7473206c656e6774682060008201527f6d69736d61746368000000000000000000000000000000000000000000000000602082015250565b6000612bc0602883611d7f565b9150612bcb82612b64565b604082019050919050565b60006020820190508181036000830152612bef81612bb3565b9050919050565b7f455243313135353a207472616e7366657220746f20746865207a65726f20616460008201527f6472657373000000000000000000000000000000000000000000000000000000602082015250565b6000612c52602583611d7f565b9150612c5d82612bf6565b604082019050919050565b60006020820190508181036000830152612c8181612c45565b9050919050565b7f455243313135353a20696e73756666696369656e742062616c616e636520666f60008201527f72207472616e7366657200000000000000000000000000000000000000000000602082015250565b6000612ce4602a83611d7f565b9150612cef82612c88565b604082019050919050565b60006020820190508181036000830152612d1381612cd7565b9050919050565b60006040820190508181036000830152612d3481856122e9565b90508181036020830152612d4881846122e9565b90509392505050565b7f455243313135353a2073657474696e6720617070726f76616c2073746174757360008201527f20666f722073656c660000000000000000000000000000000000000000000000602082015250565b6000612dad602983611d7f565b9150612db882612d51565b604082019050919050565b60006020820190508181036000830152612ddc81612da0565b9050919050565b7f455243313135353a206275726e2066726f6d20746865207a65726f206164647260008201527f6573730000000000000000000000000000000000000000000000000000000000602082015250565b6000612e3f602383611d7f565b9150612e4a82612de3565b604082019050919050565b60006020820190508181036000830152612e6e81612e32565b9050919050565b7f455243313135353a206275726e20616d6f756e7420657863656564732062616c60008201527f616e636500000000000000000000000000000000000000000000000000000000602082015250565b6000612ed1602483611d7f565b9150612edc82612e75565b604082019050919050565b60006020820190508181036000830152612f0081612ec4565b9050919050565b600081519050919050565b600082825260208201905092915050565b6000612f2e82612f07565b612f388185612f12565b9350612f48818560208601611d90565b612f5181611dc3565b840191505092915050565b600060a082019050612f716000830188612369565b612f7e6020830187612369565b612f8b6040830186611c62565b612f986060830185611c62565b8181036080830152612faa8184612f23565b90509695505050505050565b600081519050612fc581611cb8565b92915050565b600060208284031215612fe157612fe0611b84565b5b6000612fef84828501612fb6565b91505092915050565b60008160e01c9050919050565b600060033d11156130245760046000803e613021600051612ff8565b90505b90565b600060443d1015613037576130ba565b61303f611b7a565b60043d036004823e80513d602482011167ffffffffffffffff821117156130675750506130ba565b808201805167ffffffffffffffff81111561308557505050506130ba565b80602083010160043d0385018111156130a25750505050506130ba565b6130b182602001850186611eb6565b82955050505050505b90565b7f455243313135353a207472616e7366657220746f206e6f6e204552433131353560008201527f526563656976657220696d706c656d656e746572000000000000000000000000602082015250565b6000613119603483611d7f565b9150613124826130bd565b604082019050919050565b600060208201905081810360008301526131488161310c565b9050919050565b7f455243313135353a204552433131353552656365697665722072656a6563746560008201527f6420746f6b656e73000000000000000000000000000000000000000000000000602082015250565b60006131ab602883611d7f565b91506131b68261314f565b604082019050919050565b600060208201905081810360008301526131da8161319e565b9050919050565b600060a0820190506131f66000830188612369565b6132036020830187612369565b818103604083015261321581866122e9565b9050818103606083015261322981856122e9565b9050818103608083015261323d8184612f23565b9050969550505050505056fea2646970667358221220e4eb6314b2f79434592979e515618411cf79fc9d6c410848e0ebed158359b80f64736f6c634300080b0033",
  "immutableReferences": {},
  "source": "// SPDX-License-Identifier: MIT\r\npragma solidity ^0.8.0;\r\n\r\nimport \"../node_modules/@openzeppelin/contracts/token/ERC1155/ERC1155.sol\";\r\nimport \"../node_modules/@openzeppelin/contracts/access/Ownable.sol\";\r\n\r\ncontract NFT is ERC1155, Ownable {\r\n\r\n    struct Input {\r\n        uint256 id;\r\n        uint256 amount;\r\n        address to;\r\n    }\r\n\r\n    constructor(Input[] memory inputArray) ERC1155(\"\") {\r\n        for (uint i=0; i<inputArray.length; i++) {\r\n            _mint(inputArray[i].to, inputArray[i].id, inputArray[i].amount, \"\");\r\n        }\r\n    }\r\n\r\n    function mint(address account, uint256 id, uint256 amount) public onlyOwner {\r\n        _mint(account, id, amount, \"\");\r\n    }\r\n\r\n    function burn(address account, uint256 id, uint256 amount) public {\r\n        require(msg.sender == account, \"Only NFT onwers can burn!\");\r\n        require(balanceOf(msg.sender, id) >= amount, \"Not enough tokens!\");\r\n        _burn(account, id, amount);\r\n    }\r\n\r\n}",
  "sourcePath": "C:\\Users\\tijan\\Qsync\\Documents\\PROGRAMIRANJE\\SOLIDITY\\nft-marketplace\\contracts\\NFT.sol",
  "compiler": {
    "name": "solc",
    "version": "0.8.11+commit.d7f03943.Emscripten.clang"
  },
  "schemaVersion": "3.4.3",
  "updatedAt": "2022-01-22T14:25:19.548Z",
  "networkType": "ethereum",
  "devdoc": {
    "kind": "dev",
    "methods": {
      "balanceOf(address,uint256)": {
        "details": "See {IERC1155-balanceOf}. Requirements: - `account` cannot be the zero address."
      },
      "balanceOfBatch(address[],uint256[])": {
        "details": "See {IERC1155-balanceOfBatch}. Requirements: - `accounts` and `ids` must have the same length."
      },
      "isApprovedForAll(address,address)": {
        "details": "See {IERC1155-isApprovedForAll}."
      },
      "owner()": {
        "details": "Returns the address of the current owner."
      },
      "renounceOwnership()": {
        "details": "Leaves the contract without owner. It will not be possible to call `onlyOwner` functions anymore. Can only be called by the current owner. NOTE: Renouncing ownership will leave the contract without an owner, thereby removing any functionality that is only available to the owner."
      },
      "safeBatchTransferFrom(address,address,uint256[],uint256[],bytes)": {
        "details": "See {IERC1155-safeBatchTransferFrom}."
      },
      "safeTransferFrom(address,address,uint256,uint256,bytes)": {
        "details": "See {IERC1155-safeTransferFrom}."
      },
      "setApprovalForAll(address,bool)": {
        "details": "See {IERC1155-setApprovalForAll}."
      },
      "supportsInterface(bytes4)": {
        "details": "See {IERC165-supportsInterface}."
      },
      "transferOwnership(address)": {
        "details": "Transfers ownership of the contract to a new account (`newOwner`). Can only be called by the current owner."
      },
      "uri(uint256)": {
        "details": "See {IERC1155MetadataURI-uri}. This implementation returns the same URI for *all* token types. It relies on the token type ID substitution mechanism https://eips.ethereum.org/EIPS/eip-1155#metadata[defined in the EIP]. Clients calling this function must replace the `\\{id\\}` substring with the actual token type ID."
      }
    },
    "version": 1
  },
  "userdoc": {
    "kind": "user",
    "methods": {},
    "version": 1
  }
}