{
  "contractName": "SecondMarketPlace",
  "abi": [
    {
      "inputs": [
        {
          "internalType": "address",
          "name": "_operator",
          "type": "address"
        }
      ],
      "stateMutability": "nonpayable",
      "type": "constructor"
    },
    {
      "anonymous": false,
      "inputs": [
        {
          "indexed": true,
          "internalType": "address",
          "name": "beneficiary",
          "type": "address"
        },
        {
          "indexed": false,
          "internalType": "uint256",
          "name": "amount",
          "type": "uint256"
        }
      ],
      "name": "BalanceWithdrawn",
      "type": "event"
    },
    {
      "anonymous": false,
      "inputs": [
        {
          "indexed": true,
          "internalType": "bytes32",
          "name": "offeringId",
          "type": "bytes32"
        },
        {
          "indexed": true,
          "internalType": "address",
          "name": "buyer",
          "type": "address"
        }
      ],
      "name": "OfferingClosed",
      "type": "event"
    },
    {
      "anonymous": false,
      "inputs": [
        {
          "indexed": true,
          "internalType": "bytes32",
          "name": "offeringId",
          "type": "bytes32"
        },
        {
          "indexed": true,
          "internalType": "address",
          "name": "hostContract",
          "type": "address"
        },
        {
          "indexed": true,
          "internalType": "address",
          "name": "offerer",
          "type": "address"
        },
        {
          "indexed": false,
          "internalType": "uint256",
          "name": "tokenId",
          "type": "uint256"
        },
        {
          "indexed": false,
          "internalType": "uint256",
          "name": "price",
          "type": "uint256"
        },
        {
          "indexed": false,
          "internalType": "uint256",
          "name": "_amount",
          "type": "uint256"
        }
      ],
      "name": "OfferingPlaced",
      "type": "event"
    },
    {
      "anonymous": false,
      "inputs": [
        {
          "indexed": false,
          "internalType": "address",
          "name": "previousOperator",
          "type": "address"
        },
        {
          "indexed": false,
          "internalType": "address",
          "name": "newOperator",
          "type": "address"
        }
      ],
      "name": "OperatorChanged",
      "type": "event"
    },
    {
      "inputs": [
        {
          "internalType": "address",
          "name": "_offerer",
          "type": "address"
        },
        {
          "internalType": "address",
          "name": "_hostContract",
          "type": "address"
        },
        {
          "internalType": "uint256",
          "name": "_tokenId",
          "type": "uint256"
        },
        {
          "internalType": "uint256",
          "name": "_price",
          "type": "uint256"
        },
        {
          "internalType": "uint256",
          "name": "_amount",
          "type": "uint256"
        }
      ],
      "name": "placeOffering",
      "outputs": [],
      "stateMutability": "nonpayable",
      "type": "function"
    },
    {
      "inputs": [
        {
          "internalType": "bytes32",
          "name": "_offeringId",
          "type": "bytes32"
        }
      ],
      "name": "closeOffering",
      "outputs": [],
      "stateMutability": "payable",
      "type": "function"
    },
    {
      "inputs": [],
      "name": "withdrawBalance",
      "outputs": [],
      "stateMutability": "nonpayable",
      "type": "function"
    },
    {
      "inputs": [
        {
          "internalType": "address",
          "name": "_newOperator",
          "type": "address"
        }
      ],
      "name": "changeOperator",
      "outputs": [],
      "stateMutability": "nonpayable",
      "type": "function"
    },
    {
      "inputs": [
        {
          "internalType": "bytes32",
          "name": "_offeringId",
          "type": "bytes32"
        }
      ],
      "name": "viewOfferingNFT",
      "outputs": [
        {
          "internalType": "address",
          "name": "",
          "type": "address"
        },
        {
          "internalType": "uint256",
          "name": "",
          "type": "uint256"
        },
        {
          "internalType": "uint256",
          "name": "",
          "type": "uint256"
        },
        {
          "internalType": "bool",
          "name": "",
          "type": "bool"
        }
      ],
      "stateMutability": "view",
      "type": "function"
    },
    {
      "inputs": [
        {
          "internalType": "address",
          "name": "_address",
          "type": "address"
        }
      ],
      "name": "viewBalances",
      "outputs": [
        {
          "internalType": "uint256",
          "name": "",
          "type": "uint256"
        }
      ],
      "stateMutability": "view",
      "type": "function"
    },
    {
      "inputs": [
        {
          "internalType": "address",
          "name": "_address",
          "type": "address"
        }
      ],
      "name": "viewOfferingsForAddress",
      "outputs": [
        {
          "internalType": "bytes32[]",
          "name": "",
          "type": "bytes32[]"
        }
      ],
      "stateMutability": "view",
      "type": "function"
    }
  ],
  "bytecode": "0x60806040523480156200001157600080fd5b50604051620014e2380380620014e28339818101604052810190620000379190620000e8565b806000806101000a81548173ffffffffffffffffffffffffffffffffffffffff021916908373ffffffffffffffffffffffffffffffffffffffff160217905550506200011a565b600080fd5b600073ffffffffffffffffffffffffffffffffffffffff82169050919050565b6000620000b08262000083565b9050919050565b620000c281620000a3565b8114620000ce57600080fd5b50565b600081519050620000e281620000b7565b92915050565b6000602082840312156200010157620001006200007e565b5b60006200011184828501620000d1565b91505092915050565b6113b8806200012a6000396000f3fe6080604052600436106100705760003560e01c80635fd8c7101161004e5780635fd8c710146100f757806392c3d0461461010e57806397fb04231461014b578063ec7bca541461017457610070565b806306394c9b14610075578063330ef2311461009e5780634b5822b1146100ba575b600080fd5b34801561008157600080fd5b5061009c60048036038101906100979190610be9565b6101b4565b005b6100b860048036038101906100b39190610c4c565b610305565b005b3480156100c657600080fd5b506100e160048036038101906100dc9190610be9565b6105da565b6040516100ee9190610c92565b60405180910390f35b34801561010357600080fd5b5061010c610623565b005b34801561011a57600080fd5b5061013560048036038101906101309190610be9565b6107c6565b6040516101429190610d6b565b60405180910390f35b34801561015757600080fd5b50610172600480360381019061016d9190610db9565b61085d565b005b34801561018057600080fd5b5061019b60048036038101906101969190610c4c565b610ae8565b6040516101ab9493929190610e5e565b60405180910390f35b60008054906101000a900473ffffffffffffffffffffffffffffffffffffffff1673ffffffffffffffffffffffffffffffffffffffff163373ffffffffffffffffffffffffffffffffffffffff1614610242576040517f08c379a000000000000000000000000000000000000000000000000000000000815260040161023990610f26565b60405180910390fd5b60008060009054906101000a900473ffffffffffffffffffffffffffffffffffffffff169050816000806101000a81548173ffffffffffffffffffffffffffffffffffffffff021916908373ffffffffffffffffffffffffffffffffffffffff1602179055507fd58299b712891143e76310d5e664c4203c940a67db37cf856bdaa3c5c76a802c8160008054906101000a900473ffffffffffffffffffffffffffffffffffffffff166040516102f9929190610f46565b60405180910390a15050565b600260008281526020019081526020016000206003015434101561035e576040517f08c379a000000000000000000000000000000000000000000000000000000000815260040161035590610fbb565b60405180910390fd5b600115156002600083815260200190815260200160002060050160009054906101000a900460ff16151514156103c9576040517f08c379a00000000000000000000000000000000000000000000000000000000081526004016103c090611027565b60405180910390fd5b60006002600083815260200190815260200160002060010160009054906101000a900473ffffffffffffffffffffffffffffffffffffffff1690508073ffffffffffffffffffffffffffffffffffffffff1663f242432a6002600085815260200190815260200160002060000160009054906101000a900473ffffffffffffffffffffffffffffffffffffffff1633600260008781526020019081526020016000206002015460026000888152602001908152602001600020600401546040518563ffffffff1660e01b81526004016104a594939291906110a4565b600060405180830381600087803b1580156104bf57600080fd5b505af11580156104d3573d6000803e3d6000fd5b5050505060016002600084815260200190815260200160002060050160006101000a81548160ff02191690831515021790555034600360006002600086815260200190815260200160002060000160009054906101000a900473ffffffffffffffffffffffffffffffffffffffff1673ffffffffffffffffffffffffffffffffffffffff1673ffffffffffffffffffffffffffffffffffffffff168152602001908152602001600020600082825461058b919061112b565b925050819055503373ffffffffffffffffffffffffffffffffffffffff16827f0cfb1c3841b1ebe2ad43e9d641c358c0d40c4a10fc3c2ee73fd956a2658ed14460405160405180910390a35050565b6000600360008373ffffffffffffffffffffffffffffffffffffffff1673ffffffffffffffffffffffffffffffffffffffff168152602001908152602001600020549050919050565b6000600360003373ffffffffffffffffffffffffffffffffffffffff1673ffffffffffffffffffffffffffffffffffffffff16815260200190815260200160002054116106a5576040517f08c379a000000000000000000000000000000000000000000000000000000000815260040161069c906111f3565b60405180910390fd5b6000600360003373ffffffffffffffffffffffffffffffffffffffff1673ffffffffffffffffffffffffffffffffffffffff1681526020019081526020016000205490503373ffffffffffffffffffffffffffffffffffffffff166108fc829081150290604051600060405180830381858888f1935050505015801561072f573d6000803e3d6000fd5b506000600360003373ffffffffffffffffffffffffffffffffffffffff1673ffffffffffffffffffffffffffffffffffffffff168152602001908152602001600020819055503373ffffffffffffffffffffffffffffffffffffffff167fddc398b321237a8d40ac914388309c2f52a08c134e4dc4ce61e32f57cb7d80f1826040516107bb9190610c92565b60405180910390a250565b6060600460008373ffffffffffffffffffffffffffffffffffffffff1673ffffffffffffffffffffffffffffffffffffffff16815260200190815260200160002080548060200260200160405190810160405280929190818152602001828054801561085157602002820191906000526020600020905b81548152602001906001019080831161083d575b50505050509050919050565b3373ffffffffffffffffffffffffffffffffffffffff168573ffffffffffffffffffffffffffffffffffffffff16146108cb576040517f08c379a00000000000000000000000000000000000000000000000000000000081526004016108c290611285565b60405180910390fd5b600060015485856040516020016108e49392919061130e565b604051602081830303815290604052805190602001209050856002600083815260200190815260200160002060000160006101000a81548173ffffffffffffffffffffffffffffffffffffffff021916908373ffffffffffffffffffffffffffffffffffffffff160217905550846002600083815260200190815260200160002060010160006101000a81548173ffffffffffffffffffffffffffffffffffffffff021916908373ffffffffffffffffffffffffffffffffffffffff1602179055508360026000838152602001908152602001600020600201819055508260026000838152602001908152602001600020600301819055508160026000838152602001908152602001600020600401819055506001806000828254610a09919061112b565b92505081905550600460003373ffffffffffffffffffffffffffffffffffffffff1673ffffffffffffffffffffffffffffffffffffffff1681526020019081526020016000208190806001815401808255809150506001900390600052602060002001600090919091909150558573ffffffffffffffffffffffffffffffffffffffff168573ffffffffffffffffffffffffffffffffffffffff16827fa64d80962a0313f40b8b55f6aa3afc11782bf69e6aa4ad46afdbb93223e621b3878787604051610ad89392919061134b565b60405180910390a4505050505050565b6000806000806002600086815260200190815260200160002060010160009054906101000a900473ffffffffffffffffffffffffffffffffffffffff16600260008781526020019081526020016000206002015460026000888152602001908152602001600020600301546002600089815260200190815260200160002060050160009054906101000a900460ff1693509350935093509193509193565b600080fd5b600073ffffffffffffffffffffffffffffffffffffffff82169050919050565b6000610bb682610b8b565b9050919050565b610bc681610bab565b8114610bd157600080fd5b50565b600081359050610be381610bbd565b92915050565b600060208284031215610bff57610bfe610b86565b5b6000610c0d84828501610bd4565b91505092915050565b6000819050919050565b610c2981610c16565b8114610c3457600080fd5b50565b600081359050610c4681610c20565b92915050565b600060208284031215610c6257610c61610b86565b5b6000610c7084828501610c37565b91505092915050565b6000819050919050565b610c8c81610c79565b82525050565b6000602082019050610ca76000830184610c83565b92915050565b600081519050919050565b600082825260208201905092915050565b6000819050602082019050919050565b610ce281610c16565b82525050565b6000610cf48383610cd9565b60208301905092915050565b6000602082019050919050565b6000610d1882610cad565b610d228185610cb8565b9350610d2d83610cc9565b8060005b83811015610d5e578151610d458882610ce8565b9750610d5083610d00565b925050600181019050610d31565b5085935050505092915050565b60006020820190508181036000830152610d858184610d0d565b905092915050565b610d9681610c79565b8114610da157600080fd5b50565b600081359050610db381610d8d565b92915050565b600080600080600060a08688031215610dd557610dd4610b86565b5b6000610de388828901610bd4565b9550506020610df488828901610bd4565b9450506040610e0588828901610da4565b9350506060610e1688828901610da4565b9250506080610e2788828901610da4565b9150509295509295909350565b610e3d81610bab565b82525050565b60008115159050919050565b610e5881610e43565b82525050565b6000608082019050610e736000830187610e34565b610e806020830186610c83565b610e8d6040830185610c83565b610e9a6060830184610e4f565b95945050505050565b600082825260208201905092915050565b7f6f6e6c7920746865206f70657261746f722063616e206368616e67652074686560008201527f2063757272656e74206f70657261746f72000000000000000000000000000000602082015250565b6000610f10603183610ea3565b9150610f1b82610eb4565b604082019050919050565b60006020820190508181036000830152610f3f81610f03565b9050919050565b6000604082019050610f5b6000830185610e34565b610f686020830184610e34565b9392505050565b7f4e6f7420656e6f7567682066756e647320746f20627579000000000000000000600082015250565b6000610fa5601783610ea3565b9150610fb082610f6f565b602082019050919050565b60006020820190508181036000830152610fd481610f98565b9050919050565b7f4f66666572696e6720697320636c6f7365640000000000000000000000000000600082015250565b6000611011601283610ea3565b915061101c82610fdb565b602082019050919050565b6000602082019050818103600083015261104081611004565b9050919050565b600082825260208201905092915050565b7f7465737400000000000000000000000000000000000000000000000000000000600082015250565b600061108e600483611047565b915061109982611058565b602082019050919050565b600060a0820190506110b96000830187610e34565b6110c66020830186610e34565b6110d36040830185610c83565b6110e06060830184610c83565b81810360808301526110f181611081565b905095945050505050565b7f4e487b7100000000000000000000000000000000000000000000000000000000600052601160045260246000fd5b600061113682610c79565b915061114183610c79565b9250827fffffffffffffffffffffffffffffffffffffffffffffffffffffffffffffffff03821115611176576111756110fc565b5b828201905092915050565b7f596f7520646f6e2774206861766520616e792062616c616e636520746f20776960008201527f7468647261770000000000000000000000000000000000000000000000000000602082015250565b60006111dd602683610ea3565b91506111e882611181565b604082019050919050565b6000602082019050818103600083015261120c816111d0565b9050919050565b7f596f752063616e206e6f7420706c616365206f666665727320666f72206f746860008201527f65722070656f706c652100000000000000000000000000000000000000000000602082015250565b600061126f602a83610ea3565b915061127a82611213565b604082019050919050565b6000602082019050818103600083015261129e81611262565b9050919050565b6000819050919050565b6112c06112bb82610c79565b6112a5565b82525050565b60008160601b9050919050565b60006112de826112c6565b9050919050565b60006112f0826112d3565b9050919050565b61130861130382610bab565b6112e5565b82525050565b600061131a82866112af565b60208201915061132a82856112f7565b60148201915061133a82846112af565b602082019150819050949350505050565b60006060820190506113606000830186610c83565b61136d6020830185610c83565b61137a6040830184610c83565b94935050505056fea26469706673582212208f173b146baa8572994764d24d9ed4a50c44cfba0e1931957c176570fe0cab4c64736f6c634300080b0033",
  "immutableReferences": {},
  "source": "// SPDX-License-Identifier: MIT\r\npragma solidity ^0.8.0;\r\n\r\nimport \"../node_modules/@openzeppelin/contracts/token/ERC1155/ERC1155.sol\";\r\n\r\ncontract SecondMarketPlace{\r\n\r\n    event OfferingPlaced(bytes32 indexed offeringId, address indexed hostContract, address indexed offerer,  uint tokenId, uint price, uint _amount);\r\n    event OfferingClosed(bytes32 indexed offeringId, address indexed buyer);\r\n    event BalanceWithdrawn (address indexed beneficiary, uint amount);\r\n    event OperatorChanged (address previousOperator, address newOperator);\r\n\r\n    address operator;\r\n    uint offeringNonce;\r\n\r\n    struct offering {\r\n        address offerer;\r\n        address hostContract;\r\n        uint tokenId;\r\n        uint price;\r\n        uint amount;\r\n        bool closed; \r\n    }\r\n    \r\n    mapping (bytes32 => offering) offeringRegistry;\r\n    mapping (address => uint) balances;\r\n    mapping (address => bytes32[]) addressOfferings;\r\n\r\n    constructor (address _operator) {\r\n        operator = _operator;\r\n    }\r\n\r\n    function placeOffering (address _offerer, address _hostContract, uint _tokenId, uint _price, uint _amount) external {\r\n        require(_offerer == msg.sender, \"You can not place offers for other people!\");\r\n        bytes32 offeringId = keccak256(abi.encodePacked(offeringNonce, _hostContract, _tokenId));\r\n        offeringRegistry[offeringId].offerer = _offerer;\r\n        offeringRegistry[offeringId].hostContract = _hostContract;\r\n        offeringRegistry[offeringId].tokenId = _tokenId;\r\n        offeringRegistry[offeringId].price = _price;\r\n        offeringRegistry[offeringId].amount = _amount;\r\n        offeringNonce += 1;\r\n        addressOfferings[msg.sender].push(offeringId);\r\n        emit OfferingPlaced(offeringId, _hostContract, _offerer, _tokenId, _price, _amount);\r\n    }\r\n    \r\n    function closeOffering(bytes32 _offeringId) external payable {\r\n        require(msg.value >= offeringRegistry[_offeringId].price, \"Not enough funds to buy\");\r\n        require(offeringRegistry[_offeringId].closed != true, \"Offering is closed\");\r\n        ERC1155 hostContract = ERC1155(offeringRegistry[_offeringId].hostContract);\r\n        hostContract.safeTransferFrom(offeringRegistry[_offeringId].offerer, msg.sender, offeringRegistry[_offeringId].tokenId, offeringRegistry[_offeringId].amount, \"test\");\r\n        offeringRegistry[_offeringId].closed = true;\r\n        balances[offeringRegistry[_offeringId].offerer] += msg.value;\r\n        emit OfferingClosed(_offeringId, msg.sender);\r\n    } \r\n\r\n    function withdrawBalance() external {\r\n        require(balances[msg.sender] > 0,\"You don't have any balance to withdraw\");\r\n        uint amount = balances[msg.sender];\r\n        payable(msg.sender).transfer(amount);\r\n        balances[msg.sender] = 0;\r\n        emit BalanceWithdrawn(msg.sender, amount);\r\n    }\r\n\r\n    function changeOperator(address _newOperator) external {\r\n        require(msg.sender == operator,\"only the operator can change the current operator\");\r\n        address previousOperator = operator;\r\n        operator = _newOperator;\r\n        emit OperatorChanged(previousOperator, operator);\r\n    }\r\n\r\n    function viewOfferingNFT(bytes32 _offeringId) external view returns (address, uint, uint, bool){\r\n        return (offeringRegistry[_offeringId].hostContract, offeringRegistry[_offeringId].tokenId, offeringRegistry[_offeringId].price, offeringRegistry[_offeringId].closed);\r\n    }\r\n\r\n    function viewBalances(address _address) external view returns (uint) {\r\n        return (balances[_address]);\r\n    }\r\n\r\n    function viewOfferingsForAddress(address _address) external view returns(bytes32[] memory) {\r\n        return addressOfferings[_address];\r\n    }\r\n\r\n}",
  "sourcePath": "C:\\Users\\tijan\\Qsync\\Documents\\PROGRAMIRANJE\\SOLIDITY\\project\\contracts\\SecondMarketPlace.sol",
  "compiler": {
    "name": "solc",
    "version": "0.8.11+commit.d7f03943.Emscripten.clang"
  },
  "schemaVersion": "3.4.3",
  "updatedAt": "2022-01-18T20:03:17.252Z",
  "devdoc": {
    "kind": "dev",
    "methods": {},
    "version": 1
  },
  "userdoc": {
    "kind": "user",
    "methods": {},
    "version": 1
  }
}