{
  "contractName": "SimpleMarketplace",
  "abi": [
    {
      "anonymous": false,
      "inputs": [
        {
          "indexed": true,
          "internalType": "address",
          "name": "previousOwner",
          "type": "address"
        },
        {
          "indexed": true,
          "internalType": "address",
          "name": "newOwner",
          "type": "address"
        }
      ],
      "name": "OwnershipTransferred",
      "type": "event"
    },
    {
      "anonymous": false,
      "inputs": [
        {
          "indexed": false,
          "internalType": "address",
          "name": "contractAddress",
          "type": "address"
        },
        {
          "indexed": false,
          "internalType": "address",
          "name": "seller",
          "type": "address"
        },
        {
          "indexed": false,
          "internalType": "uint256",
          "name": "tokenId",
          "type": "uint256"
        },
        {
          "indexed": false,
          "internalType": "uint256",
          "name": "amount",
          "type": "uint256"
        },
        {
          "indexed": false,
          "internalType": "uint256",
          "name": "pricePerToken",
          "type": "uint256"
        }
      ],
      "name": "TokenListed",
      "type": "event"
    },
    {
      "anonymous": false,
      "inputs": [
        {
          "indexed": false,
          "internalType": "address",
          "name": "contractAddress",
          "type": "address"
        },
        {
          "indexed": false,
          "internalType": "address",
          "name": "seller",
          "type": "address"
        },
        {
          "indexed": false,
          "internalType": "address",
          "name": "buyer",
          "type": "address"
        },
        {
          "indexed": false,
          "internalType": "uint256",
          "name": "tokenId",
          "type": "uint256"
        },
        {
          "indexed": false,
          "internalType": "uint256",
          "name": "amount",
          "type": "uint256"
        },
        {
          "indexed": false,
          "internalType": "uint256",
          "name": "pricePerToken",
          "type": "uint256"
        }
      ],
      "name": "TokenSold",
      "type": "event"
    },
    {
      "inputs": [],
      "name": "owner",
      "outputs": [
        {
          "internalType": "address",
          "name": "",
          "type": "address"
        }
      ],
      "stateMutability": "view",
      "type": "function"
    },
    {
      "inputs": [],
      "name": "renounceOwnership",
      "outputs": [],
      "stateMutability": "nonpayable",
      "type": "function"
    },
    {
      "inputs": [
        {
          "internalType": "address",
          "name": "newOwner",
          "type": "address"
        }
      ],
      "name": "transferOwnership",
      "outputs": [],
      "stateMutability": "nonpayable",
      "type": "function"
    },
    {
      "inputs": [
        {
          "internalType": "address",
          "name": "contractAddress",
          "type": "address"
        },
        {
          "internalType": "uint256",
          "name": "tokenId",
          "type": "uint256"
        },
        {
          "internalType": "uint256",
          "name": "amount",
          "type": "uint256"
        },
        {
          "internalType": "uint256",
          "name": "price",
          "type": "uint256"
        }
      ],
      "name": "listToken",
      "outputs": [],
      "stateMutability": "nonpayable",
      "type": "function"
    },
    {
      "inputs": [
        {
          "internalType": "uint256",
          "name": "listingId",
          "type": "uint256"
        },
        {
          "internalType": "uint256",
          "name": "amount",
          "type": "uint256"
        }
      ],
      "name": "purchaseToken",
      "outputs": [],
      "stateMutability": "payable",
      "type": "function"
    },
    {
      "inputs": [],
      "name": "viewAllListings",
      "outputs": [
        {
          "components": [
            {
              "internalType": "address",
              "name": "contractAddress",
              "type": "address"
            },
            {
              "internalType": "address",
              "name": "seller",
              "type": "address"
            },
            {
              "internalType": "uint256",
              "name": "tokenId",
              "type": "uint256"
            },
            {
              "internalType": "uint256",
              "name": "amount",
              "type": "uint256"
            },
            {
              "internalType": "uint256",
              "name": "price",
              "type": "uint256"
            },
            {
              "internalType": "uint256",
              "name": "tokensAvailable",
              "type": "uint256"
            },
            {
              "internalType": "bool",
              "name": "completed",
              "type": "bool"
            }
          ],
          "internalType": "struct SimpleMarketplace.Listing[]",
          "name": "",
          "type": "tuple[]"
        }
      ],
      "stateMutability": "view",
      "type": "function"
    },
    {
      "inputs": [
        {
          "internalType": "uint256",
          "name": "_id",
          "type": "uint256"
        }
      ],
      "name": "viewListingById",
      "outputs": [
        {
          "components": [
            {
              "internalType": "address",
              "name": "contractAddress",
              "type": "address"
            },
            {
              "internalType": "address",
              "name": "seller",
              "type": "address"
            },
            {
              "internalType": "uint256",
              "name": "tokenId",
              "type": "uint256"
            },
            {
              "internalType": "uint256",
              "name": "amount",
              "type": "uint256"
            },
            {
              "internalType": "uint256",
              "name": "price",
              "type": "uint256"
            },
            {
              "internalType": "uint256",
              "name": "tokensAvailable",
              "type": "uint256"
            },
            {
              "internalType": "bool",
              "name": "completed",
              "type": "bool"
            }
          ],
          "internalType": "struct SimpleMarketplace.Listing",
          "name": "",
          "type": "tuple"
        }
      ],
      "stateMutability": "view",
      "type": "function"
    },
    {
      "inputs": [],
      "name": "viewStats",
      "outputs": [
        {
          "components": [
            {
              "internalType": "uint256",
              "name": "volume",
              "type": "uint256"
            },
            {
              "internalType": "uint256",
              "name": "itemsSold",
              "type": "uint256"
            }
          ],
          "internalType": "struct SimpleMarketplace.Stats",
          "name": "",
          "type": "tuple"
        }
      ],
      "stateMutability": "view",
      "type": "function"
    },
    {
      "inputs": [],
      "name": "withdrawFees",
      "outputs": [],
      "stateMutability": "nonpayable",
      "type": "function"
    }
  ],
  "bytecode": "0x608060405234801561001057600080fd5b5061002d61002261003960201b60201c565b61004160201b60201c565b60018081905550610105565b600033905090565b60008060009054906101000a900473ffffffffffffffffffffffffffffffffffffffff169050816000806101000a81548173ffffffffffffffffffffffffffffffffffffffff021916908373ffffffffffffffffffffffffffffffffffffffff1602179055508173ffffffffffffffffffffffffffffffffffffffff168173ffffffffffffffffffffffffffffffffffffffff167f8be0079c531659141344cd1fd0a4f28419497f9722a3daafe3b4186f6b6457e060405160405180910390a35050565b6120d380620001156000396000f3fe6080604052600436106100865760003560e01c80638da5cb5b116100595780638da5cb5b14610100578063ab7c88ba1461012b578063b43d901d14610156578063c4599b221461017f578063f2fde38b146101bc57610086565b8063301c5b901461008b578063476343ee146100a7578063715018a6146100be57806381fab025146100d5575b600080fd5b6100a560048036038101906100a0919061139b565b6101e5565b005b3480156100b357600080fd5b506100bc61085b565b005b3480156100ca57600080fd5b506100d3610975565b005b3480156100e157600080fd5b506100ea6109fd565b6040516100f79190611583565b60405180910390f35b34801561010c57600080fd5b50610115610c03565b60405161012291906115b4565b60405180910390f35b34801561013757600080fd5b50610140610c2c565b60405161014d91906115fe565b60405180910390f35b34801561016257600080fd5b5061017d60048036038101906101789190611645565b610c59565b005b34801561018b57600080fd5b506101a660048036038101906101a191906116ac565b610fd7565b6040516101b39190611767565b60405180910390f35b3480156101c857600080fd5b506101e360048036038101906101de9190611782565b6110f3565b005b6002600154141561022b576040517f08c379a00000000000000000000000000000000000000000000000000000000081526004016102229061180c565b60405180910390fd5b600260018190555060006005600084815260200190815260200160002060000160009054906101000a900473ffffffffffffffffffffffffffffffffffffffff1690506005600084815260200190815260200160002060010160009054906101000a900473ffffffffffffffffffffffffffffffffffffffff1673ffffffffffffffffffffffffffffffffffffffff163373ffffffffffffffffffffffffffffffffffffffff161415610313576040517f08c379a000000000000000000000000000000000000000000000000000000000815260040161030a90611878565b60405180910390fd5b81600560008581526020019081526020016000206004015461033591906118c7565b341015610377576040517f08c379a000000000000000000000000000000000000000000000000000000000815260040161036e9061196d565b60405180910390fd5b818173ffffffffffffffffffffffffffffffffffffffff1662fdd58e6005600087815260200190815260200160002060010160009054906101000a900473ffffffffffffffffffffffffffffffffffffffff1660056000888152602001908152602001600020600201546040518363ffffffff1660e01b81526004016103fe92919061199c565b602060405180830381865afa15801561041b573d6000803e3d6000fd5b505050506040513d601f19601f8201168201806040525081019061043f91906119da565b1015610480576040517f08c379a000000000000000000000000000000000000000000000000000000000815260040161047790611a79565b60405180910390fd5b600015156005600085815260200190815260200160002060060160009054906101000a900460ff161515146104ea576040517f08c379a00000000000000000000000000000000000000000000000000000000081526004016104e190611ae5565b60405180910390fd5b8160056000858152602001908152602001600020600501541015610543576040517f08c379a000000000000000000000000000000000000000000000000000000000815260040161053a90611b51565b60405180910390fd5b61054d60036111eb565b81600560008581526020019081526020016000206004015461056f91906118c7565b600460008282546105809190611b71565b92505081905550816005600085815260200190815260200160002060050160008282546105ad9190611bc7565b925050819055506000600560008581526020019081526020016000206005015414156106035760016005600085815260200190815260200160002060060160006101000a81548160ff0219169083151502179055505b7f8257f0470c8769f4b3919b39cdf2ccbff753aaecbaeed07ad5ce4844fe722f1b6005600085815260200190815260200160002060000160009054906101000a900473ffffffffffffffffffffffffffffffffffffffff166005600086815260200190815260200160002060010160009054906101000a900473ffffffffffffffffffffffffffffffffffffffff1633600560008881526020019081526020016000206002015486600560008a8152602001908152602001600020600401546040516106d496959493929190611bfb565b60405180910390a18073ffffffffffffffffffffffffffffffffffffffff1663f242432a6005600086815260200190815260200160002060010160009054906101000a900473ffffffffffffffffffffffffffffffffffffffff16336005600088815260200190815260200160002060020154866040518563ffffffff1660e01b81526004016107679493929190611c93565b600060405180830381600087803b15801561078157600080fd5b505af1158015610795573d6000803e3d6000fd5b505050506005600084815260200190815260200160002060010160009054906101000a900473ffffffffffffffffffffffffffffffffffffffff1673ffffffffffffffffffffffffffffffffffffffff166108fc6031603285600560008981526020019081526020016000206004015461080f91906118c7565b6108199190611d1a565b61082391906118c7565b9081150290604051600060405180830381858888f1935050505015801561084e573d6000803e3d6000fd5b5050600180819055505050565b610863611201565b73ffffffffffffffffffffffffffffffffffffffff16610881610c03565b73ffffffffffffffffffffffffffffffffffffffff16146108d7576040517f08c379a00000000000000000000000000000000000000000000000000000000081526004016108ce90611d97565b60405180910390fd5b6002600154141561091d576040517f08c379a00000000000000000000000000000000000000000000000000000000081526004016109149061180c565b60405180910390fd5b60026001819055503373ffffffffffffffffffffffffffffffffffffffff166108fc479081150290604051600060405180830381858888f1935050505015801561096b573d6000803e3d6000fd5b5060018081905550565b61097d611201565b73ffffffffffffffffffffffffffffffffffffffff1661099b610c03565b73ffffffffffffffffffffffffffffffffffffffff16146109f1576040517f08c379a00000000000000000000000000000000000000000000000000000000081526004016109e890611d97565b60405180910390fd5b6109fb6000611209565b565b60606000610a0b60026112cd565b90506000610a1960036112cd565b610a2360026112cd565b610a2d9190611bc7565b90506000808267ffffffffffffffff811115610a4c57610a4b611db7565b5b604051908082528060200260200182016040528015610a8557816020015b610a726112db565b815260200190600190039081610a6a5790505b50905060005b84811015610bf8576000600182610aa29190611b71565b90506000600560008381526020019081526020016000209050806040518060e00160405290816000820160009054906101000a900473ffffffffffffffffffffffffffffffffffffffff1673ffffffffffffffffffffffffffffffffffffffff1673ffffffffffffffffffffffffffffffffffffffff1681526020016001820160009054906101000a900473ffffffffffffffffffffffffffffffffffffffff1673ffffffffffffffffffffffffffffffffffffffff1673ffffffffffffffffffffffffffffffffffffffff168152602001600282015481526020016003820154815260200160048201548152602001600582015481526020016006820160009054906101000a900460ff161515151581525050848681518110610bc957610bc8611de6565b5b6020026020010181905250600185610be19190611b71565b945050508080610bf090611e15565b915050610a8b565b508094505050505090565b60008060009054906101000a900473ffffffffffffffffffffffffffffffffffffffff16905090565b610c34611346565b60405180604001604052806004548152602001610c5160036112cd565b815250905090565b60026001541415610c9f576040517f08c379a0000000000000000000000000000000000000000000000000000000008152600401610c969061180c565b60405180910390fd5b60026001819055506000849050828173ffffffffffffffffffffffffffffffffffffffff1662fdd58e33876040518363ffffffff1660e01b8152600401610ce792919061199c565b602060405180830381865afa158015610d04573d6000803e3d6000fd5b505050506040513d601f19601f82011682018060405250810190610d2891906119da565b11610d68576040517f08c379a0000000000000000000000000000000000000000000000000000000008152600401610d5f90611eaa565b60405180910390fd5b8073ffffffffffffffffffffffffffffffffffffffff1663e985e9c533306040518363ffffffff1660e01b8152600401610da3929190611eca565b602060405180830381865afa158015610dc0573d6000803e3d6000fd5b505050506040513d601f19601f82011682018060405250810190610de49190611f1f565b610e23576040517f08c379a0000000000000000000000000000000000000000000000000000000008152600401610e1a90611f98565b60405180910390fd5b610e2d60026111eb565b6000610e3960026112cd565b90506040518060e001604052808773ffffffffffffffffffffffffffffffffffffffff1681526020013373ffffffffffffffffffffffffffffffffffffffff168152602001868152602001858152602001848152602001858152602001600015158152506005600083815260200190815260200160002060008201518160000160006101000a81548173ffffffffffffffffffffffffffffffffffffffff021916908373ffffffffffffffffffffffffffffffffffffffff16021790555060208201518160010160006101000a81548173ffffffffffffffffffffffffffffffffffffffff021916908373ffffffffffffffffffffffffffffffffffffffff16021790555060408201518160020155606082015181600301556080820151816004015560a0820151816005015560c08201518160060160006101000a81548160ff0219169083151502179055509050507f7d5e9f7d0176f6d89418aff63d46085abc93fe2052915f849d66d8f7d168bb3c8633878787604051610fc0959493929190611fb8565b60405180910390a150506001808190555050505050565b610fdf6112db565b600560008381526020019081526020016000206040518060e00160405290816000820160009054906101000a900473ffffffffffffffffffffffffffffffffffffffff1673ffffffffffffffffffffffffffffffffffffffff1673ffffffffffffffffffffffffffffffffffffffff1681526020016001820160009054906101000a900473ffffffffffffffffffffffffffffffffffffffff1673ffffffffffffffffffffffffffffffffffffffff1673ffffffffffffffffffffffffffffffffffffffff168152602001600282015481526020016003820154815260200160048201548152602001600582015481526020016006820160009054906101000a900460ff1615151515815250509050919050565b6110fb611201565b73ffffffffffffffffffffffffffffffffffffffff16611119610c03565b73ffffffffffffffffffffffffffffffffffffffff161461116f576040517f08c379a000000000000000000000000000000000000000000000000000000000815260040161116690611d97565b60405180910390fd5b600073ffffffffffffffffffffffffffffffffffffffff168173ffffffffffffffffffffffffffffffffffffffff1614156111df576040517f08c379a00000000000000000000000000000000000000000000000000000000081526004016111d69061207d565b60405180910390fd5b6111e881611209565b50565b6001816000016000828254019250508190555050565b600033905090565b60008060009054906101000a900473ffffffffffffffffffffffffffffffffffffffff169050816000806101000a81548173ffffffffffffffffffffffffffffffffffffffff021916908373ffffffffffffffffffffffffffffffffffffffff1602179055508173ffffffffffffffffffffffffffffffffffffffff168173ffffffffffffffffffffffffffffffffffffffff167f8be0079c531659141344cd1fd0a4f28419497f9722a3daafe3b4186f6b6457e060405160405180910390a35050565b600081600001549050919050565b6040518060e00160405280600073ffffffffffffffffffffffffffffffffffffffff168152602001600073ffffffffffffffffffffffffffffffffffffffff168152602001600081526020016000815260200160008152602001600081526020016000151581525090565b604051806040016040528060008152602001600081525090565b600080fd5b6000819050919050565b61137881611365565b811461138357600080fd5b50565b6000813590506113958161136f565b92915050565b600080604083850312156113b2576113b1611360565b5b60006113c085828601611386565b92505060206113d185828601611386565b9150509250929050565b600081519050919050565b600082825260208201905092915050565b6000819050602082019050919050565b600073ffffffffffffffffffffffffffffffffffffffff82169050919050565b600061143282611407565b9050919050565b61144281611427565b82525050565b61145181611365565b82525050565b60008115159050919050565b61146c81611457565b82525050565b60e0820160008201516114886000850182611439565b50602082015161149b6020850182611439565b5060408201516114ae6040850182611448565b5060608201516114c16060850182611448565b5060808201516114d46080850182611448565b5060a08201516114e760a0850182611448565b5060c08201516114fa60c0850182611463565b50505050565b600061150c8383611472565b60e08301905092915050565b6000602082019050919050565b6000611530826113db565b61153a81856113e6565b9350611545836113f7565b8060005b8381101561157657815161155d8882611500565b975061156883611518565b925050600181019050611549565b5085935050505092915050565b6000602082019050818103600083015261159d8184611525565b905092915050565b6115ae81611427565b82525050565b60006020820190506115c960008301846115a5565b92915050565b6040820160008201516115e56000850182611448565b5060208201516115f86020850182611448565b50505050565b600060408201905061161360008301846115cf565b92915050565b61162281611427565b811461162d57600080fd5b50565b60008135905061163f81611619565b92915050565b6000806000806080858703121561165f5761165e611360565b5b600061166d87828801611630565b945050602061167e87828801611386565b935050604061168f87828801611386565b92505060606116a087828801611386565b91505092959194509250565b6000602082840312156116c2576116c1611360565b5b60006116d084828501611386565b91505092915050565b60e0820160008201516116ef6000850182611439565b5060208201516117026020850182611439565b5060408201516117156040850182611448565b5060608201516117286060850182611448565b50608082015161173b6080850182611448565b5060a082015161174e60a0850182611448565b5060c082015161176160c0850182611463565b50505050565b600060e08201905061177c60008301846116d9565b92915050565b60006020828403121561179857611797611360565b5b60006117a684828501611630565b91505092915050565b600082825260208201905092915050565b7f5265656e7472616e637947756172643a207265656e7472616e742063616c6c00600082015250565b60006117f6601f836117af565b9150611801826117c0565b602082019050919050565b60006020820190508181036000830152611825816117e9565b9050919050565b7f43616e27742062757920796f7572206f6e7720746f6b656e7321000000000000600082015250565b6000611862601a836117af565b915061186d8261182c565b602082019050919050565b6000602082019050818103600083015261189181611855565b9050919050565b7f4e487b7100000000000000000000000000000000000000000000000000000000600052601160045260246000fd5b60006118d282611365565b91506118dd83611365565b9250817fffffffffffffffffffffffffffffffffffffffffffffffffffffffffffffffff048311821515161561191657611915611898565b5b828202905092915050565b7f496e73756666696369656e742066756e64732100000000000000000000000000600082015250565b60006119576013836117af565b915061196282611921565b602082019050919050565b600060208201905081810360008301526119868161194a565b9050919050565b61199681611365565b82525050565b60006040820190506119b160008301856115a5565b6119be602083018461198d565b9392505050565b6000815190506119d48161136f565b92915050565b6000602082840312156119f0576119ef611360565b5b60006119fe848285016119c5565b91505092915050565b7f53656c6c657220646f65736e2774206861766520656e6f75676820746f6b656e60008201527f7321000000000000000000000000000000000000000000000000000000000000602082015250565b6000611a636022836117af565b9150611a6e82611a07565b604082019050919050565b60006020820190508181036000830152611a9281611a56565b9050919050565b7f4c697374696e67206e6f7420617661696c61626c6520616e796d6f7265210000600082015250565b6000611acf601e836117af565b9150611ada82611a99565b602082019050919050565b60006020820190508181036000830152611afe81611ac2565b9050919050565b7f4e6f7420656e6f75676820746f6b656e73206c65667421000000000000000000600082015250565b6000611b3b6017836117af565b9150611b4682611b05565b602082019050919050565b60006020820190508181036000830152611b6a81611b2e565b9050919050565b6000611b7c82611365565b9150611b8783611365565b9250827fffffffffffffffffffffffffffffffffffffffffffffffffffffffffffffffff03821115611bbc57611bbb611898565b5b828201905092915050565b6000611bd282611365565b9150611bdd83611365565b925082821015611bf057611bef611898565b5b828203905092915050565b600060c082019050611c1060008301896115a5565b611c1d60208301886115a5565b611c2a60408301876115a5565b611c37606083018661198d565b611c44608083018561198d565b611c5160a083018461198d565b979650505050505050565b600082825260208201905092915050565b50565b6000611c7d600083611c5c565b9150611c8882611c6d565b600082019050919050565b600060a082019050611ca860008301876115a5565b611cb560208301866115a5565b611cc2604083018561198d565b611ccf606083018461198d565b8181036080830152611ce081611c70565b905095945050505050565b7f4e487b7100000000000000000000000000000000000000000000000000000000600052601260045260246000fd5b6000611d2582611365565b9150611d3083611365565b925082611d4057611d3f611ceb565b5b828204905092915050565b7f4f776e61626c653a2063616c6c6572206973206e6f7420746865206f776e6572600082015250565b6000611d816020836117af565b9150611d8c82611d4b565b602082019050919050565b60006020820190508181036000830152611db081611d74565b9050919050565b7f4e487b7100000000000000000000000000000000000000000000000000000000600052604160045260246000fd5b7f4e487b7100000000000000000000000000000000000000000000000000000000600052603260045260246000fd5b6000611e2082611365565b91507fffffffffffffffffffffffffffffffffffffffffffffffffffffffffffffffff821415611e5357611e52611898565b5b600182019050919050565b7f43616c6c6572206d757374206f776e20676976656e20746f6b656e2100000000600082015250565b6000611e94601c836117af565b9150611e9f82611e5e565b602082019050919050565b60006020820190508181036000830152611ec381611e87565b9050919050565b6000604082019050611edf60008301856115a5565b611eec60208301846115a5565b9392505050565b611efc81611457565b8114611f0757600080fd5b50565b600081519050611f1981611ef3565b92915050565b600060208284031215611f3557611f34611360565b5b6000611f4384828501611f0a565b91505092915050565b7f436f6e7472616374206d75737420626520617070726f76656421000000000000600082015250565b6000611f82601a836117af565b9150611f8d82611f4c565b602082019050919050565b60006020820190508181036000830152611fb181611f75565b9050919050565b600060a082019050611fcd60008301886115a5565b611fda60208301876115a5565b611fe7604083018661198d565b611ff4606083018561198d565b612001608083018461198d565b9695505050505050565b7f4f776e61626c653a206e6577206f776e657220697320746865207a65726f206160008201527f6464726573730000000000000000000000000000000000000000000000000000602082015250565b60006120676026836117af565b91506120728261200b565b604082019050919050565b600060208201905081810360008301526120968161205a565b905091905056fea2646970667358221220b068d817909971b1602377912899c2ccdaf73a75cb87f313143ce6d7430ec29b64736f6c634300080b0033",
  "immutableReferences": {},
  "source": "// SPDX-License-Identifier: MIT\r\npragma solidity ^0.8.0;\r\n\r\nimport \"../node_modules/@openzeppelin/contracts/utils/Counters.sol\";\r\nimport \"../node_modules/@openzeppelin/contracts/token/ERC1155/ERC1155.sol\";\r\nimport \"../node_modules/@openzeppelin/contracts/security/ReentrancyGuard.sol\";\r\nimport \"../node_modules/@openzeppelin/contracts/access/Ownable.sol\";\r\n\r\n/*\r\n * Smart contract allowing users to trade (list and buy) NTFs from any ERC1155 smart contract.\r\n */\r\n\r\ncontract SimpleMarketplace is Ownable, ReentrancyGuard{\r\n    \r\n    using Counters for Counters.Counter;\r\n    Counters.Counter private _listingIds;\r\n    Counters.Counter private _tokensSold;\r\n    uint256 private _volume;\r\n\r\n    event TokenListed(address contractAddress, address seller, uint256 tokenId, uint256 amount, uint256 pricePerToken);\r\n    event TokenSold(address contractAddress, address seller, address buyer, uint256 tokenId, uint256 amount, uint256 pricePerToken);\r\n\r\n    mapping(uint256 => Listing) private idToListing;\r\n\r\n    struct Listing {\r\n        address contractAddress;\r\n        address seller;\r\n        uint256 tokenId;\r\n        uint256 amount;\r\n        uint256 price;\r\n        uint256 tokensAvailable;\r\n        bool completed;\r\n    }\r\n\r\n    struct Stats {\r\n        uint256 volume;\r\n        uint256 itemsSold;\r\n    }\r\n\r\n    function listToken(address contractAddress, uint256 tokenId, uint256 amount, uint256 price) public nonReentrant {\r\n        ERC1155 token = ERC1155(contractAddress);\r\n\r\n        require(token.balanceOf(msg.sender, tokenId) > amount, \"Caller must own given token!\");\r\n        require(token.isApprovedForAll(msg.sender, address(this)), \"Contract must be approved!\");\r\n\r\n        _listingIds.increment();\r\n        uint256 listingId = _listingIds.current();\r\n        idToListing[listingId] = Listing(contractAddress, msg.sender, tokenId, amount, price, amount, false);\r\n\r\n        emit TokenListed(contractAddress, msg.sender, tokenId, amount, price);\r\n    }\r\n\r\n    function purchaseToken(uint256 listingId, uint256 amount) public payable nonReentrant {\r\n        ERC1155 token = ERC1155(idToListing[listingId].contractAddress);\r\n\r\n        require(msg.sender != idToListing[listingId].seller, \"Can't buy your onw tokens!\");\r\n        require(msg.value >= idToListing[listingId].price * amount, \"Insufficient funds!\");\r\n        require(token.balanceOf(idToListing[listingId].seller, idToListing[listingId].tokenId) >= amount, \"Seller doesn't have enough tokens!\");\r\n        require(idToListing[listingId].completed == false, \"Listing not available anymore!\");\r\n        require(idToListing[listingId].tokensAvailable >= amount, \"Not enough tokens left!\");\r\n        \r\n        _tokensSold.increment();\r\n        _volume += idToListing[listingId].price * amount;\r\n\r\n        idToListing[listingId].tokensAvailable -= amount;\r\n        if(idToListing[listingId].tokensAvailable == 0) {\r\n            idToListing[listingId].completed = true;\r\n        }\r\n\r\n        emit TokenSold(\r\n            idToListing[listingId].contractAddress,\r\n            idToListing[listingId].seller,\r\n            msg.sender,\r\n            idToListing[listingId].tokenId,\r\n            amount,\r\n            idToListing[listingId].price\r\n        );\r\n\r\n        token.safeTransferFrom(idToListing[listingId].seller, msg.sender, idToListing[listingId].tokenId, amount, \"\");\r\n        payable(idToListing[listingId].seller).transfer((idToListing[listingId].price * amount/50)*49); //Transfering 98% to seller, fee 2%  ((msg.value/50)*49)\r\n    }\r\n\r\n    function  viewAllListings() public view returns (Listing[] memory) {\r\n        uint itemCount = _listingIds.current();\r\n        uint unsoldItemCount = _listingIds.current() - _tokensSold.current();\r\n        uint currentIndex = 0;\r\n\r\n        Listing[] memory items = new Listing[](unsoldItemCount);\r\n\r\n        for (uint i = 0; i < itemCount; i++) {\r\n                uint currentId = i + 1;\r\n                Listing storage currentItem = idToListing[currentId];\r\n                items[currentIndex] = currentItem;\r\n                currentIndex += 1;\r\n        }\r\n\r\n        return items;\r\n    }\r\n\r\n    function viewListingById(uint256 _id) public view returns(Listing memory) {\r\n        return idToListing[_id];\r\n    }\r\n\r\n    function viewStats() public view returns(Stats memory) {\r\n        return Stats(_volume, _tokensSold.current());\r\n    }\r\n\r\n    function withdrawFees() public onlyOwner nonReentrant {\r\n        payable(msg.sender).transfer(address(this).balance);\r\n    }\r\n\r\n}",
  "sourcePath": "C:\\Users\\tijan\\Qsync\\Documents\\PROGRAMIRANJE\\SOLIDITY\\nft-marketplace\\contracts\\SimpleMarketplace.sol",
  "compiler": {
    "name": "solc",
    "version": "0.8.11+commit.d7f03943.Emscripten.clang"
  },
  "schemaVersion": "3.4.3",
  "updatedAt": "2022-01-20T12:28:50.720Z",
  "devdoc": {
    "kind": "dev",
    "methods": {
      "owner()": {
        "details": "Returns the address of the current owner."
      },
      "renounceOwnership()": {
        "details": "Leaves the contract without owner. It will not be possible to call `onlyOwner` functions anymore. Can only be called by the current owner. NOTE: Renouncing ownership will leave the contract without an owner, thereby removing any functionality that is only available to the owner."
      },
      "transferOwnership(address)": {
        "details": "Transfers ownership of the contract to a new account (`newOwner`). Can only be called by the current owner."
      }
    },
    "version": 1
  },
  "userdoc": {
    "kind": "user",
    "methods": {},
    "version": 1
  }
}