{
  "contractName": "SimpleMarketPlace",
  "abi": [
    {
      "anonymous": false,
      "inputs": [
        {
          "indexed": false,
          "internalType": "address",
          "name": "seller",
          "type": "address"
        },
        {
          "indexed": false,
          "internalType": "uint256",
          "name": "tokenId",
          "type": "uint256"
        },
        {
          "indexed": false,
          "internalType": "uint256",
          "name": "amount",
          "type": "uint256"
        },
        {
          "indexed": false,
          "internalType": "uint256",
          "name": "price",
          "type": "uint256"
        }
      ],
      "name": "TokenListed",
      "type": "event"
    },
    {
      "anonymous": false,
      "inputs": [
        {
          "indexed": false,
          "internalType": "address",
          "name": "seller",
          "type": "address"
        },
        {
          "indexed": false,
          "internalType": "address",
          "name": "buyer",
          "type": "address"
        },
        {
          "indexed": false,
          "internalType": "uint256",
          "name": "tokenId",
          "type": "uint256"
        },
        {
          "indexed": false,
          "internalType": "uint256",
          "name": "amount",
          "type": "uint256"
        },
        {
          "indexed": false,
          "internalType": "uint256",
          "name": "price",
          "type": "uint256"
        }
      ],
      "name": "TokenSold",
      "type": "event"
    },
    {
      "inputs": [
        {
          "internalType": "address",
          "name": "contractAddress",
          "type": "address"
        },
        {
          "internalType": "uint256",
          "name": "price",
          "type": "uint256"
        },
        {
          "internalType": "uint256",
          "name": "tokenId",
          "type": "uint256"
        }
      ],
      "name": "addListing",
      "outputs": [],
      "stateMutability": "nonpayable",
      "type": "function"
    },
    {
      "inputs": [
        {
          "internalType": "uint256",
          "name": "listingId",
          "type": "uint256"
        },
        {
          "internalType": "uint256",
          "name": "amount",
          "type": "uint256"
        }
      ],
      "name": "purchase",
      "outputs": [],
      "stateMutability": "payable",
      "type": "function"
    },
    {
      "inputs": [],
      "name": "viewallListings",
      "outputs": [
        {
          "components": [
            {
              "internalType": "address",
              "name": "contractAddress",
              "type": "address"
            },
            {
              "internalType": "address",
              "name": "seller",
              "type": "address"
            },
            {
              "internalType": "uint256",
              "name": "tokenId",
              "type": "uint256"
            },
            {
              "internalType": "uint256",
              "name": "price",
              "type": "uint256"
            }
          ],
          "internalType": "struct SimpleMarketPlace.Listing[]",
          "name": "",
          "type": "tuple[]"
        }
      ],
      "stateMutability": "view",
      "type": "function"
    }
  ],
  "bytecode": "0x608060405234801561001057600080fd5b50610edc806100206000396000f3fe6080604052600436106100345760003560e01c806370876c9814610039578063c6bd168c14610055578063f6d36ccb14610080575b600080fd5b610053600480360381019061004e91906107bc565b6100a9565b005b34801561006157600080fd5b5061006a610291565b6040516100779190610950565b60405180910390f35b34801561008c57600080fd5b506100a760048036038101906100a2919061099e565b610468565b005b8060026000848152602001908152602001600020600301546100cb9190610a20565b34101561010d576040517f08c379a000000000000000000000000000000000000000000000000000000000815260040161010490610ad7565b60405180910390fd5b6101176001610709565b60006002600084815260200190815260200160002060000160009054906101000a900473ffffffffffffffffffffffffffffffffffffffff1690508073ffffffffffffffffffffffffffffffffffffffff1663f242432a6002600086815260200190815260200160002060010160009054906101000a900473ffffffffffffffffffffffffffffffffffffffff16336002600088815260200190815260200160002060020154866040518563ffffffff1660e01b81526004016101dd9493929190610b4c565b600060405180830381600087803b1580156101f757600080fd5b505af115801561020b573d6000803e3d6000fd5b505050506002600084815260200190815260200160002060010160009054906101000a900473ffffffffffffffffffffffffffffffffffffffff1673ffffffffffffffffffffffffffffffffffffffff166108fc349081150290604051600060405180830381858888f1935050505015801561028b573d6000803e3d6000fd5b50505050565b6060600061029f600061071f565b905060006102ad600161071f565b6102b7600061071f565b6102c19190610ba4565b90506000808267ffffffffffffffff8111156102e0576102df610bd8565b5b60405190808252806020026020018201604052801561031957816020015b61030661072d565b8152602001906001900390816102fe5790505b50905060005b8481101561045d5760006001826103369190610c07565b90506000600260008381526020019081526020016000209050806040518060800160405290816000820160009054906101000a900473ffffffffffffffffffffffffffffffffffffffff1673ffffffffffffffffffffffffffffffffffffffff1673ffffffffffffffffffffffffffffffffffffffff1681526020016001820160009054906101000a900473ffffffffffffffffffffffffffffffffffffffff1673ffffffffffffffffffffffffffffffffffffffff1673ffffffffffffffffffffffffffffffffffffffff1681526020016002820154815260200160038201548152505084868151811061042e5761042d610c5d565b5b60200260200101819052506001856104469190610c07565b94505050808061045590610c8c565b91505061031f565b508094505050505090565b600083905060008173ffffffffffffffffffffffffffffffffffffffff1662fdd58e33856040518363ffffffff1660e01b81526004016104a9929190610cd5565b602060405180830381865afa1580156104c6573d6000803e3d6000fd5b505050506040513d601f19601f820116820180604052508101906104ea9190610d13565b1161052a576040517f08c379a000000000000000000000000000000000000000000000000000000000815260040161052190610d8c565b60405180910390fd5b8073ffffffffffffffffffffffffffffffffffffffff1663e985e9c533306040518363ffffffff1660e01b8152600401610565929190610dac565b602060405180830381865afa158015610582573d6000803e3d6000fd5b505050506040513d601f19601f820116820180604052508101906105a69190610e0d565b6105e5576040517f08c379a00000000000000000000000000000000000000000000000000000000081526004016105dc90610e86565b60405180910390fd5b6105ef6000610709565b60006105fb600061071f565b905060405180608001604052808673ffffffffffffffffffffffffffffffffffffffff1681526020013373ffffffffffffffffffffffffffffffffffffffff168152602001848152602001858152506002600083815260200190815260200160002060008201518160000160006101000a81548173ffffffffffffffffffffffffffffffffffffffff021916908373ffffffffffffffffffffffffffffffffffffffff16021790555060208201518160010160006101000a81548173ffffffffffffffffffffffffffffffffffffffff021916908373ffffffffffffffffffffffffffffffffffffffff16021790555060408201518160020155606082015181600301559050505050505050565b6001816000016000828254019250508190555050565b600081600001549050919050565b6040518060800160405280600073ffffffffffffffffffffffffffffffffffffffff168152602001600073ffffffffffffffffffffffffffffffffffffffff16815260200160008152602001600081525090565b600080fd5b6000819050919050565b61079981610786565b81146107a457600080fd5b50565b6000813590506107b681610790565b92915050565b600080604083850312156107d3576107d2610781565b5b60006107e1858286016107a7565b92505060206107f2858286016107a7565b9150509250929050565b600081519050919050565b600082825260208201905092915050565b6000819050602082019050919050565b600073ffffffffffffffffffffffffffffffffffffffff82169050919050565b600061085382610828565b9050919050565b61086381610848565b82525050565b61087281610786565b82525050565b60808201600082015161088e600085018261085a565b5060208201516108a1602085018261085a565b5060408201516108b46040850182610869565b5060608201516108c76060850182610869565b50505050565b60006108d98383610878565b60808301905092915050565b6000602082019050919050565b60006108fd826107fc565b6109078185610807565b935061091283610818565b8060005b8381101561094357815161092a88826108cd565b9750610935836108e5565b925050600181019050610916565b5085935050505092915050565b6000602082019050818103600083015261096a81846108f2565b905092915050565b61097b81610848565b811461098657600080fd5b50565b60008135905061099881610972565b92915050565b6000806000606084860312156109b7576109b6610781565b5b60006109c586828701610989565b93505060206109d6868287016107a7565b92505060406109e7868287016107a7565b9150509250925092565b7f4e487b7100000000000000000000000000000000000000000000000000000000600052601160045260246000fd5b6000610a2b82610786565b9150610a3683610786565b9250817fffffffffffffffffffffffffffffffffffffffffffffffffffffffffffffffff0483118215151615610a6f57610a6e6109f1565b5b828202905092915050565b600082825260208201905092915050565b7f496e73756666696369656e742066756e64732100000000000000000000000000600082015250565b6000610ac1601383610a7a565b9150610acc82610a8b565b602082019050919050565b60006020820190508181036000830152610af081610ab4565b9050919050565b610b0081610848565b82525050565b610b0f81610786565b82525050565b600082825260208201905092915050565b50565b6000610b36600083610b15565b9150610b4182610b26565b600082019050919050565b600060a082019050610b616000830187610af7565b610b6e6020830186610af7565b610b7b6040830185610b06565b610b886060830184610b06565b8181036080830152610b9981610b29565b905095945050505050565b6000610baf82610786565b9150610bba83610786565b925082821015610bcd57610bcc6109f1565b5b828203905092915050565b7f4e487b7100000000000000000000000000000000000000000000000000000000600052604160045260246000fd5b6000610c1282610786565b9150610c1d83610786565b9250827fffffffffffffffffffffffffffffffffffffffffffffffffffffffffffffffff03821115610c5257610c516109f1565b5b828201905092915050565b7f4e487b7100000000000000000000000000000000000000000000000000000000600052603260045260246000fd5b6000610c9782610786565b91507fffffffffffffffffffffffffffffffffffffffffffffffffffffffffffffffff821415610cca57610cc96109f1565b5b600182019050919050565b6000604082019050610cea6000830185610af7565b610cf76020830184610b06565b9392505050565b600081519050610d0d81610790565b92915050565b600060208284031215610d2957610d28610781565b5b6000610d3784828501610cfe565b91505092915050565b7f63616c6c6572206d757374206f776e20676976656e20746f6b656e0000000000600082015250565b6000610d76601b83610a7a565b9150610d8182610d40565b602082019050919050565b60006020820190508181036000830152610da581610d69565b9050919050565b6000604082019050610dc16000830185610af7565b610dce6020830184610af7565b9392505050565b60008115159050919050565b610dea81610dd5565b8114610df557600080fd5b50565b600081519050610e0781610de1565b92915050565b600060208284031215610e2357610e22610781565b5b6000610e3184828501610df8565b91505092915050565b7f436f6e7472616374206d75737420626520617070726f76656421000000000000600082015250565b6000610e70601a83610a7a565b9150610e7b82610e3a565b602082019050919050565b60006020820190508181036000830152610e9f81610e63565b905091905056fea26469706673582212201764acbca7dd31be595c990c53a613e2bb33660720345d3f9f37dfd5b1a4d3b464736f6c634300080b0033",
  "immutableReferences": {},
  "source": "// SPDX-License-Identifier: MIT\r\npragma solidity ^0.8.0;\r\n\r\nimport \"../node_modules/@openzeppelin/contracts/utils/Counters.sol\";\r\nimport \"../node_modules/@openzeppelin/contracts/token/ERC1155/ERC1155.sol\";\r\nimport \"../node_modules/@openzeppelin/contracts/security/ReentrancyGuard.sol\";\r\nimport \"../node_modules/@openzeppelin/contracts/access/Ownable.sol\";\r\n\r\n/**Working nft simple contract for trading */\r\n\r\ncontract SimpleMarketPlace {\r\n    \r\n    using Counters for Counters.Counter;\r\n    Counters.Counter private _listingIds;\r\n    Counters.Counter private _itemsSold;\r\n\r\n    event TokenListed(address seller, uint256 tokenId, uint256 amount, uint256 price);\r\n    event TokenSold(address seller, address buyer, uint256 tokenId, uint256 amount, uint256 price);\r\n\r\n    mapping(uint256 => Listing) idToListing;\r\n\r\n    struct Listing {\r\n        address contractAddress;\r\n        address seller;\r\n        uint256 tokenId;\r\n        uint256 price;\r\n    }\r\n\r\n    function addListing(address contractAddress, uint256 price, uint256 tokenId) public {\r\n        ERC1155 token = ERC1155(contractAddress);\r\n        require(token.balanceOf(msg.sender, tokenId) > 0, \"caller must own given token\");\r\n        require(token.isApprovedForAll(msg.sender, address(this)), \"Contract must be approved!\");\r\n\r\n        _listingIds.increment();\r\n        uint256 listingId = _listingIds.current();\r\n        idToListing[listingId] = Listing(contractAddress, msg.sender, tokenId, price);\r\n    }\r\n\r\n    function purchase(uint256 listingId, uint256 amount) public payable {\r\n        require(msg.value >= idToListing[listingId].price * amount, \"Insufficient funds!\");\r\n\r\n        _itemsSold.increment();\r\n        ERC1155 token = ERC1155(idToListing[listingId].contractAddress);\r\n\r\n        token.safeTransferFrom(idToListing[listingId].seller, msg.sender, idToListing[listingId].tokenId, amount, \"\");\r\n        payable(idToListing[listingId].seller).transfer(msg.value); //Transfering 98% to seller, fee 2%  ((msg.value/50)*49)\r\n    }\r\n\r\n    function  viewallListings() public view returns (Listing[] memory) {\r\n        uint itemCount = _listingIds.current();\r\n        uint unsoldItemCount = _listingIds.current() - _itemsSold.current();\r\n        uint currentIndex = 0;\r\n\r\n        Listing[] memory items = new Listing[](unsoldItemCount);\r\n\r\n        for (uint i = 0; i < itemCount; i++) {\r\n                uint currentId = i + 1;\r\n                Listing storage currentItem = idToListing[currentId];\r\n                items[currentIndex] = currentItem;\r\n                currentIndex += 1;\r\n        }\r\n\r\n        return items;\r\n    }\r\n\r\n}\r\n",
  "sourcePath": "C:\\Users\\tijan\\Qsync\\Documents\\PROGRAMIRANJE\\SOLIDITY\\nft-marketplace\\contracts\\SimpleMarketPlace.sol",
  "compiler": {
    "name": "solc",
    "version": "0.8.11+commit.d7f03943.Emscripten.clang"
  },
  "schemaVersion": "3.4.3",
  "updatedAt": "2022-01-19T11:53:38.189Z",
  "devdoc": {
    "kind": "dev",
    "methods": {},
    "version": 1
  },
  "userdoc": {
    "kind": "user",
    "methods": {},
    "notice": "Working nft simple contract for trading ",
    "version": 1
  }
}