{
  "contractName": "TradebleNFT",
  "abi": [
    {
      "inputs": [
        {
          "components": [
            {
              "internalType": "uint256",
              "name": "id",
              "type": "uint256"
            },
            {
              "internalType": "uint256",
              "name": "amount",
              "type": "uint256"
            },
            {
              "internalType": "address",
              "name": "to",
              "type": "address"
            }
          ],
          "internalType": "struct TradebleNFT.Input[]",
          "name": "inputArray",
          "type": "tuple[]"
        }
      ],
      "stateMutability": "nonpayable",
      "type": "constructor"
    },
    {
      "anonymous": false,
      "inputs": [
        {
          "indexed": true,
          "internalType": "address",
          "name": "account",
          "type": "address"
        },
        {
          "indexed": true,
          "internalType": "address",
          "name": "operator",
          "type": "address"
        },
        {
          "indexed": false,
          "internalType": "bool",
          "name": "approved",
          "type": "bool"
        }
      ],
      "name": "ApprovalForAll",
      "type": "event"
    },
    {
      "anonymous": false,
      "inputs": [
        {
          "indexed": true,
          "internalType": "address",
          "name": "previousOwner",
          "type": "address"
        },
        {
          "indexed": true,
          "internalType": "address",
          "name": "newOwner",
          "type": "address"
        }
      ],
      "name": "OwnershipTransferred",
      "type": "event"
    },
    {
      "anonymous": false,
      "inputs": [
        {
          "indexed": true,
          "internalType": "address",
          "name": "operator",
          "type": "address"
        },
        {
          "indexed": true,
          "internalType": "address",
          "name": "from",
          "type": "address"
        },
        {
          "indexed": true,
          "internalType": "address",
          "name": "to",
          "type": "address"
        },
        {
          "indexed": false,
          "internalType": "uint256[]",
          "name": "ids",
          "type": "uint256[]"
        },
        {
          "indexed": false,
          "internalType": "uint256[]",
          "name": "values",
          "type": "uint256[]"
        }
      ],
      "name": "TransferBatch",
      "type": "event"
    },
    {
      "anonymous": false,
      "inputs": [
        {
          "indexed": true,
          "internalType": "address",
          "name": "operator",
          "type": "address"
        },
        {
          "indexed": true,
          "internalType": "address",
          "name": "from",
          "type": "address"
        },
        {
          "indexed": true,
          "internalType": "address",
          "name": "to",
          "type": "address"
        },
        {
          "indexed": false,
          "internalType": "uint256",
          "name": "id",
          "type": "uint256"
        },
        {
          "indexed": false,
          "internalType": "uint256",
          "name": "value",
          "type": "uint256"
        }
      ],
      "name": "TransferSingle",
      "type": "event"
    },
    {
      "anonymous": false,
      "inputs": [
        {
          "indexed": false,
          "internalType": "string",
          "name": "value",
          "type": "string"
        },
        {
          "indexed": true,
          "internalType": "uint256",
          "name": "id",
          "type": "uint256"
        }
      ],
      "name": "URI",
      "type": "event"
    },
    {
      "inputs": [
        {
          "internalType": "address",
          "name": "account",
          "type": "address"
        },
        {
          "internalType": "uint256",
          "name": "id",
          "type": "uint256"
        }
      ],
      "name": "balanceOf",
      "outputs": [
        {
          "internalType": "uint256",
          "name": "",
          "type": "uint256"
        }
      ],
      "stateMutability": "view",
      "type": "function",
      "constant": true
    },
    {
      "inputs": [
        {
          "internalType": "address[]",
          "name": "accounts",
          "type": "address[]"
        },
        {
          "internalType": "uint256[]",
          "name": "ids",
          "type": "uint256[]"
        }
      ],
      "name": "balanceOfBatch",
      "outputs": [
        {
          "internalType": "uint256[]",
          "name": "",
          "type": "uint256[]"
        }
      ],
      "stateMutability": "view",
      "type": "function",
      "constant": true
    },
    {
      "inputs": [
        {
          "internalType": "address",
          "name": "account",
          "type": "address"
        },
        {
          "internalType": "address",
          "name": "operator",
          "type": "address"
        }
      ],
      "name": "isApprovedForAll",
      "outputs": [
        {
          "internalType": "bool",
          "name": "",
          "type": "bool"
        }
      ],
      "stateMutability": "view",
      "type": "function",
      "constant": true
    },
    {
      "inputs": [
        {
          "internalType": "address",
          "name": "",
          "type": "address"
        },
        {
          "internalType": "address",
          "name": "",
          "type": "address"
        },
        {
          "internalType": "uint256",
          "name": "",
          "type": "uint256"
        },
        {
          "internalType": "uint256",
          "name": "",
          "type": "uint256"
        },
        {
          "internalType": "bytes",
          "name": "",
          "type": "bytes"
        }
      ],
      "name": "onERC1155Received",
      "outputs": [
        {
          "internalType": "bytes4",
          "name": "",
          "type": "bytes4"
        }
      ],
      "stateMutability": "nonpayable",
      "type": "function"
    },
    {
      "inputs": [],
      "name": "owner",
      "outputs": [
        {
          "internalType": "address",
          "name": "",
          "type": "address"
        }
      ],
      "stateMutability": "view",
      "type": "function",
      "constant": true
    },
    {
      "inputs": [],
      "name": "renounceOwnership",
      "outputs": [],
      "stateMutability": "nonpayable",
      "type": "function"
    },
    {
      "inputs": [
        {
          "internalType": "address",
          "name": "from",
          "type": "address"
        },
        {
          "internalType": "address",
          "name": "to",
          "type": "address"
        },
        {
          "internalType": "uint256[]",
          "name": "ids",
          "type": "uint256[]"
        },
        {
          "internalType": "uint256[]",
          "name": "amounts",
          "type": "uint256[]"
        },
        {
          "internalType": "bytes",
          "name": "data",
          "type": "bytes"
        }
      ],
      "name": "safeBatchTransferFrom",
      "outputs": [],
      "stateMutability": "nonpayable",
      "type": "function"
    },
    {
      "inputs": [
        {
          "internalType": "address",
          "name": "from",
          "type": "address"
        },
        {
          "internalType": "address",
          "name": "to",
          "type": "address"
        },
        {
          "internalType": "uint256",
          "name": "id",
          "type": "uint256"
        },
        {
          "internalType": "uint256",
          "name": "amount",
          "type": "uint256"
        },
        {
          "internalType": "bytes",
          "name": "data",
          "type": "bytes"
        }
      ],
      "name": "safeTransferFrom",
      "outputs": [],
      "stateMutability": "nonpayable",
      "type": "function"
    },
    {
      "inputs": [
        {
          "internalType": "address",
          "name": "operator",
          "type": "address"
        },
        {
          "internalType": "bool",
          "name": "approved",
          "type": "bool"
        }
      ],
      "name": "setApprovalForAll",
      "outputs": [],
      "stateMutability": "nonpayable",
      "type": "function"
    },
    {
      "inputs": [
        {
          "internalType": "bytes4",
          "name": "interfaceId",
          "type": "bytes4"
        }
      ],
      "name": "supportsInterface",
      "outputs": [
        {
          "internalType": "bool",
          "name": "",
          "type": "bool"
        }
      ],
      "stateMutability": "view",
      "type": "function",
      "constant": true
    },
    {
      "inputs": [
        {
          "internalType": "address",
          "name": "newOwner",
          "type": "address"
        }
      ],
      "name": "transferOwnership",
      "outputs": [],
      "stateMutability": "nonpayable",
      "type": "function"
    },
    {
      "inputs": [
        {
          "internalType": "uint256",
          "name": "",
          "type": "uint256"
        }
      ],
      "name": "uri",
      "outputs": [
        {
          "internalType": "string",
          "name": "",
          "type": "string"
        }
      ],
      "stateMutability": "view",
      "type": "function",
      "constant": true
    },
    {
      "inputs": [
        {
          "internalType": "address",
          "name": "_seller",
          "type": "address"
        },
        {
          "internalType": "uint256",
          "name": "_id",
          "type": "uint256"
        },
        {
          "internalType": "uint256",
          "name": "_amount",
          "type": "uint256"
        },
        {
          "internalType": "uint256",
          "name": "_price",
          "type": "uint256"
        }
      ],
      "name": "createOffer",
      "outputs": [],
      "stateMutability": "nonpayable",
      "type": "function"
    },
    {
      "inputs": [
        {
          "internalType": "uint256",
          "name": "_offerId",
          "type": "uint256"
        },
        {
          "internalType": "uint256",
          "name": "_amountToBuy",
          "type": "uint256"
        }
      ],
      "name": "executeOffer",
      "outputs": [],
      "stateMutability": "payable",
      "type": "function",
      "payable": true
    },
    {
      "inputs": [],
      "name": "viewVolume",
      "outputs": [
        {
          "internalType": "uint256",
          "name": "",
          "type": "uint256"
        }
      ],
      "stateMutability": "view",
      "type": "function",
      "constant": true
    },
    {
      "inputs": [],
      "name": "viewItemsSold",
      "outputs": [
        {
          "internalType": "uint256",
          "name": "",
          "type": "uint256"
        }
      ],
      "stateMutability": "view",
      "type": "function",
      "constant": true
    },
    {
      "inputs": [
        {
          "internalType": "address",
          "name": "account",
          "type": "address"
        },
        {
          "internalType": "uint256",
          "name": "id",
          "type": "uint256"
        },
        {
          "internalType": "uint256",
          "name": "amount",
          "type": "uint256"
        }
      ],
      "name": "mint",
      "outputs": [],
      "stateMutability": "nonpayable",
      "type": "function"
    },
    {
      "inputs": [
        {
          "internalType": "address",
          "name": "account",
          "type": "address"
        },
        {
          "internalType": "uint256",
          "name": "id",
          "type": "uint256"
        },
        {
          "internalType": "uint256",
          "name": "amount",
          "type": "uint256"
        }
      ],
      "name": "burn",
      "outputs": [],
      "stateMutability": "nonpayable",
      "type": "function"
    },
    {
      "inputs": [
        {
          "internalType": "address",
          "name": "_address",
          "type": "address"
        },
        {
          "internalType": "uint256",
          "name": "_tokenId",
          "type": "uint256"
        }
      ],
      "name": "viewDisabledTokens",
      "outputs": [
        {
          "internalType": "uint256",
          "name": "",
          "type": "uint256"
        }
      ],
      "stateMutability": "view",
      "type": "function",
      "constant": true
    }
  ],
  "bytecode": "0x60806040523480156200001157600080fd5b5060405162004e9f38038062004e9f8339818101604052810190620000379190620009bc565b6040518060200160405280600081525062000058816200012a60201b60201c565b50620000796200006d6200014660201b60201c565b6200014e60201b60201c565b60005b815181101562000122576200010c828281518110620000a0576200009f62000a0d565b5b602002602001015160400151838381518110620000c257620000c162000a0d565b5b602002602001015160000151848481518110620000e457620000e362000a0d565b5b602002602001015160200151604051806020016040528060008152506200021460201b60201c565b8080620001199062000a6b565b9150506200007c565b50506200106d565b8060029080519060200190620001429291906200066f565b5050565b600033905090565b6000600360009054906101000a900473ffffffffffffffffffffffffffffffffffffffff16905081600360006101000a81548173ffffffffffffffffffffffffffffffffffffffff021916908373ffffffffffffffffffffffffffffffffffffffff1602179055508173ffffffffffffffffffffffffffffffffffffffff168173ffffffffffffffffffffffffffffffffffffffff167f8be0079c531659141344cd1fd0a4f28419497f9722a3daafe3b4186f6b6457e060405160405180910390a35050565b600073ffffffffffffffffffffffffffffffffffffffff168473ffffffffffffffffffffffffffffffffffffffff16141562000287576040517f08c379a00000000000000000000000000000000000000000000000000000000081526004016200027e9062000b40565b60405180910390fd5b6000620002996200014660201b60201c565b9050620002d281600087620002b488620003d960201b60201c565b620002c588620003d960201b60201c565b876200045a60201b60201c565b8260008086815260200190815260200160002060008773ffffffffffffffffffffffffffffffffffffffff1673ffffffffffffffffffffffffffffffffffffffff168152602001908152602001600020600082825462000333919062000b62565b925050819055508473ffffffffffffffffffffffffffffffffffffffff16600073ffffffffffffffffffffffffffffffffffffffff168273ffffffffffffffffffffffffffffffffffffffff167fc3d58168c5ae7397731d063d5bbf3d657854427343f4c083240f7aacaa2d0f628787604051620003b392919062000bd0565b60405180910390a4620003d2816000878787876200046260201b60201c565b5050505050565b60606000600167ffffffffffffffff811115620003fb57620003fa62000749565b5b6040519080825280602002602001820160405280156200042a5781602001602082028036833780820191505090505b509050828160008151811062000445576200044462000a0d565b5b60200260200101818152505080915050919050565b505050505050565b6200048e8473ffffffffffffffffffffffffffffffffffffffff166200065c60201b6200133d1760201c565b1562000654578373ffffffffffffffffffffffffffffffffffffffff1663f23a6e6187878686866040518663ffffffff1660e01b8152600401620004d795949392919062000ca1565b6020604051808303816000875af19250505080156200051657506040513d601f19601f8201168201806040525081019062000513919062000d62565b60015b620005c8576200052562000da1565b806308c379a014156200058957506200053d62000dc6565b806200054a57506200058b565b806040517f08c379a000000000000000000000000000000000000000000000000000000000815260040162000580919062000eb4565b60405180910390fd5b505b6040517f08c379a0000000000000000000000000000000000000000000000000000000008152600401620005bf9062000f4e565b60405180910390fd5b63f23a6e6160e01b7bffffffffffffffffffffffffffffffffffffffffffffffffffffffff1916817bffffffffffffffffffffffffffffffffffffffffffffffffffffffff19161462000652576040517f08c379a0000000000000000000000000000000000000000000000000000000008152600401620006499062000fe6565b60405180910390fd5b505b505050505050565b600080823b905060008111915050919050565b8280546200067d9062001037565b90600052602060002090601f016020900481019282620006a15760008555620006ed565b82601f10620006bc57805160ff1916838001178555620006ed565b82800160010185558215620006ed579182015b82811115620006ec578251825591602001919060010190620006cf565b5b509050620006fc919062000700565b5090565b5b808211156200071b57600081600090555060010162000701565b5090565b6000604051905090565b600080fd5b600080fd5b600080fd5b6000601f19601f8301169050919050565b7f4e487b7100000000000000000000000000000000000000000000000000000000600052604160045260246000fd5b620007838262000738565b810181811067ffffffffffffffff82111715620007a557620007a462000749565b5b80604052505050565b6000620007ba6200071f565b9050620007c8828262000778565b919050565b600067ffffffffffffffff821115620007eb57620007ea62000749565b5b602082029050602081019050919050565b600080fd5b600080fd5b6000819050919050565b6200081b8162000806565b81146200082757600080fd5b50565b6000815190506200083b8162000810565b92915050565b600073ffffffffffffffffffffffffffffffffffffffff82169050919050565b60006200086e8262000841565b9050919050565b620008808162000861565b81146200088c57600080fd5b50565b600081519050620008a08162000875565b92915050565b600060608284031215620008bf57620008be62000801565b5b620008cb6060620007ae565b90506000620008dd848285016200082a565b6000830152506020620008f3848285016200082a565b602083015250604062000909848285016200088f565b60408301525092915050565b60006200092c6200092684620007cd565b620007ae565b90508083825260208201905060608402830185811115620009525762000951620007fc565b5b835b818110156200097f57806200096a8882620008a6565b84526020840193505060608101905062000954565b5050509392505050565b600082601f830112620009a157620009a062000733565b5b8151620009b384826020860162000915565b91505092915050565b600060208284031215620009d557620009d462000729565b5b600082015167ffffffffffffffff811115620009f657620009f56200072e565b5b62000a048482850162000989565b91505092915050565b7f4e487b7100000000000000000000000000000000000000000000000000000000600052603260045260246000fd5b7f4e487b7100000000000000000000000000000000000000000000000000000000600052601160045260246000fd5b600062000a788262000806565b91507fffffffffffffffffffffffffffffffffffffffffffffffffffffffffffffffff82141562000aae5762000aad62000a3c565b5b600182019050919050565b600082825260208201905092915050565b7f455243313135353a206d696e7420746f20746865207a65726f2061646472657360008201527f7300000000000000000000000000000000000000000000000000000000000000602082015250565b600062000b2860218362000ab9565b915062000b358262000aca565b604082019050919050565b6000602082019050818103600083015262000b5b8162000b19565b9050919050565b600062000b6f8262000806565b915062000b7c8362000806565b9250827fffffffffffffffffffffffffffffffffffffffffffffffffffffffffffffffff0382111562000bb45762000bb362000a3c565b5b828201905092915050565b62000bca8162000806565b82525050565b600060408201905062000be7600083018562000bbf565b62000bf6602083018462000bbf565b9392505050565b62000c088162000861565b82525050565b600081519050919050565b600082825260208201905092915050565b60005b8381101562000c4a57808201518184015260208101905062000c2d565b8381111562000c5a576000848401525b50505050565b600062000c6d8262000c0e565b62000c79818562000c19565b935062000c8b81856020860162000c2a565b62000c968162000738565b840191505092915050565b600060a08201905062000cb8600083018862000bfd565b62000cc7602083018762000bfd565b62000cd6604083018662000bbf565b62000ce5606083018562000bbf565b818103608083015262000cf9818462000c60565b90509695505050505050565b60007fffffffff0000000000000000000000000000000000000000000000000000000082169050919050565b62000d3c8162000d05565b811462000d4857600080fd5b50565b60008151905062000d5c8162000d31565b92915050565b60006020828403121562000d7b5762000d7a62000729565b5b600062000d8b8482850162000d4b565b91505092915050565b60008160e01c9050919050565b600060033d111562000dc35760046000803e62000dc060005162000d94565b90505b90565b600060443d101562000dd85762000e65565b62000de26200071f565b60043d036004823e80513d602482011167ffffffffffffffff8211171562000e0c57505062000e65565b808201805167ffffffffffffffff81111562000e2c575050505062000e65565b80602083010160043d03850181111562000e4b57505050505062000e65565b62000e5c8260200185018662000778565b82955050505050505b90565b600081519050919050565b600062000e808262000e68565b62000e8c818562000ab9565b935062000e9e81856020860162000c2a565b62000ea98162000738565b840191505092915050565b6000602082019050818103600083015262000ed0818462000e73565b905092915050565b7f455243313135353a207472616e7366657220746f206e6f6e204552433131353560008201527f526563656976657220696d706c656d656e746572000000000000000000000000602082015250565b600062000f3660348362000ab9565b915062000f438262000ed8565b604082019050919050565b6000602082019050818103600083015262000f698162000f27565b9050919050565b7f455243313135353a204552433131353552656365697665722072656a6563746560008201527f6420746f6b656e73000000000000000000000000000000000000000000000000602082015250565b600062000fce60288362000ab9565b915062000fdb8262000f70565b604082019050919050565b60006020820190508181036000830152620010018162000fbf565b9050919050565b7f4e487b7100000000000000000000000000000000000000000000000000000000600052602260045260246000fd5b600060028204905060018216806200105057607f821691505b6020821081141562001067576200106662001008565b5b50919050565b613e22806200107d6000396000f3fe6080604052600436106101135760003560e01c80638abd1fb7116100a0578063e985e9c511610064578063e985e9c5146103a1578063f23a6e61146103de578063f242432a1461041b578063f2fde38b14610444578063f5298aca1461046d57610113565b80638abd1fb7146102dd5780638da5cb5b14610308578063a22cb46514610333578063acf031f31461035c578063d898aaf21461037857610113565b806319e6f4af116100e757806319e6f4af146101f85780632a2e985e146102235780632eb2c2d6146102605780634e1273f414610289578063715018a6146102c657610113565b8062fdd58e1461011857806301ffc9a7146101555780630e89341c14610192578063156e29f6146101cf575b600080fd5b34801561012457600080fd5b5061013f600480360381019061013a919061243c565b610496565b60405161014c919061248b565b60405180910390f35b34801561016157600080fd5b5061017c600480360381019061017791906124fe565b61055f565b6040516101899190612546565b60405180910390f35b34801561019e57600080fd5b506101b960048036038101906101b49190612561565b610641565b6040516101c69190612627565b60405180910390f35b3480156101db57600080fd5b506101f660048036038101906101f19190612649565b6106d5565b005b34801561020457600080fd5b5061020d610771565b60405161021a919061248b565b60405180910390f35b34801561022f57600080fd5b5061024a6004803603810190610245919061243c565b61077b565b604051610257919061248b565b60405180910390f35b34801561026c57600080fd5b5061028760048036038101906102829190612899565b6107d6565b005b34801561029557600080fd5b506102b060048036038101906102ab9190612a2b565b610877565b6040516102bd9190612b61565b60405180910390f35b3480156102d257600080fd5b506102db610990565b005b3480156102e957600080fd5b506102f2610a18565b6040516102ff919061248b565b60405180910390f35b34801561031457600080fd5b5061031d610a29565b60405161032a9190612b92565b60405180910390f35b34801561033f57600080fd5b5061035a60048036038101906103559190612bd9565b610a53565b005b61037660048036038101906103719190612c19565b610a69565b005b34801561038457600080fd5b5061039f600480360381019061039a9190612c59565b610d84565b005b3480156103ad57600080fd5b506103c860048036038101906103c39190612cc0565b611031565b6040516103d59190612546565b60405180910390f35b3480156103ea57600080fd5b5061040560048036038101906104009190612d00565b6110c5565b6040516104129190612da6565b60405180910390f35b34801561042757600080fd5b50610442600480360381019061043d9190612d00565b6110da565b005b34801561045057600080fd5b5061046b60048036038101906104669190612dc1565b61117b565b005b34801561047957600080fd5b50610494600480360381019061048f9190612649565b611273565b005b60008073ffffffffffffffffffffffffffffffffffffffff168373ffffffffffffffffffffffffffffffffffffffff161415610507576040517f08c379a00000000000000000000000000000000000000000000000000000000081526004016104fe90612e60565b60405180910390fd5b60008083815260200190815260200160002060008473ffffffffffffffffffffffffffffffffffffffff1673ffffffffffffffffffffffffffffffffffffffff16815260200190815260200160002054905092915050565b60007fd9b67a26000000000000000000000000000000000000000000000000000000007bffffffffffffffffffffffffffffffffffffffffffffffffffffffff1916827bffffffffffffffffffffffffffffffffffffffffffffffffffffffff1916148061062a57507f0e89341c000000000000000000000000000000000000000000000000000000007bffffffffffffffffffffffffffffffffffffffffffffffffffffffff1916827bffffffffffffffffffffffffffffffffffffffffffffffffffffffff1916145b8061063a575061063982611350565b5b9050919050565b60606002805461065090612eaf565b80601f016020809104026020016040519081016040528092919081815260200182805461067c90612eaf565b80156106c95780601f1061069e576101008083540402835291602001916106c9565b820191906000526020600020905b8154815290600101906020018083116106ac57829003601f168201915b50505050509050919050565b6106dd6113ba565b73ffffffffffffffffffffffffffffffffffffffff166106fb610a29565b73ffffffffffffffffffffffffffffffffffffffff1614610751576040517f08c379a000000000000000000000000000000000000000000000000000000000815260040161074890612f2d565b60405180910390fd5b61076c838383604051806020016040528060008152506113c2565b505050565b6000600654905090565b6000600860008473ffffffffffffffffffffffffffffffffffffffff1673ffffffffffffffffffffffffffffffffffffffff168152602001908152602001600020600083815260200190815260200160002054905092915050565b6107de6113ba565b73ffffffffffffffffffffffffffffffffffffffff168573ffffffffffffffffffffffffffffffffffffffff16148061082457506108238561081e6113ba565b611031565b5b610863576040517f08c379a000000000000000000000000000000000000000000000000000000000815260040161085a90612fbf565b60405180910390fd5b6108708585858585611558565b5050505050565b606081518351146108bd576040517f08c379a00000000000000000000000000000000000000000000000000000000081526004016108b490613051565b60405180910390fd5b6000835167ffffffffffffffff8111156108da576108d96126a1565b5b6040519080825280602002602001820160405280156109085781602001602082028036833780820191505090505b50905060005b84518110156109855761095585828151811061092d5761092c613071565b5b602002602001015185838151811061094857610947613071565b5b6020026020010151610496565b82828151811061096857610967613071565b5b6020026020010181815250508061097e906130cf565b905061090e565b508091505092915050565b6109986113ba565b73ffffffffffffffffffffffffffffffffffffffff166109b6610a29565b73ffffffffffffffffffffffffffffffffffffffff1614610a0c576040517f08c379a0000000000000000000000000000000000000000000000000000000008152600401610a0390612f2d565b60405180910390fd5b610a16600061186c565b565b6000610a246005611932565b905090565b6000600360009054906101000a900473ffffffffffffffffffffffffffffffffffffffff16905090565b610a65610a5e6113ba565b8383611940565b5050565b806007600084815260200190815260200160002060050154610a8b9190613118565b341015610acd576040517f08c379a0000000000000000000000000000000000000000000000000000000008152600401610ac4906131be565b60405180910390fd5b8060076000848152602001908152602001600020600401541015610b26576040517f08c379a0000000000000000000000000000000000000000000000000000000008152600401610b1d9061322a565b60405180910390fd5b600760008381526020019081526020016000206004015460076000848152602001908152602001600020600601541415610b95576040517f08c379a0000000000000000000000000000000000000000000000000000000008152600401610b8c90613296565b60405180910390fd5b806007600084815260200190815260200160002060060154610bb791906132b6565b6007600084815260200190815260200160002060060181905550610bdb6005611aad565b6007600083815260200190815260200160002060050154600654610bff91906132b6565b6006819055506000600860006007600086815260200190815260200160002060010160009054906101000a900473ffffffffffffffffffffffffffffffffffffffff1673ffffffffffffffffffffffffffffffffffffffff1673ffffffffffffffffffffffffffffffffffffffff168152602001908152602001600020600060076000868152602001908152602001600020600301548152602001908152602001600020819055506007600083815260200190815260200160002060010160009054906101000a900473ffffffffffffffffffffffffffffffffffffffff1673ffffffffffffffffffffffffffffffffffffffff16816007600085815260200190815260200160002060050154610d169190613118565b5050610d806007600084815260200190815260200160002060010160009054906101000a900473ffffffffffffffffffffffffffffffffffffffff1633600760008681526020019081526020016000206003015484604051806020016040528060008152506110da565b5050565b3373ffffffffffffffffffffffffffffffffffffffff168473ffffffffffffffffffffffffffffffffffffffff1614610df2576040517f08c379a0000000000000000000000000000000000000000000000000000000008152600401610de990613358565b60405180910390fd5b81610dfd3385610496565b1015610e3e576040517f08c379a0000000000000000000000000000000000000000000000000000000008152600401610e35906133c4565b60405180910390fd5b610e483330611031565b610e87576040517f08c379a0000000000000000000000000000000000000000000000000000000008152600401610e7e90613430565b60405180910390fd5b610e916004611aad565b6000610e9d6004611932565b90506040518060e001604052808281526020018673ffffffffffffffffffffffffffffffffffffffff1681526020018673ffffffffffffffffffffffffffffffffffffffff1681526020018581526020018481526020018381526020016000815250600760008381526020019081526020016000206000820151816000015560208201518160010160006101000a81548173ffffffffffffffffffffffffffffffffffffffff021916908373ffffffffffffffffffffffffffffffffffffffff16021790555060408201518160020160006101000a81548173ffffffffffffffffffffffffffffffffffffffff021916908373ffffffffffffffffffffffffffffffffffffffff160217905550606082015181600301556080820151816004015560a0820151816005015560c0820151816006015590505082600860008773ffffffffffffffffffffffffffffffffffffffff1673ffffffffffffffffffffffffffffffffffffffff1681526020019081526020016000206000868152602001908152602001600020819055505050505050565b6000600160008473ffffffffffffffffffffffffffffffffffffffff1673ffffffffffffffffffffffffffffffffffffffff16815260200190815260200160002060008373ffffffffffffffffffffffffffffffffffffffff1673ffffffffffffffffffffffffffffffffffffffff16815260200190815260200160002060009054906101000a900460ff16905092915050565b600063f23a6e6160e01b905095945050505050565b6110e26113ba565b73ffffffffffffffffffffffffffffffffffffffff168573ffffffffffffffffffffffffffffffffffffffff1614806111285750611127856111226113ba565b611031565b5b611167576040517f08c379a000000000000000000000000000000000000000000000000000000000815260040161115e906134c2565b60405180910390fd5b6111748585858585611ac3565b5050505050565b6111836113ba565b73ffffffffffffffffffffffffffffffffffffffff166111a1610a29565b73ffffffffffffffffffffffffffffffffffffffff16146111f7576040517f08c379a00000000000000000000000000000000000000000000000000000000081526004016111ee90612f2d565b60405180910390fd5b600073ffffffffffffffffffffffffffffffffffffffff168173ffffffffffffffffffffffffffffffffffffffff161415611267576040517f08c379a000000000000000000000000000000000000000000000000000000000815260040161125e90613554565b60405180910390fd5b6112708161186c565b50565b8273ffffffffffffffffffffffffffffffffffffffff163373ffffffffffffffffffffffffffffffffffffffff16146112e1576040517f08c379a00000000000000000000000000000000000000000000000000000000081526004016112d8906135c0565b60405180910390fd5b806112ec8484610496565b101561132d576040517f08c379a00000000000000000000000000000000000000000000000000000000081526004016113249061362c565b60405180910390fd5b611338838383611d45565b505050565b600080823b905060008111915050919050565b60007f01ffc9a7000000000000000000000000000000000000000000000000000000007bffffffffffffffffffffffffffffffffffffffffffffffffffffffff1916827bffffffffffffffffffffffffffffffffffffffffffffffffffffffff1916149050919050565b600033905090565b600073ffffffffffffffffffffffffffffffffffffffff168473ffffffffffffffffffffffffffffffffffffffff161415611432576040517f08c379a0000000000000000000000000000000000000000000000000000000008152600401611429906136be565b60405180910390fd5b600061143c6113ba565b905061145d8160008761144e88611f62565b61145788611f62565b87611fdc565b8260008086815260200190815260200160002060008773ffffffffffffffffffffffffffffffffffffffff1673ffffffffffffffffffffffffffffffffffffffff16815260200190815260200160002060008282546114bc91906132b6565b925050819055508473ffffffffffffffffffffffffffffffffffffffff16600073ffffffffffffffffffffffffffffffffffffffff168273ffffffffffffffffffffffffffffffffffffffff167fc3d58168c5ae7397731d063d5bbf3d657854427343f4c083240f7aacaa2d0f62878760405161153a9291906136de565b60405180910390a461155181600087878787611fe4565b5050505050565b815183511461159c576040517f08c379a000000000000000000000000000000000000000000000000000000000815260040161159390613779565b60405180910390fd5b600073ffffffffffffffffffffffffffffffffffffffff168473ffffffffffffffffffffffffffffffffffffffff16141561160c576040517f08c379a00000000000000000000000000000000000000000000000000000000081526004016116039061380b565b60405180910390fd5b60006116166113ba565b9050611626818787878787611fdc565b60005b84518110156117d757600085828151811061164757611646613071565b5b60200260200101519050600085838151811061166657611665613071565b5b60200260200101519050600080600084815260200190815260200160002060008b73ffffffffffffffffffffffffffffffffffffffff1673ffffffffffffffffffffffffffffffffffffffff16815260200190815260200160002054905081811015611707576040517f08c379a00000000000000000000000000000000000000000000000000000000081526004016116fe9061389d565b60405180910390fd5b81810360008085815260200190815260200160002060008c73ffffffffffffffffffffffffffffffffffffffff1673ffffffffffffffffffffffffffffffffffffffff168152602001908152602001600020819055508160008085815260200190815260200160002060008b73ffffffffffffffffffffffffffffffffffffffff1673ffffffffffffffffffffffffffffffffffffffff16815260200190815260200160002060008282546117bc91906132b6565b92505081905550505050806117d0906130cf565b9050611629565b508473ffffffffffffffffffffffffffffffffffffffff168673ffffffffffffffffffffffffffffffffffffffff168273ffffffffffffffffffffffffffffffffffffffff167f4a39dc06d4c0dbc64b70af90fd698a233a518aa5d07e595d983b8c0526c8f7fb878760405161184e9291906138bd565b60405180910390a46118648187878787876121bc565b505050505050565b6000600360009054906101000a900473ffffffffffffffffffffffffffffffffffffffff16905081600360006101000a81548173ffffffffffffffffffffffffffffffffffffffff021916908373ffffffffffffffffffffffffffffffffffffffff1602179055508173ffffffffffffffffffffffffffffffffffffffff168173ffffffffffffffffffffffffffffffffffffffff167f8be0079c531659141344cd1fd0a4f28419497f9722a3daafe3b4186f6b6457e060405160405180910390a35050565b600081600001549050919050565b8173ffffffffffffffffffffffffffffffffffffffff168373ffffffffffffffffffffffffffffffffffffffff1614156119af576040517f08c379a00000000000000000000000000000000000000000000000000000000081526004016119a690613966565b60405180910390fd5b80600160008573ffffffffffffffffffffffffffffffffffffffff1673ffffffffffffffffffffffffffffffffffffffff16815260200190815260200160002060008473ffffffffffffffffffffffffffffffffffffffff1673ffffffffffffffffffffffffffffffffffffffff16815260200190815260200160002060006101000a81548160ff0219169083151502179055508173ffffffffffffffffffffffffffffffffffffffff168373ffffffffffffffffffffffffffffffffffffffff167f17307eab39ab6107e8899845ad3d59bd9653f200f220920489ca2b5937696c3183604051611aa09190612546565b60405180910390a3505050565b6001816000016000828254019250508190555050565b600073ffffffffffffffffffffffffffffffffffffffff168473ffffffffffffffffffffffffffffffffffffffff161415611b33576040517f08c379a0000000000000000000000000000000000000000000000000000000008152600401611b2a9061380b565b60405180910390fd5b6000611b3d6113ba565b9050611b5d818787611b4e88611f62565b611b5788611f62565b87611fdc565b600080600086815260200190815260200160002060008873ffffffffffffffffffffffffffffffffffffffff1673ffffffffffffffffffffffffffffffffffffffff16815260200190815260200160002054905083811015611bf4576040517f08c379a0000000000000000000000000000000000000000000000000000000008152600401611beb9061389d565b60405180910390fd5b83810360008087815260200190815260200160002060008973ffffffffffffffffffffffffffffffffffffffff1673ffffffffffffffffffffffffffffffffffffffff168152602001908152602001600020819055508360008087815260200190815260200160002060008873ffffffffffffffffffffffffffffffffffffffff1673ffffffffffffffffffffffffffffffffffffffff1681526020019081526020016000206000828254611ca991906132b6565b925050819055508573ffffffffffffffffffffffffffffffffffffffff168773ffffffffffffffffffffffffffffffffffffffff168373ffffffffffffffffffffffffffffffffffffffff167fc3d58168c5ae7397731d063d5bbf3d657854427343f4c083240f7aacaa2d0f628888604051611d269291906136de565b60405180910390a4611d3c828888888888611fe4565b50505050505050565b600073ffffffffffffffffffffffffffffffffffffffff168373ffffffffffffffffffffffffffffffffffffffff161415611db5576040517f08c379a0000000000000000000000000000000000000000000000000000000008152600401611dac906139f8565b60405180910390fd5b6000611dbf6113ba565b9050611def81856000611dd187611f62565b611dda87611f62565b60405180602001604052806000815250611fdc565b600080600085815260200190815260200160002060008673ffffffffffffffffffffffffffffffffffffffff1673ffffffffffffffffffffffffffffffffffffffff16815260200190815260200160002054905082811015611e86576040517f08c379a0000000000000000000000000000000000000000000000000000000008152600401611e7d90613a8a565b60405180910390fd5b82810360008086815260200190815260200160002060008773ffffffffffffffffffffffffffffffffffffffff1673ffffffffffffffffffffffffffffffffffffffff16815260200190815260200160002081905550600073ffffffffffffffffffffffffffffffffffffffff168573ffffffffffffffffffffffffffffffffffffffff168373ffffffffffffffffffffffffffffffffffffffff167fc3d58168c5ae7397731d063d5bbf3d657854427343f4c083240f7aacaa2d0f628787604051611f539291906136de565b60405180910390a45050505050565b60606000600167ffffffffffffffff811115611f8157611f806126a1565b5b604051908082528060200260200182016040528015611faf5781602001602082028036833780820191505090505b5090508281600081518110611fc757611fc6613071565b5b60200260200101818152505080915050919050565b505050505050565b6120038473ffffffffffffffffffffffffffffffffffffffff1661133d565b156121b4578373ffffffffffffffffffffffffffffffffffffffff1663f23a6e6187878686866040518663ffffffff1660e01b8152600401612049959493929190613aff565b6020604051808303816000875af192505050801561208557506040513d601f19601f820116820180604052508101906120829190613b6e565b60015b61212b57612091613ba8565b806308c379a014156120ee57506120a6613bca565b806120b157506120f0565b806040517f08c379a00000000000000000000000000000000000000000000000000000000081526004016120e59190612627565b60405180910390fd5b505b6040517f08c379a000000000000000000000000000000000000000000000000000000000815260040161212290613cd2565b60405180910390fd5b63f23a6e6160e01b7bffffffffffffffffffffffffffffffffffffffffffffffffffffffff1916817bffffffffffffffffffffffffffffffffffffffffffffffffffffffff1916146121b2576040517f08c379a00000000000000000000000000000000000000000000000000000000081526004016121a990613d64565b60405180910390fd5b505b505050505050565b6121db8473ffffffffffffffffffffffffffffffffffffffff1661133d565b1561238c578373ffffffffffffffffffffffffffffffffffffffff1663bc197c8187878686866040518663ffffffff1660e01b8152600401612221959493929190613d84565b6020604051808303816000875af192505050801561225d57506040513d601f19601f8201168201806040525081019061225a9190613b6e565b60015b61230357612269613ba8565b806308c379a014156122c6575061227e613bca565b8061228957506122c8565b806040517f08c379a00000000000000000000000000000000000000000000000000000000081526004016122bd9190612627565b60405180910390fd5b505b6040517f08c379a00000000000000000000000000000000000000000000000000000000081526004016122fa90613cd2565b60405180910390fd5b63bc197c8160e01b7bffffffffffffffffffffffffffffffffffffffffffffffffffffffff1916817bffffffffffffffffffffffffffffffffffffffffffffffffffffffff19161461238a576040517f08c379a000000000000000000000000000000000000000000000000000000000815260040161238190613d64565b60405180910390fd5b505b505050505050565b6000604051905090565b600080fd5b600080fd5b600073ffffffffffffffffffffffffffffffffffffffff82169050919050565b60006123d3826123a8565b9050919050565b6123e3816123c8565b81146123ee57600080fd5b50565b600081359050612400816123da565b92915050565b6000819050919050565b61241981612406565b811461242457600080fd5b50565b60008135905061243681612410565b92915050565b600080604083850312156124535761245261239e565b5b6000612461858286016123f1565b925050602061247285828601612427565b9150509250929050565b61248581612406565b82525050565b60006020820190506124a0600083018461247c565b92915050565b60007fffffffff0000000000000000000000000000000000000000000000000000000082169050919050565b6124db816124a6565b81146124e657600080fd5b50565b6000813590506124f8816124d2565b92915050565b6000602082840312156125145761251361239e565b5b6000612522848285016124e9565b91505092915050565b60008115159050919050565b6125408161252b565b82525050565b600060208201905061255b6000830184612537565b92915050565b6000602082840312156125775761257661239e565b5b600061258584828501612427565b91505092915050565b600081519050919050565b600082825260208201905092915050565b60005b838110156125c85780820151818401526020810190506125ad565b838111156125d7576000848401525b50505050565b6000601f19601f8301169050919050565b60006125f98261258e565b6126038185612599565b93506126138185602086016125aa565b61261c816125dd565b840191505092915050565b6000602082019050818103600083015261264181846125ee565b905092915050565b6000806000606084860312156126625761266161239e565b5b6000612670868287016123f1565b935050602061268186828701612427565b925050604061269286828701612427565b9150509250925092565b600080fd5b7f4e487b7100000000000000000000000000000000000000000000000000000000600052604160045260246000fd5b6126d9826125dd565b810181811067ffffffffffffffff821117156126f8576126f76126a1565b5b80604052505050565b600061270b612394565b905061271782826126d0565b919050565b600067ffffffffffffffff821115612737576127366126a1565b5b602082029050602081019050919050565b600080fd5b600061276061275b8461271c565b612701565b9050808382526020820190506020840283018581111561278357612782612748565b5b835b818110156127ac57806127988882612427565b845260208401935050602081019050612785565b5050509392505050565b600082601f8301126127cb576127ca61269c565b5b81356127db84826020860161274d565b91505092915050565b600080fd5b600067ffffffffffffffff821115612804576128036126a1565b5b61280d826125dd565b9050602081019050919050565b82818337600083830152505050565b600061283c612837846127e9565b612701565b905082815260208101848484011115612858576128576127e4565b5b61286384828561281a565b509392505050565b600082601f8301126128805761287f61269c565b5b8135612890848260208601612829565b91505092915050565b600080600080600060a086880312156128b5576128b461239e565b5b60006128c3888289016123f1565b95505060206128d4888289016123f1565b945050604086013567ffffffffffffffff8111156128f5576128f46123a3565b5b612901888289016127b6565b935050606086013567ffffffffffffffff811115612922576129216123a3565b5b61292e888289016127b6565b925050608086013567ffffffffffffffff81111561294f5761294e6123a3565b5b61295b8882890161286b565b9150509295509295909350565b600067ffffffffffffffff821115612983576129826126a1565b5b602082029050602081019050919050565b60006129a76129a284612968565b612701565b905080838252602082019050602084028301858111156129ca576129c9612748565b5b835b818110156129f357806129df88826123f1565b8452602084019350506020810190506129cc565b5050509392505050565b600082601f830112612a1257612a1161269c565b5b8135612a22848260208601612994565b91505092915050565b60008060408385031215612a4257612a4161239e565b5b600083013567ffffffffffffffff811115612a6057612a5f6123a3565b5b612a6c858286016129fd565b925050602083013567ffffffffffffffff811115612a8d57612a8c6123a3565b5b612a99858286016127b6565b9150509250929050565b600081519050919050565b600082825260208201905092915050565b6000819050602082019050919050565b612ad881612406565b82525050565b6000612aea8383612acf565b60208301905092915050565b6000602082019050919050565b6000612b0e82612aa3565b612b188185612aae565b9350612b2383612abf565b8060005b83811015612b54578151612b3b8882612ade565b9750612b4683612af6565b925050600181019050612b27565b5085935050505092915050565b60006020820190508181036000830152612b7b8184612b03565b905092915050565b612b8c816123c8565b82525050565b6000602082019050612ba76000830184612b83565b92915050565b612bb68161252b565b8114612bc157600080fd5b50565b600081359050612bd381612bad565b92915050565b60008060408385031215612bf057612bef61239e565b5b6000612bfe858286016123f1565b9250506020612c0f85828601612bc4565b9150509250929050565b60008060408385031215612c3057612c2f61239e565b5b6000612c3e85828601612427565b9250506020612c4f85828601612427565b9150509250929050565b60008060008060808587031215612c7357612c7261239e565b5b6000612c81878288016123f1565b9450506020612c9287828801612427565b9350506040612ca387828801612427565b9250506060612cb487828801612427565b91505092959194509250565b60008060408385031215612cd757612cd661239e565b5b6000612ce5858286016123f1565b9250506020612cf6858286016123f1565b9150509250929050565b600080600080600060a08688031215612d1c57612d1b61239e565b5b6000612d2a888289016123f1565b9550506020612d3b888289016123f1565b9450506040612d4c88828901612427565b9350506060612d5d88828901612427565b925050608086013567ffffffffffffffff811115612d7e57612d7d6123a3565b5b612d8a8882890161286b565b9150509295509295909350565b612da0816124a6565b82525050565b6000602082019050612dbb6000830184612d97565b92915050565b600060208284031215612dd757612dd661239e565b5b6000612de5848285016123f1565b91505092915050565b7f455243313135353a2062616c616e636520717565727920666f7220746865207a60008201527f65726f2061646472657373000000000000000000000000000000000000000000602082015250565b6000612e4a602b83612599565b9150612e5582612dee565b604082019050919050565b60006020820190508181036000830152612e7981612e3d565b9050919050565b7f4e487b7100000000000000000000000000000000000000000000000000000000600052602260045260246000fd5b60006002820490506001821680612ec757607f821691505b60208210811415612edb57612eda612e80565b5b50919050565b7f4f776e61626c653a2063616c6c6572206973206e6f7420746865206f776e6572600082015250565b6000612f17602083612599565b9150612f2282612ee1565b602082019050919050565b60006020820190508181036000830152612f4681612f0a565b9050919050565b7f455243313135353a207472616e736665722063616c6c6572206973206e6f742060008201527f6f776e6572206e6f7220617070726f7665640000000000000000000000000000602082015250565b6000612fa9603283612599565b9150612fb482612f4d565b604082019050919050565b60006020820190508181036000830152612fd881612f9c565b9050919050565b7f455243313135353a206163636f756e747320616e6420696473206c656e67746860008201527f206d69736d617463680000000000000000000000000000000000000000000000602082015250565b600061303b602983612599565b915061304682612fdf565b604082019050919050565b6000602082019050818103600083015261306a8161302e565b9050919050565b7f4e487b7100000000000000000000000000000000000000000000000000000000600052603260045260246000fd5b7f4e487b7100000000000000000000000000000000000000000000000000000000600052601160045260246000fd5b60006130da82612406565b91507fffffffffffffffffffffffffffffffffffffffffffffffffffffffffffffffff82141561310d5761310c6130a0565b5b600182019050919050565b600061312382612406565b915061312e83612406565b9250817fffffffffffffffffffffffffffffffffffffffffffffffffffffffffffffffff0483118215151615613167576131666130a0565b5b828202905092915050565b7f4e6f7420656e6f7567682066756e647321000000000000000000000000000000600082015250565b60006131a8601183612599565b91506131b382613172565b602082019050919050565b600060208201905081810360008301526131d78161319b565b9050919050565b7f416c6c20746f6b656e7320736f6c642100000000000000000000000000000000600082015250565b6000613214601083612599565b915061321f826131de565b602082019050919050565b6000602082019050818103600083015261324381613207565b9050919050565b7f4f66666572206973206e6f742061637469766521000000000000000000000000600082015250565b6000613280601483612599565b915061328b8261324a565b602082019050919050565b600060208201905081810360008301526132af81613273565b9050919050565b60006132c182612406565b91506132cc83612406565b9250827fffffffffffffffffffffffffffffffffffffffffffffffffffffffffffffffff03821115613301576133006130a0565b5b828201905092915050565b7f4e6f7420796f757220746f6b656e732100000000000000000000000000000000600082015250565b6000613342601083612599565b915061334d8261330c565b602082019050919050565b6000602082019050818103600083015261337181613335565b9050919050565b7f43616c6c6572206d75737420686f6c6420676976656e20746f6b656e73210000600082015250565b60006133ae601e83612599565b91506133b982613378565b602082019050919050565b600060208201905081810360008301526133dd816133a1565b9050919050565b7f436f6e7472616374206d75737420626520617070726f76656421000000000000600082015250565b600061341a601a83612599565b9150613425826133e4565b602082019050919050565b600060208201905081810360008301526134498161340d565b9050919050565b7f455243313135353a2063616c6c6572206973206e6f74206f776e6572206e6f7260008201527f20617070726f7665640000000000000000000000000000000000000000000000602082015250565b60006134ac602983612599565b91506134b782613450565b604082019050919050565b600060208201905081810360008301526134db8161349f565b9050919050565b7f4f776e61626c653a206e6577206f776e657220697320746865207a65726f206160008201527f6464726573730000000000000000000000000000000000000000000000000000602082015250565b600061353e602683612599565b9150613549826134e2565b604082019050919050565b6000602082019050818103600083015261356d81613531565b9050919050565b7f4f6e6c79204e4654206f6e776572732063616e206275726e2100000000000000600082015250565b60006135aa601983612599565b91506135b582613574565b602082019050919050565b600060208201905081810360008301526135d98161359d565b9050919050565b7f596f7520646f6e2774206861766520656e676f756768204e4654730000000000600082015250565b6000613616601b83612599565b9150613621826135e0565b602082019050919050565b6000602082019050818103600083015261364581613609565b9050919050565b7f455243313135353a206d696e7420746f20746865207a65726f2061646472657360008201527f7300000000000000000000000000000000000000000000000000000000000000602082015250565b60006136a8602183612599565b91506136b38261364c565b604082019050919050565b600060208201905081810360008301526136d78161369b565b9050919050565b60006040820190506136f3600083018561247c565b613700602083018461247c565b9392505050565b7f455243313135353a2069647320616e6420616d6f756e7473206c656e6774682060008201527f6d69736d61746368000000000000000000000000000000000000000000000000602082015250565b6000613763602883612599565b915061376e82613707565b604082019050919050565b6000602082019050818103600083015261379281613756565b9050919050565b7f455243313135353a207472616e7366657220746f20746865207a65726f20616460008201527f6472657373000000000000000000000000000000000000000000000000000000602082015250565b60006137f5602583612599565b915061380082613799565b604082019050919050565b60006020820190508181036000830152613824816137e8565b9050919050565b7f455243313135353a20696e73756666696369656e742062616c616e636520666f60008201527f72207472616e7366657200000000000000000000000000000000000000000000602082015250565b6000613887602a83612599565b91506138928261382b565b604082019050919050565b600060208201905081810360008301526138b68161387a565b9050919050565b600060408201905081810360008301526138d78185612b03565b905081810360208301526138eb8184612b03565b90509392505050565b7f455243313135353a2073657474696e6720617070726f76616c2073746174757360008201527f20666f722073656c660000000000000000000000000000000000000000000000602082015250565b6000613950602983612599565b915061395b826138f4565b604082019050919050565b6000602082019050818103600083015261397f81613943565b9050919050565b7f455243313135353a206275726e2066726f6d20746865207a65726f206164647260008201527f6573730000000000000000000000000000000000000000000000000000000000602082015250565b60006139e2602383612599565b91506139ed82613986565b604082019050919050565b60006020820190508181036000830152613a11816139d5565b9050919050565b7f455243313135353a206275726e20616d6f756e7420657863656564732062616c60008201527f616e636500000000000000000000000000000000000000000000000000000000602082015250565b6000613a74602483612599565b9150613a7f82613a18565b604082019050919050565b60006020820190508181036000830152613aa381613a67565b9050919050565b600081519050919050565b600082825260208201905092915050565b6000613ad182613aaa565b613adb8185613ab5565b9350613aeb8185602086016125aa565b613af4816125dd565b840191505092915050565b600060a082019050613b146000830188612b83565b613b216020830187612b83565b613b2e604083018661247c565b613b3b606083018561247c565b8181036080830152613b4d8184613ac6565b90509695505050505050565b600081519050613b68816124d2565b92915050565b600060208284031215613b8457613b8361239e565b5b6000613b9284828501613b59565b91505092915050565b60008160e01c9050919050565b600060033d1115613bc75760046000803e613bc4600051613b9b565b90505b90565b600060443d1015613bda57613c5d565b613be2612394565b60043d036004823e80513d602482011167ffffffffffffffff82111715613c0a575050613c5d565b808201805167ffffffffffffffff811115613c285750505050613c5d565b80602083010160043d038501811115613c45575050505050613c5d565b613c54826020018501866126d0565b82955050505050505b90565b7f455243313135353a207472616e7366657220746f206e6f6e204552433131353560008201527f526563656976657220696d706c656d656e746572000000000000000000000000602082015250565b6000613cbc603483612599565b9150613cc782613c60565b604082019050919050565b60006020820190508181036000830152613ceb81613caf565b9050919050565b7f455243313135353a204552433131353552656365697665722072656a6563746560008201527f6420746f6b656e73000000000000000000000000000000000000000000000000602082015250565b6000613d4e602883612599565b9150613d5982613cf2565b604082019050919050565b60006020820190508181036000830152613d7d81613d41565b9050919050565b600060a082019050613d996000830188612b83565b613da66020830187612b83565b8181036040830152613db88186612b03565b90508181036060830152613dcc8185612b03565b90508181036080830152613de08184613ac6565b9050969550505050505056fea26469706673582212207c82356a2d5123653be2b1e68310adf0704cc16e795379a029ebea4a9bee54c464736f6c634300080b0033",
  "immutableReferences": {},
  "source": "// SPDX-License-Identifier: MIT\r\npragma solidity ^0.8.0;\r\n\r\nimport \"../node_modules/@openzeppelin/contracts/token/ERC1155/ERC1155.sol\";\r\nimport \"../node_modules/@openzeppelin/contracts/access/Ownable.sol\";\r\nimport \"../node_modules/@openzeppelin/contracts/utils/Counters.sol\";\r\nimport \"../node_modules/@openzeppelin/contracts/security/ReentrancyGuard.sol\";\r\n\r\n/*Working tradable ERC1155 */\r\n\r\ncontract TradebleNFT is ERC1155, Ownable {\r\n\r\n    using Counters for Counters.Counter;\r\n    Counters.Counter private _offerIds;\r\n    Counters.Counter private _itemsSold;\r\n    uint256 private _volume;\r\n\r\n    struct Input {\r\n        uint256 id;\r\n        uint256 amount;\r\n        address to;\r\n    }\r\n\r\n    struct Offer {\r\n        uint offerId;\r\n        address payable seller;\r\n        address payable owner;\r\n        uint256 tokenId;\r\n        uint amount;\r\n        uint256 price;\r\n        uint256 tokensSold;\r\n    }\r\n\r\n    mapping(uint256 => Offer) private idToOffer;\r\n    mapping (address => mapping (uint => uint)) disabledTokens;\r\n\r\n    constructor(Input[] memory inputArray) ERC1155(\"\") {\r\n        for (uint i=0; i<inputArray.length; i++) {\r\n            _mint(inputArray[i].to, inputArray[i].id, inputArray[i].amount, \"\");\r\n        }\r\n    }\r\n\r\n    function createOffer(address _seller, uint _id, uint _amount, uint _price) public {\r\n        require(_seller == msg.sender, \"Not your tokens!\");\r\n        require(balanceOf(msg.sender, _id) >= _amount, \"Caller must hold given tokens!\");\r\n        require(isApprovedForAll(msg.sender, address(this)), \"Contract must be approved!\");\r\n\r\n        _offerIds.increment();\r\n        uint256 offerId = _offerIds.current();\r\n\r\n        idToOffer[offerId] = Offer(\r\n            offerId,\r\n            payable(_seller),\r\n            payable(_seller),\r\n            _id,\r\n            _amount,\r\n            _price,\r\n            0\r\n        );\r\n\r\n        //Disables Tokens:\r\n        disabledTokens[_seller][_id] = _amount;\r\n    }\r\n\r\n    function executeOffer(uint _offerId, uint256 _amountToBuy) public payable {\r\n        require(msg.value >= idToOffer[_offerId].price * _amountToBuy, \"Not enough funds!\");\r\n        require(idToOffer[_offerId].amount >= _amountToBuy, \"All tokens sold!\");\r\n        require(idToOffer[_offerId].tokensSold != idToOffer[_offerId].amount, \"Offer is not active!\");\r\n\r\n        //Updates Offer\r\n        idToOffer[_offerId].tokensSold = idToOffer[_offerId].tokensSold + _amountToBuy;\r\n\r\n        _itemsSold.increment();\r\n        _volume = _volume + idToOffer[_offerId].price;\r\n\r\n        //enables back unsabled tokens\r\n        disabledTokens[idToOffer[_offerId].seller][idToOffer[_offerId].tokenId] = 0;\r\n\r\n        //Transfer ETH:\r\n        idToOffer[_offerId].seller.call{ value: idToOffer[_offerId].price * _amountToBuy };\r\n        safeTransferFrom(idToOffer[_offerId].seller, msg.sender, idToOffer[_offerId].tokenId, _amountToBuy, \"\");\r\n    }\r\n\r\n    /*function getAllOffers() public view returns(Offer[] memory){\r\n        Offer[] memory offers;\r\n        for(uint i; i<_offerIds.current(); i++) {\r\n            offers.push(idToOffer[i]);\r\n        }\r\n        return offers;\r\n    }*/\r\n\r\n    function viewVolume() public view returns(uint256) {\r\n        return _volume;\r\n    }\r\n\r\n    function viewItemsSold() public view returns(uint256) {\r\n        return _itemsSold.current();\r\n    }\r\n\r\n    function mint(address account, uint256 id, uint256 amount) public onlyOwner {\r\n        _mint(account, id, amount, \"\");\r\n    }\r\n\r\n    function burn(address account, uint256 id, uint256 amount) public {\r\n        require(msg.sender == account, \"Only NFT onwers can burn!\");\r\n        require(balanceOf(account, id) >= amount, \"You don't have engough NFTs\");\r\n        _burn(account, id, amount);\r\n    }\r\n\r\n    function viewDisabledTokens(address _address, uint256 _tokenId) public view returns(uint256){\r\n        return disabledTokens[_address][_tokenId];\r\n    }\r\n\r\n   /*function _beforeTokenTransfer(\r\n        address operator,\r\n        address from,\r\n        address to,\r\n        uint256[] memory ids,\r\n        uint256[] memory amounts,\r\n        bytes memory data\r\n    ) internal virtual override {\r\n        super._beforeTokenTransfer(operator, from, to, ids, amounts, data); // Call parent hook\r\n        //Checks if tokens are disabled\r\n        if(Ids.lenght == 1) {\r\n        }\r\n    }*/\r\n\r\n}",
  "sourcePath": "C:\\Users\\tijan\\Qsync\\Documents\\PROGRAMIRANJE\\SOLIDITY\\nft-marketplace\\contracts\\TradebleNFT.sol",
  "compiler": {
    "name": "solc",
    "version": "0.8.11+commit.d7f03943.Emscripten.clang"
  },
  "schemaVersion": "3.4.3",
  "updatedAt": "2022-01-19T13:53:48.460Z",
  "networkType": "ethereum",
  "devdoc": {
    "kind": "dev",
    "methods": {
      "balanceOf(address,uint256)": {
        "details": "See {IERC1155-balanceOf}. Requirements: - `account` cannot be the zero address."
      },
      "balanceOfBatch(address[],uint256[])": {
        "details": "See {IERC1155-balanceOfBatch}. Requirements: - `accounts` and `ids` must have the same length."
      },
      "isApprovedForAll(address,address)": {
        "details": "See {IERC1155-isApprovedForAll}."
      },
      "owner()": {
        "details": "Returns the address of the current owner."
      },
      "renounceOwnership()": {
        "details": "Leaves the contract without owner. It will not be possible to call `onlyOwner` functions anymore. Can only be called by the current owner. NOTE: Renouncing ownership will leave the contract without an owner, thereby removing any functionality that is only available to the owner."
      },
      "safeBatchTransferFrom(address,address,uint256[],uint256[],bytes)": {
        "details": "See {IERC1155-safeBatchTransferFrom}."
      },
      "safeTransferFrom(address,address,uint256,uint256,bytes)": {
        "details": "See {IERC1155-safeTransferFrom}."
      },
      "setApprovalForAll(address,bool)": {
        "details": "See {IERC1155-setApprovalForAll}."
      },
      "supportsInterface(bytes4)": {
        "details": "See {IERC165-supportsInterface}."
      },
      "transferOwnership(address)": {
        "details": "Transfers ownership of the contract to a new account (`newOwner`). Can only be called by the current owner."
      },
      "uri(uint256)": {
        "details": "See {IERC1155MetadataURI-uri}. This implementation returns the same URI for *all* token types. It relies on the token type ID substitution mechanism https://eips.ethereum.org/EIPS/eip-1155#metadata[defined in the EIP]. Clients calling this function must replace the `\\{id\\}` substring with the actual token type ID."
      }
    },
    "version": 1
  },
  "userdoc": {
    "kind": "user",
    "methods": {},
    "version": 1
  }
}